{
  "_format": "hh-sol-artifact-1",
  "contractName": "Tellor",
  "sourceName": "contracts/Tellor.sol",
  "abi": [
    {
      "anonymous": false,
      "inputs": [
        {
          "indexed": true,
          "internalType": "address",
          "name": "owner",
          "type": "address"
        },
        {
          "indexed": true,
          "internalType": "address",
          "name": "spender",
          "type": "address"
        },
        {
          "indexed": false,
          "internalType": "uint256",
          "name": "value",
          "type": "uint256"
        }
      ],
      "name": "Approval",
      "type": "event"
    },
    {
      "anonymous": false,
      "inputs": [
        {
          "indexed": true,
          "internalType": "bytes32",
          "name": "_currentChallenge",
          "type": "bytes32"
        },
        {
          "indexed": false,
          "internalType": "uint256[5]",
          "name": "_currentRequestId",
          "type": "uint256[5]"
        },
        {
          "indexed": false,
          "internalType": "uint256",
          "name": "_difficulty",
          "type": "uint256"
        },
        {
          "indexed": false,
          "internalType": "uint256",
          "name": "_totalTips",
          "type": "uint256"
        }
      ],
      "name": "NewChallenge",
      "type": "event"
    },
    {
      "anonymous": false,
      "inputs": [
        {
          "indexed": false,
          "internalType": "uint256[5]",
          "name": "_requestId",
          "type": "uint256[5]"
        },
        {
          "indexed": false,
          "internalType": "uint256",
          "name": "_time",
          "type": "uint256"
        },
        {
          "indexed": false,
          "internalType": "uint256[5]",
          "name": "_value",
          "type": "uint256[5]"
        },
        {
          "indexed": false,
          "internalType": "uint256",
          "name": "_totalTips",
          "type": "uint256"
        },
        {
          "indexed": true,
          "internalType": "bytes32",
          "name": "_currentChallenge",
          "type": "bytes32"
        }
      ],
      "name": "NewValue",
      "type": "event"
    },
    {
      "anonymous": false,
      "inputs": [
        {
          "indexed": true,
          "internalType": "address",
          "name": "_miner",
          "type": "address"
        },
        {
          "indexed": false,
          "internalType": "string",
          "name": "_nonce",
          "type": "string"
        },
        {
          "indexed": false,
          "internalType": "uint256[5]",
          "name": "_requestId",
          "type": "uint256[5]"
        },
        {
          "indexed": false,
          "internalType": "uint256[5]",
          "name": "_value",
          "type": "uint256[5]"
        },
        {
          "indexed": true,
          "internalType": "bytes32",
          "name": "_currentChallenge",
          "type": "bytes32"
        },
        {
          "indexed": false,
          "internalType": "uint256",
          "name": "_slot",
          "type": "uint256"
        }
      ],
      "name": "NonceSubmitted",
      "type": "event"
    },
    {
      "anonymous": false,
      "inputs": [
        {
          "indexed": true,
          "internalType": "address",
          "name": "_sender",
          "type": "address"
        },
        {
          "indexed": true,
          "internalType": "uint256",
          "name": "_requestId",
          "type": "uint256"
        },
        {
          "indexed": false,
          "internalType": "uint256",
          "name": "_tip",
          "type": "uint256"
        },
        {
          "indexed": false,
          "internalType": "uint256",
          "name": "_totalTips",
          "type": "uint256"
        }
      ],
      "name": "TipAdded",
      "type": "event"
    },
    {
      "anonymous": false,
      "inputs": [
        {
          "indexed": true,
          "internalType": "address",
          "name": "from",
          "type": "address"
        },
        {
          "indexed": true,
          "internalType": "address",
          "name": "to",
          "type": "address"
        },
        {
          "indexed": false,
          "internalType": "uint256",
          "name": "value",
          "type": "uint256"
        }
      ],
      "name": "Transfer",
      "type": "event"
    },
    {
      "stateMutability": "payable",
      "type": "fallback"
    },
    {
      "inputs": [
        {
          "internalType": "address",
          "name": "",
          "type": "address"
        },
        {
          "internalType": "address",
          "name": "",
          "type": "address"
        }
      ],
      "name": "_allowances",
      "outputs": [
        {
          "internalType": "uint256",
          "name": "",
          "type": "uint256"
        }
      ],
      "stateMutability": "view",
      "type": "function"
    },
    {
      "inputs": [],
      "name": "_owner",
      "outputs": [
        {
          "internalType": "bytes32",
          "name": "",
          "type": "bytes32"
        }
      ],
      "stateMutability": "view",
      "type": "function"
    },
    {
      "inputs": [],
      "name": "_tBlock",
      "outputs": [
        {
          "internalType": "bytes32",
          "name": "",
          "type": "bytes32"
        }
      ],
      "stateMutability": "view",
      "type": "function"
    },
    {
      "inputs": [
        {
          "internalType": "uint256",
          "name": "_requestId",
          "type": "uint256"
        },
        {
          "internalType": "uint256",
          "name": "_tip",
          "type": "uint256"
        }
      ],
      "name": "addTip",
      "outputs": [],
      "stateMutability": "nonpayable",
      "type": "function"
    },
    {
      "inputs": [
        {
          "internalType": "bytes32",
          "name": "",
          "type": "bytes32"
        }
      ],
      "name": "addresses",
      "outputs": [
        {
          "internalType": "address",
          "name": "",
          "type": "address"
        }
      ],
      "stateMutability": "view",
      "type": "function"
    },
    {
      "inputs": [
        {
          "internalType": "address",
          "name": "_user",
          "type": "address"
        },
        {
          "internalType": "address",
          "name": "_spender",
          "type": "address"
        }
      ],
      "name": "allowance",
      "outputs": [
        {
          "internalType": "uint256",
          "name": "",
          "type": "uint256"
        }
      ],
      "stateMutability": "view",
      "type": "function"
    },
    {
      "inputs": [
        {
          "internalType": "address",
          "name": "_user",
          "type": "address"
        },
        {
          "internalType": "uint256",
          "name": "_amount",
          "type": "uint256"
        }
      ],
      "name": "allowedToTrade",
      "outputs": [
        {
          "internalType": "bool",
          "name": "",
          "type": "bool"
        }
      ],
      "stateMutability": "view",
      "type": "function"
    },
    {
      "inputs": [
        {
          "internalType": "address",
          "name": "_spender",
          "type": "address"
        },
        {
          "internalType": "uint256",
          "name": "_amount",
          "type": "uint256"
        }
      ],
      "name": "approve",
      "outputs": [
        {
          "internalType": "bool",
          "name": "",
          "type": "bool"
        }
      ],
      "stateMutability": "nonpayable",
      "type": "function"
    },
    {
      "inputs": [
        {
          "internalType": "address",
          "name": "_user",
          "type": "address"
        }
      ],
      "name": "balanceOf",
      "outputs": [
        {
          "internalType": "uint256",
          "name": "",
          "type": "uint256"
        }
      ],
      "stateMutability": "view",
      "type": "function"
    },
    {
      "inputs": [
        {
          "internalType": "address",
          "name": "_user",
          "type": "address"
        },
        {
          "internalType": "uint256",
          "name": "_blockNumber",
          "type": "uint256"
        }
      ],
      "name": "balanceOfAt",
      "outputs": [
        {
          "internalType": "uint256",
          "name": "",
          "type": "uint256"
        }
      ],
      "stateMutability": "view",
      "type": "function"
    },
    {
      "inputs": [
        {
          "internalType": "bytes32",
          "name": "",
          "type": "bytes32"
        }
      ],
      "name": "bytesVars",
      "outputs": [
        {
          "internalType": "bytes32",
          "name": "",
          "type": "bytes32"
        }
      ],
      "stateMutability": "view",
      "type": "function"
    },
    {
      "inputs": [],
      "name": "currentChallenge",
      "outputs": [
        {
          "internalType": "bytes32",
          "name": "",
          "type": "bytes32"
        }
      ],
      "stateMutability": "view",
      "type": "function"
    },
    {
      "inputs": [],
      "name": "currentRequestId",
      "outputs": [
        {
          "internalType": "bytes32",
          "name": "",
          "type": "bytes32"
        }
      ],
      "stateMutability": "view",
      "type": "function"
    },
    {
      "inputs": [],
      "name": "currentTotalTips",
      "outputs": [
        {
          "internalType": "bytes32",
          "name": "",
          "type": "bytes32"
        }
      ],
      "stateMutability": "view",
      "type": "function"
    },
    {
      "inputs": [],
      "name": "difficulty",
      "outputs": [
        {
          "internalType": "bytes32",
          "name": "",
          "type": "bytes32"
        }
      ],
      "stateMutability": "view",
      "type": "function"
    },
    {
      "inputs": [],
      "name": "disputeFee",
      "outputs": [
        {
          "internalType": "bytes32",
          "name": "",
          "type": "bytes32"
        }
      ],
      "stateMutability": "view",
      "type": "function"
    },
    {
      "inputs": [],
      "name": "getTopRequestIDs",
      "outputs": [
        {
          "internalType": "uint256[5]",
          "name": "_requestIds",
          "type": "uint256[5]"
        }
      ],
      "stateMutability": "view",
      "type": "function"
    },
    {
      "inputs": [],
      "name": "pending_owner",
      "outputs": [
        {
          "internalType": "bytes32",
          "name": "",
          "type": "bytes32"
        }
      ],
      "stateMutability": "view",
      "type": "function"
    },
    {
      "inputs": [],
      "name": "requestCount",
      "outputs": [
        {
          "internalType": "bytes32",
          "name": "",
          "type": "bytes32"
        }
      ],
      "stateMutability": "view",
      "type": "function"
    },
    {
      "inputs": [],
      "name": "requestQPosition",
      "outputs": [
        {
          "internalType": "bytes32",
          "name": "",
          "type": "bytes32"
        }
      ],
      "stateMutability": "view",
      "type": "function"
    },
    {
      "inputs": [],
      "name": "slotProgress",
      "outputs": [
        {
          "internalType": "bytes32",
          "name": "",
          "type": "bytes32"
        }
      ],
      "stateMutability": "view",
      "type": "function"
    },
    {
      "inputs": [],
      "name": "stakeAmount",
      "outputs": [
        {
          "internalType": "bytes32",
          "name": "",
          "type": "bytes32"
        }
      ],
      "stateMutability": "view",
      "type": "function"
    },
    {
      "inputs": [],
      "name": "stakerCount",
      "outputs": [
        {
          "internalType": "bytes32",
          "name": "",
          "type": "bytes32"
        }
      ],
      "stateMutability": "view",
      "type": "function"
    },
    {
      "inputs": [
        {
          "internalType": "string",
          "name": "_nonce",
          "type": "string"
        },
        {
          "internalType": "uint256[5]",
          "name": "_requestIds",
          "type": "uint256[5]"
        },
        {
          "internalType": "uint256[5]",
          "name": "_values",
          "type": "uint256[5]"
        }
      ],
      "name": "submitMiningSolution",
      "outputs": [],
      "stateMutability": "nonpayable",
      "type": "function"
    },
    {
      "inputs": [],
      "name": "targetMiners",
      "outputs": [
        {
          "internalType": "bytes32",
          "name": "",
          "type": "bytes32"
        }
      ],
      "stateMutability": "view",
      "type": "function"
    },
    {
      "inputs": [],
      "name": "timeOfLastNewValue",
      "outputs": [
        {
          "internalType": "bytes32",
          "name": "",
          "type": "bytes32"
        }
      ],
      "stateMutability": "view",
      "type": "function"
    },
    {
      "inputs": [],
      "name": "timeTarget",
      "outputs": [
        {
          "internalType": "bytes32",
          "name": "",
          "type": "bytes32"
        }
      ],
      "stateMutability": "view",
      "type": "function"
    },
    {
      "inputs": [],
      "name": "totalTip",
      "outputs": [
        {
          "internalType": "bytes32",
          "name": "",
          "type": "bytes32"
        }
      ],
      "stateMutability": "view",
      "type": "function"
    },
    {
      "inputs": [],
      "name": "total_supply",
      "outputs": [
        {
          "internalType": "bytes32",
          "name": "",
          "type": "bytes32"
        }
      ],
      "stateMutability": "view",
      "type": "function"
    },
    {
      "inputs": [
        {
          "internalType": "address",
          "name": "_to",
          "type": "address"
        },
        {
          "internalType": "uint256",
          "name": "_amount",
          "type": "uint256"
        }
      ],
      "name": "transfer",
      "outputs": [
        {
          "internalType": "bool",
          "name": "success",
          "type": "bool"
        }
      ],
      "stateMutability": "nonpayable",
      "type": "function"
    },
    {
      "inputs": [
        {
          "internalType": "address",
          "name": "_from",
          "type": "address"
        },
        {
          "internalType": "address",
          "name": "_to",
          "type": "address"
        },
        {
          "internalType": "uint256",
          "name": "_amount",
          "type": "uint256"
        }
      ],
      "name": "transferFrom",
      "outputs": [
        {
          "internalType": "bool",
          "name": "success",
          "type": "bool"
        }
      ],
      "stateMutability": "nonpayable",
      "type": "function"
    },
    {
      "inputs": [
        {
          "internalType": "bytes32",
          "name": "",
          "type": "bytes32"
        }
      ],
      "name": "uints",
      "outputs": [
        {
          "internalType": "uint256",
          "name": "",
          "type": "uint256"
        }
      ],
      "stateMutability": "view",
      "type": "function"
    },
    {
      "inputs": [
        {
          "internalType": "address",
          "name": "_user",
          "type": "address"
        },
        {
          "internalType": "uint256",
          "name": "_value",
          "type": "uint256"
        }
      ],
      "name": "updateBalanceAtNow",
      "outputs": [],
      "stateMutability": "nonpayable",
      "type": "function"
    },
    {
      "inputs": [
        {
          "internalType": "uint256",
          "name": "_requestId",
          "type": "uint256"
        },
        {
          "internalType": "uint256",
          "name": "_tip",
          "type": "uint256"
        }
      ],
      "name": "updateOnDeck",
      "outputs": [],
      "stateMutability": "nonpayable",
      "type": "function"
    }
  ],
  "bytecode": "0x608060405234801561001057600080fd5b5061470d806100206000396000f3fe6080604052600436106101fd5760003560e01c80636e3cf8851161010d578063a9059cbb116100a0578063d67dcbc51161006f578063d67dcbc514610a91578063dd62ed3e14610aec578063dfee1ff114610b71578063dff6978714610b9c578063fe1cd15d14610bc7576101fe565b8063a9059cbb1461097b578063b2bdfa7b146109ec578063b59e14d414610a17578063b9ce896b14610a66576101fe565b8063752d49a1116100dc578063752d49a11461086f57806375ad1a2a146108b45780637f4ec4c3146108df578063999cf26c1461090a576101fe565b80636e3cf885146107895780636fc37811146107b45780636fd4f229146107df57806370a082311461080a576101fe565b806346e16470116101905780635ae2bfdb1161015f5780635ae2bfdb146106545780635badbe4c1461067f57806360c7dc47146106aa57806362dd1d2a146106d5578063699f200f14610724576101fe565b806346e164701461054a5780634ee2cd7e1461058f57806351bdd585146105fe578063561cb04a14610629576101fe565b806323b872dd116101cc57806323b872dd146103c85780632bf07e9e146104595780633940e9ee146104845780634350283e146104af576101fe565b8063024c2ddd1461027c57806303b3160f14610301578063095ea7b31461032c57806319cae4621461039d576101fe565b5b6000604760007f363c1ee4df63e032778cbd72a9384a4e47c584b4eea56f22e4580fced3369273815260200190815260200160002060009054906101000a900473ffffffffffffffffffffffffffffffffffffffff169050600061026182610c1a565b5090503d6000803e8060008114610277573d6000f35b3d6000fd5b34801561028857600080fd5b506102eb6004803603604081101561029f57600080fd5b81019080803573ffffffffffffffffffffffffffffffffffffffff169060200190929190803573ffffffffffffffffffffffffffffffffffffffff169060200190929190505050610c9b565b6040518082815260200191505060405180910390f35b34801561030d57600080fd5b50610316610cc0565b6040518082815260200191505060405180910390f35b34801561033857600080fd5b506103856004803603604081101561034f57600080fd5b81019080803573ffffffffffffffffffffffffffffffffffffffff16906020019092919080359060200190929190505050610ce7565b60405180821515815260200191505060405180910390f35b3480156103a957600080fd5b506103b2610ee4565b6040518082815260200191505060405180910390f35b3480156103d457600080fd5b50610441600480360360608110156103eb57600080fd5b81019080803573ffffffffffffffffffffffffffffffffffffffff169060200190929190803573ffffffffffffffffffffffffffffffffffffffff16906020019092919080359060200190929190505050610f0b565b60405180821515815260200191505060405180910390f35b34801561046557600080fd5b5061046e61109f565b6040518082815260200191505060405180910390f35b34801561049057600080fd5b506104996110c6565b6040518082815260200191505060405180910390f35b3480156104bb57600080fd5b5061054860048036036101608110156104d357600080fd5b81019080803590602001906401000000008111156104f057600080fd5b82018360208201111561050257600080fd5b8035906020019184600183028401116401000000008311171561052457600080fd5b90919293919293908060a0019091929192908060a0019091929192905050506110ed565b005b34801561055657600080fd5b5061058d6004803603604081101561056d57600080fd5b810190808035906020019092919080359060200190929190505050611323565b005b34801561059b57600080fd5b506105e8600480360360408110156105b257600080fd5b81019080803573ffffffffffffffffffffffffffffffffffffffff169060200190929190803590602001909291905050506116e6565b6040518082815260200191505060405180910390f35b34801561060a57600080fd5b506106136119c3565b6040518082815260200191505060405180910390f35b34801561063557600080fd5b5061063e6119e7565b6040518082815260200191505060405180910390f35b34801561066057600080fd5b50610669611a0e565b6040518082815260200191505060405180910390f35b34801561068b57600080fd5b50610694611a35565b6040518082815260200191505060405180910390f35b3480156106b657600080fd5b506106bf611a5c565b6040518082815260200191505060405180910390f35b3480156106e157600080fd5b5061070e600480360360208110156106f857600080fd5b8101908080359060200190929190505050611a83565b6040518082815260200191505060405180910390f35b34801561073057600080fd5b5061075d6004803603602081101561074757600080fd5b8101908080359060200190929190505050611a9b565b604051808273ffffffffffffffffffffffffffffffffffffffff16815260200191505060405180910390f35b34801561079557600080fd5b5061079e611ace565b6040518082815260200191505060405180910390f35b3480156107c057600080fd5b506107c9611af5565b6040518082815260200191505060405180910390f35b3480156107eb57600080fd5b506107f4611b1c565b6040518082815260200191505060405180910390f35b34801561081657600080fd5b506108596004803603602081101561082d57600080fd5b81019080803573ffffffffffffffffffffffffffffffffffffffff169060200190929190505050611b43565b6040518082815260200191505060405180910390f35b34801561087b57600080fd5b506108b26004803603604081101561089257600080fd5b810190808035906020019092919080359060200190929190505050611b56565b005b3480156108c057600080fd5b506108c9611dfb565b6040518082815260200191505060405180910390f35b3480156108eb57600080fd5b506108f4611e22565b6040518082815260200191505060405180910390f35b34801561091657600080fd5b506109636004803603604081101561092d57600080fd5b81019080803573ffffffffffffffffffffffffffffffffffffffff16906020019092919080359060200190929190505050611e49565b60405180821515815260200191505060405180910390f35b34801561098757600080fd5b506109d46004803603604081101561099e57600080fd5b81019080803573ffffffffffffffffffffffffffffffffffffffff16906020019092919080359060200190929190505050611f52565b60405180821515815260200191505060405180910390f35b3480156109f857600080fd5b50610a01611f69565b6040518082815260200191505060405180910390f35b348015610a2357600080fd5b50610a5060048036036020811015610a3a57600080fd5b8101908080359060200190929190505050611f90565b6040518082815260200191505060405180910390f35b348015610a7257600080fd5b50610a7b611fa8565b6040518082815260200191505060405180910390f35b348015610a9d57600080fd5b50610aea60048036036040811015610ab457600080fd5b81019080803573ffffffffffffffffffffffffffffffffffffffff16906020019092919080359060200190929190505050611fcc565b005b348015610af857600080fd5b50610b5b60048036036040811015610b0f57600080fd5b81019080803573ffffffffffffffffffffffffffffffffffffffff169060200190929190803573ffffffffffffffffffffffffffffffffffffffff1690602001909291905050506121bc565b6040518082815260200191505060405180910390f35b348015610b7d57600080fd5b50610b86612243565b6040518082815260200191505060405180910390f35b348015610ba857600080fd5b50610bb1612267565b6040518082815260200191505060405180910390f35b348015610bd357600080fd5b50610bdc61228b565b6040518082600560200280838360005b83811015610c07578082015181840152602081019050610bec565b5050505090500191505060405180910390f35b600060608273ffffffffffffffffffffffffffffffffffffffff16600036604051808383808284378083019250505092505050600060405180830381855af49150503d8060008114610c88576040519150601f19603f3d011682016040523d82523d6000602084013e610c8d565b606091505b508092508193505050915091565b604a602052816000526040600020602052806000526040600020600091509150505481565b7f6c505cb2db6644f57b42d87bd9407b0f66788b07d0617a2bc1356a0e69e66f9a60001b81565b60008073ffffffffffffffffffffffffffffffffffffffff163373ffffffffffffffffffffffffffffffffffffffff161415610d6e576040517f08c379a000000000000000000000000000000000000000000000000000000000815260040180806020018281038252602481526020018061468f6024913960400191505060405180910390fd5b600073ffffffffffffffffffffffffffffffffffffffff168373ffffffffffffffffffffffffffffffffffffffff161415610df4576040517f08c379a00000000000000000000000000000000000000000000000000000000081526004018080602001828103825260228152602001806146046022913960400191505060405180910390fd5b81604a60003373ffffffffffffffffffffffffffffffffffffffff1673ffffffffffffffffffffffffffffffffffffffff16815260200190815260200160002060008573ffffffffffffffffffffffffffffffffffffffff1673ffffffffffffffffffffffffffffffffffffffff168152602001908152602001600020819055508273ffffffffffffffffffffffffffffffffffffffff163373ffffffffffffffffffffffffffffffffffffffff167f8c5be1e5ebec7d5bd14f71427d1e84f3dd0314c0f7b2291e5b200ac8c7c3b925846040518082815260200191505060405180910390a36001905092915050565b7fb12aff7664b16cb99339be399b863feecd64d14817be7e1f042f97e3f358e64e60001b81565b600081604a60008673ffffffffffffffffffffffffffffffffffffffff1673ffffffffffffffffffffffffffffffffffffffff16815260200190815260200160002060003373ffffffffffffffffffffffffffffffffffffffff1673ffffffffffffffffffffffffffffffffffffffff168152602001908152602001600020541015610fff576040517f08c379a00000000000000000000000000000000000000000000000000000000081526004018080602001828103825260128152602001807f416c6c6f77616e63652069732077726f6e67000000000000000000000000000081525060200191505060405180910390fd5b81604a60008673ffffffffffffffffffffffffffffffffffffffff1673ffffffffffffffffffffffffffffffffffffffff16815260200190815260200160002060003373ffffffffffffffffffffffffffffffffffffffff1673ffffffffffffffffffffffffffffffffffffffff16815260200190815260200160002060008282540392505081905550611094848484612394565b600190509392505050565b7f1e344bd070f05f1c5b3f0b1266f4f20d837a0a8190a3a2da8b0375eac2ba86ea60001b81565b7fb1557182e4359a1f0c6301278e8f5b35a776ab58d39892581e357578fb28783660001b81565b600033604051602001808273ffffffffffffffffffffffffffffffffffffffff168152602001915050604051602081830303815290604052805190602001209050600060466000838152602001908152602001600020541480611166575061038460466000838152602001908152602001600020544203115b6111bb576040517f08c379a000000000000000000000000000000000000000000000000000000000815260040180806020018281038252602a8152602001806145da602a913960400191505060405180910390fd5b6004604660007f6c505cb2db6644f57b42d87bd9407b0f66788b07d0617a2bc1356a0e69e66f9a60001b815260200190815260200160002054146112475761124685858080601f016020809104026020016040519081016040528093929190818152602001838380828437600081840152601f19601f82011690508083019250505050505050612603565b5b42604660008381526020019081526020016000208190555061131c85858080601f016020809104026020016040519081016040528093929190818152602001838380828437600081840152601f19601f82011690508083019250505050505050846005806020026040519081016040528092919082600560200280828437600081840152601f19601f820116905080830192505050505050846005806020026040519081016040528092919082600560200280828437600081840152601f19601f82011690508083019250505050505061291e565b5050505050565b6000604560008481526020019081526020016000209050611385828260010160007f2a9e355a92978430eca9c1aa3a9ba590094bac282594bccf82de16b83046e2c360001b81526020019081526020016000205461345b90919063ffffffff16565b8160010160007f2a9e355a92978430eca9c1aa3a9ba590094bac282594bccf82de16b83046e2c360001b81526020019081526020016000208190555082603a6000600581106113d057fe5b600202016000015414806113f8575082603a6001600581106113ee57fe5b6002020160000154145b80611417575082603a60026005811061140d57fe5b6002020160000154145b80611436575082603a60036005811061142c57fe5b6002020160000154145b80611455575082603a60046005811061144b57fe5b6002020160000154145b156114a35781604660007fd26d9834adf5a73309c4974bf654850bb699df8505e70d4cfde365c417b19dfc60001b8152602001908152602001600020600082825401925050819055506116e1565b60008160010160007f1e344bd070f05f1c5b3f0b1266f4f20d837a0a8190a3a2da8b0375eac2ba86ea60001b815260200190815260200160002054141561168b5760008061152d6000603380602002604051908101604052809291908260338015611523576020028201915b81548152602001906001019080831161150f575b5050505050613477565b8092508193505050818360010160007f2a9e355a92978430eca9c1aa3a9ba590094bac282594bccf82de16b83046e2c360001b815260200190815260200160002054118061157b5750600082145b15611684578260010160007f2a9e355a92978430eca9c1aa3a9ba590094bac282594bccf82de16b83046e2c360001b815260200190815260200160002054600082603381106115c657fe5b01819055506000604560006035600085815260200190815260200160002054815260200190815260200160002060010160007f1e344bd070f05f1c5b3f0b1266f4f20d837a0a8190a3a2da8b0375eac2ba86ea60001b815260200190815260200160002081905550846035600083815260200190815260200160002081905550808360010160007f1e344bd070f05f1c5b3f0b1266f4f20d837a0a8190a3a2da8b0375eac2ba86ea60001b8152602001908152602001600020819055505b50506116e0565b8160008260010160007f1e344bd070f05f1c5b3f0b1266f4f20d837a0a8190a3a2da8b0375eac2ba86ea60001b815260200190815260200160002054603381106116d157fe5b01600082825401925050819055505b5b505050565b600080604960008573ffffffffffffffffffffffffffffffffffffffff1673ffffffffffffffffffffffffffffffffffffffff16815260200190815260200160002090506000818054905014806117845750828160008154811061174657fe5b9060005260206000200160000160009054906101000a90046fffffffffffffffffffffffffffffffff166fffffffffffffffffffffffffffffffff16115b156117935760009150506119bd565b806001828054905003815481106117a657fe5b9060005260206000200160000160009054906101000a90046fffffffffffffffffffffffffffffffff166fffffffffffffffffffffffffffffffff16831061183f57806001828054905003815481106117fb57fe5b9060005260206000200160000160109054906101000a90046fffffffffffffffffffffffffffffffff166fffffffffffffffffffffffffffffffff169150506119bd565b600080600283805490500390505b8181111561196f57600060026001848401018161186657fe5b0490508584828154811061187657fe5b9060005260206000200160000160009054906101000a90046fffffffffffffffffffffffffffffffff166fffffffffffffffffffffffffffffffff16141561190b578381815481106118c457fe5b9060005260206000200160000160109054906101000a90046fffffffffffffffffffffffffffffffff166fffffffffffffffffffffffffffffffff169450505050506119bd565b8584828154811061191857fe5b9060005260206000200160000160009054906101000a90046fffffffffffffffffffffffffffffffff166fffffffffffffffffffffffffffffffff16101561196257809250611969565b6001810391505b5061184d565b82828154811061197b57fe5b9060005260206000200160000160109054906101000a90046fffffffffffffffffffffffffffffffff166fffffffffffffffffffffffffffffffff1693505050505b92915050565b7f3375fb9157bb77048f607329b1c4d45487433f61e0f51bcdeba91d975b2dab1881565b7f2a9e355a92978430eca9c1aa3a9ba590094bac282594bccf82de16b83046e2c360001b81565b7f7584d7d8701714da9c117f5bf30af73b0b88aca5338a84a21eb28de2fe0d93b860001b81565b7f05de9147d05477c0a5dc675aeea733157f5092f82add148cf39d579cafe3dc9860001b81565b7f7be108969d31a3f0b261465c71f2b0ba9301cd914d55d9091c3b36a49d4d41b260001b81565b60486020528060005260406000206000915090505481565b60476020528060005260406000206000915054906101000a900473ffffffffffffffffffffffffffffffffffffffff1681565b7f969ea04b74d02bb4d9e6e8e57236e1b9ca31627139ae9f0e465249932e82450260001b81565b7fad16221efc80aaf1b7e69bd3ecb61ba5ffa539adf129c3b4ffff769c9b5bbc3360001b81565b7f97e6eb29f6a85471f7cc9b57f9e4c3deaf398cfc9798673160d7798baf0b13a460001b81565b6000611b4f82436116e6565b9050919050565b6000821415611bcd576040517f08c379a000000000000000000000000000000000000000000000000000000000815260040180806020018281038252600e8152602001807f526571756573744964206973203000000000000000000000000000000000000081525060200191505060405180910390fd5b6000811415611c44576040517f08c379a000000000000000000000000000000000000000000000000000000000815260040180806020018281038252601c8152602001807f5469702073686f756c642062652067726561746572207468616e20300000000081525060200191505060405180910390fd5b60006001604660007f05de9147d05477c0a5dc675aeea733157f5092f82add148cf39d579cafe3dc9860001b81526020019081526020016000205401905080831415611cca5780604660007f05de9147d05477c0a5dc675aeea733157f5092f82add148cf39d579cafe3dc9860001b815260200190815260200160002081905550611d40565b808310611d3f576040517f08c379a00000000000000000000000000000000000000000000000000000000081526004018080602001828103825260208152602001807f526571756573744964206973206e6f74206c657373207468616e20636f756e7481525060200191505060405180910390fd5b5b611d4b333084612394565b611d558383611323565b823373ffffffffffffffffffffffffffffffffffffffff167fd32134405b68f6f7220f9c38ae310df1b648d16188006768d45be2f7c24e8820846045600088815260200190815260200160002060010160007f2a9e355a92978430eca9c1aa3a9ba590094bac282594bccf82de16b83046e2c360001b815260200190815260200160002054604051808381526020018281526020019250505060405180910390a3505050565b7fd26d9834adf5a73309c4974bf654850bb699df8505e70d4cfde365c417b19dfc60001b81565b7f44b2657a0f8a90ed8e62f4c4cceca06eacaa9b4b25751ae1ebca9280a70abd6860001b81565b600080604460008573ffffffffffffffffffffffffffffffffffffffff1673ffffffffffffffffffffffffffffffffffffffff1681526020019081526020016000206000015414158015611edf57506005604460008573ffffffffffffffffffffffffffffffffffffffff1673ffffffffffffffffffffffffffffffffffffffff16815260200190815260200160002060000154105b15611f3d5781604660007f7be108969d31a3f0b261465c71f2b0ba9301cd914d55d9091c3b36a49d4d41b260001b815260200190815260200160002054611f2585611b43565b0310611f345760019050611f4c565b60009050611f4c565b81611f4784611b43565b101590505b92915050565b6000611f5f338484612394565b6001905092915050565b7f9dbc393ddc18fd27b1d9b1b129059925688d2f2d5818a5ec3ebb750b7c286ea660001b81565b60466020528060005260406000206000915090505481565b7f8b75eb45d88e80f0e4ec77d23936268694c0e7ac2e0c9085c5c6bdfcfbc4923981565b6000604960008473ffffffffffffffffffffffffffffffffffffffff1673ffffffffffffffffffffffffffffffffffffffff16815260200190815260200160002090506000818054905014806120705750438160018380549050038154811061203157fe5b9060005260206000200160000160009054906101000a90046fffffffffffffffffffffffffffffffff166fffffffffffffffffffffffffffffffff1614155b1561215957806040518060400160405280436fffffffffffffffffffffffffffffffff168152602001846fffffffffffffffffffffffffffffffff168152509080600181540180825580915050600190039060005260206000200160009091909190915060008201518160000160006101000a8154816fffffffffffffffffffffffffffffffff02191690836fffffffffffffffffffffffffffffffff16021790555060208201518160000160106101000a8154816fffffffffffffffffffffffffffffffff02191690836fffffffffffffffffffffffffffffffff16021790555050506121b7565b60008160018380549050038154811061216e57fe5b906000526020600020019050828160000160106101000a8154816fffffffffffffffffffffffffffffffff02191690836fffffffffffffffffffffffffffffffff160217905550505b505050565b6000604a60008473ffffffffffffffffffffffffffffffffffffffff1673ffffffffffffffffffffffffffffffffffffffff16815260200190815260200160002060008373ffffffffffffffffffffffffffffffffffffffff1673ffffffffffffffffffffffffffffffffffffffff16815260200190815260200160002054905092915050565b7fabef544d8048318ece54fb2c6385255cd1b06e176525d149a0338a7acca6deb381565b7fedddb9344bfe0dadc78c558b8ffca446679cbffc17be64eb83973fce7bea5f3481565b6122936144b8565b61229b6144b8565b6122a36144b8565b6122e960006033806020026040519081016040528092919082603380156122df576020028201915b8154815260200190600101908083116122cb575b50505050506134ea565b809250819350505060005b600581101561238e57600083826005811061230b57fe5b602002015114612353576035600083836005811061232557fe5b602002015181526020019081526020016000205484826005811061234557fe5b602002018181525050612381565b603a816004036005811061236357fe5b600202016000015484826005811061237757fe5b6020020181815250505b80806001019150506122f4565b50505090565b60008114156123ee576040517f08c379a000000000000000000000000000000000000000000000000000000000815260040180806020018281038252602181526020018061464d6021913960400191505060405180910390fd5b600073ffffffffffffffffffffffffffffffffffffffff168273ffffffffffffffffffffffffffffffffffffffff161415612491576040517f08c379a00000000000000000000000000000000000000000000000000000000081526004018080602001828103825260158152602001807f526563656976657220697320302061646472657373000000000000000000000081525060200191505060405180910390fd5b61249b8382611e49565b6124f0576040517f08c379a00000000000000000000000000000000000000000000000000000000081526004018080602001828103825260278152602001806146266027913960400191505060405180910390fd5b60006124fb84611b43565b905061250984838303611fcc565b61251283611b43565b905080828201101561258c576040517f08c379a00000000000000000000000000000000000000000000000000000000081526004018080602001828103825260118152602001807f4f766572666c6f772068617070656e656400000000000000000000000000000081525060200191505060405180910390fd5b61259883838301611fcc565b8273ffffffffffffffffffffffffffffffffffffffff168473ffffffffffffffffffffffffffffffffffffffff167fddf252ad1be2c89b69c2b068fc378daa952ba7f163c4a11628f55a4df523b3ef846040518082815260200191505060405180910390a350505050565b6000604660007fb12aff7664b16cb99339be399b863feecd64d14817be7e1f042f97e3f358e64e60001b81526020019081526020016000205460026003604860007f3375fb9157bb77048f607329b1c4d45487433f61e0f51bcdeba91d975b2dab188152602001908152602001600020543386604051602001808481526020018373ffffffffffffffffffffffffffffffffffffffff1660601b815260140182805190602001908083835b602083106126d157805182526020820191506020810190506020830392506126ae565b6001836020036101000a038019825116818451168082178552505050505050905001935050505060405160208183030381529060405280519060200120604051602001808281526020019150506040516020818303038152906040526040518082805190602001908083835b60208310612760578051825260208201915060208101905060208303925061273d565b6001836020036101000a038019825116818451168082178552505050505050905001915050602060405180830381855afa1580156127a2573d6000803e3d6000fd5b5050506040515160601b60405160200180826bffffffffffffffffffffffff191681526014019150506040516020818303038152906040526040518082805190602001908083835b6020831061280d57805182526020820191506020810190506020830392506127ea565b6001836020036101000a038019825116818451168082178552505050505050905001915050602060405180830381855afa15801561284f573d6000803e3d6000fd5b5050506040513d602081101561286457600080fd5b810190808051906020019092919050505060001c8161287f57fe5b0614806128c65750610384604660007f97e6eb29f6a85471f7cc9b57f9e4c3deaf398cfc9798673160d7798baf0b13a460001b815260200190815260200160002054420310155b61291b576040517f08c379a00000000000000000000000000000000000000000000000000000000081526004018080602001828103825260258152602001806146b36025913960400191505060405180910390fd5b50565b600033604051602001808273ffffffffffffffffffffffffffffffffffffffff1681526020019150506040516020818303038152906040528051906020012090506001604460003373ffffffffffffffffffffffffffffffffffffffff1673ffffffffffffffffffffffffffffffffffffffff1681526020019081526020016000206000015414612a17576040517f08c379a000000000000000000000000000000000000000000000000000000000815260040180806020018281038252601a8152602001807f4d696e657220737461747573206973206e6f74207374616b657200000000000081525060200191505060405180910390fd5b6103846046600083815260200190815260200160002054420311612a86576040517f08c379a000000000000000000000000000000000000000000000000000000000815260040180806020018281038252602a8152602001806145da602a913960400191505060405180910390fd5b603a600060058110612a9457fe5b600202016000015483600060058110612aa957fe5b602002015114612b21576040517f08c379a00000000000000000000000000000000000000000000000000000000081526004018080602001828103825260138152602001807f526571756573742049442069732077726f6e670000000000000000000000000081525060200191505060405180910390fd5b603a600160058110612b2f57fe5b600202016000015483600160058110612b4457fe5b602002015114612bbc576040517f08c379a00000000000000000000000000000000000000000000000000000000081526004018080602001828103825260138152602001807f526571756573742049442069732077726f6e670000000000000000000000000081525060200191505060405180910390fd5b603a600260058110612bca57fe5b600202016000015483600260058110612bdf57fe5b602002015114612c57576040517f08c379a00000000000000000000000000000000000000000000000000000000081526004018080602001828103825260138152602001807f526571756573742049442069732077726f6e670000000000000000000000000081525060200191505060405180910390fd5b603a600360058110612c6557fe5b600202016000015483600360058110612c7a57fe5b602002015114612cf2576040517f08c379a00000000000000000000000000000000000000000000000000000000081526004018080602001828103825260138152602001807f526571756573742049442069732077726f6e670000000000000000000000000081525060200191505060405180910390fd5b603a600460058110612d0057fe5b600202016000015483600460058110612d1557fe5b602002015114612d8d576040517f08c379a00000000000000000000000000000000000000000000000000000000081526004018080602001828103825260138152602001807f526571756573742049442069732077726f6e670000000000000000000000000081525060200191505060405180910390fd5b4260466000838152602001908152602001600020819055506000604860007f3375fb9157bb77048f607329b1c4d45487433f61e0f51bcdeba91d975b2dab1881526020019081526020016000205490506000604660007f6c505cb2db6644f57b42d87bd9407b0f66788b07d0617a2bc1356a0e69e66f9a60001b8152602001908152602001600020549050600015156039600084815260200190815260200160002060003373ffffffffffffffffffffffffffffffffffffffff1673ffffffffffffffffffffffffffffffffffffffff16815260200190815260200160002060009054906101000a900460ff16151514612ed2576040517f08c379a000000000000000000000000000000000000000000000000000000000815260040180806020018281038252602181526020018061466e6021913960400191505060405180910390fd5b60016039600084815260200190815260200160002060003373ffffffffffffffffffffffffffffffffffffffff1673ffffffffffffffffffffffffffffffffffffffff16815260200190815260200160002060006101000a81548160ff021916908315150217905550600060456000604660007f969ea04b74d02bb4d9e6e8e57236e1b9ca31627139ae9f0e465249932e82450260001b8152602001908152602001600020548152602001908152602001600020905084600060058110612f9557fe5b60200201518160060160008081526020019081526020016000208360058110612fba57fe5b018190555084600160058110612fcc57fe5b6020020151816006016000600181526020019081526020016000208360058110612ff257fe5b01819055508460026005811061300457fe5b602002015181600601600060028152602001908152602001600020836005811061302a57fe5b01819055508460036005811061303c57fe5b602002015181600601600060038152602001908152602001600020836005811061306257fe5b01819055508460046005811061307457fe5b602002015181600601600060048152602001908152602001600020836005811061309a57fe5b01819055503381600501600080815260200190815260200160002083600581106130c057fe5b0160006101000a81548173ffffffffffffffffffffffffffffffffffffffff021916908373ffffffffffffffffffffffffffffffffffffffff1602179055503381600501600060018152602001908152602001600020836005811061312157fe5b0160006101000a81548173ffffffffffffffffffffffffffffffffffffffff021916908373ffffffffffffffffffffffffffffffffffffffff1602179055503381600501600060028152602001908152602001600020836005811061318257fe5b0160006101000a81548173ffffffffffffffffffffffffffffffffffffffff021916908373ffffffffffffffffffffffffffffffffffffffff160217905550338160050160006003815260200190815260200160002083600581106131e357fe5b0160006101000a81548173ffffffffffffffffffffffffffffffffffffffff021916908373ffffffffffffffffffffffffffffffffffffffff1602179055503381600501600060048152602001908152602001600020836005811061324457fe5b0160006101000a81548173ffffffffffffffffffffffffffffffffffffffff021916908373ffffffffffffffffffffffffffffffffffffffff160217905550600460018301141561329857613297613672565b5b60056001830114156132ef576132ae878761379c565b6000604660007f6c505cb2db6644f57b42d87bd9407b0f66788b07d0617a2bc1356a0e69e66f9a60001b815260200190815260200160002081905550613336565b604660007f6c505cb2db6644f57b42d87bd9407b0f66788b07d0617a2bc1356a0e69e66f9a60001b8152602001908152602001600020600081548092919060010191905055505b823373ffffffffffffffffffffffffffffffffffffffff167f9d2e5f03fc65aff196e0f3a8dd924b24099de487e8cffc888921d420ab196e3989898987604051808060200185600560200280838360005b838110156133a2578082015181840152602081019050613387565b5050505090500184600560200280838360005b838110156133d05780820151818401526020810190506133b5565b50505050905001838152602001828103825286818151815260200191508051906020019080838360005b838110156134155780820151818401526020810190506133fa565b50505050905090810190601f1680156134425780820380516001836020036101000a031916815260200191505b509550505050505060405180910390a350505050505050565b60008082840190508381101561346d57fe5b8091505092915050565b6000806001603303905082816033811061348d57fe5b602002015191506000600260330390505b60008111156134e457828482603381106134b457fe5b602002015110156134d6578381603381106134cb57fe5b602002015192508091505b80806001900391505061349e565b50915091565b6134f26144b8565b6134fa6144b8565b60008360016033811061350957fe5b602002015190506000805b600581101561359b5785600182016033811061352c57fe5b602002015185826005811061353d57fe5b6020020181815250506001810184826005811061355657fe5b6020020181815250508285826005811061356c57fe5b6020020151101561358e5784816005811061358357fe5b602002015192508091505b8080600101915050613514565b506000600690505b603381101561366a57828682603381106135b957fe5b6020020151111561365d578581603381106135d057fe5b60200201518583600581106135e157fe5b602002018181525050808483600581106135f757fe5b60200201818152505085816033811061360c57fe5b6020020151925060005b600581101561365b578386826005811061362c57fe5b6020020151101561364e5785816005811061364357fe5b602002015193508092505b8080600101915050613616565b505b80806001019150506135a3565b505050915091565b6000604660007f97e6eb29f6a85471f7cc9b57f9e4c3deaf398cfc9798673160d7798baf0b13a460001b8152602001908152602001600020544203905060006136bd6104b083614245565b90506000604660007fb12aff7664b16cb99339be399b863feecd64d14817be7e1f042f97e3f358e64e60001b8152602001908152602001600020549050610fa082604660007fad16221efc80aaf1b7e69bd3ecb61ba5ffa539adf129c3b4ffff769c9b5bbc3360001b8152602001908152602001600020540382028161373f57fe5b059150600082141561375057600191505b61375d828201600161425e565b604660007fb12aff7664b16cb99339be399b863feecd64d14817be7e1f042f97e3f358e64e60001b815260200190815260200160002081905550505050565b600060456000604660007f969ea04b74d02bb4d9e6e8e57236e1b9ca31627139ae9f0e465249932e82450260001b815260200190815260200160002054815260200190815260200160002090506000604860007f3375fb9157bb77048f607329b1c4d45487433f61e0f51bcdeba91d975b2dab1881526020019081526020016000205490506000604660007f97e6eb29f6a85471f7cc9b57f9e4c3deaf398cfc9798673160d7798baf0b13a460001b8152602001908152602001600020549050600042905080604660007f97e6eb29f6a85471f7cc9b57f9e4c3deaf398cfc9798673160d7798baf0b13a460001b8152602001908152602001600020819055506138a46144b8565b6138ac6144b8565b60005b6005811015613d1f576000600190505b6005811015613b0d57600088600601600084815260200190815260200160002082600581106138ea57fe5b015490506000896005016000858152602001908152602001600020836005811061391057fe5b0160009054906101000a900473ffffffffffffffffffffffffffffffffffffffff16905060008390505b60008111801561396d57508a6006016000868152602001908152602001600020600182036005811061396857fe5b015483105b15613a6e578a6006016000868152602001908152602001600020600182036005811061399557fe5b01548b600601600087815260200190815260200160002082600581106139b757fe5b01819055508a600501600086815260200190815260200160002060018203600581106139df57fe5b0160009054906101000a900473ffffffffffffffffffffffffffffffffffffffff168b60050160008781526020019081526020016000208260058110613a2157fe5b0160006101000a81548173ffffffffffffffffffffffffffffffffffffffff021916908373ffffffffffffffffffffffffffffffffffffffff16021790555080806001900391505061393a565b83811015613afd57828b60060160008781526020019081526020016000208260058110613a9757fe5b0181905550818b60050160008781526020019081526020016000208260058110613abd57fe5b0160006101000a81548173ffffffffffffffffffffffffffffffffffffffff021916908373ffffffffffffffffffffffffffffffffffffffff1602179055505b50505080806001019150506138bf565b506000604560008a8460058110613b2057fe5b602002015181526020019081526020016000209050876006016000838152602001908152602001600020600580602002604051908101604052809291908260058015613b81576020028201915b815481526020019060010190808311613b6d575b5050505050935083600260058110613b9557fe5b60200201518160030160008781526020019081526020016000208190555083600260058110613bc057fe5b6020020151838360058110613bd157fe5b602002018181525050876005016000838152602001908152602001600020816005016000878152602001908152602001600020906005613c129291906144da565b50876006016000838152602001908152602001600020816006016000878152602001908152602001600020906005613c4b929190614517565b508760050160008381526020019081526020016000206000613c6d9190614554565b8760060160008381526020019081526020016000206000613c8e9190614577565b80600001859080600181540180825580915050600190039060005260206000200160009091909190915055438160020160008781526020019081526020016000208190555060008160010160007f2a9e355a92978430eca9c1aa3a9ba590094bac282594bccf82de16b83046e2c360001b8152602001908152602001600020819055505080806001019150506138af565b50847fbeb3b9f46c8d7bb00c873fca10d307538df350866d25f891ffb395147ddbdc45888584604660007fd26d9834adf5a73309c4974bf654850bb699df8505e70d4cfde365c417b19dfc60001b8152602001908152602001600020546040518085600560200280838360005b83811015613da7578082015181840152602081019050613d8c565b5050505090500184815260200183600560200280838360005b83811015613ddb578082015181840152602081019050613dc0565b5050505090500182815260200194505050505060405180910390a26033839080600181540180825580915050600190039060005260206000200160009091909190915055613e2761459a565b6045600089600060058110613e3857fe5b602002015181526020019081526020016000206005016000858152602001908152602001600020600580602002604051908101604052809291908260058015613ecc576020028201915b8160009054906101000a900473ffffffffffffffffffffffffffffffffffffffff1673ffffffffffffffffffffffffffffffffffffffff1681526020019060010190808311613e82575b50505050509050613edd8186614277565b604660007f969ea04b74d02bb4d9e6e8e57236e1b9ca31627139ae9f0e465249932e82450260001b815260200190815260200160002060008154809291906001019190505550613f2b6144b8565b613f3361228b565b905060005b600581101561408257818160058110613f4d57fe5b6020020151603a8260058110613f5f57fe5b600202016000018190555060008060456000858560058110613f7d57fe5b6020020151815260200190815260200160002060010160007f1e344bd070f05f1c5b3f0b1266f4f20d837a0a8190a3a2da8b0375eac2ba86ea60001b81526020019081526020016000205460338110613fd257fe5b018190555060456000838360058110613fe757fe5b6020020151815260200190815260200160002060010160007f2a9e355a92978430eca9c1aa3a9ba590094bac282594bccf82de16b83046e2c360001b815260200190815260200160002054604660007fd26d9834adf5a73309c4974bf654850bb699df8505e70d4cfde365c417b19dfc60001b8152602001908152602001600020600082825401925050819055508080600101915050613f38565b50898760014303406040516020018080602001848152602001838152602001828103825285818151815260200191508051906020019080838360005b838110156140d95780820151818401526020810190506140be565b50505050905090810190601f1680156141065780820380516001836020036101000a031916815260200191505b5094505050505060405160208183030381529060405280519060200120965086604860007f3375fb9157bb77048f607329b1c4d45487433f61e0f51bcdeba91d975b2dab18815260200190815260200160002081905550867f1d85ce10456e29b67de37887496d3f1fcf1b64c79c4d07484038703a9f5c140882604660007fb12aff7664b16cb99339be399b863feecd64d14817be7e1f042f97e3f358e64e60001b815260200190815260200160002054604660007fd26d9834adf5a73309c4974bf654850bb699df8505e70d4cfde365c417b19dfc60001b8152602001908152602001600020546040518084600560200280838360005b838110156142195780820151818401526020810190506141fe565b50505050905001838152602001828152602001935050505060405180910390a250505050505050505050565b60008183106142545781614256565b825b905092915050565b600081831361426d578161426f565b825b905092915050565b600081420390506000670de0b6b3a76400009050600061012c8284028161429a57fe5b0490506000600a604660007fd26d9834adf5a73309c4974bf654850bb699df8505e70d4cfde365c417b19dfc60001b815260200190815260200160002054816142df57fe5b0490506000600283816142ee57fe5b04905061430f308860006005811061430257fe5b6020020151848601612394565b61432d308860016005811061432057fe5b6020020151848601612394565b61434b308860026005811061433e57fe5b6020020151848601612394565b614369308860036005811061435c57fe5b6020020151848601612394565b614387308860046005811061437a57fe5b6020020151848601612394565b6002604660007fd26d9834adf5a73309c4974bf654850bb699df8505e70d4cfde365c417b19dfc60001b815260200190815260200160002054816143c757fe5b0460058402820103604660007fb1557182e4359a1f0c6301278e8f5b35a776ab58d39892581e357578fb28783660001b81526020019081526020016000206000828254019250508190555061447330604760007f9dbc393ddc18fd27b1d9b1b129059925688d2f2d5818a5ec3ebb750b7c286ea660001b815260200190815260200160002060009054906101000a900473ffffffffffffffffffffffffffffffffffffffff1683612394565b6000604660007fd26d9834adf5a73309c4974bf654850bb699df8505e70d4cfde365c417b19dfc60001b81526020019081526020016000208190555050505050505050565b6040518060a00160405280600590602082028036833780820191505090505090565b8260058101928215614506579182015b828111156145055782548255916001019190600101906144ea565b5b50905061451391906145bc565b5090565b8260058101928215614543579182015b82811115614542578254825591600101919060010190614527565b5b50905061455091906145bc565b5090565b506000815560010160008155600101600081556001016000815560010160009055565b506000815560010160008155600101600081556001016000815560010160009055565b6040518060a00160405280600590602082028036833780820191505090505090565b5b808211156145d55760008160009055506001016145bd565b509056fe4d696e65722063616e206f6e6c792077696e2072657761726473206f6e636520706572203135206d696e45524332303a20617070726f766520746f20746865207a65726f206164647265737353686f756c6420686176652073756666696369656e742062616c616e636520746f207472616465547269656420746f2073656e64206e6f6e2d706f73697469766520616d6f756e744d696e657220616c7265616479207375626d6974746564207468652076616c756545524332303a20617070726f76652066726f6d20746865207a65726f2061646472657373496e636f7272656374206e6f6e636520666f722063757272656e74206368616c6c656e6765a264697066735822122040281b20a3d7f4f356ffe00a51732748b8e5c5bc11e29f98afff6792afb3afec64736f6c63430007040033",
  "linkReferences": {},
  "deployedLinkReferences": {}
}