{
  "_format": "hh-sol-artifact-1",
  "contractName": "Tellor",
  "sourceName": "contracts/Tellor.sol",
  "abi": [
    {
      "anonymous": false,
      "inputs": [
        {
          "indexed": true,
          "internalType": "address",
          "name": "owner",
          "type": "address"
        },
        {
          "indexed": true,
          "internalType": "address",
          "name": "spender",
          "type": "address"
        },
        {
          "indexed": false,
          "internalType": "uint256",
          "name": "value",
          "type": "uint256"
        }
      ],
      "name": "Approval",
      "type": "event"
    },
    {
      "anonymous": false,
      "inputs": [
        {
          "indexed": true,
          "internalType": "bytes32",
          "name": "_currentChallenge",
          "type": "bytes32"
        },
        {
          "indexed": false,
          "internalType": "uint256[5]",
          "name": "_currentRequestId",
          "type": "uint256[5]"
        },
        {
          "indexed": false,
          "internalType": "uint256",
          "name": "_difficulty",
          "type": "uint256"
        },
        {
          "indexed": false,
          "internalType": "uint256",
          "name": "_totalTips",
          "type": "uint256"
        }
      ],
      "name": "NewChallenge",
      "type": "event"
    },
    {
      "anonymous": false,
      "inputs": [
        {
          "indexed": false,
          "internalType": "uint256[5]",
          "name": "_requestId",
          "type": "uint256[5]"
        },
        {
          "indexed": false,
          "internalType": "uint256",
          "name": "_time",
          "type": "uint256"
        },
        {
          "indexed": false,
          "internalType": "uint256[5]",
          "name": "_value",
          "type": "uint256[5]"
        },
        {
          "indexed": false,
          "internalType": "uint256",
          "name": "_totalTips",
          "type": "uint256"
        },
        {
          "indexed": true,
          "internalType": "bytes32",
          "name": "_currentChallenge",
          "type": "bytes32"
        }
      ],
      "name": "NewValue",
      "type": "event"
    },
    {
      "anonymous": false,
      "inputs": [
        {
          "indexed": true,
          "internalType": "address",
          "name": "_miner",
          "type": "address"
        },
        {
          "indexed": false,
          "internalType": "string",
          "name": "_nonce",
          "type": "string"
        },
        {
          "indexed": false,
          "internalType": "uint256[5]",
          "name": "_requestId",
          "type": "uint256[5]"
        },
        {
          "indexed": false,
          "internalType": "uint256[5]",
          "name": "_value",
          "type": "uint256[5]"
        },
        {
          "indexed": true,
          "internalType": "bytes32",
          "name": "_currentChallenge",
          "type": "bytes32"
        },
        {
          "indexed": false,
          "internalType": "uint256",
          "name": "_slot",
          "type": "uint256"
        }
      ],
      "name": "NonceSubmitted",
      "type": "event"
    },
    {
      "anonymous": false,
      "inputs": [
        {
          "indexed": true,
          "internalType": "address",
          "name": "_sender",
          "type": "address"
        },
        {
          "indexed": true,
          "internalType": "uint256",
          "name": "_requestId",
          "type": "uint256"
        },
        {
          "indexed": false,
          "internalType": "uint256",
          "name": "_tip",
          "type": "uint256"
        },
        {
          "indexed": false,
          "internalType": "uint256",
          "name": "_totalTips",
          "type": "uint256"
        }
      ],
      "name": "TipAdded",
      "type": "event"
    },
    {
      "anonymous": false,
      "inputs": [
        {
          "indexed": true,
          "internalType": "address",
          "name": "from",
          "type": "address"
        },
        {
          "indexed": true,
          "internalType": "address",
          "name": "to",
          "type": "address"
        },
        {
          "indexed": false,
          "internalType": "uint256",
          "name": "value",
          "type": "uint256"
        }
      ],
      "name": "Transfer",
      "type": "event"
    },
    {
      "stateMutability": "payable",
      "type": "fallback"
    },
    {
      "inputs": [
        {
          "internalType": "address",
          "name": "",
          "type": "address"
        },
        {
          "internalType": "address",
          "name": "",
          "type": "address"
        }
      ],
      "name": "_allowances",
      "outputs": [
        {
          "internalType": "uint256",
          "name": "",
          "type": "uint256"
        }
      ],
      "stateMutability": "view",
      "type": "function"
    },
    {
      "inputs": [],
      "name": "_owner",
      "outputs": [
        {
          "internalType": "bytes32",
          "name": "",
          "type": "bytes32"
        }
      ],
      "stateMutability": "view",
      "type": "function"
    },
    {
      "inputs": [],
      "name": "_tBlock",
      "outputs": [
        {
          "internalType": "bytes32",
          "name": "",
          "type": "bytes32"
        }
      ],
      "stateMutability": "view",
      "type": "function"
    },
    {
      "inputs": [
        {
          "internalType": "uint256",
          "name": "_requestId",
          "type": "uint256"
        },
        {
          "internalType": "uint256",
          "name": "_tip",
          "type": "uint256"
        }
      ],
      "name": "addTip",
      "outputs": [],
      "stateMutability": "nonpayable",
      "type": "function"
    },
    {
      "inputs": [
        {
          "internalType": "bytes32",
          "name": "",
          "type": "bytes32"
        }
      ],
      "name": "addresses",
      "outputs": [
        {
          "internalType": "address",
          "name": "",
          "type": "address"
        }
      ],
      "stateMutability": "view",
      "type": "function"
    },
    {
      "inputs": [
        {
          "internalType": "address",
          "name": "_user",
          "type": "address"
        },
        {
          "internalType": "address",
          "name": "_spender",
          "type": "address"
        }
      ],
      "name": "allowance",
      "outputs": [
        {
          "internalType": "uint256",
          "name": "",
          "type": "uint256"
        }
      ],
      "stateMutability": "view",
      "type": "function"
    },
    {
      "inputs": [
        {
          "internalType": "address",
          "name": "_user",
          "type": "address"
        },
        {
          "internalType": "uint256",
          "name": "_amount",
          "type": "uint256"
        }
      ],
      "name": "allowedToTrade",
      "outputs": [
        {
          "internalType": "bool",
          "name": "",
          "type": "bool"
        }
      ],
      "stateMutability": "view",
      "type": "function"
    },
    {
      "inputs": [
        {
          "internalType": "address",
          "name": "_spender",
          "type": "address"
        },
        {
          "internalType": "uint256",
          "name": "_amount",
          "type": "uint256"
        }
      ],
      "name": "approve",
      "outputs": [
        {
          "internalType": "bool",
          "name": "",
          "type": "bool"
        }
      ],
      "stateMutability": "nonpayable",
      "type": "function"
    },
    {
      "inputs": [
        {
          "internalType": "address",
          "name": "_user",
          "type": "address"
        }
      ],
      "name": "balanceOf",
      "outputs": [
        {
          "internalType": "uint256",
          "name": "",
          "type": "uint256"
        }
      ],
      "stateMutability": "view",
      "type": "function"
    },
    {
      "inputs": [
        {
          "internalType": "address",
          "name": "_user",
          "type": "address"
        },
        {
          "internalType": "uint256",
          "name": "_blockNumber",
          "type": "uint256"
        }
      ],
      "name": "balanceOfAt",
      "outputs": [
        {
          "internalType": "uint256",
          "name": "",
          "type": "uint256"
        }
      ],
      "stateMutability": "view",
      "type": "function"
    },
    {
      "inputs": [
        {
          "internalType": "bytes32",
          "name": "",
          "type": "bytes32"
        }
      ],
      "name": "bytesVars",
      "outputs": [
        {
          "internalType": "bytes32",
          "name": "",
          "type": "bytes32"
        }
      ],
      "stateMutability": "view",
      "type": "function"
    },
    {
      "inputs": [],
      "name": "currentChallenge",
      "outputs": [
        {
          "internalType": "bytes32",
          "name": "",
          "type": "bytes32"
        }
      ],
      "stateMutability": "view",
      "type": "function"
    },
    {
      "inputs": [],
      "name": "currentRequestId",
      "outputs": [
        {
          "internalType": "bytes32",
          "name": "",
          "type": "bytes32"
        }
      ],
      "stateMutability": "view",
      "type": "function"
    },
    {
      "inputs": [],
      "name": "currentTotalTips",
      "outputs": [
        {
          "internalType": "bytes32",
          "name": "",
          "type": "bytes32"
        }
      ],
      "stateMutability": "view",
      "type": "function"
    },
    {
      "inputs": [],
      "name": "difficulty",
      "outputs": [
        {
          "internalType": "bytes32",
          "name": "",
          "type": "bytes32"
        }
      ],
      "stateMutability": "view",
      "type": "function"
    },
    {
      "inputs": [],
      "name": "disputeFee",
      "outputs": [
        {
          "internalType": "bytes32",
          "name": "",
          "type": "bytes32"
        }
      ],
      "stateMutability": "view",
      "type": "function"
    },
    {
      "inputs": [],
      "name": "getTopRequestIDs",
      "outputs": [
        {
          "internalType": "uint256[5]",
          "name": "_requestIds",
          "type": "uint256[5]"
        }
      ],
      "stateMutability": "view",
      "type": "function"
    },
    {
      "inputs": [],
      "name": "pending_owner",
      "outputs": [
        {
          "internalType": "bytes32",
          "name": "",
          "type": "bytes32"
        }
      ],
      "stateMutability": "view",
      "type": "function"
    },
    {
      "inputs": [],
      "name": "requestCount",
      "outputs": [
        {
          "internalType": "bytes32",
          "name": "",
          "type": "bytes32"
        }
      ],
      "stateMutability": "view",
      "type": "function"
    },
    {
      "inputs": [],
      "name": "requestQPosition",
      "outputs": [
        {
          "internalType": "bytes32",
          "name": "",
          "type": "bytes32"
        }
      ],
      "stateMutability": "view",
      "type": "function"
    },
    {
      "inputs": [],
      "name": "slotProgress",
      "outputs": [
        {
          "internalType": "bytes32",
          "name": "",
          "type": "bytes32"
        }
      ],
      "stateMutability": "view",
      "type": "function"
    },
    {
      "inputs": [],
      "name": "stakeAmount",
      "outputs": [
        {
          "internalType": "bytes32",
          "name": "",
          "type": "bytes32"
        }
      ],
      "stateMutability": "view",
      "type": "function"
    },
    {
      "inputs": [],
      "name": "stakerCount",
      "outputs": [
        {
          "internalType": "bytes32",
          "name": "",
          "type": "bytes32"
        }
      ],
      "stateMutability": "view",
      "type": "function"
    },
    {
      "inputs": [
        {
          "internalType": "string",
          "name": "_nonce",
          "type": "string"
        },
        {
          "internalType": "uint256[5]",
          "name": "_requestIds",
          "type": "uint256[5]"
        },
        {
          "internalType": "uint256[5]",
          "name": "_values",
          "type": "uint256[5]"
        }
      ],
      "name": "submitMiningSolution",
      "outputs": [],
      "stateMutability": "nonpayable",
      "type": "function"
    },
    {
      "inputs": [],
      "name": "targetMiners",
      "outputs": [
        {
          "internalType": "bytes32",
          "name": "",
          "type": "bytes32"
        }
      ],
      "stateMutability": "view",
      "type": "function"
    },
    {
      "inputs": [],
      "name": "timeOfLastNewValue",
      "outputs": [
        {
          "internalType": "bytes32",
          "name": "",
          "type": "bytes32"
        }
      ],
      "stateMutability": "view",
      "type": "function"
    },
    {
      "inputs": [],
      "name": "timeTarget",
      "outputs": [
        {
          "internalType": "bytes32",
          "name": "",
          "type": "bytes32"
        }
      ],
      "stateMutability": "view",
      "type": "function"
    },
    {
      "inputs": [],
      "name": "totalTip",
      "outputs": [
        {
          "internalType": "bytes32",
          "name": "",
          "type": "bytes32"
        }
      ],
      "stateMutability": "view",
      "type": "function"
    },
    {
      "inputs": [],
      "name": "total_supply",
      "outputs": [
        {
          "internalType": "bytes32",
          "name": "",
          "type": "bytes32"
        }
      ],
      "stateMutability": "view",
      "type": "function"
    },
    {
      "inputs": [
        {
          "internalType": "address",
          "name": "_to",
          "type": "address"
        },
        {
          "internalType": "uint256",
          "name": "_amount",
          "type": "uint256"
        }
      ],
      "name": "transfer",
      "outputs": [
        {
          "internalType": "bool",
          "name": "success",
          "type": "bool"
        }
      ],
      "stateMutability": "nonpayable",
      "type": "function"
    },
    {
      "inputs": [
        {
          "internalType": "address",
          "name": "_from",
          "type": "address"
        },
        {
          "internalType": "address",
          "name": "_to",
          "type": "address"
        },
        {
          "internalType": "uint256",
          "name": "_amount",
          "type": "uint256"
        }
      ],
      "name": "transferFrom",
      "outputs": [
        {
          "internalType": "bool",
          "name": "success",
          "type": "bool"
        }
      ],
      "stateMutability": "nonpayable",
      "type": "function"
    },
    {
      "inputs": [
        {
          "internalType": "bytes32",
          "name": "",
          "type": "bytes32"
        }
      ],
      "name": "uints",
      "outputs": [
        {
          "internalType": "uint256",
          "name": "",
          "type": "uint256"
        }
      ],
      "stateMutability": "view",
      "type": "function"
    },
    {
      "inputs": [
        {
          "internalType": "address",
          "name": "_user",
          "type": "address"
        },
        {
          "internalType": "uint256",
          "name": "_value",
          "type": "uint256"
        }
      ],
      "name": "updateBalanceAtNow",
      "outputs": [],
      "stateMutability": "nonpayable",
      "type": "function"
    },
    {
      "inputs": [
        {
          "internalType": "uint256",
          "name": "_requestId",
          "type": "uint256"
        },
        {
          "internalType": "uint256",
          "name": "_tip",
          "type": "uint256"
        }
      ],
      "name": "updateOnDeck",
      "outputs": [],
      "stateMutability": "nonpayable",
      "type": "function"
    }
  ],
  "bytecode": "0x608060405234801561001057600080fd5b50614940806100206000396000f3fe6080604052600436106101fd5760003560e01c80636e3cf8851161010d578063a9059cbb116100a0578063d67dcbc51161006f578063d67dcbc514610a91578063dd62ed3e14610aec578063dfee1ff114610b71578063dff6978714610b9c578063fe1cd15d14610bc7576101fe565b8063a9059cbb1461097b578063b2bdfa7b146109ec578063b59e14d414610a17578063b9ce896b14610a66576101fe565b8063752d49a1116100dc578063752d49a11461086f57806375ad1a2a146108b45780637f4ec4c3146108df578063999cf26c1461090a576101fe565b80636e3cf885146107895780636fc37811146107b45780636fd4f229146107df57806370a082311461080a576101fe565b806346e16470116101905780635ae2bfdb1161015f5780635ae2bfdb146106545780635badbe4c1461067f57806360c7dc47146106aa57806362dd1d2a146106d5578063699f200f14610724576101fe565b806346e164701461054a5780634ee2cd7e1461058f57806351bdd585146105fe578063561cb04a14610629576101fe565b806323b872dd116101cc57806323b872dd146103c85780632bf07e9e146104595780633940e9ee146104845780634350283e146104af576101fe565b8063024c2ddd1461027c57806303b3160f14610301578063095ea7b31461032c57806319cae4621461039d576101fe565b5b6000604860007f363c1ee4df63e032778cbd72a9384a4e47c584b4eea56f22e4580fced3369273815260200190815260200160002060009054906101000a900473ffffffffffffffffffffffffffffffffffffffff169050600061026182610c1a565b5090503d6000803e8060008114610277573d6000f35b3d6000fd5b34801561028857600080fd5b506102eb6004803603604081101561029f57600080fd5b81019080803573ffffffffffffffffffffffffffffffffffffffff169060200190929190803573ffffffffffffffffffffffffffffffffffffffff169060200190929190505050610c9b565b6040518082815260200191505060405180910390f35b34801561030d57600080fd5b50610316610cc0565b6040518082815260200191505060405180910390f35b34801561033857600080fd5b506103856004803603604081101561034f57600080fd5b81019080803573ffffffffffffffffffffffffffffffffffffffff16906020019092919080359060200190929190505050610ce7565b60405180821515815260200191505060405180910390f35b3480156103a957600080fd5b506103b2610ee4565b6040518082815260200191505060405180910390f35b3480156103d457600080fd5b50610441600480360360608110156103eb57600080fd5b81019080803573ffffffffffffffffffffffffffffffffffffffff169060200190929190803573ffffffffffffffffffffffffffffffffffffffff16906020019092919080359060200190929190505050610f0b565b60405180821515815260200191505060405180910390f35b34801561046557600080fd5b5061046e61109f565b6040518082815260200191505060405180910390f35b34801561049057600080fd5b506104996110c6565b6040518082815260200191505060405180910390f35b3480156104bb57600080fd5b5061054860048036036101608110156104d357600080fd5b81019080803590602001906401000000008111156104f057600080fd5b82018360208201111561050257600080fd5b8035906020019184600183028401116401000000008311171561052457600080fd5b90919293919293908060a0019091929192908060a0019091929192905050506110ed565b005b34801561055657600080fd5b5061058d6004803603604081101561056d57600080fd5b810190808035906020019092919080359060200190929190505050611305565b005b34801561059b57600080fd5b506105e8600480360360408110156105b257600080fd5b81019080803573ffffffffffffffffffffffffffffffffffffffff16906020019092919080359060200190929190505050611759565b6040518082815260200191505060405180910390f35b34801561060a57600080fd5b50610613611a36565b6040518082815260200191505060405180910390f35b34801561063557600080fd5b5061063e611a5a565b6040518082815260200191505060405180910390f35b34801561066057600080fd5b50610669611a81565b6040518082815260200191505060405180910390f35b34801561068b57600080fd5b50610694611aa8565b6040518082815260200191505060405180910390f35b3480156106b657600080fd5b506106bf611acf565b6040518082815260200191505060405180910390f35b3480156106e157600080fd5b5061070e600480360360208110156106f857600080fd5b8101908080359060200190929190505050611af6565b6040518082815260200191505060405180910390f35b34801561073057600080fd5b5061075d6004803603602081101561074757600080fd5b8101908080359060200190929190505050611b0e565b604051808273ffffffffffffffffffffffffffffffffffffffff16815260200191505060405180910390f35b34801561079557600080fd5b5061079e611b41565b6040518082815260200191505060405180910390f35b3480156107c057600080fd5b506107c9611b68565b6040518082815260200191505060405180910390f35b3480156107eb57600080fd5b506107f4611b8f565b6040518082815260200191505060405180910390f35b34801561081657600080fd5b506108596004803603602081101561082d57600080fd5b81019080803573ffffffffffffffffffffffffffffffffffffffff169060200190929190505050611bb6565b6040518082815260200191505060405180910390f35b34801561087b57600080fd5b506108b26004803603604081101561089257600080fd5b810190808035906020019092919080359060200190929190505050611bc9565b005b3480156108c057600080fd5b506108c9611e6e565b6040518082815260200191505060405180910390f35b3480156108eb57600080fd5b506108f4611e95565b6040518082815260200191505060405180910390f35b34801561091657600080fd5b506109636004803603604081101561092d57600080fd5b81019080803573ffffffffffffffffffffffffffffffffffffffff16906020019092919080359060200190929190505050611ebc565b60405180821515815260200191505060405180910390f35b34801561098757600080fd5b506109d46004803603604081101561099e57600080fd5b81019080803573ffffffffffffffffffffffffffffffffffffffff16906020019092919080359060200190929190505050611fc5565b60405180821515815260200191505060405180910390f35b3480156109f857600080fd5b50610a01611fdc565b6040518082815260200191505060405180910390f35b348015610a2357600080fd5b50610a5060048036036020811015610a3a57600080fd5b8101908080359060200190929190505050612003565b6040518082815260200191505060405180910390f35b348015610a7257600080fd5b50610a7b61201b565b6040518082815260200191505060405180910390f35b348015610a9d57600080fd5b50610aea60048036036040811015610ab457600080fd5b81019080803573ffffffffffffffffffffffffffffffffffffffff1690602001909291908035906020019092919050505061203f565b005b348015610af857600080fd5b50610b5b60048036036040811015610b0f57600080fd5b81019080803573ffffffffffffffffffffffffffffffffffffffff169060200190929190803573ffffffffffffffffffffffffffffffffffffffff16906020019092919050505061222f565b6040518082815260200191505060405180910390f35b348015610b7d57600080fd5b50610b866122b6565b6040518082815260200191505060405180910390f35b348015610ba857600080fd5b50610bb16122da565b6040518082815260200191505060405180910390f35b348015610bd357600080fd5b50610bdc6122fe565b6040518082600560200280838360005b83811015610c07578082015181840152602081019050610bec565b5050505090500191505060405180910390f35b600060608273ffffffffffffffffffffffffffffffffffffffff16600036604051808383808284378083019250505092505050600060405180830381855af49150503d8060008114610c88576040519150601f19603f3d011682016040523d82523d6000602084013e610c8d565b606091505b508092508193505050915091565b604b602052816000526040600020602052806000526040600020600091509150505481565b7f6c505cb2db6644f57b42d87bd9407b0f66788b07d0617a2bc1356a0e69e66f9a60001b81565b60008073ffffffffffffffffffffffffffffffffffffffff163373ffffffffffffffffffffffffffffffffffffffff161415610d6e576040517f08c379a00000000000000000000000000000000000000000000000000000000081526004018080602001828103825260248152602001806148c26024913960400191505060405180910390fd5b600073ffffffffffffffffffffffffffffffffffffffff168373ffffffffffffffffffffffffffffffffffffffff161415610df4576040517f08c379a00000000000000000000000000000000000000000000000000000000081526004018080602001828103825260228152602001806148376022913960400191505060405180910390fd5b81604b60003373ffffffffffffffffffffffffffffffffffffffff1673ffffffffffffffffffffffffffffffffffffffff16815260200190815260200160002060008573ffffffffffffffffffffffffffffffffffffffff1673ffffffffffffffffffffffffffffffffffffffff168152602001908152602001600020819055508273ffffffffffffffffffffffffffffffffffffffff163373ffffffffffffffffffffffffffffffffffffffff167f8c5be1e5ebec7d5bd14f71427d1e84f3dd0314c0f7b2291e5b200ac8c7c3b925846040518082815260200191505060405180910390a36001905092915050565b7fb12aff7664b16cb99339be399b863feecd64d14817be7e1f042f97e3f358e64e60001b81565b600081604b60008673ffffffffffffffffffffffffffffffffffffffff1673ffffffffffffffffffffffffffffffffffffffff16815260200190815260200160002060003373ffffffffffffffffffffffffffffffffffffffff1673ffffffffffffffffffffffffffffffffffffffff168152602001908152602001600020541015610fff576040517f08c379a00000000000000000000000000000000000000000000000000000000081526004018080602001828103825260128152602001807f416c6c6f77616e63652069732077726f6e67000000000000000000000000000081525060200191505060405180910390fd5b81604b60008673ffffffffffffffffffffffffffffffffffffffff1673ffffffffffffffffffffffffffffffffffffffff16815260200190815260200160002060003373ffffffffffffffffffffffffffffffffffffffff1673ffffffffffffffffffffffffffffffffffffffff16815260200190815260200160002060008282540392505081905550611094848484612407565b600190509392505050565b7f1e344bd070f05f1c5b3f0b1266f4f20d837a0a8190a3a2da8b0375eac2ba86ea60001b81565b7fb1557182e4359a1f0c6301278e8f5b35a776ab58d39892581e357578fb28783660001b81565b600033604051602001808273ffffffffffffffffffffffffffffffffffffffff168152602001915050604051602081830303815290604052805190602001209050610384604760008381526020019081526020016000205442031161119d576040517f08c379a000000000000000000000000000000000000000000000000000000000815260040180806020018281038252602a81526020018061480d602a913960400191505060405180910390fd5b6004604760007f6c505cb2db6644f57b42d87bd9407b0f66788b07d0617a2bc1356a0e69e66f9a60001b815260200190815260200160002054146112295761122885858080601f016020809104026020016040519081016040528093929190818152602001838380828437600081840152601f19601f82011690508083019250505050505050612676565b5b4260476000838152602001908152602001600020819055506112fe85858080601f016020809104026020016040519081016040528093929190818152602001838380828437600081840152601f19601f82011690508083019250505050505050846005806020026040519081016040528092919082600560200280828437600081840152601f19601f820116905080830192505050505050846005806020026040519081016040528092919082600560200280828437600081840152601f19601f820116905080830192505050505050612991565b5050505050565b6000604560008481526020019081526020016000209050611367828260010160007f2a9e355a92978430eca9c1aa3a9ba590094bac282594bccf82de16b83046e2c360001b8152602001908152602001600020546134ce90919063ffffffff16565b8160010160007f2a9e355a92978430eca9c1aa3a9ba590094bac282594bccf82de16b83046e2c360001b81526020019081526020016000208190555082603a6000600581106113b257fe5b600202016000015414806113da575082603a6001600581106113d057fe5b6002020160000154145b806113f9575082603a6002600581106113ef57fe5b6002020160000154145b80611418575082603a60036005811061140e57fe5b6002020160000154145b80611437575082603a60046005811061142d57fe5b6002020160000154145b156114855781604760007fd26d9834adf5a73309c4974bf654850bb699df8505e70d4cfde365c417b19dfc60001b815260200190815260200160002060008282540192505081905550611754565b60008160010160007f1e344bd070f05f1c5b3f0b1266f4f20d837a0a8190a3a2da8b0375eac2ba86ea60001b815260200190815260200160002054141561166d5760008061150f6000603380602002604051908101604052809291908260338015611505576020028201915b8154815260200190600101908083116114f1575b50505050506134ea565b8092508193505050818360010160007f2a9e355a92978430eca9c1aa3a9ba590094bac282594bccf82de16b83046e2c360001b815260200190815260200160002054118061155d5750600082145b15611666578260010160007f2a9e355a92978430eca9c1aa3a9ba590094bac282594bccf82de16b83046e2c360001b815260200190815260200160002054600082603381106115a857fe5b01819055506000604560006035600085815260200190815260200160002054815260200190815260200160002060010160007f1e344bd070f05f1c5b3f0b1266f4f20d837a0a8190a3a2da8b0375eac2ba86ea60001b815260200190815260200160002081905550846035600083815260200190815260200160002081905550808360010160007f1e344bd070f05f1c5b3f0b1266f4f20d837a0a8190a3a2da8b0375eac2ba86ea60001b8152602001908152602001600020819055505b5050611753565b6116ab6040518060400160405280600581526020017f2d2d2d2d2d00000000000000000000000000000000000000000000000000000081525061355d565b6116b48261365b565b6116bd8361365b565b6116fe8160010160007f1e344bd070f05f1c5b3f0b1266f4f20d837a0a8190a3a2da8b0375eac2ba86ea60001b81526020019081526020016000205461365b565b8160008260010160007f1e344bd070f05f1c5b3f0b1266f4f20d837a0a8190a3a2da8b0375eac2ba86ea60001b8152602001908152602001600020546033811061174457fe5b01600082825401925050819055505b5b505050565b600080604a60008573ffffffffffffffffffffffffffffffffffffffff1673ffffffffffffffffffffffffffffffffffffffff16815260200190815260200160002090506000818054905014806117f7575082816000815481106117b957fe5b9060005260206000200160000160009054906101000a90046fffffffffffffffffffffffffffffffff166fffffffffffffffffffffffffffffffff16115b15611806576000915050611a30565b8060018280549050038154811061181957fe5b9060005260206000200160000160009054906101000a90046fffffffffffffffffffffffffffffffff166fffffffffffffffffffffffffffffffff1683106118b2578060018280549050038154811061186e57fe5b9060005260206000200160000160109054906101000a90046fffffffffffffffffffffffffffffffff166fffffffffffffffffffffffffffffffff16915050611a30565b600080600283805490500390505b818111156119e25760006002600184840101816118d957fe5b049050858482815481106118e957fe5b9060005260206000200160000160009054906101000a90046fffffffffffffffffffffffffffffffff166fffffffffffffffffffffffffffffffff16141561197e5783818154811061193757fe5b9060005260206000200160000160109054906101000a90046fffffffffffffffffffffffffffffffff166fffffffffffffffffffffffffffffffff16945050505050611a30565b8584828154811061198b57fe5b9060005260206000200160000160009054906101000a90046fffffffffffffffffffffffffffffffff166fffffffffffffffffffffffffffffffff1610156119d5578092506119dc565b6001810391505b506118c0565b8282815481106119ee57fe5b9060005260206000200160000160109054906101000a90046fffffffffffffffffffffffffffffffff166fffffffffffffffffffffffffffffffff1693505050505b92915050565b7f3375fb9157bb77048f607329b1c4d45487433f61e0f51bcdeba91d975b2dab1881565b7f2a9e355a92978430eca9c1aa3a9ba590094bac282594bccf82de16b83046e2c360001b81565b7f7584d7d8701714da9c117f5bf30af73b0b88aca5338a84a21eb28de2fe0d93b860001b81565b7f05de9147d05477c0a5dc675aeea733157f5092f82add148cf39d579cafe3dc9860001b81565b7f7be108969d31a3f0b261465c71f2b0ba9301cd914d55d9091c3b36a49d4d41b260001b81565b60496020528060005260406000206000915090505481565b60486020528060005260406000206000915054906101000a900473ffffffffffffffffffffffffffffffffffffffff1681565b7f969ea04b74d02bb4d9e6e8e57236e1b9ca31627139ae9f0e465249932e82450260001b81565b7fad16221efc80aaf1b7e69bd3ecb61ba5ffa539adf129c3b4ffff769c9b5bbc3360001b81565b7f97e6eb29f6a85471f7cc9b57f9e4c3deaf398cfc9798673160d7798baf0b13a460001b81565b6000611bc28243611759565b9050919050565b6000821415611c40576040517f08c379a000000000000000000000000000000000000000000000000000000000815260040180806020018281038252600e8152602001807f526571756573744964206973203000000000000000000000000000000000000081525060200191505060405180910390fd5b6000811415611cb7576040517f08c379a000000000000000000000000000000000000000000000000000000000815260040180806020018281038252601c8152602001807f5469702073686f756c642062652067726561746572207468616e20300000000081525060200191505060405180910390fd5b60006001604760007f05de9147d05477c0a5dc675aeea733157f5092f82add148cf39d579cafe3dc9860001b81526020019081526020016000205401905080831415611d3d5780604760007f05de9147d05477c0a5dc675aeea733157f5092f82add148cf39d579cafe3dc9860001b815260200190815260200160002081905550611db3565b808310611db2576040517f08c379a00000000000000000000000000000000000000000000000000000000081526004018080602001828103825260208152602001807f526571756573744964206973206e6f74206c657373207468616e20636f756e7481525060200191505060405180910390fd5b5b611dbe333084612407565b611dc88383611305565b823373ffffffffffffffffffffffffffffffffffffffff167fd32134405b68f6f7220f9c38ae310df1b648d16188006768d45be2f7c24e8820846045600088815260200190815260200160002060010160007f2a9e355a92978430eca9c1aa3a9ba590094bac282594bccf82de16b83046e2c360001b815260200190815260200160002054604051808381526020018281526020019250505060405180910390a3505050565b7fd26d9834adf5a73309c4974bf654850bb699df8505e70d4cfde365c417b19dfc60001b81565b7f44b2657a0f8a90ed8e62f4c4cceca06eacaa9b4b25751ae1ebca9280a70abd6860001b81565b600080604460008573ffffffffffffffffffffffffffffffffffffffff1673ffffffffffffffffffffffffffffffffffffffff1681526020019081526020016000206000015414158015611f5257506005604460008573ffffffffffffffffffffffffffffffffffffffff1673ffffffffffffffffffffffffffffffffffffffff16815260200190815260200160002060000154105b15611fb05781604760007f7be108969d31a3f0b261465c71f2b0ba9301cd914d55d9091c3b36a49d4d41b260001b815260200190815260200160002054611f9885611bb6565b0310611fa75760019050611fbf565b60009050611fbf565b81611fba84611bb6565b101590505b92915050565b6000611fd2338484612407565b6001905092915050565b7f9dbc393ddc18fd27b1d9b1b129059925688d2f2d5818a5ec3ebb750b7c286ea660001b81565b60476020528060005260406000206000915090505481565b7f8b75eb45d88e80f0e4ec77d23936268694c0e7ac2e0c9085c5c6bdfcfbc4923981565b6000604a60008473ffffffffffffffffffffffffffffffffffffffff1673ffffffffffffffffffffffffffffffffffffffff16815260200190815260200160002090506000818054905014806120e3575043816001838054905003815481106120a457fe5b9060005260206000200160000160009054906101000a90046fffffffffffffffffffffffffffffffff166fffffffffffffffffffffffffffffffff1614155b156121cc57806040518060400160405280436fffffffffffffffffffffffffffffffff168152602001846fffffffffffffffffffffffffffffffff168152509080600181540180825580915050600190039060005260206000200160009091909190915060008201518160000160006101000a8154816fffffffffffffffffffffffffffffffff02191690836fffffffffffffffffffffffffffffffff16021790555060208201518160000160106101000a8154816fffffffffffffffffffffffffffffffff02191690836fffffffffffffffffffffffffffffffff160217905550505061222a565b6000816001838054905003815481106121e157fe5b906000526020600020019050828160000160106101000a8154816fffffffffffffffffffffffffffffffff02191690836fffffffffffffffffffffffffffffffff160217905550505b505050565b6000604b60008473ffffffffffffffffffffffffffffffffffffffff1673ffffffffffffffffffffffffffffffffffffffff16815260200190815260200160002060008373ffffffffffffffffffffffffffffffffffffffff1673ffffffffffffffffffffffffffffffffffffffff16815260200190815260200160002054905092915050565b7fabef544d8048318ece54fb2c6385255cd1b06e176525d149a0338a7acca6deb381565b7fedddb9344bfe0dadc78c558b8ffca446679cbffc17be64eb83973fce7bea5f3481565b6123066146eb565b61230e6146eb565b6123166146eb565b61235c6000603380602002604051908101604052809291908260338015612352576020028201915b81548152602001906001019080831161233e575b50505050506136f4565b809250819350505060005b600581101561240157600083826005811061237e57fe5b6020020151146123c6576035600083836005811061239857fe5b60200201518152602001908152602001600020548482600581106123b857fe5b6020020181815250506123f4565b603a81600403600581106123d657fe5b60020201600001548482600581106123ea57fe5b6020020181815250505b8080600101915050612367565b50505090565b6000811415612461576040517f08c379a00000000000000000000000000000000000000000000000000000000081526004018080602001828103825260218152602001806148806021913960400191505060405180910390fd5b600073ffffffffffffffffffffffffffffffffffffffff168273ffffffffffffffffffffffffffffffffffffffff161415612504576040517f08c379a00000000000000000000000000000000000000000000000000000000081526004018080602001828103825260158152602001807f526563656976657220697320302061646472657373000000000000000000000081525060200191505060405180910390fd5b61250e8382611ebc565b612563576040517f08c379a00000000000000000000000000000000000000000000000000000000081526004018080602001828103825260278152602001806148596027913960400191505060405180910390fd5b600061256e84611bb6565b905061257c8483830361203f565b61258583611bb6565b90508082820110156125ff576040517f08c379a00000000000000000000000000000000000000000000000000000000081526004018080602001828103825260118152602001807f4f766572666c6f772068617070656e656400000000000000000000000000000081525060200191505060405180910390fd5b61260b8383830161203f565b8273ffffffffffffffffffffffffffffffffffffffff168473ffffffffffffffffffffffffffffffffffffffff167fddf252ad1be2c89b69c2b068fc378daa952ba7f163c4a11628f55a4df523b3ef846040518082815260200191505060405180910390a350505050565b6000604760007fb12aff7664b16cb99339be399b863feecd64d14817be7e1f042f97e3f358e64e60001b81526020019081526020016000205460026003604960007f3375fb9157bb77048f607329b1c4d45487433f61e0f51bcdeba91d975b2dab188152602001908152602001600020543386604051602001808481526020018373ffffffffffffffffffffffffffffffffffffffff1660601b815260140182805190602001908083835b602083106127445780518252602082019150602081019050602083039250612721565b6001836020036101000a038019825116818451168082178552505050505050905001935050505060405160208183030381529060405280519060200120604051602001808281526020019150506040516020818303038152906040526040518082805190602001908083835b602083106127d357805182526020820191506020810190506020830392506127b0565b6001836020036101000a038019825116818451168082178552505050505050905001915050602060405180830381855afa158015612815573d6000803e3d6000fd5b5050506040515160601b60405160200180826bffffffffffffffffffffffff191681526014019150506040516020818303038152906040526040518082805190602001908083835b60208310612880578051825260208201915060208101905060208303925061285d565b6001836020036101000a038019825116818451168082178552505050505050905001915050602060405180830381855afa1580156128c2573d6000803e3d6000fd5b5050506040513d60208110156128d757600080fd5b810190808051906020019092919050505060001c816128f257fe5b0614806129395750610384604760007f97e6eb29f6a85471f7cc9b57f9e4c3deaf398cfc9798673160d7798baf0b13a460001b815260200190815260200160002054420310155b61298e576040517f08c379a00000000000000000000000000000000000000000000000000000000081526004018080602001828103825260258152602001806148e66025913960400191505060405180910390fd5b50565b600033604051602001808273ffffffffffffffffffffffffffffffffffffffff1681526020019150506040516020818303038152906040528051906020012090506001604460003373ffffffffffffffffffffffffffffffffffffffff1673ffffffffffffffffffffffffffffffffffffffff1681526020019081526020016000206000015414612a8a576040517f08c379a000000000000000000000000000000000000000000000000000000000815260040180806020018281038252601a8152602001807f4d696e657220737461747573206973206e6f74207374616b657200000000000081525060200191505060405180910390fd5b6103846047600083815260200190815260200160002054420311612af9576040517f08c379a000000000000000000000000000000000000000000000000000000000815260040180806020018281038252602a81526020018061480d602a913960400191505060405180910390fd5b603a600060058110612b0757fe5b600202016000015483600060058110612b1c57fe5b602002015114612b94576040517f08c379a00000000000000000000000000000000000000000000000000000000081526004018080602001828103825260138152602001807f526571756573742049442069732077726f6e670000000000000000000000000081525060200191505060405180910390fd5b603a600160058110612ba257fe5b600202016000015483600160058110612bb757fe5b602002015114612c2f576040517f08c379a00000000000000000000000000000000000000000000000000000000081526004018080602001828103825260138152602001807f526571756573742049442069732077726f6e670000000000000000000000000081525060200191505060405180910390fd5b603a600260058110612c3d57fe5b600202016000015483600260058110612c5257fe5b602002015114612cca576040517f08c379a00000000000000000000000000000000000000000000000000000000081526004018080602001828103825260138152602001807f526571756573742049442069732077726f6e670000000000000000000000000081525060200191505060405180910390fd5b603a600360058110612cd857fe5b600202016000015483600360058110612ced57fe5b602002015114612d65576040517f08c379a00000000000000000000000000000000000000000000000000000000081526004018080602001828103825260138152602001807f526571756573742049442069732077726f6e670000000000000000000000000081525060200191505060405180910390fd5b603a600460058110612d7357fe5b600202016000015483600460058110612d8857fe5b602002015114612e00576040517f08c379a00000000000000000000000000000000000000000000000000000000081526004018080602001828103825260138152602001807f526571756573742049442069732077726f6e670000000000000000000000000081525060200191505060405180910390fd5b4260476000838152602001908152602001600020819055506000604960007f3375fb9157bb77048f607329b1c4d45487433f61e0f51bcdeba91d975b2dab1881526020019081526020016000205490506000604760007f6c505cb2db6644f57b42d87bd9407b0f66788b07d0617a2bc1356a0e69e66f9a60001b8152602001908152602001600020549050600015156039600084815260200190815260200160002060003373ffffffffffffffffffffffffffffffffffffffff1673ffffffffffffffffffffffffffffffffffffffff16815260200190815260200160002060009054906101000a900460ff16151514612f45576040517f08c379a00000000000000000000000000000000000000000000000000000000081526004018080602001828103825260218152602001806148a16021913960400191505060405180910390fd5b60016039600084815260200190815260200160002060003373ffffffffffffffffffffffffffffffffffffffff1673ffffffffffffffffffffffffffffffffffffffff16815260200190815260200160002060006101000a81548160ff021916908315150217905550600060456000604760007f969ea04b74d02bb4d9e6e8e57236e1b9ca31627139ae9f0e465249932e82450260001b815260200190815260200160002054815260200190815260200160002090508460006005811061300857fe5b6020020151816006016000808152602001908152602001600020836005811061302d57fe5b01819055508460016005811061303f57fe5b602002015181600601600060018152602001908152602001600020836005811061306557fe5b01819055508460026005811061307757fe5b602002015181600601600060028152602001908152602001600020836005811061309d57fe5b0181905550846003600581106130af57fe5b60200201518160060160006003815260200190815260200160002083600581106130d557fe5b0181905550846004600581106130e757fe5b602002015181600601600060048152602001908152602001600020836005811061310d57fe5b018190555033816005016000808152602001908152602001600020836005811061313357fe5b0160006101000a81548173ffffffffffffffffffffffffffffffffffffffff021916908373ffffffffffffffffffffffffffffffffffffffff1602179055503381600501600060018152602001908152602001600020836005811061319457fe5b0160006101000a81548173ffffffffffffffffffffffffffffffffffffffff021916908373ffffffffffffffffffffffffffffffffffffffff160217905550338160050160006002815260200190815260200160002083600581106131f557fe5b0160006101000a81548173ffffffffffffffffffffffffffffffffffffffff021916908373ffffffffffffffffffffffffffffffffffffffff1602179055503381600501600060038152602001908152602001600020836005811061325657fe5b0160006101000a81548173ffffffffffffffffffffffffffffffffffffffff021916908373ffffffffffffffffffffffffffffffffffffffff160217905550338160050160006004815260200190815260200160002083600581106132b757fe5b0160006101000a81548173ffffffffffffffffffffffffffffffffffffffff021916908373ffffffffffffffffffffffffffffffffffffffff160217905550600460018301141561330b5761330a61387c565b5b60056001830114156133625761332187876139a6565b6000604760007f6c505cb2db6644f57b42d87bd9407b0f66788b07d0617a2bc1356a0e69e66f9a60001b8152602001908152602001600020819055506133a9565b604760007f6c505cb2db6644f57b42d87bd9407b0f66788b07d0617a2bc1356a0e69e66f9a60001b8152602001908152602001600020600081548092919060010191905055505b823373ffffffffffffffffffffffffffffffffffffffff167f9d2e5f03fc65aff196e0f3a8dd924b24099de487e8cffc888921d420ab196e3989898987604051808060200185600560200280838360005b838110156134155780820151818401526020810190506133fa565b5050505090500184600560200280838360005b83811015613443578082015181840152602081019050613428565b50505050905001838152602001828103825286818151815260200191508051906020019080838360005b8381101561348857808201518184015260208101905061346d565b50505050905090810190601f1680156134b55780820380516001836020036101000a031916815260200191505b509550505050505060405180910390a350505050505050565b6000808284019050838110156134e057fe5b8091505092915050565b6000806001603303905082816033811061350057fe5b602002015191506000600260330390505b6000811115613557578284826033811061352757fe5b602002015110156135495783816033811061353e57fe5b602002015192508091505b808060019003915050613511565b50915091565b613658816040516024018080602001828103825283818151815260200191508051906020019080838360005b838110156135a4578082015181840152602081019050613589565b50505050905090810190601f1680156135d15780820380516001836020036101000a031916815260200191505b50925050506040516020818303038152906040527f41304fac000000000000000000000000000000000000000000000000000000007bffffffffffffffffffffffffffffffffffffffffffffffffffffffff19166020820180517bffffffffffffffffffffffffffffffffffffffffffffffffffffffff838183161783525050505061444f565b50565b6136f181604051602401808281526020019150506040516020818303038152906040527ff5b1bba9000000000000000000000000000000000000000000000000000000007bffffffffffffffffffffffffffffffffffffffffffffffffffffffff19166020820180517bffffffffffffffffffffffffffffffffffffffffffffffffffffffff838183161783525050505061444f565b50565b6136fc6146eb565b6137046146eb565b60008360016033811061371357fe5b602002015190506000805b60058110156137a55785600182016033811061373657fe5b602002015185826005811061374757fe5b6020020181815250506001810184826005811061376057fe5b6020020181815250508285826005811061377657fe5b602002015110156137985784816005811061378d57fe5b602002015192508091505b808060010191505061371e565b506000600690505b603381101561387457828682603381106137c357fe5b60200201511115613867578581603381106137da57fe5b60200201518583600581106137eb57fe5b6020020181815250508084836005811061380157fe5b60200201818152505085816033811061381657fe5b6020020151925060005b6005811015613865578386826005811061383657fe5b602002015110156138585785816005811061384d57fe5b602002015193508092505b8080600101915050613820565b505b80806001019150506137ad565b505050915091565b6000604760007f97e6eb29f6a85471f7cc9b57f9e4c3deaf398cfc9798673160d7798baf0b13a460001b8152602001908152602001600020544203905060006138c76104b083614478565b90506000604760007fb12aff7664b16cb99339be399b863feecd64d14817be7e1f042f97e3f358e64e60001b8152602001908152602001600020549050610fa082604760007fad16221efc80aaf1b7e69bd3ecb61ba5ffa539adf129c3b4ffff769c9b5bbc3360001b8152602001908152602001600020540382028161394957fe5b059150600082141561395a57600191505b6139678282016001614491565b604760007fb12aff7664b16cb99339be399b863feecd64d14817be7e1f042f97e3f358e64e60001b815260200190815260200160002081905550505050565b600060456000604760007f969ea04b74d02bb4d9e6e8e57236e1b9ca31627139ae9f0e465249932e82450260001b815260200190815260200160002054815260200190815260200160002090506000604960007f3375fb9157bb77048f607329b1c4d45487433f61e0f51bcdeba91d975b2dab1881526020019081526020016000205490506000604760007f97e6eb29f6a85471f7cc9b57f9e4c3deaf398cfc9798673160d7798baf0b13a460001b8152602001908152602001600020549050600042905080604760007f97e6eb29f6a85471f7cc9b57f9e4c3deaf398cfc9798673160d7798baf0b13a460001b815260200190815260200160002081905550613aae6146eb565b613ab66146eb565b60005b6005811015613f29576000600190505b6005811015613d175760008860060160008481526020019081526020016000208260058110613af457fe5b0154905060008960050160008581526020019081526020016000208360058110613b1a57fe5b0160009054906101000a900473ffffffffffffffffffffffffffffffffffffffff16905060008390505b600081118015613b7757508a60060160008681526020019081526020016000206001820360058110613b7257fe5b015483105b15613c78578a60060160008681526020019081526020016000206001820360058110613b9f57fe5b01548b60060160008781526020019081526020016000208260058110613bc157fe5b01819055508a60050160008681526020019081526020016000206001820360058110613be957fe5b0160009054906101000a900473ffffffffffffffffffffffffffffffffffffffff168b60050160008781526020019081526020016000208260058110613c2b57fe5b0160006101000a81548173ffffffffffffffffffffffffffffffffffffffff021916908373ffffffffffffffffffffffffffffffffffffffff160217905550808060019003915050613b44565b83811015613d0757828b60060160008781526020019081526020016000208260058110613ca157fe5b0181905550818b60050160008781526020019081526020016000208260058110613cc757fe5b0160006101000a81548173ffffffffffffffffffffffffffffffffffffffff021916908373ffffffffffffffffffffffffffffffffffffffff1602179055505b5050508080600101915050613ac9565b506000604560008a8460058110613d2a57fe5b602002015181526020019081526020016000209050876006016000838152602001908152602001600020600580602002604051908101604052809291908260058015613d8b576020028201915b815481526020019060010190808311613d77575b5050505050935083600260058110613d9f57fe5b60200201518160030160008781526020019081526020016000208190555083600260058110613dca57fe5b6020020151838360058110613ddb57fe5b602002018181525050876005016000838152602001908152602001600020816005016000878152602001908152602001600020906005613e1c92919061470d565b50876006016000838152602001908152602001600020816006016000878152602001908152602001600020906005613e5592919061474a565b508760050160008381526020019081526020016000206000613e779190614787565b8760060160008381526020019081526020016000206000613e9891906147aa565b80600001859080600181540180825580915050600190039060005260206000200160009091909190915055438160020160008781526020019081526020016000208190555060008160010160007f2a9e355a92978430eca9c1aa3a9ba590094bac282594bccf82de16b83046e2c360001b815260200190815260200160002081905550508080600101915050613ab9565b50847fbeb3b9f46c8d7bb00c873fca10d307538df350866d25f891ffb395147ddbdc45888584604760007fd26d9834adf5a73309c4974bf654850bb699df8505e70d4cfde365c417b19dfc60001b8152602001908152602001600020546040518085600560200280838360005b83811015613fb1578082015181840152602081019050613f96565b5050505090500184815260200183600560200280838360005b83811015613fe5578082015181840152602081019050613fca565b5050505090500182815260200194505050505060405180910390a260338390806001815401808255809150506001900390600052602060002001600090919091909150556140316147cd565b604560008960006005811061404257fe5b6020020151815260200190815260200160002060050160008581526020019081526020016000206005806020026040519081016040528092919082600580156140d6576020028201915b8160009054906101000a900473ffffffffffffffffffffffffffffffffffffffff1673ffffffffffffffffffffffffffffffffffffffff168152602001906001019080831161408c575b505050505090506140e781866144aa565b604760007f969ea04b74d02bb4d9e6e8e57236e1b9ca31627139ae9f0e465249932e82450260001b8152602001908152602001600020600081548092919060010191905055506141356146eb565b61413d6122fe565b905060005b600581101561428c5781816005811061415757fe5b6020020151603a826005811061416957fe5b60020201600001819055506000806045600085856005811061418757fe5b6020020151815260200190815260200160002060010160007f1e344bd070f05f1c5b3f0b1266f4f20d837a0a8190a3a2da8b0375eac2ba86ea60001b815260200190815260200160002054603381106141dc57fe5b0181905550604560008383600581106141f157fe5b6020020151815260200190815260200160002060010160007f2a9e355a92978430eca9c1aa3a9ba590094bac282594bccf82de16b83046e2c360001b815260200190815260200160002054604760007fd26d9834adf5a73309c4974bf654850bb699df8505e70d4cfde365c417b19dfc60001b8152602001908152602001600020600082825401925050819055508080600101915050614142565b50898760014303406040516020018080602001848152602001838152602001828103825285818151815260200191508051906020019080838360005b838110156142e35780820151818401526020810190506142c8565b50505050905090810190601f1680156143105780820380516001836020036101000a031916815260200191505b5094505050505060405160208183030381529060405280519060200120965086604960007f3375fb9157bb77048f607329b1c4d45487433f61e0f51bcdeba91d975b2dab18815260200190815260200160002081905550867f1d85ce10456e29b67de37887496d3f1fcf1b64c79c4d07484038703a9f5c140882604760007fb12aff7664b16cb99339be399b863feecd64d14817be7e1f042f97e3f358e64e60001b815260200190815260200160002054604760007fd26d9834adf5a73309c4974bf654850bb699df8505e70d4cfde365c417b19dfc60001b8152602001908152602001600020546040518084600560200280838360005b83811015614423578082015181840152602081019050614408565b50505050905001838152602001828152602001935050505060405180910390a250505050505050505050565b60008151905060006a636f6e736f6c652e6c6f679050602083016000808483855afa5050505050565b60008183106144875781614489565b825b905092915050565b60008183136144a057816144a2565b825b905092915050565b600081420390506000670de0b6b3a76400009050600061012c828402816144cd57fe5b0490506000600a604760007fd26d9834adf5a73309c4974bf654850bb699df8505e70d4cfde365c417b19dfc60001b8152602001908152602001600020548161451257fe5b04905060006002838161452157fe5b049050614542308860006005811061453557fe5b6020020151848601612407565b614560308860016005811061455357fe5b6020020151848601612407565b61457e308860026005811061457157fe5b6020020151848601612407565b61459c308860036005811061458f57fe5b6020020151848601612407565b6145ba30886004600581106145ad57fe5b6020020151848601612407565b6002604760007fd26d9834adf5a73309c4974bf654850bb699df8505e70d4cfde365c417b19dfc60001b815260200190815260200160002054816145fa57fe5b0460058402820103604760007fb1557182e4359a1f0c6301278e8f5b35a776ab58d39892581e357578fb28783660001b8152602001908152602001600020600082825401925050819055506146a630604860007f9dbc393ddc18fd27b1d9b1b129059925688d2f2d5818a5ec3ebb750b7c286ea660001b815260200190815260200160002060009054906101000a900473ffffffffffffffffffffffffffffffffffffffff1683612407565b6000604760007fd26d9834adf5a73309c4974bf654850bb699df8505e70d4cfde365c417b19dfc60001b81526020019081526020016000208190555050505050505050565b6040518060a00160405280600590602082028036833780820191505090505090565b8260058101928215614739579182015b8281111561473857825482559160010191906001019061471d565b5b50905061474691906147ef565b5090565b8260058101928215614776579182015b8281111561477557825482559160010191906001019061475a565b5b50905061478391906147ef565b5090565b506000815560010160008155600101600081556001016000815560010160009055565b506000815560010160008155600101600081556001016000815560010160009055565b6040518060a00160405280600590602082028036833780820191505090505090565b5b808211156148085760008160009055506001016147f0565b509056fe4d696e65722063616e206f6e6c792077696e2072657761726473206f6e636520706572203135206d696e45524332303a20617070726f766520746f20746865207a65726f206164647265737353686f756c6420686176652073756666696369656e742062616c616e636520746f207472616465547269656420746f2073656e64206e6f6e2d706f73697469766520616d6f756e744d696e657220616c7265616479207375626d6974746564207468652076616c756545524332303a20617070726f76652066726f6d20746865207a65726f2061646472657373496e636f7272656374206e6f6e636520666f722063757272656e74206368616c6c656e6765a2646970667358221220ceda4848190f9b84172f6079284d01367f4e6ce5a8651088fd816f22c2a6c19a64736f6c63430007040033",
  "linkReferences": {},
  "deployedLinkReferences": {}
}