{
  "_format": "hh-sol-artifact-1",
  "contractName": "Tellor",
  "sourceName": "contracts/Tellor.sol",
  "abi": [
    {
      "anonymous": false,
      "inputs": [
        {
          "indexed": true,
          "internalType": "address",
          "name": "owner",
          "type": "address"
        },
        {
          "indexed": true,
          "internalType": "address",
          "name": "spender",
          "type": "address"
        },
        {
          "indexed": false,
          "internalType": "uint256",
          "name": "value",
          "type": "uint256"
        }
      ],
      "name": "Approval",
      "type": "event"
    },
    {
      "anonymous": false,
      "inputs": [
        {
          "indexed": true,
          "internalType": "bytes32",
          "name": "_currentChallenge",
          "type": "bytes32"
        },
        {
          "indexed": false,
          "internalType": "uint256[5]",
          "name": "_currentRequestId",
          "type": "uint256[5]"
        },
        {
          "indexed": false,
          "internalType": "uint256",
          "name": "_difficulty",
          "type": "uint256"
        },
        {
          "indexed": false,
          "internalType": "uint256",
          "name": "_totalTips",
          "type": "uint256"
        }
      ],
      "name": "NewChallenge",
      "type": "event"
    },
    {
      "anonymous": false,
      "inputs": [
        {
          "indexed": false,
          "internalType": "uint256[5]",
          "name": "_requestId",
          "type": "uint256[5]"
        },
        {
          "indexed": false,
          "internalType": "uint256",
          "name": "_time",
          "type": "uint256"
        },
        {
          "indexed": false,
          "internalType": "uint256[5]",
          "name": "_value",
          "type": "uint256[5]"
        },
        {
          "indexed": false,
          "internalType": "uint256",
          "name": "_totalTips",
          "type": "uint256"
        },
        {
          "indexed": true,
          "internalType": "bytes32",
          "name": "_currentChallenge",
          "type": "bytes32"
        }
      ],
      "name": "NewValue",
      "type": "event"
    },
    {
      "anonymous": false,
      "inputs": [
        {
          "indexed": true,
          "internalType": "address",
          "name": "_miner",
          "type": "address"
        },
        {
          "indexed": false,
          "internalType": "string",
          "name": "_nonce",
          "type": "string"
        },
        {
          "indexed": false,
          "internalType": "uint256[5]",
          "name": "_requestId",
          "type": "uint256[5]"
        },
        {
          "indexed": false,
          "internalType": "uint256[5]",
          "name": "_value",
          "type": "uint256[5]"
        },
        {
          "indexed": true,
          "internalType": "bytes32",
          "name": "_currentChallenge",
          "type": "bytes32"
        },
        {
          "indexed": false,
          "internalType": "uint256",
          "name": "_slot",
          "type": "uint256"
        }
      ],
      "name": "NonceSubmitted",
      "type": "event"
    },
    {
      "anonymous": false,
      "inputs": [
        {
          "indexed": true,
          "internalType": "address",
          "name": "_sender",
          "type": "address"
        },
        {
          "indexed": true,
          "internalType": "uint256",
          "name": "_requestId",
          "type": "uint256"
        },
        {
          "indexed": false,
          "internalType": "uint256",
          "name": "_tip",
          "type": "uint256"
        },
        {
          "indexed": false,
          "internalType": "uint256",
          "name": "_totalTips",
          "type": "uint256"
        }
      ],
      "name": "TipAdded",
      "type": "event"
    },
    {
      "anonymous": false,
      "inputs": [
        {
          "indexed": true,
          "internalType": "address",
          "name": "from",
          "type": "address"
        },
        {
          "indexed": true,
          "internalType": "address",
          "name": "to",
          "type": "address"
        },
        {
          "indexed": false,
          "internalType": "uint256",
          "name": "value",
          "type": "uint256"
        }
      ],
      "name": "Transfer",
      "type": "event"
    },
    {
      "stateMutability": "payable",
      "type": "fallback"
    },
    {
      "inputs": [
        {
          "internalType": "address",
          "name": "",
          "type": "address"
        },
        {
          "internalType": "address",
          "name": "",
          "type": "address"
        }
      ],
      "name": "_allowances",
      "outputs": [
        {
          "internalType": "uint256",
          "name": "",
          "type": "uint256"
        }
      ],
      "stateMutability": "view",
      "type": "function"
    },
    {
      "inputs": [],
      "name": "_owner",
      "outputs": [
        {
          "internalType": "bytes32",
          "name": "",
          "type": "bytes32"
        }
      ],
      "stateMutability": "view",
      "type": "function"
    },
    {
      "inputs": [],
      "name": "_tBlock",
      "outputs": [
        {
          "internalType": "bytes32",
          "name": "",
          "type": "bytes32"
        }
      ],
      "stateMutability": "view",
      "type": "function"
    },
    {
      "inputs": [
        {
          "internalType": "uint256",
          "name": "_requestId",
          "type": "uint256"
        },
        {
          "internalType": "uint256",
          "name": "_tip",
          "type": "uint256"
        }
      ],
      "name": "addTip",
      "outputs": [],
      "stateMutability": "nonpayable",
      "type": "function"
    },
    {
      "inputs": [
        {
          "internalType": "bytes32",
          "name": "",
          "type": "bytes32"
        }
      ],
      "name": "addresses",
      "outputs": [
        {
          "internalType": "address",
          "name": "",
          "type": "address"
        }
      ],
      "stateMutability": "view",
      "type": "function"
    },
    {
      "inputs": [
        {
          "internalType": "address",
          "name": "_user",
          "type": "address"
        },
        {
          "internalType": "address",
          "name": "_spender",
          "type": "address"
        }
      ],
      "name": "allowance",
      "outputs": [
        {
          "internalType": "uint256",
          "name": "",
          "type": "uint256"
        }
      ],
      "stateMutability": "view",
      "type": "function"
    },
    {
      "inputs": [
        {
          "internalType": "address",
          "name": "_user",
          "type": "address"
        },
        {
          "internalType": "uint256",
          "name": "_amount",
          "type": "uint256"
        }
      ],
      "name": "allowedToTrade",
      "outputs": [
        {
          "internalType": "bool",
          "name": "",
          "type": "bool"
        }
      ],
      "stateMutability": "view",
      "type": "function"
    },
    {
      "inputs": [
        {
          "internalType": "address",
          "name": "_spender",
          "type": "address"
        },
        {
          "internalType": "uint256",
          "name": "_amount",
          "type": "uint256"
        }
      ],
      "name": "approve",
      "outputs": [
        {
          "internalType": "bool",
          "name": "",
          "type": "bool"
        }
      ],
      "stateMutability": "nonpayable",
      "type": "function"
    },
    {
      "inputs": [
        {
          "internalType": "address",
          "name": "_user",
          "type": "address"
        }
      ],
      "name": "balanceOf",
      "outputs": [
        {
          "internalType": "uint256",
          "name": "",
          "type": "uint256"
        }
      ],
      "stateMutability": "view",
      "type": "function"
    },
    {
      "inputs": [
        {
          "internalType": "address",
          "name": "_user",
          "type": "address"
        },
        {
          "internalType": "uint256",
          "name": "_blockNumber",
          "type": "uint256"
        }
      ],
      "name": "balanceOfAt",
      "outputs": [
        {
          "internalType": "uint256",
          "name": "",
          "type": "uint256"
        }
      ],
      "stateMutability": "view",
      "type": "function"
    },
    {
      "inputs": [
        {
          "internalType": "bytes32",
          "name": "",
          "type": "bytes32"
        }
      ],
      "name": "bytesVars",
      "outputs": [
        {
          "internalType": "bytes32",
          "name": "",
          "type": "bytes32"
        }
      ],
      "stateMutability": "view",
      "type": "function"
    },
    {
      "inputs": [],
      "name": "currentChallenge",
      "outputs": [
        {
          "internalType": "bytes32",
          "name": "",
          "type": "bytes32"
        }
      ],
      "stateMutability": "view",
      "type": "function"
    },
    {
      "inputs": [],
      "name": "currentRequestId",
      "outputs": [
        {
          "internalType": "bytes32",
          "name": "",
          "type": "bytes32"
        }
      ],
      "stateMutability": "view",
      "type": "function"
    },
    {
      "inputs": [],
      "name": "currentTotalTips",
      "outputs": [
        {
          "internalType": "bytes32",
          "name": "",
          "type": "bytes32"
        }
      ],
      "stateMutability": "view",
      "type": "function"
    },
    {
      "inputs": [],
      "name": "difficulty",
      "outputs": [
        {
          "internalType": "bytes32",
          "name": "",
          "type": "bytes32"
        }
      ],
      "stateMutability": "view",
      "type": "function"
    },
    {
      "inputs": [],
      "name": "disputeFee",
      "outputs": [
        {
          "internalType": "bytes32",
          "name": "",
          "type": "bytes32"
        }
      ],
      "stateMutability": "view",
      "type": "function"
    },
    {
      "inputs": [],
      "name": "pending_owner",
      "outputs": [
        {
          "internalType": "bytes32",
          "name": "",
          "type": "bytes32"
        }
      ],
      "stateMutability": "view",
      "type": "function"
    },
    {
      "inputs": [],
      "name": "requestCount",
      "outputs": [
        {
          "internalType": "bytes32",
          "name": "",
          "type": "bytes32"
        }
      ],
      "stateMutability": "view",
      "type": "function"
    },
    {
      "inputs": [],
      "name": "requestQPosition",
      "outputs": [
        {
          "internalType": "bytes32",
          "name": "",
          "type": "bytes32"
        }
      ],
      "stateMutability": "view",
      "type": "function"
    },
    {
      "inputs": [],
      "name": "slotProgress",
      "outputs": [
        {
          "internalType": "bytes32",
          "name": "",
          "type": "bytes32"
        }
      ],
      "stateMutability": "view",
      "type": "function"
    },
    {
      "inputs": [],
      "name": "stakeAmount",
      "outputs": [
        {
          "internalType": "bytes32",
          "name": "",
          "type": "bytes32"
        }
      ],
      "stateMutability": "view",
      "type": "function"
    },
    {
      "inputs": [],
      "name": "stakerCount",
      "outputs": [
        {
          "internalType": "bytes32",
          "name": "",
          "type": "bytes32"
        }
      ],
      "stateMutability": "view",
      "type": "function"
    },
    {
      "inputs": [
        {
          "internalType": "string",
          "name": "_nonce",
          "type": "string"
        },
        {
          "internalType": "uint256[5]",
          "name": "_requestIds",
          "type": "uint256[5]"
        },
        {
          "internalType": "uint256[5]",
          "name": "_values",
          "type": "uint256[5]"
        }
      ],
      "name": "submitMiningSolution",
      "outputs": [],
      "stateMutability": "nonpayable",
      "type": "function"
    },
    {
      "inputs": [],
      "name": "targetMiners",
      "outputs": [
        {
          "internalType": "bytes32",
          "name": "",
          "type": "bytes32"
        }
      ],
      "stateMutability": "view",
      "type": "function"
    },
    {
      "inputs": [],
      "name": "timeOfLastNewValue",
      "outputs": [
        {
          "internalType": "bytes32",
          "name": "",
          "type": "bytes32"
        }
      ],
      "stateMutability": "view",
      "type": "function"
    },
    {
      "inputs": [],
      "name": "timeTarget",
      "outputs": [
        {
          "internalType": "bytes32",
          "name": "",
          "type": "bytes32"
        }
      ],
      "stateMutability": "view",
      "type": "function"
    },
    {
      "inputs": [],
      "name": "totalTip",
      "outputs": [
        {
          "internalType": "bytes32",
          "name": "",
          "type": "bytes32"
        }
      ],
      "stateMutability": "view",
      "type": "function"
    },
    {
      "inputs": [],
      "name": "total_supply",
      "outputs": [
        {
          "internalType": "bytes32",
          "name": "",
          "type": "bytes32"
        }
      ],
      "stateMutability": "view",
      "type": "function"
    },
    {
      "inputs": [
        {
          "internalType": "address",
          "name": "_to",
          "type": "address"
        },
        {
          "internalType": "uint256",
          "name": "_amount",
          "type": "uint256"
        }
      ],
      "name": "transfer",
      "outputs": [
        {
          "internalType": "bool",
          "name": "success",
          "type": "bool"
        }
      ],
      "stateMutability": "nonpayable",
      "type": "function"
    },
    {
      "inputs": [
        {
          "internalType": "address",
          "name": "_from",
          "type": "address"
        },
        {
          "internalType": "address",
          "name": "_to",
          "type": "address"
        },
        {
          "internalType": "uint256",
          "name": "_amount",
          "type": "uint256"
        }
      ],
      "name": "transferFrom",
      "outputs": [
        {
          "internalType": "bool",
          "name": "success",
          "type": "bool"
        }
      ],
      "stateMutability": "nonpayable",
      "type": "function"
    },
    {
      "inputs": [
        {
          "internalType": "bytes32",
          "name": "",
          "type": "bytes32"
        }
      ],
      "name": "uints",
      "outputs": [
        {
          "internalType": "uint256",
          "name": "",
          "type": "uint256"
        }
      ],
      "stateMutability": "view",
      "type": "function"
    },
    {
      "inputs": [
        {
          "internalType": "address",
          "name": "_user",
          "type": "address"
        },
        {
          "internalType": "uint256",
          "name": "_value",
          "type": "uint256"
        }
      ],
      "name": "updateBalanceAtNow",
      "outputs": [],
      "stateMutability": "nonpayable",
      "type": "function"
    }
  ],
  "bytecode": "0x608060405234801561001057600080fd5b506148bf806100206000396000f3fe6080604052600436106101e75760003560e01c80636e3cf88511610102578063a9059cbb11610095578063d67dcbc511610064578063d67dcbc514610a36578063dd62ed3e14610a91578063dfee1ff114610b16578063dff6978714610b41576101e8565b8063a9059cbb14610920578063b2bdfa7b14610991578063b59e14d4146109bc578063b9ce896b14610a0b576101e8565b8063752d49a1116100d1578063752d49a11461081457806375ad1a2a146108595780637f4ec4c314610884578063999cf26c146108af576101e8565b80636e3cf8851461072e5780636fc37811146107595780636fd4f2291461078457806370a08231146107af576101e8565b80634ee2cd7e1161017a5780635badbe4c116101495780635badbe4c1461062457806360c7dc471461064f57806362dd1d2a1461067a578063699f200f146106c9576101e8565b80634ee2cd7e1461053457806351bdd585146105a3578063561cb04a146105ce5780635ae2bfdb146105f9576101e8565b806323b872dd116101b657806323b872dd146103b25780632bf07e9e146104435780633940e9ee1461046e5780634350283e14610499576101e8565b8063024c2ddd1461026657806303b3160f146102eb578063095ea7b31461031657806319cae46214610387576101e8565b5b6000604760007f363c1ee4df63e032778cbd72a9384a4e47c584b4eea56f22e4580fced3369273815260200190815260200160002060009054906101000a900473ffffffffffffffffffffffffffffffffffffffff169050600061024b82610b6c565b5090503d6000803e8060008114610261573d6000f35b3d6000fd5b34801561027257600080fd5b506102d56004803603604081101561028957600080fd5b81019080803573ffffffffffffffffffffffffffffffffffffffff169060200190929190803573ffffffffffffffffffffffffffffffffffffffff169060200190929190505050610bed565b6040518082815260200191505060405180910390f35b3480156102f757600080fd5b50610300610c12565b6040518082815260200191505060405180910390f35b34801561032257600080fd5b5061036f6004803603604081101561033957600080fd5b81019080803573ffffffffffffffffffffffffffffffffffffffff16906020019092919080359060200190929190505050610c39565b60405180821515815260200191505060405180910390f35b34801561039357600080fd5b5061039c610e36565b6040518082815260200191505060405180910390f35b3480156103be57600080fd5b5061042b600480360360608110156103d557600080fd5b81019080803573ffffffffffffffffffffffffffffffffffffffff169060200190929190803573ffffffffffffffffffffffffffffffffffffffff16906020019092919080359060200190929190505050610e5d565b60405180821515815260200191505060405180910390f35b34801561044f57600080fd5b50610458610ff1565b6040518082815260200191505060405180910390f35b34801561047a57600080fd5b50610483611018565b6040518082815260200191505060405180910390f35b3480156104a557600080fd5b5061053260048036036101608110156104bd57600080fd5b81019080803590602001906401000000008111156104da57600080fd5b8201836020820111156104ec57600080fd5b8035906020019184600183028401116401000000008311171561050e57600080fd5b90919293919293908060a0019091929192908060a00190919291929050505061103f565b005b34801561054057600080fd5b5061058d6004803603604081101561055757600080fd5b81019080803573ffffffffffffffffffffffffffffffffffffffff16906020019092919080359060200190929190505050611275565b6040518082815260200191505060405180910390f35b3480156105af57600080fd5b506105b8611552565b6040518082815260200191505060405180910390f35b3480156105da57600080fd5b506105e3611576565b6040518082815260200191505060405180910390f35b34801561060557600080fd5b5061060e61159d565b6040518082815260200191505060405180910390f35b34801561063057600080fd5b506106396115c4565b6040518082815260200191505060405180910390f35b34801561065b57600080fd5b506106646115eb565b6040518082815260200191505060405180910390f35b34801561068657600080fd5b506106b36004803603602081101561069d57600080fd5b8101908080359060200190929190505050611612565b6040518082815260200191505060405180910390f35b3480156106d557600080fd5b50610702600480360360208110156106ec57600080fd5b810190808035906020019092919050505061162a565b604051808273ffffffffffffffffffffffffffffffffffffffff16815260200191505060405180910390f35b34801561073a57600080fd5b5061074361165d565b6040518082815260200191505060405180910390f35b34801561076557600080fd5b5061076e611684565b6040518082815260200191505060405180910390f35b34801561079057600080fd5b506107996116ab565b6040518082815260200191505060405180910390f35b3480156107bb57600080fd5b506107fe600480360360208110156107d257600080fd5b81019080803573ffffffffffffffffffffffffffffffffffffffff1690602001909291905050506116d2565b6040518082815260200191505060405180910390f35b34801561082057600080fd5b506108576004803603604081101561083757600080fd5b8101908080359060200190929190803590602001909291905050506116e5565b005b34801561086557600080fd5b5061086e61198a565b6040518082815260200191505060405180910390f35b34801561089057600080fd5b506108996119b1565b6040518082815260200191505060405180910390f35b3480156108bb57600080fd5b50610908600480360360408110156108d257600080fd5b81019080803573ffffffffffffffffffffffffffffffffffffffff169060200190929190803590602001909291905050506119d8565b60405180821515815260200191505060405180910390f35b34801561092c57600080fd5b506109796004803603604081101561094357600080fd5b81019080803573ffffffffffffffffffffffffffffffffffffffff16906020019092919080359060200190929190505050611ae1565b60405180821515815260200191505060405180910390f35b34801561099d57600080fd5b506109a6611af8565b6040518082815260200191505060405180910390f35b3480156109c857600080fd5b506109f5600480360360208110156109df57600080fd5b8101908080359060200190929190505050611b1f565b6040518082815260200191505060405180910390f35b348015610a1757600080fd5b50610a20611b37565b6040518082815260200191505060405180910390f35b348015610a4257600080fd5b50610a8f60048036036040811015610a5957600080fd5b81019080803573ffffffffffffffffffffffffffffffffffffffff16906020019092919080359060200190929190505050611b5b565b005b348015610a9d57600080fd5b50610b0060048036036040811015610ab457600080fd5b81019080803573ffffffffffffffffffffffffffffffffffffffff169060200190929190803573ffffffffffffffffffffffffffffffffffffffff169060200190929190505050611d4b565b6040518082815260200191505060405180910390f35b348015610b2257600080fd5b50610b2b611dd2565b6040518082815260200191505060405180910390f35b348015610b4d57600080fd5b50610b56611df6565b6040518082815260200191505060405180910390f35b600060608273ffffffffffffffffffffffffffffffffffffffff16600036604051808383808284378083019250505092505050600060405180830381855af49150503d8060008114610bda576040519150601f19603f3d011682016040523d82523d6000602084013e610bdf565b606091505b508092508193505050915091565b604a602052816000526040600020602052806000526040600020600091509150505481565b7f6c505cb2db6644f57b42d87bd9407b0f66788b07d0617a2bc1356a0e69e66f9a60001b81565b60008073ffffffffffffffffffffffffffffffffffffffff163373ffffffffffffffffffffffffffffffffffffffff161415610cc0576040517f08c379a00000000000000000000000000000000000000000000000000000000081526004018080602001828103825260248152602001806148416024913960400191505060405180910390fd5b600073ffffffffffffffffffffffffffffffffffffffff168373ffffffffffffffffffffffffffffffffffffffff161415610d46576040517f08c379a00000000000000000000000000000000000000000000000000000000081526004018080602001828103825260228152602001806147b66022913960400191505060405180910390fd5b81604a60003373ffffffffffffffffffffffffffffffffffffffff1673ffffffffffffffffffffffffffffffffffffffff16815260200190815260200160002060008573ffffffffffffffffffffffffffffffffffffffff1673ffffffffffffffffffffffffffffffffffffffff168152602001908152602001600020819055508273ffffffffffffffffffffffffffffffffffffffff163373ffffffffffffffffffffffffffffffffffffffff167f8c5be1e5ebec7d5bd14f71427d1e84f3dd0314c0f7b2291e5b200ac8c7c3b925846040518082815260200191505060405180910390a36001905092915050565b7fb12aff7664b16cb99339be399b863feecd64d14817be7e1f042f97e3f358e64e60001b81565b600081604a60008673ffffffffffffffffffffffffffffffffffffffff1673ffffffffffffffffffffffffffffffffffffffff16815260200190815260200160002060003373ffffffffffffffffffffffffffffffffffffffff1673ffffffffffffffffffffffffffffffffffffffff168152602001908152602001600020541015610f51576040517f08c379a00000000000000000000000000000000000000000000000000000000081526004018080602001828103825260128152602001807f416c6c6f77616e63652069732077726f6e67000000000000000000000000000081525060200191505060405180910390fd5b81604a60008673ffffffffffffffffffffffffffffffffffffffff1673ffffffffffffffffffffffffffffffffffffffff16815260200190815260200160002060003373ffffffffffffffffffffffffffffffffffffffff1673ffffffffffffffffffffffffffffffffffffffff16815260200190815260200160002060008282540392505081905550610fe6848484611e1a565b600190509392505050565b7f1e344bd070f05f1c5b3f0b1266f4f20d837a0a8190a3a2da8b0375eac2ba86ea60001b81565b7fb1557182e4359a1f0c6301278e8f5b35a776ab58d39892581e357578fb28783660001b81565b600033604051602001808273ffffffffffffffffffffffffffffffffffffffff1681526020019150506040516020818303038152906040528051906020012090506000604660008381526020019081526020016000205414806110b8575061038460466000838152602001908152602001600020544203115b61110d576040517f08c379a000000000000000000000000000000000000000000000000000000000815260040180806020018281038252602a81526020018061478c602a913960400191505060405180910390fd5b6004604660007f6c505cb2db6644f57b42d87bd9407b0f66788b07d0617a2bc1356a0e69e66f9a60001b815260200190815260200160002054146111995761119885858080601f016020809104026020016040519081016040528093929190818152602001838380828437600081840152601f19601f82011690508083019250505050505050612089565b5b42604660008381526020019081526020016000208190555061126e85858080601f016020809104026020016040519081016040528093929190818152602001838380828437600081840152601f19601f82011690508083019250505050505050846005806020026040519081016040528092919082600560200280828437600081840152601f19601f820116905080830192505050505050846005806020026040519081016040528092919082600560200280828437600081840152601f19601f8201169050808301925050505050506123a4565b5050505050565b600080604960008573ffffffffffffffffffffffffffffffffffffffff1673ffffffffffffffffffffffffffffffffffffffff1681526020019081526020016000209050600081805490501480611313575082816000815481106112d557fe5b9060005260206000200160000160009054906101000a90046fffffffffffffffffffffffffffffffff166fffffffffffffffffffffffffffffffff16115b1561132257600091505061154c565b8060018280549050038154811061133557fe5b9060005260206000200160000160009054906101000a90046fffffffffffffffffffffffffffffffff166fffffffffffffffffffffffffffffffff1683106113ce578060018280549050038154811061138a57fe5b9060005260206000200160000160109054906101000a90046fffffffffffffffffffffffffffffffff166fffffffffffffffffffffffffffffffff1691505061154c565b600080600283805490500390505b818111156114fe5760006002600184840101816113f557fe5b0490508584828154811061140557fe5b9060005260206000200160000160009054906101000a90046fffffffffffffffffffffffffffffffff166fffffffffffffffffffffffffffffffff16141561149a5783818154811061145357fe5b9060005260206000200160000160109054906101000a90046fffffffffffffffffffffffffffffffff166fffffffffffffffffffffffffffffffff1694505050505061154c565b858482815481106114a757fe5b9060005260206000200160000160009054906101000a90046fffffffffffffffffffffffffffffffff166fffffffffffffffffffffffffffffffff1610156114f1578092506114f8565b6001810391505b506113dc565b82828154811061150a57fe5b9060005260206000200160000160109054906101000a90046fffffffffffffffffffffffffffffffff166fffffffffffffffffffffffffffffffff1693505050505b92915050565b7f3375fb9157bb77048f607329b1c4d45487433f61e0f51bcdeba91d975b2dab1881565b7f2a9e355a92978430eca9c1aa3a9ba590094bac282594bccf82de16b83046e2c360001b81565b7f7584d7d8701714da9c117f5bf30af73b0b88aca5338a84a21eb28de2fe0d93b860001b81565b7f05de9147d05477c0a5dc675aeea733157f5092f82add148cf39d579cafe3dc9860001b81565b7f7be108969d31a3f0b261465c71f2b0ba9301cd914d55d9091c3b36a49d4d41b260001b81565b60486020528060005260406000206000915090505481565b60476020528060005260406000206000915054906101000a900473ffffffffffffffffffffffffffffffffffffffff1681565b7f969ea04b74d02bb4d9e6e8e57236e1b9ca31627139ae9f0e465249932e82450260001b81565b7fad16221efc80aaf1b7e69bd3ecb61ba5ffa539adf129c3b4ffff769c9b5bbc3360001b81565b7f97e6eb29f6a85471f7cc9b57f9e4c3deaf398cfc9798673160d7798baf0b13a460001b81565b60006116de8243611275565b9050919050565b600082141561175c576040517f08c379a000000000000000000000000000000000000000000000000000000000815260040180806020018281038252600e8152602001807f526571756573744964206973203000000000000000000000000000000000000081525060200191505060405180910390fd5b60008114156117d3576040517f08c379a000000000000000000000000000000000000000000000000000000000815260040180806020018281038252601c8152602001807f5469702073686f756c642062652067726561746572207468616e20300000000081525060200191505060405180910390fd5b60006001604660007f05de9147d05477c0a5dc675aeea733157f5092f82add148cf39d579cafe3dc9860001b815260200190815260200160002054019050808314156118595780604660007f05de9147d05477c0a5dc675aeea733157f5092f82add148cf39d579cafe3dc9860001b8152602001908152602001600020819055506118cf565b8083106118ce576040517f08c379a00000000000000000000000000000000000000000000000000000000081526004018080602001828103825260208152602001807f526571756573744964206973206e6f74206c657373207468616e20636f756e7481525060200191505060405180910390fd5b5b6118da333084611e1a565b6118e48383612ee1565b823373ffffffffffffffffffffffffffffffffffffffff167fd32134405b68f6f7220f9c38ae310df1b648d16188006768d45be2f7c24e8820846045600088815260200190815260200160002060010160007f2a9e355a92978430eca9c1aa3a9ba590094bac282594bccf82de16b83046e2c360001b815260200190815260200160002054604051808381526020018281526020019250505060405180910390a3505050565b7fd26d9834adf5a73309c4974bf654850bb699df8505e70d4cfde365c417b19dfc60001b81565b7f44b2657a0f8a90ed8e62f4c4cceca06eacaa9b4b25751ae1ebca9280a70abd6860001b81565b600080604460008573ffffffffffffffffffffffffffffffffffffffff1673ffffffffffffffffffffffffffffffffffffffff1681526020019081526020016000206000015414158015611a6e57506005604460008573ffffffffffffffffffffffffffffffffffffffff1673ffffffffffffffffffffffffffffffffffffffff16815260200190815260200160002060000154105b15611acc5781604660007f7be108969d31a3f0b261465c71f2b0ba9301cd914d55d9091c3b36a49d4d41b260001b815260200190815260200160002054611ab4856116d2565b0310611ac35760019050611adb565b60009050611adb565b81611ad6846116d2565b101590505b92915050565b6000611aee338484611e1a565b6001905092915050565b7f9dbc393ddc18fd27b1d9b1b129059925688d2f2d5818a5ec3ebb750b7c286ea660001b81565b60466020528060005260406000206000915090505481565b7f8b75eb45d88e80f0e4ec77d23936268694c0e7ac2e0c9085c5c6bdfcfbc4923981565b6000604960008473ffffffffffffffffffffffffffffffffffffffff1673ffffffffffffffffffffffffffffffffffffffff1681526020019081526020016000209050600081805490501480611bff57504381600183805490500381548110611bc057fe5b9060005260206000200160000160009054906101000a90046fffffffffffffffffffffffffffffffff166fffffffffffffffffffffffffffffffff1614155b15611ce857806040518060400160405280436fffffffffffffffffffffffffffffffff168152602001846fffffffffffffffffffffffffffffffff168152509080600181540180825580915050600190039060005260206000200160009091909190915060008201518160000160006101000a8154816fffffffffffffffffffffffffffffffff02191690836fffffffffffffffffffffffffffffffff16021790555060208201518160000160106101000a8154816fffffffffffffffffffffffffffffffff02191690836fffffffffffffffffffffffffffffffff1602179055505050611d46565b600081600183805490500381548110611cfd57fe5b906000526020600020019050828160000160106101000a8154816fffffffffffffffffffffffffffffffff02191690836fffffffffffffffffffffffffffffffff160217905550505b505050565b6000604a60008473ffffffffffffffffffffffffffffffffffffffff1673ffffffffffffffffffffffffffffffffffffffff16815260200190815260200160002060008373ffffffffffffffffffffffffffffffffffffffff1673ffffffffffffffffffffffffffffffffffffffff16815260200190815260200160002054905092915050565b7fabef544d8048318ece54fb2c6385255cd1b06e176525d149a0338a7acca6deb381565b7fedddb9344bfe0dadc78c558b8ffca446679cbffc17be64eb83973fce7bea5f3481565b6000811415611e74576040517f08c379a00000000000000000000000000000000000000000000000000000000081526004018080602001828103825260218152602001806147ff6021913960400191505060405180910390fd5b600073ffffffffffffffffffffffffffffffffffffffff168273ffffffffffffffffffffffffffffffffffffffff161415611f17576040517f08c379a00000000000000000000000000000000000000000000000000000000081526004018080602001828103825260158152602001807f526563656976657220697320302061646472657373000000000000000000000081525060200191505060405180910390fd5b611f2183826119d8565b611f76576040517f08c379a00000000000000000000000000000000000000000000000000000000081526004018080602001828103825260278152602001806147d86027913960400191505060405180910390fd5b6000611f81846116d2565b9050611f8f84838303611b5b565b611f98836116d2565b9050808282011015612012576040517f08c379a00000000000000000000000000000000000000000000000000000000081526004018080602001828103825260118152602001807f4f766572666c6f772068617070656e656400000000000000000000000000000081525060200191505060405180910390fd5b61201e83838301611b5b565b8273ffffffffffffffffffffffffffffffffffffffff168473ffffffffffffffffffffffffffffffffffffffff167fddf252ad1be2c89b69c2b068fc378daa952ba7f163c4a11628f55a4df523b3ef846040518082815260200191505060405180910390a350505050565b6000604660007fb12aff7664b16cb99339be399b863feecd64d14817be7e1f042f97e3f358e64e60001b81526020019081526020016000205460026003604860007f3375fb9157bb77048f607329b1c4d45487433f61e0f51bcdeba91d975b2dab188152602001908152602001600020543386604051602001808481526020018373ffffffffffffffffffffffffffffffffffffffff1660601b815260140182805190602001908083835b602083106121575780518252602082019150602081019050602083039250612134565b6001836020036101000a038019825116818451168082178552505050505050905001935050505060405160208183030381529060405280519060200120604051602001808281526020019150506040516020818303038152906040526040518082805190602001908083835b602083106121e657805182526020820191506020810190506020830392506121c3565b6001836020036101000a038019825116818451168082178552505050505050905001915050602060405180830381855afa158015612228573d6000803e3d6000fd5b5050506040515160601b60405160200180826bffffffffffffffffffffffff191681526014019150506040516020818303038152906040526040518082805190602001908083835b602083106122935780518252602082019150602081019050602083039250612270565b6001836020036101000a038019825116818451168082178552505050505050905001915050602060405180830381855afa1580156122d5573d6000803e3d6000fd5b5050506040513d60208110156122ea57600080fd5b810190808051906020019092919050505060001c8161230557fe5b06148061234c5750610384604660007f97e6eb29f6a85471f7cc9b57f9e4c3deaf398cfc9798673160d7798baf0b13a460001b815260200190815260200160002054420310155b6123a1576040517f08c379a00000000000000000000000000000000000000000000000000000000081526004018080602001828103825260258152602001806148656025913960400191505060405180910390fd5b50565b600033604051602001808273ffffffffffffffffffffffffffffffffffffffff1681526020019150506040516020818303038152906040528051906020012090506001604460003373ffffffffffffffffffffffffffffffffffffffff1673ffffffffffffffffffffffffffffffffffffffff168152602001908152602001600020600001541461249d576040517f08c379a000000000000000000000000000000000000000000000000000000000815260040180806020018281038252601a8152602001807f4d696e657220737461747573206973206e6f74207374616b657200000000000081525060200191505060405180910390fd5b610384604660008381526020019081526020016000205442031161250c576040517f08c379a000000000000000000000000000000000000000000000000000000000815260040180806020018281038252602a81526020018061478c602a913960400191505060405180910390fd5b603a60006005811061251a57fe5b60020201600001548360006005811061252f57fe5b6020020151146125a7576040517f08c379a00000000000000000000000000000000000000000000000000000000081526004018080602001828103825260138152602001807f526571756573742049442069732077726f6e670000000000000000000000000081525060200191505060405180910390fd5b603a6001600581106125b557fe5b6002020160000154836001600581106125ca57fe5b602002015114612642576040517f08c379a00000000000000000000000000000000000000000000000000000000081526004018080602001828103825260138152602001807f526571756573742049442069732077726f6e670000000000000000000000000081525060200191505060405180910390fd5b603a60026005811061265057fe5b60020201600001548360026005811061266557fe5b6020020151146126dd576040517f08c379a00000000000000000000000000000000000000000000000000000000081526004018080602001828103825260138152602001807f526571756573742049442069732077726f6e670000000000000000000000000081525060200191505060405180910390fd5b603a6003600581106126eb57fe5b60020201600001548360036005811061270057fe5b602002015114612778576040517f08c379a00000000000000000000000000000000000000000000000000000000081526004018080602001828103825260138152602001807f526571756573742049442069732077726f6e670000000000000000000000000081525060200191505060405180910390fd5b603a60046005811061278657fe5b60020201600001548360046005811061279b57fe5b602002015114612813576040517f08c379a00000000000000000000000000000000000000000000000000000000081526004018080602001828103825260138152602001807f526571756573742049442069732077726f6e670000000000000000000000000081525060200191505060405180910390fd5b4260466000838152602001908152602001600020819055506000604860007f3375fb9157bb77048f607329b1c4d45487433f61e0f51bcdeba91d975b2dab1881526020019081526020016000205490506000604660007f6c505cb2db6644f57b42d87bd9407b0f66788b07d0617a2bc1356a0e69e66f9a60001b8152602001908152602001600020549050600015156039600084815260200190815260200160002060003373ffffffffffffffffffffffffffffffffffffffff1673ffffffffffffffffffffffffffffffffffffffff16815260200190815260200160002060009054906101000a900460ff16151514612958576040517f08c379a00000000000000000000000000000000000000000000000000000000081526004018080602001828103825260218152602001806148206021913960400191505060405180910390fd5b60016039600084815260200190815260200160002060003373ffffffffffffffffffffffffffffffffffffffff1673ffffffffffffffffffffffffffffffffffffffff16815260200190815260200160002060006101000a81548160ff021916908315150217905550600060456000604660007f969ea04b74d02bb4d9e6e8e57236e1b9ca31627139ae9f0e465249932e82450260001b8152602001908152602001600020548152602001908152602001600020905084600060058110612a1b57fe5b60200201518160060160008081526020019081526020016000208360058110612a4057fe5b018190555084600160058110612a5257fe5b6020020151816006016000600181526020019081526020016000208360058110612a7857fe5b018190555084600260058110612a8a57fe5b6020020151816006016000600281526020019081526020016000208360058110612ab057fe5b018190555084600360058110612ac257fe5b6020020151816006016000600381526020019081526020016000208360058110612ae857fe5b018190555084600460058110612afa57fe5b6020020151816006016000600481526020019081526020016000208360058110612b2057fe5b0181905550338160050160008081526020019081526020016000208360058110612b4657fe5b0160006101000a81548173ffffffffffffffffffffffffffffffffffffffff021916908373ffffffffffffffffffffffffffffffffffffffff16021790555033816005016000600181526020019081526020016000208360058110612ba757fe5b0160006101000a81548173ffffffffffffffffffffffffffffffffffffffff021916908373ffffffffffffffffffffffffffffffffffffffff16021790555033816005016000600281526020019081526020016000208360058110612c0857fe5b0160006101000a81548173ffffffffffffffffffffffffffffffffffffffff021916908373ffffffffffffffffffffffffffffffffffffffff16021790555033816005016000600381526020019081526020016000208360058110612c6957fe5b0160006101000a81548173ffffffffffffffffffffffffffffffffffffffff021916908373ffffffffffffffffffffffffffffffffffffffff16021790555033816005016000600481526020019081526020016000208360058110612cca57fe5b0160006101000a81548173ffffffffffffffffffffffffffffffffffffffff021916908373ffffffffffffffffffffffffffffffffffffffff1602179055506004600183011415612d1e57612d1d6132a4565b5b6005600183011415612d7557612d3487876133ce565b6000604660007f6c505cb2db6644f57b42d87bd9407b0f66788b07d0617a2bc1356a0e69e66f9a60001b815260200190815260200160002081905550612dbc565b604660007f6c505cb2db6644f57b42d87bd9407b0f66788b07d0617a2bc1356a0e69e66f9a60001b8152602001908152602001600020600081548092919060010191905055505b823373ffffffffffffffffffffffffffffffffffffffff167f9d2e5f03fc65aff196e0f3a8dd924b24099de487e8cffc888921d420ab196e3989898987604051808060200185600560200280838360005b83811015612e28578082015181840152602081019050612e0d565b5050505090500184600560200280838360005b83811015612e56578082015181840152602081019050612e3b565b50505050905001838152602001828103825286818151815260200191508051906020019080838360005b83811015612e9b578082015181840152602081019050612e80565b50505050905090810190601f168015612ec85780820380516001836020036101000a031916815260200191505b509550505050505060405180910390a350505050505050565b6000604560008481526020019081526020016000209050612f43828260010160007f2a9e355a92978430eca9c1aa3a9ba590094bac282594bccf82de16b83046e2c360001b815260200190815260200160002054613e7790919063ffffffff16565b8160010160007f2a9e355a92978430eca9c1aa3a9ba590094bac282594bccf82de16b83046e2c360001b81526020019081526020016000208190555082603a600060058110612f8e57fe5b60020201600001541480612fb6575082603a600160058110612fac57fe5b6002020160000154145b80612fd5575082603a600260058110612fcb57fe5b6002020160000154145b80612ff4575082603a600360058110612fea57fe5b6002020160000154145b80613013575082603a60046005811061300957fe5b6002020160000154145b156130615781604660007fd26d9834adf5a73309c4974bf654850bb699df8505e70d4cfde365c417b19dfc60001b81526020019081526020016000206000828254019250508190555061329f565b60008160010160007f1e344bd070f05f1c5b3f0b1266f4f20d837a0a8190a3a2da8b0375eac2ba86ea60001b8152602001908152602001600020541415613249576000806130eb60006033806020026040519081016040528092919082603380156130e1576020028201915b8154815260200190600101908083116130cd575b5050505050613e93565b8092508193505050818360010160007f2a9e355a92978430eca9c1aa3a9ba590094bac282594bccf82de16b83046e2c360001b81526020019081526020016000205411806131395750600082145b15613242578260010160007f2a9e355a92978430eca9c1aa3a9ba590094bac282594bccf82de16b83046e2c360001b8152602001908152602001600020546000826033811061318457fe5b01819055506000604560006035600085815260200190815260200160002054815260200190815260200160002060010160007f1e344bd070f05f1c5b3f0b1266f4f20d837a0a8190a3a2da8b0375eac2ba86ea60001b815260200190815260200160002081905550846035600083815260200190815260200160002081905550808360010160007f1e344bd070f05f1c5b3f0b1266f4f20d837a0a8190a3a2da8b0375eac2ba86ea60001b8152602001908152602001600020819055505b505061329e565b8160008260010160007f1e344bd070f05f1c5b3f0b1266f4f20d837a0a8190a3a2da8b0375eac2ba86ea60001b8152602001908152602001600020546033811061328f57fe5b01600082825401925050819055505b5b505050565b6000604660007f97e6eb29f6a85471f7cc9b57f9e4c3deaf398cfc9798673160d7798baf0b13a460001b8152602001908152602001600020544203905060006132ef6104b083613f06565b90506000604660007fb12aff7664b16cb99339be399b863feecd64d14817be7e1f042f97e3f358e64e60001b8152602001908152602001600020549050610fa082604660007fad16221efc80aaf1b7e69bd3ecb61ba5ffa539adf129c3b4ffff769c9b5bbc3360001b8152602001908152602001600020540382028161337157fe5b059150600082141561338257600191505b61338f8282016001613f1f565b604660007fb12aff7664b16cb99339be399b863feecd64d14817be7e1f042f97e3f358e64e60001b815260200190815260200160002081905550505050565b600060456000604660007f969ea04b74d02bb4d9e6e8e57236e1b9ca31627139ae9f0e465249932e82450260001b815260200190815260200160002054815260200190815260200160002090506000604860007f3375fb9157bb77048f607329b1c4d45487433f61e0f51bcdeba91d975b2dab1881526020019081526020016000205490506000604660007f97e6eb29f6a85471f7cc9b57f9e4c3deaf398cfc9798673160d7798baf0b13a460001b8152602001908152602001600020549050600042905080604660007f97e6eb29f6a85471f7cc9b57f9e4c3deaf398cfc9798673160d7798baf0b13a460001b8152602001908152602001600020819055506134d661466a565b6134de61466a565b60005b6005811015613951576000600190505b600581101561373f576000886006016000848152602001908152602001600020826005811061351c57fe5b015490506000896005016000858152602001908152602001600020836005811061354257fe5b0160009054906101000a900473ffffffffffffffffffffffffffffffffffffffff16905060008390505b60008111801561359f57508a6006016000868152602001908152602001600020600182036005811061359a57fe5b015483105b156136a0578a600601600086815260200190815260200160002060018203600581106135c757fe5b01548b600601600087815260200190815260200160002082600581106135e957fe5b01819055508a6005016000868152602001908152602001600020600182036005811061361157fe5b0160009054906101000a900473ffffffffffffffffffffffffffffffffffffffff168b6005016000878152602001908152602001600020826005811061365357fe5b0160006101000a81548173ffffffffffffffffffffffffffffffffffffffff021916908373ffffffffffffffffffffffffffffffffffffffff16021790555080806001900391505061356c565b8381101561372f57828b600601600087815260200190815260200160002082600581106136c957fe5b0181905550818b600501600087815260200190815260200160002082600581106136ef57fe5b0160006101000a81548173ffffffffffffffffffffffffffffffffffffffff021916908373ffffffffffffffffffffffffffffffffffffffff1602179055505b50505080806001019150506134f1565b506000604560008a846005811061375257fe5b6020020151815260200190815260200160002090508760060160008381526020019081526020016000206005806020026040519081016040528092919082600580156137b3576020028201915b81548152602001906001019080831161379f575b50505050509350836002600581106137c757fe5b602002015181600301600087815260200190815260200160002081905550836002600581106137f257fe5b602002015183836005811061380357fe5b60200201818152505087600501600083815260200190815260200160002081600501600087815260200190815260200160002090600561384492919061468c565b5087600601600083815260200190815260200160002081600601600087815260200190815260200160002090600561387d9291906146c9565b50876005016000838152602001908152602001600020600061389f9190614706565b87600601600083815260200190815260200160002060006138c09190614729565b80600001859080600181540180825580915050600190039060005260206000200160009091909190915055438160020160008781526020019081526020016000208190555060008160010160007f2a9e355a92978430eca9c1aa3a9ba590094bac282594bccf82de16b83046e2c360001b8152602001908152602001600020819055505080806001019150506134e1565b50847fbeb3b9f46c8d7bb00c873fca10d307538df350866d25f891ffb395147ddbdc45888584604660007fd26d9834adf5a73309c4974bf654850bb699df8505e70d4cfde365c417b19dfc60001b8152602001908152602001600020546040518085600560200280838360005b838110156139d95780820151818401526020810190506139be565b5050505090500184815260200183600560200280838360005b83811015613a0d5780820151818401526020810190506139f2565b5050505090500182815260200194505050505060405180910390a26033839080600181540180825580915050600190039060005260206000200160009091909190915055613a5961474c565b6045600089600060058110613a6a57fe5b602002015181526020019081526020016000206005016000858152602001908152602001600020600580602002604051908101604052809291908260058015613afe576020028201915b8160009054906101000a900473ffffffffffffffffffffffffffffffffffffffff1673ffffffffffffffffffffffffffffffffffffffff1681526020019060010190808311613ab4575b50505050509050613b0f8186613f38565b604660007f969ea04b74d02bb4d9e6e8e57236e1b9ca31627139ae9f0e465249932e82450260001b815260200190815260200160002060008154809291906001019190505550613b5d61466a565b613b656140e8565b905060005b6005811015613cb457818160058110613b7f57fe5b6020020151603a8260058110613b9157fe5b600202016000018190555060008060456000858560058110613baf57fe5b6020020151815260200190815260200160002060010160007f1e344bd070f05f1c5b3f0b1266f4f20d837a0a8190a3a2da8b0375eac2ba86ea60001b81526020019081526020016000205460338110613c0457fe5b018190555060456000838360058110613c1957fe5b6020020151815260200190815260200160002060010160007f2a9e355a92978430eca9c1aa3a9ba590094bac282594bccf82de16b83046e2c360001b815260200190815260200160002054604660007fd26d9834adf5a73309c4974bf654850bb699df8505e70d4cfde365c417b19dfc60001b8152602001908152602001600020600082825401925050819055508080600101915050613b6a565b50898760014303406040516020018080602001848152602001838152602001828103825285818151815260200191508051906020019080838360005b83811015613d0b578082015181840152602081019050613cf0565b50505050905090810190601f168015613d385780820380516001836020036101000a031916815260200191505b5094505050505060405160208183030381529060405280519060200120965086604860007f3375fb9157bb77048f607329b1c4d45487433f61e0f51bcdeba91d975b2dab18815260200190815260200160002081905550867f1d85ce10456e29b67de37887496d3f1fcf1b64c79c4d07484038703a9f5c140882604660007fb12aff7664b16cb99339be399b863feecd64d14817be7e1f042f97e3f358e64e60001b815260200190815260200160002054604660007fd26d9834adf5a73309c4974bf654850bb699df8505e70d4cfde365c417b19dfc60001b8152602001908152602001600020546040518084600560200280838360005b83811015613e4b578082015181840152602081019050613e30565b50505050905001838152602001828152602001935050505060405180910390a250505050505050505050565b600080828401905083811015613e8957fe5b8091505092915050565b60008060016033039050828160338110613ea957fe5b602002015191506000600260330390505b6000811115613f005782848260338110613ed057fe5b60200201511015613ef257838160338110613ee757fe5b602002015192508091505b808060019003915050613eba565b50915091565b6000818310613f155781613f17565b825b905092915050565b6000818313613f2e5781613f30565b825b905092915050565b600081420390506000670de0b6b3a76400009050600061012c82840281613f5b57fe5b0490506000600a604660007fd26d9834adf5a73309c4974bf654850bb699df8505e70d4cfde365c417b19dfc60001b81526020019081526020016000205481613fa057fe5b049050600060028381613faf57fe5b049050613fcf87600060058110613fc257fe5b60200201518385016141f1565b613fec87600160058110613fdf57fe5b60200201518385016141f1565b61400987600260058110613ffc57fe5b60200201518385016141f1565b6140268760036005811061401957fe5b60200201518385016141f1565b6140438760046005811061403657fe5b60200201518385016141f1565b6140a3604760007f9dbc393ddc18fd27b1d9b1b129059925688d2f2d5818a5ec3ebb750b7c286ea660001b815260200190815260200160002060009054906101000a900473ffffffffffffffffffffffffffffffffffffffff16826141f1565b6000604660007fd26d9834adf5a73309c4974bf654850bb699df8505e70d4cfde365c417b19dfc60001b81526020019081526020016000208190555050505050505050565b6140f061466a565b6140f861466a565b61410061466a565b614146600060338060200260405190810160405280929190826033801561413c576020028201915b815481526020019060010190808311614128575b50505050506144e2565b809250819350505060005b60058110156141eb57600083826005811061416857fe5b6020020151146141b0576035600083836005811061418257fe5b60200201518152602001908152602001600020548482600581106141a257fe5b6020020181815250506141de565b603a81600403600581106141c057fe5b60020201600001548482600581106141d457fe5b6020020181815250505b8080600101915050614151565b50505090565b600081141561424b576040517f08c379a00000000000000000000000000000000000000000000000000000000081526004018080602001828103825260218152602001806147ff6021913960400191505060405180910390fd5b600073ffffffffffffffffffffffffffffffffffffffff168273ffffffffffffffffffffffffffffffffffffffff1614156142ee576040517f08c379a00000000000000000000000000000000000000000000000000000000081526004018080602001828103825260158152602001807f526563656976657220697320302061646472657373000000000000000000000081525060200191505060405180910390fd5b60006142f9836116d2565b9050808282011015614373576040517f08c379a00000000000000000000000000000000000000000000000000000000081526004018080602001828103825260118152602001807f4f766572666c6f772068617070656e656400000000000000000000000000000081525060200191505060405180910390fd5b6000604660007fb1557182e4359a1f0c6301278e8f5b35a776ab58d39892581e357578fb28783660001b8152602001908152602001600020549050808382011015614426576040517f08c379a00000000000000000000000000000000000000000000000000000000081526004018080602001828103825260118152602001807f4f766572666c6f772068617070656e656400000000000000000000000000000081525060200191505060405180910390fd5b82604660007fb1557182e4359a1f0c6301278e8f5b35a776ab58d39892581e357578fb28783660001b81526020019081526020016000206000828254019250508190555061447684848401611b5b565b8373ffffffffffffffffffffffffffffffffffffffff16600073ffffffffffffffffffffffffffffffffffffffff167fddf252ad1be2c89b69c2b068fc378daa952ba7f163c4a11628f55a4df523b3ef856040518082815260200191505060405180910390a350505050565b6144ea61466a565b6144f261466a565b60008360016033811061450157fe5b602002015190506000805b60058110156145935785600182016033811061452457fe5b602002015185826005811061453557fe5b6020020181815250506001810184826005811061454e57fe5b6020020181815250508285826005811061456457fe5b602002015110156145865784816005811061457b57fe5b602002015192508091505b808060010191505061450c565b506000600690505b603381101561466257828682603381106145b157fe5b60200201511115614655578581603381106145c857fe5b60200201518583600581106145d957fe5b602002018181525050808483600581106145ef57fe5b60200201818152505085816033811061460457fe5b6020020151925060005b6005811015614653578386826005811061462457fe5b602002015110156146465785816005811061463b57fe5b602002015193508092505b808060010191505061460e565b505b808060010191505061459b565b505050915091565b6040518060a00160405280600590602082028036833780820191505090505090565b82600581019282156146b8579182015b828111156146b757825482559160010191906001019061469c565b5b5090506146c5919061476e565b5090565b82600581019282156146f5579182015b828111156146f45782548255916001019190600101906146d9565b5b509050614702919061476e565b5090565b506000815560010160008155600101600081556001016000815560010160009055565b506000815560010160008155600101600081556001016000815560010160009055565b6040518060a00160405280600590602082028036833780820191505090505090565b5b8082111561478757600081600090555060010161476f565b509056fe4d696e65722063616e206f6e6c792077696e2072657761726473206f6e636520706572203135206d696e45524332303a20617070726f766520746f20746865207a65726f206164647265737353686f756c6420686176652073756666696369656e742062616c616e636520746f207472616465547269656420746f2073656e64206e6f6e2d706f73697469766520616d6f756e744d696e657220616c7265616479207375626d6974746564207468652076616c756545524332303a20617070726f76652066726f6d20746865207a65726f2061646472657373496e636f7272656374206e6f6e636520666f722063757272656e74206368616c6c656e6765a26469706673582212203569c742421b0d3cb4488e8614dd8270ad4ce1180556c2076e07014c8fa3d9b364736f6c63430007040033",
  "linkReferences": {},
  "deployedLinkReferences": {}
}