{
  "contracts/TellorVariables.sol": {
    "TellorVariables": {
      "abi": [
        {
          "inputs": [],
          "name": "_owner",
          "outputs": [
            {
              "internalType": "bytes32",
              "name": "",
              "type": "bytes32"
            }
          ],
          "stateMutability": "view",
          "type": "function"
        },
        {
          "inputs": [],
          "name": "_tBlock",
          "outputs": [
            {
              "internalType": "bytes32",
              "name": "",
              "type": "bytes32"
            }
          ],
          "stateMutability": "view",
          "type": "function"
        },
        {
          "inputs": [],
          "name": "currentChallenge",
          "outputs": [
            {
              "internalType": "bytes32",
              "name": "",
              "type": "bytes32"
            }
          ],
          "stateMutability": "view",
          "type": "function"
        },
        {
          "inputs": [],
          "name": "currentRequestId",
          "outputs": [
            {
              "internalType": "bytes32",
              "name": "",
              "type": "bytes32"
            }
          ],
          "stateMutability": "view",
          "type": "function"
        },
        {
          "inputs": [],
          "name": "currentTotalTips",
          "outputs": [
            {
              "internalType": "bytes32",
              "name": "",
              "type": "bytes32"
            }
          ],
          "stateMutability": "view",
          "type": "function"
        },
        {
          "inputs": [],
          "name": "difficulty",
          "outputs": [
            {
              "internalType": "bytes32",
              "name": "",
              "type": "bytes32"
            }
          ],
          "stateMutability": "view",
          "type": "function"
        },
        {
          "inputs": [],
          "name": "pending_owner",
          "outputs": [
            {
              "internalType": "bytes32",
              "name": "",
              "type": "bytes32"
            }
          ],
          "stateMutability": "view",
          "type": "function"
        },
        {
          "inputs": [],
          "name": "requestCount",
          "outputs": [
            {
              "internalType": "bytes32",
              "name": "",
              "type": "bytes32"
            }
          ],
          "stateMutability": "view",
          "type": "function"
        },
        {
          "inputs": [],
          "name": "requestQPosition",
          "outputs": [
            {
              "internalType": "bytes32",
              "name": "",
              "type": "bytes32"
            }
          ],
          "stateMutability": "view",
          "type": "function"
        },
        {
          "inputs": [],
          "name": "slotProgress",
          "outputs": [
            {
              "internalType": "bytes32",
              "name": "",
              "type": "bytes32"
            }
          ],
          "stateMutability": "view",
          "type": "function"
        },
        {
          "inputs": [],
          "name": "timeOfLastNewValue",
          "outputs": [
            {
              "internalType": "bytes32",
              "name": "",
              "type": "bytes32"
            }
          ],
          "stateMutability": "view",
          "type": "function"
        },
        {
          "inputs": [],
          "name": "timeTarget",
          "outputs": [
            {
              "internalType": "bytes32",
              "name": "",
              "type": "bytes32"
            }
          ],
          "stateMutability": "view",
          "type": "function"
        },
        {
          "inputs": [],
          "name": "totalTip",
          "outputs": [
            {
              "internalType": "bytes32",
              "name": "",
              "type": "bytes32"
            }
          ],
          "stateMutability": "view",
          "type": "function"
        },
        {
          "inputs": [],
          "name": "total_supply",
          "outputs": [
            {
              "internalType": "bytes32",
              "name": "",
              "type": "bytes32"
            }
          ],
          "stateMutability": "view",
          "type": "function"
        }
      ],
      "evm": {
        "bytecode": {
          "linkReferences": {},
          "object": "608060405234801561001057600080fd5b506104e8806100206000396000f3fe608060405234801561001057600080fd5b50600436106100ea5760003560e01c80635badbe4c1161008c5780636fd4f229116100665780636fd4f2291461021b57806375ad1a2a146102395780637f4ec4c314610257578063b2bdfa7b14610275576100ea565b80635badbe4c146101c15780636e3cf885146101df5780636fc37811146101fd576100ea565b80633940e9ee116100c85780633940e9ee1461014957806351bdd58514610167578063561cb04a146101855780635ae2bfdb146101a3576100ea565b806303b3160f146100ef57806319cae4621461010d5780632bf07e9e1461012b575b600080fd5b6100f7610293565b6040518082815260200191505060405180910390f35b6101156102ba565b6040518082815260200191505060405180910390f35b6101336102e1565b6040518082815260200191505060405180910390f35b610151610308565b6040518082815260200191505060405180910390f35b61016f61032f565b6040518082815260200191505060405180910390f35b61018d610353565b6040518082815260200191505060405180910390f35b6101ab61037a565b6040518082815260200191505060405180910390f35b6101c96103a1565b6040518082815260200191505060405180910390f35b6101e76103c8565b6040518082815260200191505060405180910390f35b6102056103ef565b6040518082815260200191505060405180910390f35b610223610416565b6040518082815260200191505060405180910390f35b61024161043d565b6040518082815260200191505060405180910390f35b61025f610464565b6040518082815260200191505060405180910390f35b61027d61048b565b6040518082815260200191505060405180910390f35b7f6c505cb2db6644f57b42d87bd9407b0f66788b07d0617a2bc1356a0e69e66f9a60001b81565b7fb12aff7664b16cb99339be399b863feecd64d14817be7e1f042f97e3f358e64e60001b81565b7f1e344bd070f05f1c5b3f0b1266f4f20d837a0a8190a3a2da8b0375eac2ba86ea60001b81565b7fb1557182e4359a1f0c6301278e8f5b35a776ab58d39892581e357578fb28783660001b81565b7f3375fb9157bb77048f607329b1c4d45487433f61e0f51bcdeba91d975b2dab1881565b7f2a9e355a92978430eca9c1aa3a9ba590094bac282594bccf82de16b83046e2c360001b81565b7f7584d7d8701714da9c117f5bf30af73b0b88aca5338a84a21eb28de2fe0d93b860001b81565b7f05de9147d05477c0a5dc675aeea733157f5092f82add148cf39d579cafe3dc9860001b81565b7f969ea04b74d02bb4d9e6e8e57236e1b9ca31627139ae9f0e465249932e82450260001b81565b7fad16221efc80aaf1b7e69bd3ecb61ba5ffa539adf129c3b4ffff769c9b5bbc3360001b81565b7f97e6eb29f6a85471f7cc9b57f9e4c3deaf398cfc9798673160d7798baf0b13a460001b81565b7fd26d9834adf5a73309c4974bf654850bb699df8505e70d4cfde365c417b19dfc60001b81565b7f44b2657a0f8a90ed8e62f4c4cceca06eacaa9b4b25751ae1ebca9280a70abd6860001b81565b7f9dbc393ddc18fd27b1d9b1b129059925688d2f2d5818a5ec3ebb750b7c286ea660001b8156fea264697066735822122094ec966bb049833b6a9962b8f337a8d5a34e8ebfc673a10b7c6b61c2e5d752f364736f6c63430007040033",
          "opcodes": "PUSH1 0x80 PUSH1 0x40 MSTORE CALLVALUE DUP1 ISZERO PUSH2 0x10 JUMPI PUSH1 0x0 DUP1 REVERT JUMPDEST POP PUSH2 0x4E8 DUP1 PUSH2 0x20 PUSH1 0x0 CODECOPY PUSH1 0x0 RETURN INVALID PUSH1 0x80 PUSH1 0x40 MSTORE CALLVALUE DUP1 ISZERO PUSH2 0x10 JUMPI PUSH1 0x0 DUP1 REVERT JUMPDEST POP PUSH1 0x4 CALLDATASIZE LT PUSH2 0xEA JUMPI PUSH1 0x0 CALLDATALOAD PUSH1 0xE0 SHR DUP1 PUSH4 0x5BADBE4C GT PUSH2 0x8C JUMPI DUP1 PUSH4 0x6FD4F229 GT PUSH2 0x66 JUMPI DUP1 PUSH4 0x6FD4F229 EQ PUSH2 0x21B JUMPI DUP1 PUSH4 0x75AD1A2A EQ PUSH2 0x239 JUMPI DUP1 PUSH4 0x7F4EC4C3 EQ PUSH2 0x257 JUMPI DUP1 PUSH4 0xB2BDFA7B EQ PUSH2 0x275 JUMPI PUSH2 0xEA JUMP JUMPDEST DUP1 PUSH4 0x5BADBE4C EQ PUSH2 0x1C1 JUMPI DUP1 PUSH4 0x6E3CF885 EQ PUSH2 0x1DF JUMPI DUP1 PUSH4 0x6FC37811 EQ PUSH2 0x1FD JUMPI PUSH2 0xEA JUMP JUMPDEST DUP1 PUSH4 0x3940E9EE GT PUSH2 0xC8 JUMPI DUP1 PUSH4 0x3940E9EE EQ PUSH2 0x149 JUMPI DUP1 PUSH4 0x51BDD585 EQ PUSH2 0x167 JUMPI DUP1 PUSH4 0x561CB04A EQ PUSH2 0x185 JUMPI DUP1 PUSH4 0x5AE2BFDB EQ PUSH2 0x1A3 JUMPI PUSH2 0xEA JUMP JUMPDEST DUP1 PUSH4 0x3B3160F EQ PUSH2 0xEF JUMPI DUP1 PUSH4 0x19CAE462 EQ PUSH2 0x10D JUMPI DUP1 PUSH4 0x2BF07E9E EQ PUSH2 0x12B JUMPI JUMPDEST PUSH1 0x0 DUP1 REVERT JUMPDEST PUSH2 0xF7 PUSH2 0x293 JUMP JUMPDEST PUSH1 0x40 MLOAD DUP1 DUP3 DUP2 MSTORE PUSH1 0x20 ADD SWAP2 POP POP PUSH1 0x40 MLOAD DUP1 SWAP2 SUB SWAP1 RETURN JUMPDEST PUSH2 0x115 PUSH2 0x2BA JUMP JUMPDEST PUSH1 0x40 MLOAD DUP1 DUP3 DUP2 MSTORE PUSH1 0x20 ADD SWAP2 POP POP PUSH1 0x40 MLOAD DUP1 SWAP2 SUB SWAP1 RETURN JUMPDEST PUSH2 0x133 PUSH2 0x2E1 JUMP JUMPDEST PUSH1 0x40 MLOAD DUP1 DUP3 DUP2 MSTORE PUSH1 0x20 ADD SWAP2 POP POP PUSH1 0x40 MLOAD DUP1 SWAP2 SUB SWAP1 RETURN JUMPDEST PUSH2 0x151 PUSH2 0x308 JUMP JUMPDEST PUSH1 0x40 MLOAD DUP1 DUP3 DUP2 MSTORE PUSH1 0x20 ADD SWAP2 POP POP PUSH1 0x40 MLOAD DUP1 SWAP2 SUB SWAP1 RETURN JUMPDEST PUSH2 0x16F PUSH2 0x32F JUMP JUMPDEST PUSH1 0x40 MLOAD DUP1 DUP3 DUP2 MSTORE PUSH1 0x20 ADD SWAP2 POP POP PUSH1 0x40 MLOAD DUP1 SWAP2 SUB SWAP1 RETURN JUMPDEST PUSH2 0x18D PUSH2 0x353 JUMP JUMPDEST PUSH1 0x40 MLOAD DUP1 DUP3 DUP2 MSTORE PUSH1 0x20 ADD SWAP2 POP POP PUSH1 0x40 MLOAD DUP1 SWAP2 SUB SWAP1 RETURN JUMPDEST PUSH2 0x1AB PUSH2 0x37A JUMP JUMPDEST PUSH1 0x40 MLOAD DUP1 DUP3 DUP2 MSTORE PUSH1 0x20 ADD SWAP2 POP POP PUSH1 0x40 MLOAD DUP1 SWAP2 SUB SWAP1 RETURN JUMPDEST PUSH2 0x1C9 PUSH2 0x3A1 JUMP JUMPDEST PUSH1 0x40 MLOAD DUP1 DUP3 DUP2 MSTORE PUSH1 0x20 ADD SWAP2 POP POP PUSH1 0x40 MLOAD DUP1 SWAP2 SUB SWAP1 RETURN JUMPDEST PUSH2 0x1E7 PUSH2 0x3C8 JUMP JUMPDEST PUSH1 0x40 MLOAD DUP1 DUP3 DUP2 MSTORE PUSH1 0x20 ADD SWAP2 POP POP PUSH1 0x40 MLOAD DUP1 SWAP2 SUB SWAP1 RETURN JUMPDEST PUSH2 0x205 PUSH2 0x3EF JUMP JUMPDEST PUSH1 0x40 MLOAD DUP1 DUP3 DUP2 MSTORE PUSH1 0x20 ADD SWAP2 POP POP PUSH1 0x40 MLOAD DUP1 SWAP2 SUB SWAP1 RETURN JUMPDEST PUSH2 0x223 PUSH2 0x416 JUMP JUMPDEST PUSH1 0x40 MLOAD DUP1 DUP3 DUP2 MSTORE PUSH1 0x20 ADD SWAP2 POP POP PUSH1 0x40 MLOAD DUP1 SWAP2 SUB SWAP1 RETURN JUMPDEST PUSH2 0x241 PUSH2 0x43D JUMP JUMPDEST PUSH1 0x40 MLOAD DUP1 DUP3 DUP2 MSTORE PUSH1 0x20 ADD SWAP2 POP POP PUSH1 0x40 MLOAD DUP1 SWAP2 SUB SWAP1 RETURN JUMPDEST PUSH2 0x25F PUSH2 0x464 JUMP JUMPDEST PUSH1 0x40 MLOAD DUP1 DUP3 DUP2 MSTORE PUSH1 0x20 ADD SWAP2 POP POP PUSH1 0x40 MLOAD DUP1 SWAP2 SUB SWAP1 RETURN JUMPDEST PUSH2 0x27D PUSH2 0x48B JUMP JUMPDEST PUSH1 0x40 MLOAD DUP1 DUP3 DUP2 MSTORE PUSH1 0x20 ADD SWAP2 POP POP PUSH1 0x40 MLOAD DUP1 SWAP2 SUB SWAP1 RETURN JUMPDEST PUSH32 0x6C505CB2DB6644F57B42D87BD9407B0F66788B07D0617A2BC1356A0E69E66F9A PUSH1 0x0 SHL DUP2 JUMP JUMPDEST PUSH32 0xB12AFF7664B16CB99339BE399B863FEECD64D14817BE7E1F042F97E3F358E64E PUSH1 0x0 SHL DUP2 JUMP JUMPDEST PUSH32 0x1E344BD070F05F1C5B3F0B1266F4F20D837A0A8190A3A2DA8B0375EAC2BA86EA PUSH1 0x0 SHL DUP2 JUMP JUMPDEST PUSH32 0xB1557182E4359A1F0C6301278E8F5B35A776AB58D39892581E357578FB287836 PUSH1 0x0 SHL DUP2 JUMP JUMPDEST PUSH32 0x3375FB9157BB77048F607329B1C4D45487433F61E0F51BCDEBA91D975B2DAB18 DUP2 JUMP JUMPDEST PUSH32 0x2A9E355A92978430ECA9C1AA3A9BA590094BAC282594BCCF82DE16B83046E2C3 PUSH1 0x0 SHL DUP2 JUMP JUMPDEST PUSH32 0x7584D7D8701714DA9C117F5BF30AF73B0B88ACA5338A84A21EB28DE2FE0D93B8 PUSH1 0x0 SHL DUP2 JUMP JUMPDEST PUSH32 0x5DE9147D05477C0A5DC675AEEA733157F5092F82ADD148CF39D579CAFE3DC98 PUSH1 0x0 SHL DUP2 JUMP JUMPDEST PUSH32 0x969EA04B74D02BB4D9E6E8E57236E1B9CA31627139AE9F0E465249932E824502 PUSH1 0x0 SHL DUP2 JUMP JUMPDEST PUSH32 0xAD16221EFC80AAF1B7E69BD3ECB61BA5FFA539ADF129C3B4FFFF769C9B5BBC33 PUSH1 0x0 SHL DUP2 JUMP JUMPDEST PUSH32 0x97E6EB29F6A85471F7CC9B57F9E4C3DEAF398CFC9798673160D7798BAF0B13A4 PUSH1 0x0 SHL DUP2 JUMP JUMPDEST PUSH32 0xD26D9834ADF5A73309C4974BF654850BB699DF8505E70D4CFDE365C417B19DFC PUSH1 0x0 SHL DUP2 JUMP JUMPDEST PUSH32 0x44B2657A0F8A90ED8E62F4C4CCECA06EACAA9B4B25751AE1EBCA9280A70ABD68 PUSH1 0x0 SHL DUP2 JUMP JUMPDEST PUSH32 0x9DBC393DDC18FD27B1D9B1B129059925688D2F2D5818A5EC3EBB750B7C286EA6 PUSH1 0x0 SHL DUP2 JUMP INVALID LOG2 PUSH5 0x6970667358 0x22 SLT KECCAK256 SWAP5 0xEC SWAP7 PUSH12 0xB049833B6A9962B8F337A8D5 LOG3 0x4E DUP15 0xBF 0xC6 PUSH20 0xA10B7C6B61C2E5D752F364736F6C634300070400 CALLER "
        },
        "methodIdentifiers": {
          "_owner()": "b2bdfa7b",
          "_tBlock()": "6e3cf885",
          "currentChallenge()": "51bdd585",
          "currentRequestId()": "5ae2bfdb",
          "currentTotalTips()": "75ad1a2a",
          "difficulty()": "19cae462",
          "pending_owner()": "7f4ec4c3",
          "requestCount()": "5badbe4c",
          "requestQPosition()": "2bf07e9e",
          "slotProgress()": "03b3160f",
          "timeOfLastNewValue()": "6fd4f229",
          "timeTarget()": "6fc37811",
          "totalTip()": "561cb04a",
          "total_supply()": "3940e9ee"
        }
      }
    }
  }
}