{
  "_format": "hh-sol-artifact-1",
  "contractName": "TellorGetters",
  "sourceName": "contracts/TellorGetters.sol",
  "abi": [
    {
      "inputs": [
        {
          "internalType": "address",
          "name": "",
          "type": "address"
        },
        {
          "internalType": "address",
          "name": "",
          "type": "address"
        }
      ],
      "name": "_allowances",
      "outputs": [
        {
          "internalType": "uint256",
          "name": "",
          "type": "uint256"
        }
      ],
      "stateMutability": "view",
      "type": "function"
    },
    {
      "inputs": [],
      "name": "_owner",
      "outputs": [
        {
          "internalType": "bytes32",
          "name": "",
          "type": "bytes32"
        }
      ],
      "stateMutability": "view",
      "type": "function"
    },
    {
      "inputs": [],
      "name": "_tBlock",
      "outputs": [
        {
          "internalType": "bytes32",
          "name": "",
          "type": "bytes32"
        }
      ],
      "stateMutability": "view",
      "type": "function"
    },
    {
      "inputs": [
        {
          "internalType": "bytes32",
          "name": "",
          "type": "bytes32"
        }
      ],
      "name": "addresses",
      "outputs": [
        {
          "internalType": "address",
          "name": "",
          "type": "address"
        }
      ],
      "stateMutability": "view",
      "type": "function"
    },
    {
      "inputs": [
        {
          "internalType": "bytes32",
          "name": "",
          "type": "bytes32"
        }
      ],
      "name": "bytesVars",
      "outputs": [
        {
          "internalType": "bytes32",
          "name": "",
          "type": "bytes32"
        }
      ],
      "stateMutability": "view",
      "type": "function"
    },
    {
      "inputs": [],
      "name": "currentChallenge",
      "outputs": [
        {
          "internalType": "bytes32",
          "name": "",
          "type": "bytes32"
        }
      ],
      "stateMutability": "view",
      "type": "function"
    },
    {
      "inputs": [],
      "name": "currentRequestId",
      "outputs": [
        {
          "internalType": "bytes32",
          "name": "",
          "type": "bytes32"
        }
      ],
      "stateMutability": "view",
      "type": "function"
    },
    {
      "inputs": [],
      "name": "currentTotalTips",
      "outputs": [
        {
          "internalType": "bytes32",
          "name": "",
          "type": "bytes32"
        }
      ],
      "stateMutability": "view",
      "type": "function"
    },
    {
      "inputs": [],
      "name": "decimals",
      "outputs": [
        {
          "internalType": "uint8",
          "name": "",
          "type": "uint8"
        }
      ],
      "stateMutability": "pure",
      "type": "function"
    },
    {
      "inputs": [
        {
          "internalType": "bytes32",
          "name": "_challenge",
          "type": "bytes32"
        },
        {
          "internalType": "address",
          "name": "_miner",
          "type": "address"
        }
      ],
      "name": "didMine",
      "outputs": [
        {
          "internalType": "bool",
          "name": "",
          "type": "bool"
        }
      ],
      "stateMutability": "view",
      "type": "function"
    },
    {
      "inputs": [
        {
          "internalType": "uint256",
          "name": "_disputeId",
          "type": "uint256"
        },
        {
          "internalType": "address",
          "name": "_address",
          "type": "address"
        }
      ],
      "name": "didVote",
      "outputs": [
        {
          "internalType": "bool",
          "name": "",
          "type": "bool"
        }
      ],
      "stateMutability": "view",
      "type": "function"
    },
    {
      "inputs": [],
      "name": "difficulty",
      "outputs": [
        {
          "internalType": "bytes32",
          "name": "",
          "type": "bytes32"
        }
      ],
      "stateMutability": "view",
      "type": "function"
    },
    {
      "inputs": [
        {
          "internalType": "bytes32",
          "name": "_data",
          "type": "bytes32"
        }
      ],
      "name": "getAddressVars",
      "outputs": [
        {
          "internalType": "address",
          "name": "",
          "type": "address"
        }
      ],
      "stateMutability": "view",
      "type": "function"
    },
    {
      "inputs": [
        {
          "internalType": "uint256",
          "name": "_disputeId",
          "type": "uint256"
        }
      ],
      "name": "getAllDisputeVars",
      "outputs": [
        {
          "internalType": "bytes32",
          "name": "",
          "type": "bytes32"
        },
        {
          "internalType": "bool",
          "name": "",
          "type": "bool"
        },
        {
          "internalType": "bool",
          "name": "",
          "type": "bool"
        },
        {
          "internalType": "bool",
          "name": "",
          "type": "bool"
        },
        {
          "internalType": "address",
          "name": "",
          "type": "address"
        },
        {
          "internalType": "address",
          "name": "",
          "type": "address"
        },
        {
          "internalType": "address",
          "name": "",
          "type": "address"
        },
        {
          "internalType": "uint256[9]",
          "name": "",
          "type": "uint256[9]"
        },
        {
          "internalType": "int256",
          "name": "",
          "type": "int256"
        }
      ],
      "stateMutability": "view",
      "type": "function"
    },
    {
      "inputs": [
        {
          "internalType": "bytes32",
          "name": "_hash",
          "type": "bytes32"
        }
      ],
      "name": "getDisputeIdByDisputeHash",
      "outputs": [
        {
          "internalType": "uint256",
          "name": "",
          "type": "uint256"
        }
      ],
      "stateMutability": "view",
      "type": "function"
    },
    {
      "inputs": [
        {
          "internalType": "uint256",
          "name": "_disputeId",
          "type": "uint256"
        },
        {
          "internalType": "bytes32",
          "name": "_data",
          "type": "bytes32"
        }
      ],
      "name": "getDisputeUintVars",
      "outputs": [
        {
          "internalType": "uint256",
          "name": "",
          "type": "uint256"
        }
      ],
      "stateMutability": "view",
      "type": "function"
    },
    {
      "inputs": [],
      "name": "getLastNewValue",
      "outputs": [
        {
          "internalType": "uint256",
          "name": "",
          "type": "uint256"
        },
        {
          "internalType": "bool",
          "name": "",
          "type": "bool"
        }
      ],
      "stateMutability": "view",
      "type": "function"
    },
    {
      "inputs": [
        {
          "internalType": "uint256",
          "name": "_requestId",
          "type": "uint256"
        }
      ],
      "name": "getLastNewValueById",
      "outputs": [
        {
          "internalType": "uint256",
          "name": "",
          "type": "uint256"
        },
        {
          "internalType": "bool",
          "name": "",
          "type": "bool"
        }
      ],
      "stateMutability": "view",
      "type": "function"
    },
    {
      "inputs": [
        {
          "internalType": "uint256",
          "name": "_requestId",
          "type": "uint256"
        },
        {
          "internalType": "uint256",
          "name": "_timestamp",
          "type": "uint256"
        }
      ],
      "name": "getMinedBlockNum",
      "outputs": [
        {
          "internalType": "uint256",
          "name": "",
          "type": "uint256"
        }
      ],
      "stateMutability": "view",
      "type": "function"
    },
    {
      "inputs": [
        {
          "internalType": "uint256",
          "name": "_requestId",
          "type": "uint256"
        },
        {
          "internalType": "uint256",
          "name": "_timestamp",
          "type": "uint256"
        }
      ],
      "name": "getMinersByRequestIdAndTimestamp",
      "outputs": [
        {
          "internalType": "address[5]",
          "name": "",
          "type": "address[5]"
        }
      ],
      "stateMutability": "view",
      "type": "function"
    },
    {
      "inputs": [],
      "name": "getNewCurrentVariables",
      "outputs": [
        {
          "internalType": "bytes32",
          "name": "_challenge",
          "type": "bytes32"
        },
        {
          "internalType": "uint256[5]",
          "name": "_requestIds",
          "type": "uint256[5]"
        },
        {
          "internalType": "uint256",
          "name": "_difficulty",
          "type": "uint256"
        },
        {
          "internalType": "uint256",
          "name": "_tip",
          "type": "uint256"
        }
      ],
      "stateMutability": "view",
      "type": "function"
    },
    {
      "inputs": [
        {
          "internalType": "uint256",
          "name": "_requestId",
          "type": "uint256"
        }
      ],
      "name": "getNewValueCountbyRequestId",
      "outputs": [
        {
          "internalType": "uint256",
          "name": "",
          "type": "uint256"
        }
      ],
      "stateMutability": "view",
      "type": "function"
    },
    {
      "inputs": [],
      "name": "getNewVariablesOnDeck",
      "outputs": [
        {
          "internalType": "uint256[5]",
          "name": "idsOnDeck",
          "type": "uint256[5]"
        },
        {
          "internalType": "uint256[5]",
          "name": "tipsOnDeck",
          "type": "uint256[5]"
        }
      ],
      "stateMutability": "view",
      "type": "function"
    },
    {
      "inputs": [
        {
          "internalType": "uint256",
          "name": "_index",
          "type": "uint256"
        }
      ],
      "name": "getRequestIdByRequestQIndex",
      "outputs": [
        {
          "internalType": "uint256",
          "name": "",
          "type": "uint256"
        }
      ],
      "stateMutability": "view",
      "type": "function"
    },
    {
      "inputs": [
        {
          "internalType": "uint256",
          "name": "_timestamp",
          "type": "uint256"
        }
      ],
      "name": "getRequestIdByTimestamp",
      "outputs": [
        {
          "internalType": "uint256",
          "name": "",
          "type": "uint256"
        }
      ],
      "stateMutability": "view",
      "type": "function"
    },
    {
      "inputs": [],
      "name": "getRequestQ",
      "outputs": [
        {
          "internalType": "uint256[51]",
          "name": "",
          "type": "uint256[51]"
        }
      ],
      "stateMutability": "view",
      "type": "function"
    },
    {
      "inputs": [
        {
          "internalType": "uint256",
          "name": "_requestId",
          "type": "uint256"
        },
        {
          "internalType": "bytes32",
          "name": "_data",
          "type": "bytes32"
        }
      ],
      "name": "getRequestUintVars",
      "outputs": [
        {
          "internalType": "uint256",
          "name": "",
          "type": "uint256"
        }
      ],
      "stateMutability": "view",
      "type": "function"
    },
    {
      "inputs": [
        {
          "internalType": "uint256",
          "name": "_requestId",
          "type": "uint256"
        }
      ],
      "name": "getRequestVars",
      "outputs": [
        {
          "internalType": "uint256",
          "name": "",
          "type": "uint256"
        },
        {
          "internalType": "uint256",
          "name": "",
          "type": "uint256"
        }
      ],
      "stateMutability": "view",
      "type": "function"
    },
    {
      "inputs": [
        {
          "internalType": "address",
          "name": "_staker",
          "type": "address"
        }
      ],
      "name": "getStakerInfo",
      "outputs": [
        {
          "internalType": "uint256",
          "name": "",
          "type": "uint256"
        },
        {
          "internalType": "uint256",
          "name": "",
          "type": "uint256"
        }
      ],
      "stateMutability": "view",
      "type": "function"
    },
    {
      "inputs": [
        {
          "internalType": "uint256",
          "name": "_requestId",
          "type": "uint256"
        },
        {
          "internalType": "uint256",
          "name": "_timestamp",
          "type": "uint256"
        }
      ],
      "name": "getSubmissionsByTimestamp",
      "outputs": [
        {
          "internalType": "uint256[5]",
          "name": "",
          "type": "uint256[5]"
        }
      ],
      "stateMutability": "view",
      "type": "function"
    },
    {
      "inputs": [
        {
          "internalType": "uint256",
          "name": "_requestID",
          "type": "uint256"
        },
        {
          "internalType": "uint256",
          "name": "_index",
          "type": "uint256"
        }
      ],
      "name": "getTimestampbyRequestIDandIndex",
      "outputs": [
        {
          "internalType": "uint256",
          "name": "",
          "type": "uint256"
        }
      ],
      "stateMutability": "view",
      "type": "function"
    },
    {
      "inputs": [],
      "name": "getTopRequestIDs",
      "outputs": [
        {
          "internalType": "uint256[5]",
          "name": "_requestIds",
          "type": "uint256[5]"
        }
      ],
      "stateMutability": "view",
      "type": "function"
    },
    {
      "inputs": [
        {
          "internalType": "bytes32",
          "name": "_data",
          "type": "bytes32"
        }
      ],
      "name": "getUintVar",
      "outputs": [
        {
          "internalType": "uint256",
          "name": "",
          "type": "uint256"
        }
      ],
      "stateMutability": "view",
      "type": "function"
    },
    {
      "inputs": [
        {
          "internalType": "uint256",
          "name": "_requestId",
          "type": "uint256"
        },
        {
          "internalType": "uint256",
          "name": "_timestamp",
          "type": "uint256"
        }
      ],
      "name": "isInDispute",
      "outputs": [
        {
          "internalType": "bool",
          "name": "",
          "type": "bool"
        }
      ],
      "stateMutability": "view",
      "type": "function"
    },
    {
      "inputs": [],
      "name": "name",
      "outputs": [
        {
          "internalType": "string",
          "name": "",
          "type": "string"
        }
      ],
      "stateMutability": "pure",
      "type": "function"
    },
    {
      "inputs": [],
      "name": "pending_owner",
      "outputs": [
        {
          "internalType": "bytes32",
          "name": "",
          "type": "bytes32"
        }
      ],
      "stateMutability": "view",
      "type": "function"
    },
    {
      "inputs": [],
      "name": "requestCount",
      "outputs": [
        {
          "internalType": "bytes32",
          "name": "",
          "type": "bytes32"
        }
      ],
      "stateMutability": "view",
      "type": "function"
    },
    {
      "inputs": [],
      "name": "requestQPosition",
      "outputs": [
        {
          "internalType": "bytes32",
          "name": "",
          "type": "bytes32"
        }
      ],
      "stateMutability": "view",
      "type": "function"
    },
    {
      "inputs": [
        {
          "internalType": "uint256",
          "name": "_requestId",
          "type": "uint256"
        },
        {
          "internalType": "uint256",
          "name": "_timestamp",
          "type": "uint256"
        }
      ],
      "name": "retrieveData",
      "outputs": [
        {
          "internalType": "uint256",
          "name": "",
          "type": "uint256"
        }
      ],
      "stateMutability": "view",
      "type": "function"
    },
    {
      "inputs": [],
      "name": "slotProgress",
      "outputs": [
        {
          "internalType": "bytes32",
          "name": "",
          "type": "bytes32"
        }
      ],
      "stateMutability": "view",
      "type": "function"
    },
    {
      "inputs": [],
      "name": "symbol",
      "outputs": [
        {
          "internalType": "string",
          "name": "",
          "type": "string"
        }
      ],
      "stateMutability": "pure",
      "type": "function"
    },
    {
      "inputs": [],
      "name": "timeOfLastNewValue",
      "outputs": [
        {
          "internalType": "bytes32",
          "name": "",
          "type": "bytes32"
        }
      ],
      "stateMutability": "view",
      "type": "function"
    },
    {
      "inputs": [],
      "name": "timeTarget",
      "outputs": [
        {
          "internalType": "bytes32",
          "name": "",
          "type": "bytes32"
        }
      ],
      "stateMutability": "view",
      "type": "function"
    },
    {
      "inputs": [],
      "name": "totalSupply",
      "outputs": [
        {
          "internalType": "uint256",
          "name": "",
          "type": "uint256"
        }
      ],
      "stateMutability": "view",
      "type": "function"
    },
    {
      "inputs": [],
      "name": "totalTip",
      "outputs": [
        {
          "internalType": "bytes32",
          "name": "",
          "type": "bytes32"
        }
      ],
      "stateMutability": "view",
      "type": "function"
    },
    {
      "inputs": [],
      "name": "total_supply",
      "outputs": [
        {
          "internalType": "bytes32",
          "name": "",
          "type": "bytes32"
        }
      ],
      "stateMutability": "view",
      "type": "function"
    },
    {
      "inputs": [
        {
          "internalType": "bytes32",
          "name": "",
          "type": "bytes32"
        }
      ],
      "name": "uints",
      "outputs": [
        {
          "internalType": "uint256",
          "name": "",
          "type": "uint256"
        }
      ],
      "stateMutability": "view",
      "type": "function"
    }
  ],
  "bytecode": "0x608060405234801561001057600080fd5b5061219e806100206000396000f3fe608060405234801561001057600080fd5b50600436106102955760003560e01c806369026d63116101675780639a7077ab116100ce578063c775b54211610087578063c775b54214610dc3578063da37994114610e0f578063e0ae93c114610e51578063e1eee6d614610e9d578063fc7cf0a014610ee6578063fe1cd15d14610f0d57610295565b80639a7077ab14610b5a578063a7c438bc14610bcf578063af0b132714610c33578063b2bdfa7b14610d1d578063b541302914610d3b578063b59e14d414610d8157610295565b806375ad1a2a1161012057806375ad1a2a146109b757806377fbb663146109d55780637f4ec4c314610a215780637f6fd5d914610a3f57806393fa491514610a8b57806395d89b4114610ad757610295565b806369026d6314610832578063699f200f146108a65780636e3cf885146108fe5780636fc378111461091c5780636fd4f2291461093a578063733bdef01461095857610295565b80633940e9ee1161020b5780635ae2bfdb116101c45780635ae2bfdb146106cc5780635badbe4c146106ea578063612c8f7f146107085780636173c0b81461074a57806362dd1d2a1461078c57806363bb82ad146107ce57610295565b80633940e9ee146105875780633df0777b146105a55780634049f198146105f357806346eee1c41461064e57806351bdd58514610690578063561cb04a146106ae57610295565b8063133bee5e1161025d578063133bee5e1461046957806318160ddd146104c157806319cae462146104df5780632bf07e9e146104fd578063313ce5671461051b5780633180f8df1461053c57610295565b8063024c2ddd1461029a57806303b3160f1461031257806306fdde03146103305780630f0b424d146103b357806311c98512146103f5575b600080fd5b6102fc600480360360408110156102b057600080fd5b81019080803573ffffffffffffffffffffffffffffffffffffffff169060200190929190803573ffffffffffffffffffffffffffffffffffffffff169060200190929190505050610f53565b6040518082815260200191505060405180910390f35b61031a610f78565b6040518082815260200191505060405180910390f35b610338610f9f565b6040518080602001828103825283818151815260200191508051906020019080838360005b8381101561037857808201518184015260208101905061035d565b50505050905090810190601f1680156103a55780820380516001836020036101000a031916815260200191505b509250505060405180910390f35b6103df600480360360208110156103c957600080fd5b8101908080359060200190929190505050610fdc565b6040518082815260200191505060405180910390f35b61042b6004803603604081101561040b57600080fd5b810190808035906020019092919080359060200190929190505050610ff9565b6040518082600560200280838360005b8381101561045657808201518184015260208101905061043b565b5050505090500191505060405180910390f35b6104956004803603602081101561047f57600080fd5b810190808035906020019092919050505061106c565b604051808273ffffffffffffffffffffffffffffffffffffffff16815260200191505060405180910390f35b6104c96110a9565b6040518082815260200191505060405180910390f35b6104e76110e7565b6040518082815260200191505060405180910390f35b61050561110e565b6040518082815260200191505060405180910390f35b610523611135565b604051808260ff16815260200191505060405180910390f35b6105686004803603602081101561055257600080fd5b810190808035906020019092919050505061113e565b6040518083815260200182151581526020019250505060405180910390f35b61058f6111ae565b6040518082815260200191505060405180910390f35b6105db600480360360408110156105bb57600080fd5b8101908080359060200190929190803590602001909291905050506111d5565b60405180821515815260200191505060405180910390f35b6105fb611214565b6040518085815260200184600560200280838360005b8381101561062c578082015181840152602081019050610611565b5050505090500183815260200182815260200194505050505060405180910390f35b61067a6004803603602081101561066457600080fd5b8101908080359060200190929190505050611303565b6040518082815260200191505060405180910390f35b610698611326565b6040518082815260200191505060405180910390f35b6106b661134a565b6040518082815260200191505060405180910390f35b6106d4611371565b6040518082815260200191505060405180910390f35b6106f2611398565b6040518082815260200191505060405180910390f35b6107346004803603602081101561071e57600080fd5b81019080803590602001909291905050506113bf565b6040518082815260200191505060405180910390f35b6107766004803603602081101561076057600080fd5b81019080803590602001909291905050506113dc565b6040518082815260200191505060405180910390f35b6107b8600480360360208110156107a257600080fd5b8101908080359060200190929190505050611470565b6040518082815260200191505060405180910390f35b61081a600480360360408110156107e457600080fd5b8101908080359060200190929190803573ffffffffffffffffffffffffffffffffffffffff169060200190929190505050611488565b60405180821515815260200191505060405180910390f35b6108686004803603604081101561084857600080fd5b8101908080359060200190929190803590602001909291905050506114f0565b6040518082600560200280838360005b83811015610893578082015181840152602081019050610878565b5050505090500191505060405180910390f35b6108d2600480360360208110156108bc57600080fd5b8101908080359060200190929190505050611599565b604051808273ffffffffffffffffffffffffffffffffffffffff16815260200191505060405180910390f35b6109066115cc565b6040518082815260200191505060405180910390f35b6109246115f3565b6040518082815260200191505060405180910390f35b61094261161a565b6040518082815260200191505060405180910390f35b61099a6004803603602081101561096e57600080fd5b81019080803573ffffffffffffffffffffffffffffffffffffffff169060200190929190505050611641565b604051808381526020018281526020019250505060405180910390f35b6109bf6116d3565b6040518082815260200191505060405180910390f35b610a0b600480360360408110156109eb57600080fd5b8101908080359060200190929190803590602001909291905050506116fa565b6040518082815260200191505060405180910390f35b610a29611730565b6040518082815260200191505060405180910390f35b610a7560048036036040811015610a5557600080fd5b810190808035906020019092919080359060200190929190505050611757565b6040518082815260200191505060405180910390f35b610ac160048036036040811015610aa157600080fd5b810190808035906020019092919080359060200190929190505050611789565b6040518082815260200191505060405180910390f35b610adf6117bb565b6040518080602001828103825283818151815260200191508051906020019080838360005b83811015610b1f578082015181840152602081019050610b04565b50505050905090810190601f168015610b4c5780820380516001836020036101000a031916815260200191505b509250505060405180910390f35b610b626117f8565b6040518083600560200280838360005b83811015610b8d578082015181840152602081019050610b72565b5050505090500182600560200280838360005b83811015610bbb578082015181840152602081019050610ba0565b505050509050019250505060405180910390f35b610c1b60048036036040811015610be557600080fd5b8101908080359060200190929190803573ffffffffffffffffffffffffffffffffffffffff16906020019092919050505061189d565b60405180821515815260200191505060405180910390f35b610c5f60048036036020811015610c4957600080fd5b8101908080359060200190929190505050611908565b604051808a81526020018915158152602001881515815260200187151581526020018673ffffffffffffffffffffffffffffffffffffffff1681526020018573ffffffffffffffffffffffffffffffffffffffff1681526020018473ffffffffffffffffffffffffffffffffffffffff16815260200183600960200280838360005b83811015610cfc578082015181840152602081019050610ce1565b50505050905001828152602001995050505050505050505060405180910390f35b610d25611c1f565b6040518082815260200191505060405180910390f35b610d43611c46565b6040518082603360200280838360005b83811015610d6e578082015181840152602081019050610d53565b5050505090500191505060405180910390f35b610dad60048036036020811015610d9757600080fd5b8101908080359060200190929190505050611c91565b6040518082815260200191505060405180910390f35b610df960048036036040811015610dd957600080fd5b810190808035906020019092919080359060200190929190505050611ca9565b6040518082815260200191505060405180910390f35b610e3b60048036036020811015610e2557600080fd5b8101908080359060200190929190505050611cdb565b6040518082815260200191505060405180910390f35b610e8760048036036040811015610e6757600080fd5b810190808035906020019092919080359060200190929190505050611cf8565b6040518082815260200191505060405180910390f35b610ec960048036036020811015610eb357600080fd5b8101908080359060200190929190505050611d2a565b604051808381526020018281526020019250505060405180910390f35b610eee611dba565b6040518083815260200182151581526020019250505060405180910390f35b610f15611e4d565b6040518082600560200280838360005b83811015610f40578082015181840152602081019050610f25565b5050505090500191505060405180910390f35b604b602052816000526040600020602052806000526040600020600091509150505481565b7f6c505cb2db6644f57b42d87bd9407b0f66788b07d0617a2bc1356a0e69e66f9a60001b81565b60606040518060400160405280600f81526020017f54656c6c6f722054726962757465730000000000000000000000000000000000815250905090565b600060346000838152602001908152602001600020549050919050565b6110016120de565b60456000848152602001908152602001600020600601600083815260200190815260200160002060058060200260405190810160405280929190826005801561105f576020028201915b81548152602001906001019080831161104b575b5050505050905092915050565b60006048600083815260200190815260200160002060009054906101000a900473ffffffffffffffffffffffffffffffffffffffff169050919050565b6000604760007fb1557182e4359a1f0c6301278e8f5b35a776ab58d39892581e357578fb28783660001b815260200190815260200160002054905090565b7fb12aff7664b16cb99339be399b863feecd64d14817be7e1f042f97e3f358e64e60001b81565b7f1e344bd070f05f1c5b3f0b1266f4f20d837a0a8190a3a2da8b0375eac2ba86ea60001b81565b60006012905090565b600080600060456000858152602001908152602001600020905060008160000180549050146111a057611194848260000160018460000180549050038154811061118457fe5b9060005260206000200154611789565b600192509250506111a9565b60008092509250505b915091565b7fb1557182e4359a1f0c6301278e8f5b35a776ab58d39892581e357578fb28783660001b81565b600060456000848152602001908152602001600020600401600083815260200190815260200160002060009054906101000a900460ff16905092915050565b600061121e6120de565b60008060005b600581101561126457603a816005811061123a57fe5b600202016000015484826005811061124e57fe5b6020020181815250508080600101915050611224565b507f3375fb9157bb77048f607329b1c4d45487433f61e0f51bcdeba91d975b2dab1883604760007fb12aff7664b16cb99339be399b863feecd64d14817be7e1f042f97e3f358e64e60001b815260200190815260200160002054604760007fd26d9834adf5a73309c4974bf654850bb699df8505e70d4cfde365c417b19dfc60001b815260200190815260200160002054935093509350935090919293565b600060456000838152602001908152602001600020600001805490509050919050565b7f3375fb9157bb77048f607329b1c4d45487433f61e0f51bcdeba91d975b2dab1881565b7f2a9e355a92978430eca9c1aa3a9ba590094bac282594bccf82de16b83046e2c360001b81565b7f7584d7d8701714da9c117f5bf30af73b0b88aca5338a84a21eb28de2fe0d93b860001b81565b7f05de9147d05477c0a5dc675aeea733157f5092f82add148cf39d579cafe3dc9860001b81565b600060476000838152602001908152602001600020549050919050565b60006032821115611455576040517f08c379a000000000000000000000000000000000000000000000000000000000815260040180806020018281038252601a8152602001807f526571756573745120696e6465782069732061626f766520353000000000000081525060200191505060405180910390fd5b60356000838152602001908152602001600020549050919050565b60496020528060005260406000206000915090505481565b60006039600084815260200190815260200160002060008373ffffffffffffffffffffffffffffffffffffffff1673ffffffffffffffffffffffffffffffffffffffff16815260200190815260200160002060009054906101000a900460ff16905092915050565b6114f8612100565b60456000848152602001908152602001600020600501600083815260200190815260200160002060058060200260405190810160405280929190826005801561158c576020028201915b8160009054906101000a900473ffffffffffffffffffffffffffffffffffffffff1673ffffffffffffffffffffffffffffffffffffffff1681526020019060010190808311611542575b5050505050905092915050565b60486020528060005260406000206000915054906101000a900473ffffffffffffffffffffffffffffffffffffffff1681565b7f969ea04b74d02bb4d9e6e8e57236e1b9ca31627139ae9f0e465249932e82450260001b81565b7fad16221efc80aaf1b7e69bd3ecb61ba5ffa539adf129c3b4ffff769c9b5bbc3360001b81565b7f97e6eb29f6a85471f7cc9b57f9e4c3deaf398cfc9798673160d7798baf0b13a460001b81565b600080604460008473ffffffffffffffffffffffffffffffffffffffff1673ffffffffffffffffffffffffffffffffffffffff16815260200190815260200160002060000154604460008573ffffffffffffffffffffffffffffffffffffffff1673ffffffffffffffffffffffffffffffffffffffff1681526020019081526020016000206001015491509150915091565b7fd26d9834adf5a73309c4974bf654850bb699df8505e70d4cfde365c417b19dfc60001b81565b600060456000848152602001908152602001600020600001828154811061171d57fe5b9060005260206000200154905092915050565b7f44b2657a0f8a90ed8e62f4c4cceca06eacaa9b4b25751ae1ebca9280a70abd6860001b81565b600060366000848152602001908152602001600020600501600083815260200190815260200160002054905092915050565b600060456000848152602001908152602001600020600301600083815260200190815260200160002054905092915050565b60606040518060400160405280600381526020017f5452420000000000000000000000000000000000000000000000000000000000815250905090565b6118006120de565b6118086120de565b611810611e4d565b915060005b6005811015611898576045600084836005811061182e57fe5b6020020151815260200190815260200160002060010160007f2a9e355a92978430eca9c1aa3a9ba590094bac282594bccf82de16b83046e2c381526020019081526020016000205482826005811061188257fe5b6020020181815250508080600101915050611815565b509091565b60006036600084815260200190815260200160002060060160008373ffffffffffffffffffffffffffffffffffffffff1673ffffffffffffffffffffffffffffffffffffffff16815260200190815260200160002060009054906101000a900460ff16905092915050565b600080600080600080600061191b612122565b600080603660008c8152602001908152602001600020905080600001548160020160009054906101000a900460ff168260020160019054906101000a900460ff168360020160029054906101000a900460ff168460020160039054906101000a900473ffffffffffffffffffffffffffffffffffffffff168560030160009054906101000a900473ffffffffffffffffffffffffffffffffffffffff168660040160009054906101000a900473ffffffffffffffffffffffffffffffffffffffff166040518061012001604052808960050160007f31b40192effc42bcf1e4289fe674c678e673a3052992548fef566d8c33a21b9181526020019081526020016000205481526020018960050160007f4ebf727c48eac2c66272456b06a885c5cc03e54d140f63b63b6fd10c1227958e81526020019081526020016000205481526020018960050160007f81afeeaff0ed5cee7d05a21078399c2f56226b0cd5657062500cef4c4e736f8581526020019081526020016000205481526020018960050160007f74c9bc34b0b2333f1b565fbee67d940cf7d78b5a980c5f23da43f6729965ed4081526020019081526020016000205481526020018960050160007fa0bc13ce85a2091e950a370bced0825e58ab3a3ffeb709ed50d5562cbd82faab81526020019081526020016000205481526020018960050160007f6f8f54d1af9b6cb8a219d88672c797f9f3ee97ce5d9369aa897fd0deb5e2dffa81526020019081526020016000205481526020018960050160007f8ef61a1efbc527d6428ff88c95fdff5c6e644b979bfe67e03cbf88c8162c5fac81526020019081526020016000205481526020018960050160007f30e85ae205656781c1a951cba9f9f53f884833c049d377a2a7046eb5e6d14b2681526020019081526020016000205481526020018960050160007f833b9f6abf0b529613680afe2a00fa663cc95cbdc47d726d85a044462eabbf028152602001908152602001600020548152508860010154995099509950995099509950995099509950509193959799909294969850565b7f9dbc393ddc18fd27b1d9b1b129059925688d2f2d5818a5ec3ebb750b7c286ea660001b81565b611c4e612145565b6000603380602002604051908101604052809291908260338015611c87576020028201915b815481526020019060010190808311611c73575b5050505050905090565b60476020528060005260406000206000915090505481565b600060456000848152602001908152602001600020600201600083815260200190815260200160002054905092915050565b600060386000838152602001908152602001600020549050919050565b600060456000848152602001908152602001600020600101600083815260200190815260200160002054905092915050565b60008060006045600085815260200190815260200160002090508060010160007f1e344bd070f05f1c5b3f0b1266f4f20d837a0a8190a3a2da8b0375eac2ba86ea8152602001908152602001600020548160010160007f2a9e355a92978430eca9c1aa3a9ba590094bac282594bccf82de16b83046e2c38152602001908152602001600020549250925050915091565b600080611e4360346000604760007f97e6eb29f6a85471f7cc9b57f9e4c3deaf398cfc9798673160d7798baf0b13a4815260200190815260200160002054815260200190815260200160002054604760007f97e6eb29f6a85471f7cc9b57f9e4c3deaf398cfc9798673160d7798baf0b13a460001b815260200190815260200160002054611789565b6001915091509091565b611e556120de565b611e5d6120de565b611e656120de565b611eab6000603380602002604051908101604052809291908260338015611ea1576020028201915b815481526020019060010190808311611e8d575b5050505050611f56565b809250819350505060005b6005811015611f50576000838260058110611ecd57fe5b602002015114611f155760356000838360058110611ee757fe5b6020020151815260200190815260200160002054848260058110611f0757fe5b602002018181525050611f43565b603a8160040360058110611f2557fe5b6002020160000154848260058110611f3957fe5b6020020181815250505b8080600101915050611eb6565b50505090565b611f5e6120de565b611f666120de565b600083600160338110611f7557fe5b602002015190506000805b600581101561200757856001820160338110611f9857fe5b6020020151858260058110611fa957fe5b60200201818152505060018101848260058110611fc257fe5b60200201818152505082858260058110611fd857fe5b60200201511015611ffa57848160058110611fef57fe5b602002015192508091505b8080600101915050611f80565b506000600690505b60338110156120d6578286826033811061202557fe5b602002015111156120c95785816033811061203c57fe5b602002015185836005811061204d57fe5b6020020181815250508084836005811061206357fe5b60200201818152505085816033811061207857fe5b6020020151925060005b60058110156120c7578386826005811061209857fe5b602002015110156120ba578581600581106120af57fe5b602002015193508092505b8080600101915050612082565b505b808060010191505061200f565b505050915091565b6040518060a00160405280600590602082028036833780820191505090505090565b6040518060a00160405280600590602082028036833780820191505090505090565b604051806101200160405280600990602082028036833780820191505090505090565b60405180610660016040528060339060208202803683378082019150509050509056fea2646970667358221220864a8a647c20ec1412a7544656e98208d6b60b56da9a57afa84786a0d4a2945264736f6c63430007040033",
  "linkReferences": {},
  "deployedLinkReferences": {}
}