{
  "_format": "hh-sol-artifact-1",
  "contractName": "TellorGetters",
  "sourceName": "contracts/TellorGetters.sol",
  "abi": [
    {
      "inputs": [
        {
          "internalType": "address",
          "name": "",
          "type": "address"
        },
        {
          "internalType": "address",
          "name": "",
          "type": "address"
        }
      ],
      "name": "_allowances",
      "outputs": [
        {
          "internalType": "uint256",
          "name": "",
          "type": "uint256"
        }
      ],
      "stateMutability": "view",
      "type": "function"
    },
    {
      "inputs": [],
      "name": "_owner",
      "outputs": [
        {
          "internalType": "bytes32",
          "name": "",
          "type": "bytes32"
        }
      ],
      "stateMutability": "view",
      "type": "function"
    },
    {
      "inputs": [],
      "name": "_tBlock",
      "outputs": [
        {
          "internalType": "bytes32",
          "name": "",
          "type": "bytes32"
        }
      ],
      "stateMutability": "view",
      "type": "function"
    },
    {
      "inputs": [
        {
          "internalType": "bytes32",
          "name": "",
          "type": "bytes32"
        }
      ],
      "name": "addresses",
      "outputs": [
        {
          "internalType": "address",
          "name": "",
          "type": "address"
        }
      ],
      "stateMutability": "view",
      "type": "function"
    },
    {
      "inputs": [
        {
          "internalType": "bytes32",
          "name": "",
          "type": "bytes32"
        }
      ],
      "name": "bytesVars",
      "outputs": [
        {
          "internalType": "bytes32",
          "name": "",
          "type": "bytes32"
        }
      ],
      "stateMutability": "view",
      "type": "function"
    },
    {
      "inputs": [],
      "name": "currentChallenge",
      "outputs": [
        {
          "internalType": "bytes32",
          "name": "",
          "type": "bytes32"
        }
      ],
      "stateMutability": "view",
      "type": "function"
    },
    {
      "inputs": [],
      "name": "currentRequestId",
      "outputs": [
        {
          "internalType": "bytes32",
          "name": "",
          "type": "bytes32"
        }
      ],
      "stateMutability": "view",
      "type": "function"
    },
    {
      "inputs": [],
      "name": "currentTotalTips",
      "outputs": [
        {
          "internalType": "bytes32",
          "name": "",
          "type": "bytes32"
        }
      ],
      "stateMutability": "view",
      "type": "function"
    },
    {
      "inputs": [],
      "name": "decimals",
      "outputs": [
        {
          "internalType": "uint8",
          "name": "",
          "type": "uint8"
        }
      ],
      "stateMutability": "pure",
      "type": "function"
    },
    {
      "inputs": [
        {
          "internalType": "bytes32",
          "name": "_challenge",
          "type": "bytes32"
        },
        {
          "internalType": "address",
          "name": "_miner",
          "type": "address"
        }
      ],
      "name": "didMine",
      "outputs": [
        {
          "internalType": "bool",
          "name": "",
          "type": "bool"
        }
      ],
      "stateMutability": "view",
      "type": "function"
    },
    {
      "inputs": [
        {
          "internalType": "uint256",
          "name": "_disputeId",
          "type": "uint256"
        },
        {
          "internalType": "address",
          "name": "_address",
          "type": "address"
        }
      ],
      "name": "didVote",
      "outputs": [
        {
          "internalType": "bool",
          "name": "",
          "type": "bool"
        }
      ],
      "stateMutability": "view",
      "type": "function"
    },
    {
      "inputs": [],
      "name": "difficulty",
      "outputs": [
        {
          "internalType": "bytes32",
          "name": "",
          "type": "bytes32"
        }
      ],
      "stateMutability": "view",
      "type": "function"
    },
    {
      "inputs": [],
      "name": "disputeFee",
      "outputs": [
        {
          "internalType": "bytes32",
          "name": "",
          "type": "bytes32"
        }
      ],
      "stateMutability": "view",
      "type": "function"
    },
    {
      "inputs": [
        {
          "internalType": "bytes32",
          "name": "_data",
          "type": "bytes32"
        }
      ],
      "name": "getAddressVars",
      "outputs": [
        {
          "internalType": "address",
          "name": "",
          "type": "address"
        }
      ],
      "stateMutability": "view",
      "type": "function"
    },
    {
      "inputs": [
        {
          "internalType": "uint256",
          "name": "_disputeId",
          "type": "uint256"
        }
      ],
      "name": "getAllDisputeVars",
      "outputs": [
        {
          "internalType": "bytes32",
          "name": "",
          "type": "bytes32"
        },
        {
          "internalType": "bool",
          "name": "",
          "type": "bool"
        },
        {
          "internalType": "bool",
          "name": "",
          "type": "bool"
        },
        {
          "internalType": "bool",
          "name": "",
          "type": "bool"
        },
        {
          "internalType": "address",
          "name": "",
          "type": "address"
        },
        {
          "internalType": "address",
          "name": "",
          "type": "address"
        },
        {
          "internalType": "address",
          "name": "",
          "type": "address"
        },
        {
          "internalType": "uint256[9]",
          "name": "",
          "type": "uint256[9]"
        },
        {
          "internalType": "int256",
          "name": "",
          "type": "int256"
        }
      ],
      "stateMutability": "view",
      "type": "function"
    },
    {
      "inputs": [
        {
          "internalType": "bytes32",
          "name": "_hash",
          "type": "bytes32"
        }
      ],
      "name": "getDisputeIdByDisputeHash",
      "outputs": [
        {
          "internalType": "uint256",
          "name": "",
          "type": "uint256"
        }
      ],
      "stateMutability": "view",
      "type": "function"
    },
    {
      "inputs": [
        {
          "internalType": "uint256",
          "name": "_disputeId",
          "type": "uint256"
        },
        {
          "internalType": "bytes32",
          "name": "_data",
          "type": "bytes32"
        }
      ],
      "name": "getDisputeUintVars",
      "outputs": [
        {
          "internalType": "uint256",
          "name": "",
          "type": "uint256"
        }
      ],
      "stateMutability": "view",
      "type": "function"
    },
    {
      "inputs": [],
      "name": "getLastNewValue",
      "outputs": [
        {
          "internalType": "uint256",
          "name": "",
          "type": "uint256"
        },
        {
          "internalType": "bool",
          "name": "",
          "type": "bool"
        }
      ],
      "stateMutability": "view",
      "type": "function"
    },
    {
      "inputs": [
        {
          "internalType": "uint256",
          "name": "_requestId",
          "type": "uint256"
        }
      ],
      "name": "getLastNewValueById",
      "outputs": [
        {
          "internalType": "uint256",
          "name": "",
          "type": "uint256"
        },
        {
          "internalType": "bool",
          "name": "",
          "type": "bool"
        }
      ],
      "stateMutability": "view",
      "type": "function"
    },
    {
      "inputs": [
        {
          "internalType": "uint256",
          "name": "_requestId",
          "type": "uint256"
        },
        {
          "internalType": "uint256",
          "name": "_timestamp",
          "type": "uint256"
        }
      ],
      "name": "getMinedBlockNum",
      "outputs": [
        {
          "internalType": "uint256",
          "name": "",
          "type": "uint256"
        }
      ],
      "stateMutability": "view",
      "type": "function"
    },
    {
      "inputs": [
        {
          "internalType": "uint256",
          "name": "_requestId",
          "type": "uint256"
        },
        {
          "internalType": "uint256",
          "name": "_timestamp",
          "type": "uint256"
        }
      ],
      "name": "getMinersByRequestIdAndTimestamp",
      "outputs": [
        {
          "internalType": "address[5]",
          "name": "",
          "type": "address[5]"
        }
      ],
      "stateMutability": "view",
      "type": "function"
    },
    {
      "inputs": [],
      "name": "getNewCurrentVariables",
      "outputs": [
        {
          "internalType": "bytes32",
          "name": "_challenge",
          "type": "bytes32"
        },
        {
          "internalType": "uint256[5]",
          "name": "_requestIds",
          "type": "uint256[5]"
        },
        {
          "internalType": "uint256",
          "name": "_difficulty",
          "type": "uint256"
        },
        {
          "internalType": "uint256",
          "name": "_tip",
          "type": "uint256"
        }
      ],
      "stateMutability": "view",
      "type": "function"
    },
    {
      "inputs": [
        {
          "internalType": "uint256",
          "name": "_requestId",
          "type": "uint256"
        }
      ],
      "name": "getNewValueCountbyRequestId",
      "outputs": [
        {
          "internalType": "uint256",
          "name": "",
          "type": "uint256"
        }
      ],
      "stateMutability": "view",
      "type": "function"
    },
    {
      "inputs": [],
      "name": "getNewVariablesOnDeck",
      "outputs": [
        {
          "internalType": "uint256[5]",
          "name": "idsOnDeck",
          "type": "uint256[5]"
        },
        {
          "internalType": "uint256[5]",
          "name": "tipsOnDeck",
          "type": "uint256[5]"
        }
      ],
      "stateMutability": "view",
      "type": "function"
    },
    {
      "inputs": [
        {
          "internalType": "uint256",
          "name": "_index",
          "type": "uint256"
        }
      ],
      "name": "getRequestIdByRequestQIndex",
      "outputs": [
        {
          "internalType": "uint256",
          "name": "",
          "type": "uint256"
        }
      ],
      "stateMutability": "view",
      "type": "function"
    },
    {
      "inputs": [
        {
          "internalType": "uint256",
          "name": "_timestamp",
          "type": "uint256"
        }
      ],
      "name": "getRequestIdByTimestamp",
      "outputs": [
        {
          "internalType": "uint256",
          "name": "",
          "type": "uint256"
        }
      ],
      "stateMutability": "view",
      "type": "function"
    },
    {
      "inputs": [],
      "name": "getRequestQ",
      "outputs": [
        {
          "internalType": "uint256[51]",
          "name": "",
          "type": "uint256[51]"
        }
      ],
      "stateMutability": "view",
      "type": "function"
    },
    {
      "inputs": [
        {
          "internalType": "uint256",
          "name": "_requestId",
          "type": "uint256"
        },
        {
          "internalType": "bytes32",
          "name": "_data",
          "type": "bytes32"
        }
      ],
      "name": "getRequestUintVars",
      "outputs": [
        {
          "internalType": "uint256",
          "name": "",
          "type": "uint256"
        }
      ],
      "stateMutability": "view",
      "type": "function"
    },
    {
      "inputs": [
        {
          "internalType": "uint256",
          "name": "_requestId",
          "type": "uint256"
        }
      ],
      "name": "getRequestVars",
      "outputs": [
        {
          "internalType": "uint256",
          "name": "",
          "type": "uint256"
        },
        {
          "internalType": "uint256",
          "name": "",
          "type": "uint256"
        }
      ],
      "stateMutability": "view",
      "type": "function"
    },
    {
      "inputs": [
        {
          "internalType": "address",
          "name": "_staker",
          "type": "address"
        }
      ],
      "name": "getStakerInfo",
      "outputs": [
        {
          "internalType": "uint256",
          "name": "",
          "type": "uint256"
        },
        {
          "internalType": "uint256",
          "name": "",
          "type": "uint256"
        }
      ],
      "stateMutability": "view",
      "type": "function"
    },
    {
      "inputs": [
        {
          "internalType": "uint256",
          "name": "_requestId",
          "type": "uint256"
        },
        {
          "internalType": "uint256",
          "name": "_timestamp",
          "type": "uint256"
        }
      ],
      "name": "getSubmissionsByTimestamp",
      "outputs": [
        {
          "internalType": "uint256[5]",
          "name": "",
          "type": "uint256[5]"
        }
      ],
      "stateMutability": "view",
      "type": "function"
    },
    {
      "inputs": [
        {
          "internalType": "uint256",
          "name": "_requestID",
          "type": "uint256"
        },
        {
          "internalType": "uint256",
          "name": "_index",
          "type": "uint256"
        }
      ],
      "name": "getTimestampbyRequestIDandIndex",
      "outputs": [
        {
          "internalType": "uint256",
          "name": "",
          "type": "uint256"
        }
      ],
      "stateMutability": "view",
      "type": "function"
    },
    {
      "inputs": [],
      "name": "getTopRequestIDs",
      "outputs": [
        {
          "internalType": "uint256[5]",
          "name": "_requestIds",
          "type": "uint256[5]"
        }
      ],
      "stateMutability": "view",
      "type": "function"
    },
    {
      "inputs": [
        {
          "internalType": "bytes32",
          "name": "_data",
          "type": "bytes32"
        }
      ],
      "name": "getUintVar",
      "outputs": [
        {
          "internalType": "uint256",
          "name": "",
          "type": "uint256"
        }
      ],
      "stateMutability": "view",
      "type": "function"
    },
    {
      "inputs": [
        {
          "internalType": "uint256",
          "name": "_requestId",
          "type": "uint256"
        },
        {
          "internalType": "uint256",
          "name": "_timestamp",
          "type": "uint256"
        }
      ],
      "name": "isInDispute",
      "outputs": [
        {
          "internalType": "bool",
          "name": "",
          "type": "bool"
        }
      ],
      "stateMutability": "view",
      "type": "function"
    },
    {
      "inputs": [],
      "name": "name",
      "outputs": [
        {
          "internalType": "string",
          "name": "",
          "type": "string"
        }
      ],
      "stateMutability": "pure",
      "type": "function"
    },
    {
      "inputs": [],
      "name": "pending_owner",
      "outputs": [
        {
          "internalType": "bytes32",
          "name": "",
          "type": "bytes32"
        }
      ],
      "stateMutability": "view",
      "type": "function"
    },
    {
      "inputs": [],
      "name": "requestCount",
      "outputs": [
        {
          "internalType": "bytes32",
          "name": "",
          "type": "bytes32"
        }
      ],
      "stateMutability": "view",
      "type": "function"
    },
    {
      "inputs": [],
      "name": "requestQPosition",
      "outputs": [
        {
          "internalType": "bytes32",
          "name": "",
          "type": "bytes32"
        }
      ],
      "stateMutability": "view",
      "type": "function"
    },
    {
      "inputs": [
        {
          "internalType": "uint256",
          "name": "_requestId",
          "type": "uint256"
        },
        {
          "internalType": "uint256",
          "name": "_timestamp",
          "type": "uint256"
        }
      ],
      "name": "retrieveData",
      "outputs": [
        {
          "internalType": "uint256",
          "name": "",
          "type": "uint256"
        }
      ],
      "stateMutability": "view",
      "type": "function"
    },
    {
      "inputs": [],
      "name": "slotProgress",
      "outputs": [
        {
          "internalType": "bytes32",
          "name": "",
          "type": "bytes32"
        }
      ],
      "stateMutability": "view",
      "type": "function"
    },
    {
      "inputs": [],
      "name": "stakeAmount",
      "outputs": [
        {
          "internalType": "bytes32",
          "name": "",
          "type": "bytes32"
        }
      ],
      "stateMutability": "view",
      "type": "function"
    },
    {
      "inputs": [],
      "name": "stakerCount",
      "outputs": [
        {
          "internalType": "bytes32",
          "name": "",
          "type": "bytes32"
        }
      ],
      "stateMutability": "view",
      "type": "function"
    },
    {
      "inputs": [],
      "name": "symbol",
      "outputs": [
        {
          "internalType": "string",
          "name": "",
          "type": "string"
        }
      ],
      "stateMutability": "pure",
      "type": "function"
    },
    {
      "inputs": [],
      "name": "targetMiners",
      "outputs": [
        {
          "internalType": "bytes32",
          "name": "",
          "type": "bytes32"
        }
      ],
      "stateMutability": "view",
      "type": "function"
    },
    {
      "inputs": [],
      "name": "timeOfLastNewValue",
      "outputs": [
        {
          "internalType": "bytes32",
          "name": "",
          "type": "bytes32"
        }
      ],
      "stateMutability": "view",
      "type": "function"
    },
    {
      "inputs": [],
      "name": "timeTarget",
      "outputs": [
        {
          "internalType": "bytes32",
          "name": "",
          "type": "bytes32"
        }
      ],
      "stateMutability": "view",
      "type": "function"
    },
    {
      "inputs": [],
      "name": "totalSupply",
      "outputs": [
        {
          "internalType": "uint256",
          "name": "",
          "type": "uint256"
        }
      ],
      "stateMutability": "view",
      "type": "function"
    },
    {
      "inputs": [],
      "name": "totalTip",
      "outputs": [
        {
          "internalType": "bytes32",
          "name": "",
          "type": "bytes32"
        }
      ],
      "stateMutability": "view",
      "type": "function"
    },
    {
      "inputs": [],
      "name": "total_supply",
      "outputs": [
        {
          "internalType": "bytes32",
          "name": "",
          "type": "bytes32"
        }
      ],
      "stateMutability": "view",
      "type": "function"
    },
    {
      "inputs": [
        {
          "internalType": "bytes32",
          "name": "",
          "type": "bytes32"
        }
      ],
      "name": "uints",
      "outputs": [
        {
          "internalType": "uint256",
          "name": "",
          "type": "uint256"
        }
      ],
      "stateMutability": "view",
      "type": "function"
    }
  ],
  "bytecode": "0x608060405234801561001057600080fd5b5061230b806100206000396000f3fe608060405234801561001057600080fd5b50600436106102f15760003560e01c8063699f200f1161019d578063af0b1327116100e9578063da379941116100a2578063e0ae93c11161007c578063e0ae93c114610f25578063e1eee6d614610f71578063fc7cf0a014610fba578063fe1cd15d14610fe1576102f1565b8063da37994114610ea7578063dfee1ff114610ee9578063dff6978714610f07576102f1565b8063af0b132714610cad578063b2bdfa7b14610d97578063b541302914610db5578063b59e14d414610dfb578063b9ce896b14610e3d578063c775b54214610e5b576102f1565b806377fbb6631161015657806393fa49151161013057806393fa491514610b0557806395d89b4114610b515780639a7077ab14610bd4578063a7c438bc14610c49576102f1565b806377fbb66314610a4f5780637f4ec4c314610a9b5780637f6fd5d914610ab9576102f1565b8063699f200f146109205780636e3cf885146109785780636fc37811146109965780636fd4f229146109b4578063733bdef0146109d257806375ad1a2a14610a31576102f1565b80633df0777b1161025c5780635badbe4c116102155780636173c0b8116101ef5780636173c0b8146107c457806362dd1d2a1461080657806363bb82ad1461084857806369026d63146108ac576102f1565b80635badbe4c1461074657806360c7dc4714610764578063612c8f7f14610782576102f1565b80633df0777b146106015780634049f1981461064f57806346eee1c4146106aa57806351bdd585146106ec578063561cb04a1461070a5780635ae2bfdb14610728576102f1565b806318160ddd116102ae57806318160ddd1461051d57806319cae4621461053b5780632bf07e9e14610559578063313ce567146105775780633180f8df146105985780633940e9ee146105e3576102f1565b8063024c2ddd146102f657806303b3160f1461036e57806306fdde031461038c5780630f0b424d1461040f57806311c9851214610451578063133bee5e146104c5575b600080fd5b6103586004803603604081101561030c57600080fd5b81019080803573ffffffffffffffffffffffffffffffffffffffff169060200190929190803573ffffffffffffffffffffffffffffffffffffffff169060200190929190505050611027565b6040518082815260200191505060405180910390f35b61037661104c565b6040518082815260200191505060405180910390f35b610394611073565b6040518080602001828103825283818151815260200191508051906020019080838360005b838110156103d45780820151818401526020810190506103b9565b50505050905090810190601f1680156104015780820380516001836020036101000a031916815260200191505b509250505060405180910390f35b61043b6004803603602081101561042557600080fd5b81019080803590602001909291905050506110b0565b6040518082815260200191505060405180910390f35b6104876004803603604081101561046757600080fd5b8101908080359060200190929190803590602001909291905050506110cd565b6040518082600560200280838360005b838110156104b2578082015181840152602081019050610497565b5050505090500191505060405180910390f35b6104f1600480360360208110156104db57600080fd5b8101908080359060200190929190505050611140565b604051808273ffffffffffffffffffffffffffffffffffffffff16815260200191505060405180910390f35b61052561117d565b6040518082815260200191505060405180910390f35b6105436111bb565b6040518082815260200191505060405180910390f35b6105616111e2565b6040518082815260200191505060405180910390f35b61057f611209565b604051808260ff16815260200191505060405180910390f35b6105c4600480360360208110156105ae57600080fd5b8101908080359060200190929190505050611212565b6040518083815260200182151581526020019250505060405180910390f35b6105eb611282565b6040518082815260200191505060405180910390f35b6106376004803603604081101561061757600080fd5b8101908080359060200190929190803590602001909291905050506112a9565b60405180821515815260200191505060405180910390f35b6106576112e8565b6040518085815260200184600560200280838360005b8381101561068857808201518184015260208101905061066d565b5050505090500183815260200182815260200194505050505060405180910390f35b6106d6600480360360208110156106c057600080fd5b81019080803590602001909291905050506113d7565b6040518082815260200191505060405180910390f35b6106f46113fa565b6040518082815260200191505060405180910390f35b61071261141e565b6040518082815260200191505060405180910390f35b610730611445565b6040518082815260200191505060405180910390f35b61074e61146c565b6040518082815260200191505060405180910390f35b61076c611493565b6040518082815260200191505060405180910390f35b6107ae6004803603602081101561079857600080fd5b81019080803590602001909291905050506114ba565b6040518082815260200191505060405180910390f35b6107f0600480360360208110156107da57600080fd5b81019080803590602001909291905050506114d7565b6040518082815260200191505060405180910390f35b6108326004803603602081101561081c57600080fd5b810190808035906020019092919050505061156b565b6040518082815260200191505060405180910390f35b6108946004803603604081101561085e57600080fd5b8101908080359060200190929190803573ffffffffffffffffffffffffffffffffffffffff169060200190929190505050611583565b60405180821515815260200191505060405180910390f35b6108e2600480360360408110156108c257600080fd5b8101908080359060200190929190803590602001909291905050506115eb565b6040518082600560200280838360005b8381101561090d5780820151818401526020810190506108f2565b5050505090500191505060405180910390f35b61094c6004803603602081101561093657600080fd5b8101908080359060200190929190505050611694565b604051808273ffffffffffffffffffffffffffffffffffffffff16815260200191505060405180910390f35b6109806116c7565b6040518082815260200191505060405180910390f35b61099e6116ee565b6040518082815260200191505060405180910390f35b6109bc611715565b6040518082815260200191505060405180910390f35b610a14600480360360208110156109e857600080fd5b81019080803573ffffffffffffffffffffffffffffffffffffffff16906020019092919050505061173c565b604051808381526020018281526020019250505060405180910390f35b610a396117ce565b6040518082815260200191505060405180910390f35b610a8560048036036040811015610a6557600080fd5b8101908080359060200190929190803590602001909291905050506117f5565b6040518082815260200191505060405180910390f35b610aa361182b565b6040518082815260200191505060405180910390f35b610aef60048036036040811015610acf57600080fd5b810190808035906020019092919080359060200190929190505050611852565b6040518082815260200191505060405180910390f35b610b3b60048036036040811015610b1b57600080fd5b810190808035906020019092919080359060200190929190505050611884565b6040518082815260200191505060405180910390f35b610b596118b6565b6040518080602001828103825283818151815260200191508051906020019080838360005b83811015610b99578082015181840152602081019050610b7e565b50505050905090810190601f168015610bc65780820380516001836020036101000a031916815260200191505b509250505060405180910390f35b610bdc6118f3565b6040518083600560200280838360005b83811015610c07578082015181840152602081019050610bec565b5050505090500182600560200280838360005b83811015610c35578082015181840152602081019050610c1a565b505050509050019250505060405180910390f35b610c9560048036036040811015610c5f57600080fd5b8101908080359060200190929190803573ffffffffffffffffffffffffffffffffffffffff16906020019092919050505061199b565b60405180821515815260200191505060405180910390f35b610cd960048036036020811015610cc357600080fd5b8101908080359060200190929190505050611a06565b604051808a81526020018915158152602001881515815260200187151581526020018673ffffffffffffffffffffffffffffffffffffffff1681526020018573ffffffffffffffffffffffffffffffffffffffff1681526020018473ffffffffffffffffffffffffffffffffffffffff16815260200183600960200280838360005b83811015610d76578082015181840152602081019050610d5b565b50505050905001828152602001995050505050505050505060405180910390f35b610d9f611d1d565b6040518082815260200191505060405180910390f35b610dbd611d44565b6040518082603360200280838360005b83811015610de8578082015181840152602081019050610dcd565b5050505090500191505060405180910390f35b610e2760048036036020811015610e1157600080fd5b8101908080359060200190929190505050611d8f565b6040518082815260200191505060405180910390f35b610e45611da7565b6040518082815260200191505060405180910390f35b610e9160048036036040811015610e7157600080fd5b810190808035906020019092919080359060200190929190505050611dcb565b6040518082815260200191505060405180910390f35b610ed360048036036020811015610ebd57600080fd5b8101908080359060200190929190505050611dfd565b6040518082815260200191505060405180910390f35b610ef1611e1a565b6040518082815260200191505060405180910390f35b610f0f611e3e565b6040518082815260200191505060405180910390f35b610f5b60048036036040811015610f3b57600080fd5b810190808035906020019092919080359060200190929190505050611e62565b6040518082815260200191505060405180910390f35b610f9d60048036036020811015610f8757600080fd5b8101908080359060200190929190505050611e94565b604051808381526020018281526020019250505060405180910390f35b610fc2611f27565b6040518083815260200182151581526020019250505060405180910390f35b610fe9611fba565b6040518082600560200280838360005b83811015611014578082015181840152602081019050610ff9565b5050505090500191505060405180910390f35b604b602052816000526040600020602052806000526040600020600091509150505481565b7f6c505cb2db6644f57b42d87bd9407b0f66788b07d0617a2bc1356a0e69e66f9a60001b81565b60606040518060400160405280600f81526020017f54656c6c6f722054726962757465730000000000000000000000000000000000815250905090565b600060346000838152602001908152602001600020549050919050565b6110d561224b565b604560008481526020019081526020016000206006016000838152602001908152602001600020600580602002604051908101604052809291908260058015611133576020028201915b81548152602001906001019080831161111f575b5050505050905092915050565b60006048600083815260200190815260200160002060009054906101000a900473ffffffffffffffffffffffffffffffffffffffff169050919050565b6000604760007fb1557182e4359a1f0c6301278e8f5b35a776ab58d39892581e357578fb28783660001b815260200190815260200160002054905090565b7fb12aff7664b16cb99339be399b863feecd64d14817be7e1f042f97e3f358e64e60001b81565b7f1e344bd070f05f1c5b3f0b1266f4f20d837a0a8190a3a2da8b0375eac2ba86ea60001b81565b60006012905090565b6000806000604560008581526020019081526020016000209050600081600001805490501461127457611268848260000160018460000180549050038154811061125857fe5b9060005260206000200154611884565b6001925092505061127d565b60008092509250505b915091565b7fb1557182e4359a1f0c6301278e8f5b35a776ab58d39892581e357578fb28783660001b81565b600060456000848152602001908152602001600020600401600083815260200190815260200160002060009054906101000a900460ff16905092915050565b60006112f261224b565b60008060005b600581101561133857603a816005811061130e57fe5b600202016000015484826005811061132257fe5b60200201818152505080806001019150506112f8565b507f3375fb9157bb77048f607329b1c4d45487433f61e0f51bcdeba91d975b2dab1883604760007fb12aff7664b16cb99339be399b863feecd64d14817be7e1f042f97e3f358e64e60001b815260200190815260200160002054604760007fd26d9834adf5a73309c4974bf654850bb699df8505e70d4cfde365c417b19dfc60001b815260200190815260200160002054935093509350935090919293565b600060456000838152602001908152602001600020600001805490509050919050565b7f3375fb9157bb77048f607329b1c4d45487433f61e0f51bcdeba91d975b2dab1881565b7f2a9e355a92978430eca9c1aa3a9ba590094bac282594bccf82de16b83046e2c360001b81565b7f7584d7d8701714da9c117f5bf30af73b0b88aca5338a84a21eb28de2fe0d93b860001b81565b7f05de9147d05477c0a5dc675aeea733157f5092f82add148cf39d579cafe3dc9860001b81565b7f7be108969d31a3f0b261465c71f2b0ba9301cd914d55d9091c3b36a49d4d41b260001b81565b600060476000838152602001908152602001600020549050919050565b60006032821115611550576040517f08c379a000000000000000000000000000000000000000000000000000000000815260040180806020018281038252601a8152602001807f526571756573745120696e6465782069732061626f766520353000000000000081525060200191505060405180910390fd5b60356000838152602001908152602001600020549050919050565b60496020528060005260406000206000915090505481565b60006039600084815260200190815260200160002060008373ffffffffffffffffffffffffffffffffffffffff1673ffffffffffffffffffffffffffffffffffffffff16815260200190815260200160002060009054906101000a900460ff16905092915050565b6115f361226d565b604560008481526020019081526020016000206005016000838152602001908152602001600020600580602002604051908101604052809291908260058015611687576020028201915b8160009054906101000a900473ffffffffffffffffffffffffffffffffffffffff1673ffffffffffffffffffffffffffffffffffffffff168152602001906001019080831161163d575b5050505050905092915050565b60486020528060005260406000206000915054906101000a900473ffffffffffffffffffffffffffffffffffffffff1681565b7f969ea04b74d02bb4d9e6e8e57236e1b9ca31627139ae9f0e465249932e82450260001b81565b7fad16221efc80aaf1b7e69bd3ecb61ba5ffa539adf129c3b4ffff769c9b5bbc3360001b81565b7f97e6eb29f6a85471f7cc9b57f9e4c3deaf398cfc9798673160d7798baf0b13a460001b81565b600080604460008473ffffffffffffffffffffffffffffffffffffffff1673ffffffffffffffffffffffffffffffffffffffff16815260200190815260200160002060000154604460008573ffffffffffffffffffffffffffffffffffffffff1673ffffffffffffffffffffffffffffffffffffffff1681526020019081526020016000206001015491509150915091565b7fd26d9834adf5a73309c4974bf654850bb699df8505e70d4cfde365c417b19dfc60001b81565b600060456000848152602001908152602001600020600001828154811061181857fe5b9060005260206000200154905092915050565b7f44b2657a0f8a90ed8e62f4c4cceca06eacaa9b4b25751ae1ebca9280a70abd6860001b81565b600060366000848152602001908152602001600020600501600083815260200190815260200160002054905092915050565b600060456000848152602001908152602001600020600301600083815260200190815260200160002054905092915050565b60606040518060400160405280600381526020017f5452420000000000000000000000000000000000000000000000000000000000815250905090565b6118fb61224b565b61190361224b565b61190b611fba565b915060005b6005811015611996576045600084836005811061192957fe5b6020020151815260200190815260200160002060010160007f2a9e355a92978430eca9c1aa3a9ba590094bac282594bccf82de16b83046e2c360001b81526020019081526020016000205482826005811061198057fe5b6020020181815250508080600101915050611910565b509091565b60006036600084815260200190815260200160002060060160008373ffffffffffffffffffffffffffffffffffffffff1673ffffffffffffffffffffffffffffffffffffffff16815260200190815260200160002060009054906101000a900460ff16905092915050565b6000806000806000806000611a1961228f565b600080603660008c8152602001908152602001600020905080600001548160020160009054906101000a900460ff168260020160019054906101000a900460ff168360020160029054906101000a900460ff168460020160039054906101000a900473ffffffffffffffffffffffffffffffffffffffff168560030160009054906101000a900473ffffffffffffffffffffffffffffffffffffffff168660040160009054906101000a900473ffffffffffffffffffffffffffffffffffffffff166040518061012001604052808960050160007f31b40192effc42bcf1e4289fe674c678e673a3052992548fef566d8c33a21b9181526020019081526020016000205481526020018960050160007f4ebf727c48eac2c66272456b06a885c5cc03e54d140f63b63b6fd10c1227958e81526020019081526020016000205481526020018960050160007f81afeeaff0ed5cee7d05a21078399c2f56226b0cd5657062500cef4c4e736f8581526020019081526020016000205481526020018960050160007f74c9bc34b0b2333f1b565fbee67d940cf7d78b5a980c5f23da43f6729965ed4081526020019081526020016000205481526020018960050160007fa0bc13ce85a2091e950a370bced0825e58ab3a3ffeb709ed50d5562cbd82faab81526020019081526020016000205481526020018960050160007f6f8f54d1af9b6cb8a219d88672c797f9f3ee97ce5d9369aa897fd0deb5e2dffa81526020019081526020016000205481526020018960050160007f8ef61a1efbc527d6428ff88c95fdff5c6e644b979bfe67e03cbf88c8162c5fac81526020019081526020016000205481526020018960050160007f30e85ae205656781c1a951cba9f9f53f884833c049d377a2a7046eb5e6d14b2681526020019081526020016000205481526020018960050160007f833b9f6abf0b529613680afe2a00fa663cc95cbdc47d726d85a044462eabbf028152602001908152602001600020548152508860010154995099509950995099509950995099509950509193959799909294969850565b7f9dbc393ddc18fd27b1d9b1b129059925688d2f2d5818a5ec3ebb750b7c286ea660001b81565b611d4c6122b2565b6000603380602002604051908101604052809291908260338015611d85576020028201915b815481526020019060010190808311611d71575b5050505050905090565b60476020528060005260406000206000915090505481565b7f8b75eb45d88e80f0e4ec77d23936268694c0e7ac2e0c9085c5c6bdfcfbc4923981565b600060456000848152602001908152602001600020600201600083815260200190815260200160002054905092915050565b600060386000838152602001908152602001600020549050919050565b7fabef544d8048318ece54fb2c6385255cd1b06e176525d149a0338a7acca6deb381565b7fedddb9344bfe0dadc78c558b8ffca446679cbffc17be64eb83973fce7bea5f3481565b600060456000848152602001908152602001600020600101600083815260200190815260200160002054905092915050565b60008060006045600085815260200190815260200160002090508060010160007f1e344bd070f05f1c5b3f0b1266f4f20d837a0a8190a3a2da8b0375eac2ba86ea8152602001908152602001600020548160010160007f2a9e355a92978430eca9c1aa3a9ba590094bac282594bccf82de16b83046e2c360001b8152602001908152602001600020549250925050915091565b600080611fb060346000604760007f97e6eb29f6a85471f7cc9b57f9e4c3deaf398cfc9798673160d7798baf0b13a4815260200190815260200160002054815260200190815260200160002054604760007f97e6eb29f6a85471f7cc9b57f9e4c3deaf398cfc9798673160d7798baf0b13a460001b815260200190815260200160002054611884565b6001915091509091565b611fc261224b565b611fca61224b565b611fd261224b565b612018600060338060200260405190810160405280929190826033801561200e576020028201915b815481526020019060010190808311611ffa575b50505050506120c3565b809250819350505060005b60058110156120bd57600083826005811061203a57fe5b602002015114612082576035600083836005811061205457fe5b602002015181526020019081526020016000205484826005811061207457fe5b6020020181815250506120b0565b603a816004036005811061209257fe5b60020201600001548482600581106120a657fe5b6020020181815250505b8080600101915050612023565b50505090565b6120cb61224b565b6120d361224b565b6000836001603381106120e257fe5b602002015190506000805b60058110156121745785600182016033811061210557fe5b602002015185826005811061211657fe5b6020020181815250506001810184826005811061212f57fe5b6020020181815250508285826005811061214557fe5b602002015110156121675784816005811061215c57fe5b602002015192508091505b80806001019150506120ed565b506000600690505b6033811015612243578286826033811061219257fe5b60200201511115612236578581603381106121a957fe5b60200201518583600581106121ba57fe5b602002018181525050808483600581106121d057fe5b6020020181815250508581603381106121e557fe5b6020020151925060005b6005811015612234578386826005811061220557fe5b602002015110156122275785816005811061221c57fe5b602002015193508092505b80806001019150506121ef565b505b808060010191505061217c565b505050915091565b6040518060a00160405280600590602082028036833780820191505090505090565b6040518060a00160405280600590602082028036833780820191505090505090565b604051806101200160405280600990602082028036833780820191505090505090565b60405180610660016040528060339060208202803683378082019150509050509056fea26469706673582212205c5c79fdefd6a530a35449bd112adbbfd7709f9dc30bfdc9ee1be339702134e864736f6c63430007040033",
  "linkReferences": {},
  "deployedLinkReferences": {}
}