{
  "_format": "hh-sol-artifact-1",
  "contractName": "TellorGetters",
  "sourceName": "contracts/TellorGetters.sol",
  "abi": [
    {
      "inputs": [
        {
          "internalType": "address",
          "name": "",
          "type": "address"
        },
        {
          "internalType": "address",
          "name": "",
          "type": "address"
        }
      ],
      "name": "_allowances",
      "outputs": [
        {
          "internalType": "uint256",
          "name": "",
          "type": "uint256"
        }
      ],
      "stateMutability": "view",
      "type": "function"
    },
    {
      "inputs": [],
      "name": "_owner",
      "outputs": [
        {
          "internalType": "bytes32",
          "name": "",
          "type": "bytes32"
        }
      ],
      "stateMutability": "view",
      "type": "function"
    },
    {
      "inputs": [],
      "name": "_tBlock",
      "outputs": [
        {
          "internalType": "bytes32",
          "name": "",
          "type": "bytes32"
        }
      ],
      "stateMutability": "view",
      "type": "function"
    },
    {
      "inputs": [
        {
          "internalType": "bytes32",
          "name": "",
          "type": "bytes32"
        }
      ],
      "name": "addresses",
      "outputs": [
        {
          "internalType": "address",
          "name": "",
          "type": "address"
        }
      ],
      "stateMutability": "view",
      "type": "function"
    },
    {
      "inputs": [
        {
          "internalType": "bytes32",
          "name": "",
          "type": "bytes32"
        }
      ],
      "name": "bytesVars",
      "outputs": [
        {
          "internalType": "bytes32",
          "name": "",
          "type": "bytes32"
        }
      ],
      "stateMutability": "view",
      "type": "function"
    },
    {
      "inputs": [],
      "name": "currentChallenge",
      "outputs": [
        {
          "internalType": "bytes32",
          "name": "",
          "type": "bytes32"
        }
      ],
      "stateMutability": "view",
      "type": "function"
    },
    {
      "inputs": [],
      "name": "currentRequestId",
      "outputs": [
        {
          "internalType": "bytes32",
          "name": "",
          "type": "bytes32"
        }
      ],
      "stateMutability": "view",
      "type": "function"
    },
    {
      "inputs": [],
      "name": "currentTotalTips",
      "outputs": [
        {
          "internalType": "bytes32",
          "name": "",
          "type": "bytes32"
        }
      ],
      "stateMutability": "view",
      "type": "function"
    },
    {
      "inputs": [],
      "name": "decimals",
      "outputs": [
        {
          "internalType": "uint8",
          "name": "",
          "type": "uint8"
        }
      ],
      "stateMutability": "pure",
      "type": "function"
    },
    {
      "inputs": [
        {
          "internalType": "bytes32",
          "name": "_challenge",
          "type": "bytes32"
        },
        {
          "internalType": "address",
          "name": "_miner",
          "type": "address"
        }
      ],
      "name": "didMine",
      "outputs": [
        {
          "internalType": "bool",
          "name": "",
          "type": "bool"
        }
      ],
      "stateMutability": "view",
      "type": "function"
    },
    {
      "inputs": [
        {
          "internalType": "uint256",
          "name": "_disputeId",
          "type": "uint256"
        },
        {
          "internalType": "address",
          "name": "_address",
          "type": "address"
        }
      ],
      "name": "didVote",
      "outputs": [
        {
          "internalType": "bool",
          "name": "",
          "type": "bool"
        }
      ],
      "stateMutability": "view",
      "type": "function"
    },
    {
      "inputs": [],
      "name": "difficulty",
      "outputs": [
        {
          "internalType": "bytes32",
          "name": "",
          "type": "bytes32"
        }
      ],
      "stateMutability": "view",
      "type": "function"
    },
    {
      "inputs": [],
      "name": "disputeFee",
      "outputs": [
        {
          "internalType": "bytes32",
          "name": "",
          "type": "bytes32"
        }
      ],
      "stateMutability": "view",
      "type": "function"
    },
    {
      "inputs": [
        {
          "internalType": "bytes32",
          "name": "_data",
          "type": "bytes32"
        }
      ],
      "name": "getAddressVars",
      "outputs": [
        {
          "internalType": "address",
          "name": "",
          "type": "address"
        }
      ],
      "stateMutability": "view",
      "type": "function"
    },
    {
      "inputs": [
        {
          "internalType": "uint256",
          "name": "_disputeId",
          "type": "uint256"
        }
      ],
      "name": "getAllDisputeVars",
      "outputs": [
        {
          "internalType": "bytes32",
          "name": "",
          "type": "bytes32"
        },
        {
          "internalType": "bool",
          "name": "",
          "type": "bool"
        },
        {
          "internalType": "bool",
          "name": "",
          "type": "bool"
        },
        {
          "internalType": "bool",
          "name": "",
          "type": "bool"
        },
        {
          "internalType": "address",
          "name": "",
          "type": "address"
        },
        {
          "internalType": "address",
          "name": "",
          "type": "address"
        },
        {
          "internalType": "address",
          "name": "",
          "type": "address"
        },
        {
          "internalType": "uint256[9]",
          "name": "",
          "type": "uint256[9]"
        },
        {
          "internalType": "int256",
          "name": "",
          "type": "int256"
        }
      ],
      "stateMutability": "view",
      "type": "function"
    },
    {
      "inputs": [
        {
          "internalType": "bytes32",
          "name": "_hash",
          "type": "bytes32"
        }
      ],
      "name": "getDisputeIdByDisputeHash",
      "outputs": [
        {
          "internalType": "uint256",
          "name": "",
          "type": "uint256"
        }
      ],
      "stateMutability": "view",
      "type": "function"
    },
    {
      "inputs": [
        {
          "internalType": "uint256",
          "name": "_disputeId",
          "type": "uint256"
        },
        {
          "internalType": "bytes32",
          "name": "_data",
          "type": "bytes32"
        }
      ],
      "name": "getDisputeUintVars",
      "outputs": [
        {
          "internalType": "uint256",
          "name": "",
          "type": "uint256"
        }
      ],
      "stateMutability": "view",
      "type": "function"
    },
    {
      "inputs": [],
      "name": "getLastNewValue",
      "outputs": [
        {
          "internalType": "uint256",
          "name": "",
          "type": "uint256"
        },
        {
          "internalType": "bool",
          "name": "",
          "type": "bool"
        }
      ],
      "stateMutability": "view",
      "type": "function"
    },
    {
      "inputs": [
        {
          "internalType": "uint256",
          "name": "_requestId",
          "type": "uint256"
        }
      ],
      "name": "getLastNewValueById",
      "outputs": [
        {
          "internalType": "uint256",
          "name": "",
          "type": "uint256"
        },
        {
          "internalType": "bool",
          "name": "",
          "type": "bool"
        }
      ],
      "stateMutability": "view",
      "type": "function"
    },
    {
      "inputs": [
        {
          "internalType": "uint256[51]",
          "name": "data",
          "type": "uint256[51]"
        }
      ],
      "name": "getMax",
      "outputs": [
        {
          "internalType": "uint256",
          "name": "max",
          "type": "uint256"
        },
        {
          "internalType": "uint256",
          "name": "maxIndex",
          "type": "uint256"
        }
      ],
      "stateMutability": "pure",
      "type": "function"
    },
    {
      "inputs": [
        {
          "internalType": "uint256[51]",
          "name": "data",
          "type": "uint256[51]"
        }
      ],
      "name": "getMax5",
      "outputs": [
        {
          "internalType": "uint256[5]",
          "name": "max",
          "type": "uint256[5]"
        },
        {
          "internalType": "uint256[5]",
          "name": "maxIndex",
          "type": "uint256[5]"
        }
      ],
      "stateMutability": "view",
      "type": "function"
    },
    {
      "inputs": [
        {
          "internalType": "uint256[51]",
          "name": "data",
          "type": "uint256[51]"
        }
      ],
      "name": "getMin",
      "outputs": [
        {
          "internalType": "uint256",
          "name": "min",
          "type": "uint256"
        },
        {
          "internalType": "uint256",
          "name": "minIndex",
          "type": "uint256"
        }
      ],
      "stateMutability": "pure",
      "type": "function"
    },
    {
      "inputs": [
        {
          "internalType": "uint256",
          "name": "_requestId",
          "type": "uint256"
        },
        {
          "internalType": "uint256",
          "name": "_timestamp",
          "type": "uint256"
        }
      ],
      "name": "getMinedBlockNum",
      "outputs": [
        {
          "internalType": "uint256",
          "name": "",
          "type": "uint256"
        }
      ],
      "stateMutability": "view",
      "type": "function"
    },
    {
      "inputs": [
        {
          "internalType": "uint256",
          "name": "_requestId",
          "type": "uint256"
        },
        {
          "internalType": "uint256",
          "name": "_timestamp",
          "type": "uint256"
        }
      ],
      "name": "getMinersByRequestIdAndTimestamp",
      "outputs": [
        {
          "internalType": "address[5]",
          "name": "",
          "type": "address[5]"
        }
      ],
      "stateMutability": "view",
      "type": "function"
    },
    {
      "inputs": [],
      "name": "getNewCurrentVariables",
      "outputs": [
        {
          "internalType": "bytes32",
          "name": "_challenge",
          "type": "bytes32"
        },
        {
          "internalType": "uint256[5]",
          "name": "_requestIds",
          "type": "uint256[5]"
        },
        {
          "internalType": "uint256",
          "name": "_difficulty",
          "type": "uint256"
        },
        {
          "internalType": "uint256",
          "name": "_tip",
          "type": "uint256"
        }
      ],
      "stateMutability": "view",
      "type": "function"
    },
    {
      "inputs": [
        {
          "internalType": "uint256",
          "name": "_requestId",
          "type": "uint256"
        }
      ],
      "name": "getNewValueCountbyRequestId",
      "outputs": [
        {
          "internalType": "uint256",
          "name": "",
          "type": "uint256"
        }
      ],
      "stateMutability": "view",
      "type": "function"
    },
    {
      "inputs": [],
      "name": "getNewVariablesOnDeck",
      "outputs": [
        {
          "internalType": "uint256[5]",
          "name": "idsOnDeck",
          "type": "uint256[5]"
        },
        {
          "internalType": "uint256[5]",
          "name": "tipsOnDeck",
          "type": "uint256[5]"
        }
      ],
      "stateMutability": "view",
      "type": "function"
    },
    {
      "inputs": [
        {
          "internalType": "uint256",
          "name": "_index",
          "type": "uint256"
        }
      ],
      "name": "getRequestIdByRequestQIndex",
      "outputs": [
        {
          "internalType": "uint256",
          "name": "",
          "type": "uint256"
        }
      ],
      "stateMutability": "view",
      "type": "function"
    },
    {
      "inputs": [
        {
          "internalType": "uint256",
          "name": "_timestamp",
          "type": "uint256"
        }
      ],
      "name": "getRequestIdByTimestamp",
      "outputs": [
        {
          "internalType": "uint256",
          "name": "",
          "type": "uint256"
        }
      ],
      "stateMutability": "view",
      "type": "function"
    },
    {
      "inputs": [],
      "name": "getRequestQ",
      "outputs": [
        {
          "internalType": "uint256[51]",
          "name": "",
          "type": "uint256[51]"
        }
      ],
      "stateMutability": "view",
      "type": "function"
    },
    {
      "inputs": [
        {
          "internalType": "uint256",
          "name": "_requestId",
          "type": "uint256"
        },
        {
          "internalType": "bytes32",
          "name": "_data",
          "type": "bytes32"
        }
      ],
      "name": "getRequestUintVars",
      "outputs": [
        {
          "internalType": "uint256",
          "name": "",
          "type": "uint256"
        }
      ],
      "stateMutability": "view",
      "type": "function"
    },
    {
      "inputs": [
        {
          "internalType": "uint256",
          "name": "_requestId",
          "type": "uint256"
        }
      ],
      "name": "getRequestVars",
      "outputs": [
        {
          "internalType": "uint256",
          "name": "",
          "type": "uint256"
        },
        {
          "internalType": "uint256",
          "name": "",
          "type": "uint256"
        }
      ],
      "stateMutability": "view",
      "type": "function"
    },
    {
      "inputs": [
        {
          "internalType": "address",
          "name": "_staker",
          "type": "address"
        }
      ],
      "name": "getStakerInfo",
      "outputs": [
        {
          "internalType": "uint256",
          "name": "",
          "type": "uint256"
        },
        {
          "internalType": "uint256",
          "name": "",
          "type": "uint256"
        }
      ],
      "stateMutability": "view",
      "type": "function"
    },
    {
      "inputs": [
        {
          "internalType": "uint256",
          "name": "_requestId",
          "type": "uint256"
        },
        {
          "internalType": "uint256",
          "name": "_timestamp",
          "type": "uint256"
        }
      ],
      "name": "getSubmissionsByTimestamp",
      "outputs": [
        {
          "internalType": "uint256[5]",
          "name": "",
          "type": "uint256[5]"
        }
      ],
      "stateMutability": "view",
      "type": "function"
    },
    {
      "inputs": [
        {
          "internalType": "uint256",
          "name": "_requestID",
          "type": "uint256"
        },
        {
          "internalType": "uint256",
          "name": "_index",
          "type": "uint256"
        }
      ],
      "name": "getTimestampbyRequestIDandIndex",
      "outputs": [
        {
          "internalType": "uint256",
          "name": "",
          "type": "uint256"
        }
      ],
      "stateMutability": "view",
      "type": "function"
    },
    {
      "inputs": [],
      "name": "getTopRequestIDs",
      "outputs": [
        {
          "internalType": "uint256[5]",
          "name": "_requestIds",
          "type": "uint256[5]"
        }
      ],
      "stateMutability": "view",
      "type": "function"
    },
    {
      "inputs": [
        {
          "internalType": "bytes32",
          "name": "_data",
          "type": "bytes32"
        }
      ],
      "name": "getUintVar",
      "outputs": [
        {
          "internalType": "uint256",
          "name": "",
          "type": "uint256"
        }
      ],
      "stateMutability": "view",
      "type": "function"
    },
    {
      "inputs": [
        {
          "internalType": "uint256",
          "name": "_requestId",
          "type": "uint256"
        },
        {
          "internalType": "uint256",
          "name": "_timestamp",
          "type": "uint256"
        }
      ],
      "name": "isInDispute",
      "outputs": [
        {
          "internalType": "bool",
          "name": "",
          "type": "bool"
        }
      ],
      "stateMutability": "view",
      "type": "function"
    },
    {
      "inputs": [],
      "name": "name",
      "outputs": [
        {
          "internalType": "string",
          "name": "",
          "type": "string"
        }
      ],
      "stateMutability": "pure",
      "type": "function"
    },
    {
      "inputs": [],
      "name": "pending_owner",
      "outputs": [
        {
          "internalType": "bytes32",
          "name": "",
          "type": "bytes32"
        }
      ],
      "stateMutability": "view",
      "type": "function"
    },
    {
      "inputs": [],
      "name": "requestCount",
      "outputs": [
        {
          "internalType": "bytes32",
          "name": "",
          "type": "bytes32"
        }
      ],
      "stateMutability": "view",
      "type": "function"
    },
    {
      "inputs": [],
      "name": "requestQPosition",
      "outputs": [
        {
          "internalType": "bytes32",
          "name": "",
          "type": "bytes32"
        }
      ],
      "stateMutability": "view",
      "type": "function"
    },
    {
      "inputs": [
        {
          "internalType": "uint256",
          "name": "_requestId",
          "type": "uint256"
        },
        {
          "internalType": "uint256",
          "name": "_timestamp",
          "type": "uint256"
        }
      ],
      "name": "retrieveData",
      "outputs": [
        {
          "internalType": "uint256",
          "name": "",
          "type": "uint256"
        }
      ],
      "stateMutability": "view",
      "type": "function"
    },
    {
      "inputs": [],
      "name": "slotProgress",
      "outputs": [
        {
          "internalType": "bytes32",
          "name": "",
          "type": "bytes32"
        }
      ],
      "stateMutability": "view",
      "type": "function"
    },
    {
      "inputs": [],
      "name": "stakeAmount",
      "outputs": [
        {
          "internalType": "bytes32",
          "name": "",
          "type": "bytes32"
        }
      ],
      "stateMutability": "view",
      "type": "function"
    },
    {
      "inputs": [],
      "name": "stakerCount",
      "outputs": [
        {
          "internalType": "bytes32",
          "name": "",
          "type": "bytes32"
        }
      ],
      "stateMutability": "view",
      "type": "function"
    },
    {
      "inputs": [],
      "name": "symbol",
      "outputs": [
        {
          "internalType": "string",
          "name": "",
          "type": "string"
        }
      ],
      "stateMutability": "pure",
      "type": "function"
    },
    {
      "inputs": [],
      "name": "targetMiners",
      "outputs": [
        {
          "internalType": "bytes32",
          "name": "",
          "type": "bytes32"
        }
      ],
      "stateMutability": "view",
      "type": "function"
    },
    {
      "inputs": [],
      "name": "timeOfLastNewValue",
      "outputs": [
        {
          "internalType": "bytes32",
          "name": "",
          "type": "bytes32"
        }
      ],
      "stateMutability": "view",
      "type": "function"
    },
    {
      "inputs": [],
      "name": "timeTarget",
      "outputs": [
        {
          "internalType": "bytes32",
          "name": "",
          "type": "bytes32"
        }
      ],
      "stateMutability": "view",
      "type": "function"
    },
    {
      "inputs": [],
      "name": "totalSupply",
      "outputs": [
        {
          "internalType": "uint256",
          "name": "",
          "type": "uint256"
        }
      ],
      "stateMutability": "view",
      "type": "function"
    },
    {
      "inputs": [],
      "name": "totalTip",
      "outputs": [
        {
          "internalType": "bytes32",
          "name": "",
          "type": "bytes32"
        }
      ],
      "stateMutability": "view",
      "type": "function"
    },
    {
      "inputs": [],
      "name": "total_supply",
      "outputs": [
        {
          "internalType": "bytes32",
          "name": "",
          "type": "bytes32"
        }
      ],
      "stateMutability": "view",
      "type": "function"
    },
    {
      "inputs": [
        {
          "internalType": "bytes32",
          "name": "",
          "type": "bytes32"
        }
      ],
      "name": "uints",
      "outputs": [
        {
          "internalType": "uint256",
          "name": "",
          "type": "uint256"
        }
      ],
      "stateMutability": "view",
      "type": "function"
    }
  ],
  "bytecode": "0x608060405234801561001057600080fd5b506127f3806100206000396000f3fe608060405234801561001057600080fd5b50600436106103425760003560e01c80636fc37811116101b8578063b2bdfa7b11610104578063dfee1ff1116100a2578063e1eee6d61161007c578063e1eee6d614611116578063f29e5e9a1461115f578063fc7cf0a0146111e1578063fe1cd15d1461120857610342565b8063dfee1ff11461108e578063dff69787146110ac578063e0ae93c1146110ca57610342565b8063b9ce896b116100de578063b9ce896b14610f60578063c775b54214610f7e578063c87a336d14610fca578063da3799411461104c57610342565b8063b2bdfa7b14610eba578063b541302914610ed8578063b59e14d414610f1e57610342565b80637f6fd5d91161017157806399830e321161014b57806399830e3214610c255780639a7077ab14610cf7578063a7c438bc14610d6c578063af0b132714610dd057610342565b80637f6fd5d914610b0a57806393fa491514610b5657806395d89b4114610ba257610342565b80636fc37811146109e75780636fd4f22914610a05578063733bdef014610a2357806375ad1a2a14610a8257806377fbb66314610aa05780637f4ec4c314610aec57610342565b80634049f19811610292578063612c8f7f1161023057806363bb82ad1161020a57806363bb82ad1461089957806369026d63146108fd578063699f200f146109715780636e3cf885146109c957610342565b8063612c8f7f146107d35780636173c0b81461081557806362dd1d2a1461085757610342565b8063561cb04a1161026c578063561cb04a1461075b5780635ae2bfdb146107795780635badbe4c1461079757806360c7dc47146107b557610342565b80634049f198146106a057806346eee1c4146106fb57806351bdd5851461073d57610342565b806318160ddd116102ff578063313ce567116102d9578063313ce567146105c85780633180f8df146105e95780633940e9ee146106345780633df0777b1461065257610342565b806318160ddd1461056e57806319cae4621461058c5780632bf07e9e146105aa57610342565b8063024c2ddd1461034757806303b3160f146103bf57806306fdde03146103dd5780630f0b424d1461046057806311c98512146104a2578063133bee5e14610516575b600080fd5b6103a96004803603604081101561035d57600080fd5b81019080803573ffffffffffffffffffffffffffffffffffffffff169060200190929190803573ffffffffffffffffffffffffffffffffffffffff16906020019092919050505061124e565b6040518082815260200191505060405180910390f35b6103c7611273565b6040518082815260200191505060405180910390f35b6103e561129a565b6040518080602001828103825283818151815260200191508051906020019080838360005b8381101561042557808201518184015260208101905061040a565b50505050905090810190601f1680156104525780820380516001836020036101000a031916815260200191505b509250505060405180910390f35b61048c6004803603602081101561047657600080fd5b81019080803590602001909291905050506112d7565b6040518082815260200191505060405180910390f35b6104d8600480360360408110156104b857600080fd5b8101908080359060200190929190803590602001909291905050506112f4565b6040518082600560200280838360005b838110156105035780820151818401526020810190506104e8565b5050505090500191505060405180910390f35b6105426004803603602081101561052c57600080fd5b8101908080359060200190929190505050611367565b604051808273ffffffffffffffffffffffffffffffffffffffff16815260200191505060405180910390f35b6105766113a4565b6040518082815260200191505060405180910390f35b6105946113e2565b6040518082815260200191505060405180910390f35b6105b2611409565b6040518082815260200191505060405180910390f35b6105d0611430565b604051808260ff16815260200191505060405180910390f35b610615600480360360208110156105ff57600080fd5b8101908080359060200190929190505050611439565b6040518083815260200182151581526020019250505060405180910390f35b61063c6114a9565b6040518082815260200191505060405180910390f35b6106886004803603604081101561066857600080fd5b8101908080359060200190929190803590602001909291905050506114d0565b60405180821515815260200191505060405180910390f35b6106a861150f565b6040518085815260200184600560200280838360005b838110156106d95780820151818401526020810190506106be565b5050505090500183815260200182815260200194505050505060405180910390f35b6107276004803603602081101561071157600080fd5b81019080803590602001909291905050506115fe565b6040518082815260200191505060405180910390f35b610745611621565b6040518082815260200191505060405180910390f35b610763611645565b6040518082815260200191505060405180910390f35b61078161166c565b6040518082815260200191505060405180910390f35b61079f611693565b6040518082815260200191505060405180910390f35b6107bd6116ba565b6040518082815260200191505060405180910390f35b6107ff600480360360208110156107e957600080fd5b81019080803590602001909291905050506116e1565b6040518082815260200191505060405180910390f35b6108416004803603602081101561082b57600080fd5b81019080803590602001909291905050506116fe565b6040518082815260200191505060405180910390f35b6108836004803603602081101561086d57600080fd5b8101908080359060200190929190505050611792565b6040518082815260200191505060405180910390f35b6108e5600480360360408110156108af57600080fd5b8101908080359060200190929190803573ffffffffffffffffffffffffffffffffffffffff1690602001909291905050506117aa565b60405180821515815260200191505060405180910390f35b6109336004803603604081101561091357600080fd5b810190808035906020019092919080359060200190929190505050611881565b6040518082600560200280838360005b8381101561095e578082015181840152602081019050610943565b5050505090500191505060405180910390f35b61099d6004803603602081101561098757600080fd5b810190808035906020019092919050505061192a565b604051808273ffffffffffffffffffffffffffffffffffffffff16815260200191505060405180910390f35b6109d161195d565b6040518082815260200191505060405180910390f35b6109ef611984565b6040518082815260200191505060405180910390f35b610a0d6119ab565b6040518082815260200191505060405180910390f35b610a6560048036036020811015610a3957600080fd5b81019080803573ffffffffffffffffffffffffffffffffffffffff1690602001909291905050506119d2565b604051808381526020018281526020019250505060405180910390f35b610a8a611a64565b6040518082815260200191505060405180910390f35b610ad660048036036040811015610ab657600080fd5b810190808035906020019092919080359060200190929190505050611a8b565b6040518082815260200191505060405180910390f35b610af4611ac1565b6040518082815260200191505060405180910390f35b610b4060048036036040811015610b2057600080fd5b810190808035906020019092919080359060200190929190505050611ae8565b6040518082815260200191505060405180910390f35b610b8c60048036036040811015610b6c57600080fd5b810190808035906020019092919080359060200190929190505050611b1a565b6040518082815260200191505060405180910390f35b610baa611b4c565b6040518080602001828103825283818151815260200191508051906020019080838360005b83811015610bea578082015181840152602081019050610bcf565b50505050905090810190601f168015610c175780820380516001836020036101000a031916815260200191505b509250505060405180910390f35b610c8a6004803603610660811015610c3c57600080fd5b810190808061066001906033806020026040519081016040528092919082603360200280828437600081840152601f19601f8201169050808301925050505050509192919290505050611b89565b6040518083600560200280838360005b83811015610cb5578082015181840152602081019050610c9a565b5050505090500182600560200280838360005b83811015610ce3578082015181840152602081019050610cc8565b505050509050019250505060405180910390f35b610cff611d11565b6040518083600560200280838360005b83811015610d2a578082015181840152602081019050610d0f565b5050505090500182600560200280838360005b83811015610d58578082015181840152602081019050610d3d565b505050509050019250505060405180910390f35b610db860048036036040811015610d8257600080fd5b8101908080359060200190929190803573ffffffffffffffffffffffffffffffffffffffff169060200190929190505050611db9565b60405180821515815260200191505060405180910390f35b610dfc60048036036020811015610de657600080fd5b8101908080359060200190929190505050611e24565b604051808a81526020018915158152602001881515815260200187151581526020018673ffffffffffffffffffffffffffffffffffffffff1681526020018573ffffffffffffffffffffffffffffffffffffffff1681526020018473ffffffffffffffffffffffffffffffffffffffff16815260200183600960200280838360005b83811015610e99578082015181840152602081019050610e7e565b50505050905001828152602001995050505050505050505060405180910390f35b610ec261213b565b6040518082815260200191505060405180910390f35b610ee0612162565b6040518082603360200280838360005b83811015610f0b578082015181840152602081019050610ef0565b5050505090500191505060405180910390f35b610f4a60048036036020811015610f3457600080fd5b81019080803590602001909291905050506121ad565b6040518082815260200191505060405180910390f35b610f686121c5565b6040518082815260200191505060405180910390f35b610fb460048036036040811015610f9457600080fd5b8101908080359060200190929190803590602001909291905050506121e9565b6040518082815260200191505060405180910390f35b61102f6004803603610660811015610fe157600080fd5b810190808061066001906033806020026040519081016040528092919082603360200280828437600081840152601f19601f820116905080830192505050505050919291929050505061221b565b604051808381526020018281526020019250505060405180910390f35b6110786004803603602081101561106257600080fd5b8101908080359060200190929190505050612287565b6040518082815260200191505060405180910390f35b6110966122a4565b6040518082815260200191505060405180910390f35b6110b46122c8565b6040518082815260200191505060405180910390f35b611100600480360360408110156110e057600080fd5b8101908080359060200190929190803590602001909291905050506122ec565b6040518082815260200191505060405180910390f35b6111426004803603602081101561112c57600080fd5b810190808035906020019092919050505061231e565b604051808381526020018281526020019250505060405180910390f35b6111c4600480360361066081101561117657600080fd5b810190808061066001906033806020026040519081016040528092919082603360200280828437600081840152601f19601f82011690508083019250505050505091929192905050506123b1565b604051808381526020018281526020019250505060405180910390f35b6111e9612424565b6040518083815260200182151581526020019250505060405180910390f35b6112106124b7565b6040518082600560200280838360005b8381101561123b578082015181840152602081019050611220565b5050505090500191505060405180910390f35b604a602052816000526040600020602052806000526040600020600091509150505481565b7f6c505cb2db6644f57b42d87bd9407b0f66788b07d0617a2bc1356a0e69e66f9a60001b81565b60606040518060400160405280600f81526020017f54656c6c6f722054726962757465730000000000000000000000000000000000815250905090565b600060346000838152602001908152602001600020549050919050565b6112fc612733565b60456000848152602001908152602001600020600601600083815260200190815260200160002060058060200260405190810160405280929190826005801561135a576020028201915b815481526020019060010190808311611346575b5050505050905092915050565b60006047600083815260200190815260200160002060009054906101000a900473ffffffffffffffffffffffffffffffffffffffff169050919050565b6000604660007fb1557182e4359a1f0c6301278e8f5b35a776ab58d39892581e357578fb28783660001b815260200190815260200160002054905090565b7fb12aff7664b16cb99339be399b863feecd64d14817be7e1f042f97e3f358e64e60001b81565b7f1e344bd070f05f1c5b3f0b1266f4f20d837a0a8190a3a2da8b0375eac2ba86ea60001b81565b60006012905090565b6000806000604560008581526020019081526020016000209050600081600001805490501461149b5761148f848260000160018460000180549050038154811061147f57fe5b9060005260206000200154611b1a565b600192509250506114a4565b60008092509250505b915091565b7fb1557182e4359a1f0c6301278e8f5b35a776ab58d39892581e357578fb28783660001b81565b600060456000848152602001908152602001600020600401600083815260200190815260200160002060009054906101000a900460ff16905092915050565b6000611519612733565b60008060005b600581101561155f57603a816005811061153557fe5b600202016000015484826005811061154957fe5b602002018181525050808060010191505061151f565b507f3375fb9157bb77048f607329b1c4d45487433f61e0f51bcdeba91d975b2dab1883604660007fb12aff7664b16cb99339be399b863feecd64d14817be7e1f042f97e3f358e64e60001b815260200190815260200160002054604660007fd26d9834adf5a73309c4974bf654850bb699df8505e70d4cfde365c417b19dfc60001b815260200190815260200160002054935093509350935090919293565b600060456000838152602001908152602001600020600001805490509050919050565b7f3375fb9157bb77048f607329b1c4d45487433f61e0f51bcdeba91d975b2dab1881565b7f2a9e355a92978430eca9c1aa3a9ba590094bac282594bccf82de16b83046e2c360001b81565b7f7584d7d8701714da9c117f5bf30af73b0b88aca5338a84a21eb28de2fe0d93b860001b81565b7f05de9147d05477c0a5dc675aeea733157f5092f82add148cf39d579cafe3dc9860001b81565b7f7be108969d31a3f0b261465c71f2b0ba9301cd914d55d9091c3b36a49d4d41b260001b81565b600060466000838152602001908152602001600020549050919050565b60006032821115611777576040517f08c379a000000000000000000000000000000000000000000000000000000000815260040180806020018281038252601a8152602001807f526571756573745120696e6465782069732061626f766520353000000000000081525060200191505060405180910390fd5b60356000838152602001908152602001600020549050919050565b60486020528060005260406000206000915090505481565b60006117b5826125c0565b61181b6039600085815260200190815260200160002060008473ffffffffffffffffffffffffffffffffffffffff1673ffffffffffffffffffffffffffffffffffffffff16815260200190815260200160002060009054906101000a900460ff1661266f565b6039600084815260200190815260200160002060008373ffffffffffffffffffffffffffffffffffffffff1673ffffffffffffffffffffffffffffffffffffffff16815260200190815260200160002060009054906101000a900460ff16905092915050565b611889612755565b60456000848152602001908152602001600020600501600083815260200190815260200160002060058060200260405190810160405280929190826005801561191d576020028201915b8160009054906101000a900473ffffffffffffffffffffffffffffffffffffffff1673ffffffffffffffffffffffffffffffffffffffff16815260200190600101908083116118d3575b5050505050905092915050565b60476020528060005260406000206000915054906101000a900473ffffffffffffffffffffffffffffffffffffffff1681565b7f969ea04b74d02bb4d9e6e8e57236e1b9ca31627139ae9f0e465249932e82450260001b81565b7fad16221efc80aaf1b7e69bd3ecb61ba5ffa539adf129c3b4ffff769c9b5bbc3360001b81565b7f97e6eb29f6a85471f7cc9b57f9e4c3deaf398cfc9798673160d7798baf0b13a460001b81565b600080604460008473ffffffffffffffffffffffffffffffffffffffff1673ffffffffffffffffffffffffffffffffffffffff16815260200190815260200160002060000154604460008573ffffffffffffffffffffffffffffffffffffffff1673ffffffffffffffffffffffffffffffffffffffff1681526020019081526020016000206001015491509150915091565b7fd26d9834adf5a73309c4974bf654850bb699df8505e70d4cfde365c417b19dfc60001b81565b6000604560008481526020019081526020016000206000018281548110611aae57fe5b9060005260206000200154905092915050565b7f44b2657a0f8a90ed8e62f4c4cceca06eacaa9b4b25751ae1ebca9280a70abd6860001b81565b600060366000848152602001908152602001600020600501600083815260200190815260200160002054905092915050565b600060456000848152602001908152602001600020600301600083815260200190815260200160002054905092915050565b60606040518060400160405280600381526020017f5452420000000000000000000000000000000000000000000000000000000000815250905090565b611b91612733565b611b99612733565b600083600160338110611ba857fe5b602002015190506000805b6005811015611c3a57856001820160338110611bcb57fe5b6020020151858260058110611bdc57fe5b60200201818152505060018101848260058110611bf557fe5b60200201818152505082858260058110611c0b57fe5b60200201511015611c2d57848160058110611c2257fe5b602002015192508091505b8080600101915050611bb3565b506000600690505b6033811015611d095782868260338110611c5857fe5b60200201511115611cfc57858160338110611c6f57fe5b6020020151858360058110611c8057fe5b60200201818152505080848360058110611c9657fe5b602002018181525050858160338110611cab57fe5b6020020151925060005b6005811015611cfa5783868260058110611ccb57fe5b60200201511015611ced57858160058110611ce257fe5b602002015193508092505b8080600101915050611cb5565b505b8080600101915050611c42565b505050915091565b611d19612733565b611d21612733565b611d296124b7565b915060005b6005811015611db45760456000848360058110611d4757fe5b6020020151815260200190815260200160002060010160007f2a9e355a92978430eca9c1aa3a9ba590094bac282594bccf82de16b83046e2c360001b815260200190815260200160002054828260058110611d9e57fe5b6020020181815250508080600101915050611d2e565b509091565b60006036600084815260200190815260200160002060060160008373ffffffffffffffffffffffffffffffffffffffff1673ffffffffffffffffffffffffffffffffffffffff16815260200190815260200160002060009054906101000a900460ff16905092915050565b6000806000806000806000611e37612777565b600080603660008c8152602001908152602001600020905080600001548160020160009054906101000a900460ff168260020160019054906101000a900460ff168360020160029054906101000a900460ff168460020160039054906101000a900473ffffffffffffffffffffffffffffffffffffffff168560030160009054906101000a900473ffffffffffffffffffffffffffffffffffffffff168660040160009054906101000a900473ffffffffffffffffffffffffffffffffffffffff166040518061012001604052808960050160007f31b40192effc42bcf1e4289fe674c678e673a3052992548fef566d8c33a21b9181526020019081526020016000205481526020018960050160007f4ebf727c48eac2c66272456b06a885c5cc03e54d140f63b63b6fd10c1227958e81526020019081526020016000205481526020018960050160007f81afeeaff0ed5cee7d05a21078399c2f56226b0cd5657062500cef4c4e736f8581526020019081526020016000205481526020018960050160007f74c9bc34b0b2333f1b565fbee67d940cf7d78b5a980c5f23da43f6729965ed4081526020019081526020016000205481526020018960050160007fa0bc13ce85a2091e950a370bced0825e58ab3a3ffeb709ed50d5562cbd82faab81526020019081526020016000205481526020018960050160007f6f8f54d1af9b6cb8a219d88672c797f9f3ee97ce5d9369aa897fd0deb5e2dffa81526020019081526020016000205481526020018960050160007f8ef61a1efbc527d6428ff88c95fdff5c6e644b979bfe67e03cbf88c8162c5fac81526020019081526020016000205481526020018960050160007f30e85ae205656781c1a951cba9f9f53f884833c049d377a2a7046eb5e6d14b2681526020019081526020016000205481526020018960050160007f833b9f6abf0b529613680afe2a00fa663cc95cbdc47d726d85a044462eabbf028152602001908152602001600020548152508860010154995099509950995099509950995099509950509193959799909294969850565b7f9dbc393ddc18fd27b1d9b1b129059925688d2f2d5818a5ec3ebb750b7c286ea660001b81565b61216a61279a565b60006033806020026040519081016040528092919082603380156121a3576020028201915b81548152602001906001019080831161218f575b5050505050905090565b60466020528060005260406000206000915090505481565b7f8b75eb45d88e80f0e4ec77d23936268694c0e7ac2e0c9085c5c6bdfcfbc4923981565b600060456000848152602001908152602001600020600201600083815260200190815260200160002054905092915050565b6000806001905082816033811061222e57fe5b602002015191506000600290505b6033811015612281578284826033811061225257fe5b602002015111156122745783816033811061226957fe5b602002015192508091505b808060010191505061223c565b50915091565b600060386000838152602001908152602001600020549050919050565b7fabef544d8048318ece54fb2c6385255cd1b06e176525d149a0338a7acca6deb381565b7fedddb9344bfe0dadc78c558b8ffca446679cbffc17be64eb83973fce7bea5f3481565b600060456000848152602001908152602001600020600101600083815260200190815260200160002054905092915050565b60008060006045600085815260200190815260200160002090508060010160007f1e344bd070f05f1c5b3f0b1266f4f20d837a0a8190a3a2da8b0375eac2ba86ea8152602001908152602001600020548160010160007f2a9e355a92978430eca9c1aa3a9ba590094bac282594bccf82de16b83046e2c360001b8152602001908152602001600020549250925050915091565b600080600160330390508281603381106123c757fe5b602002015191506000600260330390505b600081111561241e57828482603381106123ee57fe5b602002015110156124105783816033811061240557fe5b602002015192508091505b8080600190039150506123d8565b50915091565b6000806124ad60346000604660007f97e6eb29f6a85471f7cc9b57f9e4c3deaf398cfc9798673160d7798baf0b13a4815260200190815260200160002054815260200190815260200160002054604660007f97e6eb29f6a85471f7cc9b57f9e4c3deaf398cfc9798673160d7798baf0b13a460001b815260200190815260200160002054611b1a565b6001915091509091565b6124bf612733565b6124c7612733565b6124cf612733565b612515600060338060200260405190810160405280929190826033801561250b576020028201915b8154815260200190600101908083116124f7575b5050505050611b89565b809250819350505060005b60058110156125ba57600083826005811061253757fe5b60200201511461257f576035600083836005811061255157fe5b602002015181526020019081526020016000205484826005811061257157fe5b6020020181815250506125ad565b603a816004036005811061258f57fe5b60020201600001548482600581106125a357fe5b6020020181815250505b8080600101915050612520565b50505090565b61266c81604051602401808273ffffffffffffffffffffffffffffffffffffffff1681526020019150506040516020818303038152906040527f2c2ecbc2000000000000000000000000000000000000000000000000000000007bffffffffffffffffffffffffffffffffffffffffffffffffffffffff19166020820180517bffffffffffffffffffffffffffffffffffffffffffffffffffffffff838183161783525050505061270a565b50565b612707816040516024018082151581526020019150506040516020818303038152906040527f32458eed000000000000000000000000000000000000000000000000000000007bffffffffffffffffffffffffffffffffffffffffffffffffffffffff19166020820180517bffffffffffffffffffffffffffffffffffffffffffffffffffffffff838183161783525050505061270a565b50565b60008151905060006a636f6e736f6c652e6c6f679050602083016000808483855afa5050505050565b6040518060a00160405280600590602082028036833780820191505090505090565b6040518060a00160405280600590602082028036833780820191505090505090565b604051806101200160405280600990602082028036833780820191505090505090565b60405180610660016040528060339060208202803683378082019150509050509056fea2646970667358221220c7a5d4209250fb2e3028bdbeafce6ea21ad7b12d37d5f275cc68954e2203191264736f6c63430007040033",
  "linkReferences": {},
  "deployedLinkReferences": {}
}