{
  "_format": "hh-sol-artifact-1",
  "contractName": "TellorStake",
  "sourceName": "contracts/TellorStake.sol",
  "abi": [
    {
      "anonymous": false,
      "inputs": [
        {
          "indexed": true,
          "internalType": "address",
          "name": "owner",
          "type": "address"
        },
        {
          "indexed": true,
          "internalType": "address",
          "name": "spender",
          "type": "address"
        },
        {
          "indexed": false,
          "internalType": "uint256",
          "name": "value",
          "type": "uint256"
        }
      ],
      "name": "Approval",
      "type": "event"
    },
    {
      "anonymous": false,
      "inputs": [
        {
          "indexed": true,
          "internalType": "uint256",
          "name": "_disputeID",
          "type": "uint256"
        },
        {
          "indexed": false,
          "internalType": "int256",
          "name": "_result",
          "type": "int256"
        },
        {
          "indexed": true,
          "internalType": "address",
          "name": "_reportedMiner",
          "type": "address"
        },
        {
          "indexed": false,
          "internalType": "address",
          "name": "_reportingParty",
          "type": "address"
        },
        {
          "indexed": false,
          "internalType": "bool",
          "name": "_active",
          "type": "bool"
        }
      ],
      "name": "DisputeVoteTallied",
      "type": "event"
    },
    {
      "anonymous": false,
      "inputs": [
        {
          "indexed": true,
          "internalType": "uint256",
          "name": "_disputeId",
          "type": "uint256"
        },
        {
          "indexed": true,
          "internalType": "uint256",
          "name": "_requestId",
          "type": "uint256"
        },
        {
          "indexed": false,
          "internalType": "uint256",
          "name": "_timestamp",
          "type": "uint256"
        },
        {
          "indexed": false,
          "internalType": "address",
          "name": "_miner",
          "type": "address"
        }
      ],
      "name": "NewDispute",
      "type": "event"
    },
    {
      "anonymous": false,
      "inputs": [
        {
          "indexed": true,
          "internalType": "address",
          "name": "_sender",
          "type": "address"
        }
      ],
      "name": "NewStake",
      "type": "event"
    },
    {
      "anonymous": false,
      "inputs": [
        {
          "indexed": true,
          "internalType": "address",
          "name": "_sender",
          "type": "address"
        }
      ],
      "name": "StakeWithdrawRequested",
      "type": "event"
    },
    {
      "anonymous": false,
      "inputs": [
        {
          "indexed": true,
          "internalType": "address",
          "name": "_sender",
          "type": "address"
        }
      ],
      "name": "StakeWithdrawn",
      "type": "event"
    },
    {
      "anonymous": false,
      "inputs": [
        {
          "indexed": true,
          "internalType": "address",
          "name": "from",
          "type": "address"
        },
        {
          "indexed": true,
          "internalType": "address",
          "name": "to",
          "type": "address"
        },
        {
          "indexed": false,
          "internalType": "uint256",
          "name": "value",
          "type": "uint256"
        }
      ],
      "name": "Transfer",
      "type": "event"
    },
    {
      "anonymous": false,
      "inputs": [
        {
          "indexed": true,
          "internalType": "uint256",
          "name": "_disputeID",
          "type": "uint256"
        },
        {
          "indexed": false,
          "internalType": "bool",
          "name": "_position",
          "type": "bool"
        },
        {
          "indexed": true,
          "internalType": "address",
          "name": "_voter",
          "type": "address"
        },
        {
          "indexed": true,
          "internalType": "uint256",
          "name": "_voteWeight",
          "type": "uint256"
        }
      ],
      "name": "Voted",
      "type": "event"
    },
    {
      "inputs": [
        {
          "internalType": "address",
          "name": "",
          "type": "address"
        },
        {
          "internalType": "address",
          "name": "",
          "type": "address"
        }
      ],
      "name": "_allowances",
      "outputs": [
        {
          "internalType": "uint256",
          "name": "",
          "type": "uint256"
        }
      ],
      "stateMutability": "view",
      "type": "function"
    },
    {
      "inputs": [
        {
          "internalType": "bytes32",
          "name": "",
          "type": "bytes32"
        }
      ],
      "name": "addresses",
      "outputs": [
        {
          "internalType": "address",
          "name": "",
          "type": "address"
        }
      ],
      "stateMutability": "view",
      "type": "function"
    },
    {
      "inputs": [
        {
          "internalType": "address",
          "name": "_user",
          "type": "address"
        },
        {
          "internalType": "address",
          "name": "_spender",
          "type": "address"
        }
      ],
      "name": "allowance",
      "outputs": [
        {
          "internalType": "uint256",
          "name": "",
          "type": "uint256"
        }
      ],
      "stateMutability": "view",
      "type": "function"
    },
    {
      "inputs": [
        {
          "internalType": "address",
          "name": "_user",
          "type": "address"
        },
        {
          "internalType": "uint256",
          "name": "_amount",
          "type": "uint256"
        }
      ],
      "name": "allowedToTrade",
      "outputs": [
        {
          "internalType": "bool",
          "name": "",
          "type": "bool"
        }
      ],
      "stateMutability": "view",
      "type": "function"
    },
    {
      "inputs": [
        {
          "internalType": "address",
          "name": "_spender",
          "type": "address"
        },
        {
          "internalType": "uint256",
          "name": "_amount",
          "type": "uint256"
        }
      ],
      "name": "approve",
      "outputs": [
        {
          "internalType": "bool",
          "name": "",
          "type": "bool"
        }
      ],
      "stateMutability": "nonpayable",
      "type": "function"
    },
    {
      "inputs": [
        {
          "internalType": "address",
          "name": "_user",
          "type": "address"
        }
      ],
      "name": "balanceOf",
      "outputs": [
        {
          "internalType": "uint256",
          "name": "",
          "type": "uint256"
        }
      ],
      "stateMutability": "view",
      "type": "function"
    },
    {
      "inputs": [
        {
          "internalType": "address",
          "name": "_user",
          "type": "address"
        },
        {
          "internalType": "uint256",
          "name": "_blockNumber",
          "type": "uint256"
        }
      ],
      "name": "balanceOfAt",
      "outputs": [
        {
          "internalType": "uint256",
          "name": "",
          "type": "uint256"
        }
      ],
      "stateMutability": "view",
      "type": "function"
    },
    {
      "inputs": [
        {
          "internalType": "uint256",
          "name": "_requestId",
          "type": "uint256"
        },
        {
          "internalType": "uint256",
          "name": "_timestamp",
          "type": "uint256"
        },
        {
          "internalType": "uint256",
          "name": "_minerIndex",
          "type": "uint256"
        }
      ],
      "name": "beginDispute",
      "outputs": [],
      "stateMutability": "nonpayable",
      "type": "function"
    },
    {
      "inputs": [
        {
          "internalType": "bytes32",
          "name": "",
          "type": "bytes32"
        }
      ],
      "name": "bytesVars",
      "outputs": [
        {
          "internalType": "bytes32",
          "name": "",
          "type": "bytes32"
        }
      ],
      "stateMutability": "view",
      "type": "function"
    },
    {
      "inputs": [],
      "name": "depositStake",
      "outputs": [],
      "stateMutability": "nonpayable",
      "type": "function"
    },
    {
      "inputs": [],
      "name": "requestStakingWithdraw",
      "outputs": [],
      "stateMutability": "nonpayable",
      "type": "function"
    },
    {
      "inputs": [],
      "name": "stakeAmount",
      "outputs": [
        {
          "internalType": "bytes32",
          "name": "",
          "type": "bytes32"
        }
      ],
      "stateMutability": "view",
      "type": "function"
    },
    {
      "inputs": [
        {
          "internalType": "uint256",
          "name": "_disputeId",
          "type": "uint256"
        }
      ],
      "name": "tallyVotes",
      "outputs": [],
      "stateMutability": "nonpayable",
      "type": "function"
    },
    {
      "inputs": [
        {
          "internalType": "address",
          "name": "_to",
          "type": "address"
        },
        {
          "internalType": "uint256",
          "name": "_amount",
          "type": "uint256"
        }
      ],
      "name": "transfer",
      "outputs": [
        {
          "internalType": "bool",
          "name": "success",
          "type": "bool"
        }
      ],
      "stateMutability": "nonpayable",
      "type": "function"
    },
    {
      "inputs": [
        {
          "internalType": "address",
          "name": "_from",
          "type": "address"
        },
        {
          "internalType": "address",
          "name": "_to",
          "type": "address"
        },
        {
          "internalType": "uint256",
          "name": "_amount",
          "type": "uint256"
        }
      ],
      "name": "transferFrom",
      "outputs": [
        {
          "internalType": "bool",
          "name": "success",
          "type": "bool"
        }
      ],
      "stateMutability": "nonpayable",
      "type": "function"
    },
    {
      "inputs": [
        {
          "internalType": "bytes32",
          "name": "",
          "type": "bytes32"
        }
      ],
      "name": "uints",
      "outputs": [
        {
          "internalType": "uint256",
          "name": "",
          "type": "uint256"
        }
      ],
      "stateMutability": "view",
      "type": "function"
    },
    {
      "inputs": [
        {
          "internalType": "uint256",
          "name": "_disputeId",
          "type": "uint256"
        }
      ],
      "name": "unlockDisputeFee",
      "outputs": [],
      "stateMutability": "nonpayable",
      "type": "function"
    },
    {
      "inputs": [
        {
          "internalType": "address",
          "name": "_user",
          "type": "address"
        },
        {
          "internalType": "uint256",
          "name": "_value",
          "type": "uint256"
        }
      ],
      "name": "updateBalanceAtNow",
      "outputs": [],
      "stateMutability": "nonpayable",
      "type": "function"
    },
    {
      "inputs": [],
      "name": "updateMinDisputeFee",
      "outputs": [],
      "stateMutability": "nonpayable",
      "type": "function"
    },
    {
      "inputs": [
        {
          "internalType": "uint256",
          "name": "_disputeId",
          "type": "uint256"
        },
        {
          "internalType": "bool",
          "name": "_supportsDispute",
          "type": "bool"
        }
      ],
      "name": "vote",
      "outputs": [],
      "stateMutability": "nonpayable",
      "type": "function"
    },
    {
      "inputs": [],
      "name": "withdrawStake",
      "outputs": [],
      "stateMutability": "nonpayable",
      "type": "function"
    }
  ],
  "bytecode": "0x608060405234801561001057600080fd5b5061391a806100206000396000f3fe608060405234801561001057600080fd5b50600436106101375760003560e01c806370a08231116100b8578063a9059cbb1161007c578063a9059cbb1461052e578063b59e14d414610592578063bed9d861146105d4578063c9d27afe146105de578063d67dcbc514610618578063dd62ed3e1461066657610137565b806370a08231146103f85780638581af191461045057806390e5b23514610492578063999cf26c1461049c5780639a01ca131461050057610137565b80634d318b0e116100ff5780634d318b0e146102b05780634ee2cd7e146102de57806360c7dc471461034057806362dd1d2a1461035e578063699f200f146103a057610137565b8063024c2ddd1461013c578063095ea7b3146101b45780630d2d76a21461021857806323b872dd1461022257806328449c3a146102a6575b600080fd5b61019e6004803603604081101561015257600080fd5b81019080803573ffffffffffffffffffffffffffffffffffffffff169060200190929190803573ffffffffffffffffffffffffffffffffffffffff1690602001909291905050506106de565b6040518082815260200191505060405180910390f35b610200600480360360408110156101ca57600080fd5b81019080803573ffffffffffffffffffffffffffffffffffffffff16906020019092919080359060200190929190505050610703565b60405180821515815260200191505060405180910390f35b610220610900565b005b61028e6004803603606081101561023857600080fd5b81019080803573ffffffffffffffffffffffffffffffffffffffff169060200190929190803573ffffffffffffffffffffffffffffffffffffffff16906020019092919080359060200190929190505050610913565b60405180821515815260200191505060405180910390f35b6102ae610aa7565b005b6102dc600480360360208110156102c657600080fd5b8101908080359060200190929190505050610c15565b005b61032a600480360360408110156102f457600080fd5b81019080803573ffffffffffffffffffffffffffffffffffffffff16906020019092919080359060200190929190505050611007565b6040518082815260200191505060405180910390f35b6103486112e4565b6040518082815260200191505060405180910390f35b61038a6004803603602081101561037457600080fd5b810190808035906020019092919050505061130b565b6040518082815260200191505060405180910390f35b6103cc600480360360208110156103b657600080fd5b8101908080359060200190929190505050611323565b604051808273ffffffffffffffffffffffffffffffffffffffff16815260200191505060405180910390f35b61043a6004803603602081101561040e57600080fd5b81019080803573ffffffffffffffffffffffffffffffffffffffff169060200190929190505050611356565b6040518082815260200191505060405180910390f35b6104906004803603606081101561046657600080fd5b81019080803590602001909291908035906020019092919080359060200190929190505050611369565b005b61049a611f7d565b005b6104e8600480360360408110156104b257600080fd5b81019080803573ffffffffffffffffffffffffffffffffffffffff16906020019092919080359060200190929190505050612092565b60405180821515815260200191505060405180910390f35b61052c6004803603602081101561051657600080fd5b810190808035906020019092919050505061219b565b005b61057a6004803603604081101561054457600080fd5b81019080803573ffffffffffffffffffffffffffffffffffffffff16906020019092919080359060200190929190505050612a96565b60405180821515815260200191505060405180910390f35b6105be600480360360208110156105a857600080fd5b8101908080359060200190929190505050612aad565b6040518082815260200191505060405180910390f35b6105dc612ac5565b005b610616600480360360408110156105f457600080fd5b8101908080359060200190929190803515159060200190929190505050612c42565b005b6106646004803603604081101561062e57600080fd5b81019080803573ffffffffffffffffffffffffffffffffffffffff16906020019092919080359060200190929190505050612fd5565b005b6106c86004803603604081101561067c57600080fd5b81019080803573ffffffffffffffffffffffffffffffffffffffff169060200190929190803573ffffffffffffffffffffffffffffffffffffffff1690602001909291905050506131c5565b6040518082815260200191505060405180910390f35b604b602052816000526040600020602052806000526040600020600091509150505481565b60008073ffffffffffffffffffffffffffffffffffffffff163373ffffffffffffffffffffffffffffffffffffffff16141561078a576040517f08c379a00000000000000000000000000000000000000000000000000000000081526004018080602001828103825260248152602001806138c16024913960400191505060405180910390fd5b600073ffffffffffffffffffffffffffffffffffffffff168373ffffffffffffffffffffffffffffffffffffffff161415610810576040517f08c379a00000000000000000000000000000000000000000000000000000000081526004018080602001828103825260228152602001806138146022913960400191505060405180910390fd5b81604b60003373ffffffffffffffffffffffffffffffffffffffff1673ffffffffffffffffffffffffffffffffffffffff16815260200190815260200160002060008573ffffffffffffffffffffffffffffffffffffffff1673ffffffffffffffffffffffffffffffffffffffff168152602001908152602001600020819055508273ffffffffffffffffffffffffffffffffffffffff163373ffffffffffffffffffffffffffffffffffffffff167f8c5be1e5ebec7d5bd14f71427d1e84f3dd0314c0f7b2291e5b200ac8c7c3b925846040518082815260200191505060405180910390a36001905092915050565b6109093361324c565b610911611f7d565b565b600081604b60008673ffffffffffffffffffffffffffffffffffffffff1673ffffffffffffffffffffffffffffffffffffffff16815260200190815260200160002060003373ffffffffffffffffffffffffffffffffffffffff1673ffffffffffffffffffffffffffffffffffffffff168152602001908152602001600020541015610a07576040517f08c379a00000000000000000000000000000000000000000000000000000000081526004018080602001828103825260128152602001807f416c6c6f77616e63652069732077726f6e67000000000000000000000000000081525060200191505060405180910390fd5b81604b60008673ffffffffffffffffffffffffffffffffffffffff1673ffffffffffffffffffffffffffffffffffffffff16815260200190815260200160002060003373ffffffffffffffffffffffffffffffffffffffff1673ffffffffffffffffffffffffffffffffffffffff16815260200190815260200160002060008282540392505081905550610a9c8484846134e7565b600190509392505050565b6000604460003373ffffffffffffffffffffffffffffffffffffffff1673ffffffffffffffffffffffffffffffffffffffff16815260200190815260200160002090506001816000015414610b64576040517f08c379a00000000000000000000000000000000000000000000000000000000081526004018080602001828103825260138152602001807f4d696e6572206973206e6f74207374616b65640000000000000000000000000081525060200191505060405180910390fd5b60028160000181905550620151804281610b7a57fe5b06420381600101819055506001604760007fedddb9344bfe0dadc78c558b8ffca446679cbffc17be64eb83973fce7bea5f34815260200190815260200160002060008282540392505081905550610bcf611f7d565b3373ffffffffffffffffffffffffffffffffffffffff167f453865710d0cb4b14ad25de371c860da196368895daa9662e5087711d14daecf60405160405180910390a250565b6000603660008381526020019081526020016000209050600015158160020160009054906101000a900460ff16151514610c9a576040517f08c379a00000000000000000000000000000000000000000000000000000000081526004018080602001828103825260218152602001806138a06021913960400191505060405180910390fd5b8060050160007f74c9bc34b0b2333f1b565fbee67d940cf7d78b5a980c5f23da43f6729965ed40815260200190815260200160002054421015610d45576040517f08c379a000000000000000000000000000000000000000000000000000000000815260040180806020018281038252601f8152602001807f54696d6520666f7220766f74696e6720686176656e277420656c61707365640081525060200191505060405180910390fd5b600073ffffffffffffffffffffffffffffffffffffffff168160030160009054906101000a900473ffffffffffffffffffffffffffffffffffffffff1673ffffffffffffffffffffffffffffffffffffffff161415610e0c576040517f08c379a000000000000000000000000000000000000000000000000000000000815260040180806020018281038252601c8152602001807f7265706f7274696e67205061727479206973206164647265737320300000000081525060200191505060405180910390fd5b6000816001015490506000811315610e3c5760018260020160016101000a81548160ff0219169083151502179055505b600015158260020160029054906101000a900460ff1615151415610edb576000604460008460020160039054906101000a900473ffffffffffffffffffffffffffffffffffffffff1673ffffffffffffffffffffffffffffffffffffffff1673ffffffffffffffffffffffffffffffffffffffff1681526020019081526020016000209050600381600001541415610ed957600481600001819055505b505b428260050160007fa411e55cb12d8659b5a982c01809e4446e10b0f66f1a7ee08545382e8912127081526020019081526020016000208190555060018260020160006101000a81548160ff0219169083151502179055508160020160039054906101000a900473ffffffffffffffffffffffffffffffffffffffff1673ffffffffffffffffffffffffffffffffffffffff16837f21459c2f5447ebcf83a7f0a238c32c71076faef0d12295e771c0cb1e10434739838560030160009054906101000a900473ffffffffffffffffffffffffffffffffffffffff168660020160019054906101000a900460ff16604051808481526020018373ffffffffffffffffffffffffffffffffffffffff1681526020018215158152602001935050505060405180910390a3505050565b600080604a60008573ffffffffffffffffffffffffffffffffffffffff1673ffffffffffffffffffffffffffffffffffffffff16815260200190815260200160002090506000818054905014806110a55750828160008154811061106757fe5b9060005260206000200160000160009054906101000a90046fffffffffffffffffffffffffffffffff166fffffffffffffffffffffffffffffffff16115b156110b45760009150506112de565b806001828054905003815481106110c757fe5b9060005260206000200160000160009054906101000a90046fffffffffffffffffffffffffffffffff166fffffffffffffffffffffffffffffffff168310611160578060018280549050038154811061111c57fe5b9060005260206000200160000160109054906101000a90046fffffffffffffffffffffffffffffffff166fffffffffffffffffffffffffffffffff169150506112de565b600080600283805490500390505b8181111561129057600060026001848401018161118757fe5b0490508584828154811061119757fe5b9060005260206000200160000160009054906101000a90046fffffffffffffffffffffffffffffffff166fffffffffffffffffffffffffffffffff16141561122c578381815481106111e557fe5b9060005260206000200160000160109054906101000a90046fffffffffffffffffffffffffffffffff166fffffffffffffffffffffffffffffffff169450505050506112de565b8584828154811061123957fe5b9060005260206000200160000160009054906101000a90046fffffffffffffffffffffffffffffffff166fffffffffffffffffffffffffffffffff1610156112835780925061128a565b6001810391505b5061116e565b82828154811061129c57fe5b9060005260206000200160000160109054906101000a90046fffffffffffffffffffffffffffffffff166fffffffffffffffffffffffffffffffff1693505050505b92915050565b7f7be108969d31a3f0b261465c71f2b0ba9301cd914d55d9091c3b36a49d4d41b260001b81565b60496020528060005260406000206000915090505481565b60486020528060005260406000206000915054906101000a900473ffffffffffffffffffffffffffffffffffffffff1681565b60006113628243611007565b9050919050565b6000604560008581526020019081526020016000209050600081600201600085815260200190815260200160002054141561140c576040517f08c379a00000000000000000000000000000000000000000000000000000000081526004018080602001828103825260108152602001807f4d696e656420626c6f636b20697320300000000000000000000000000000000081525060200191505060405180910390fd5b60058210611482576040517f08c379a00000000000000000000000000000000000000000000000000000000081526004018080602001828103825260148152602001807f4d696e657220696e6465782069732077726f6e6700000000000000000000000081525060200191505060405180910390fd5b600081600501600085815260200190815260200160002083600581106114a457fe5b0160009054906101000a900473ffffffffffffffffffffffffffffffffffffffff1690506000818686604051602001808473ffffffffffffffffffffffffffffffffffffffff1660601b8152601401838152602001828152602001935050505060405160208183030381529060405280519060200120905060006001604760007f475da5340e76792184fb177cb85d21980c2530616313aef501564d484eb5ca1e81526020019081526020016000205401905080604760007f475da5340e76792184fb177cb85d21980c2530616313aef501564d484eb5ca1e8152602001908152602001600020819055506000603860008481526020019081526020016000205490506000811461160057806036600084815260200190815260200160002060050160007f0560b748d0e65de8b7394b0e1e09049ca56cf3fdc3429a6e3214e41d5d5023ef81526020019081526020016000208190555061161c565b8160386000858152602001908152602001600020819055508190505b6000819050600060016036600084815260200190815260200160002060050160007f0ac3d41253ab0239953bd9ac38f67f22c9f59179aad422b7d83f5c7089a1be29815260200190815260200160002054019050806036600084815260200190815260200160002060050160007f0ac3d41253ab0239953bd9ac38f67f22c9f59179aad422b7d83f5c7089a1be29815260200190815260200160002081905550836036600084815260200190815260200160002060050160008360405160200180828152602001915050604051602081830303815290604052805190602001208152602001908152602001600020819055508184146119155760006036600084815260200190815260200160002060050160006001840360405160200180828152602001915050604051602081830303815290604052805190602001208152602001908152602001600020549050426036600083815260200190815260200160002060050160007f74c9bc34b0b2333f1b565fbee67d940cf7d78b5a980c5f23da43f6729965ed408152602001908152602001600020541115611827576040517f08c379a00000000000000000000000000000000000000000000000000000000081526004018080602001828103825260178152602001807f4469737075746520697320616c7265616479206f70656e00000000000000000081525060200191505060405180910390fd5b6036600082815260200190815260200160002060020160009054906101000a900460ff161561191357620151806036600083815260200190815260200160002060050160007fa411e55cb12d8659b5a982c01809e4446e10b0f66f1a7ee08545382e8912127081526020019081526020016000205442031115611912576040517f08c379a000000000000000000000000000000000000000000000000000000000815260040180806020018281038252601f8152602001807f54696d6520666f7220766f74696e6720686176656e277420656c61707365640081525060200191505060405180910390fd5b5b505b60006002891415611a3a576001604560008d815260200190815260200160002060010160007f475da5340e76792184fb177cb85d21980c2530616313aef501564d484eb5ca1e81526020019081526020016000205401604560008d815260200190815260200160002060010160007f475da5340e76792184fb177cb85d21980c2530616313aef501564d484eb5ca1e815260200190815260200160002081905550604560008c815260200190815260200160002060010160007f475da5340e76792184fb177cb85d21980c2530616313aef501564d484eb5ca1e815260200190815260200160002054604760007f7be108969d31a3f0b261465c71f2b0ba9301cd914d55d9091c3b36a49d4d41b2815260200190815260200160002054029050611a73565b81604760007f8b75eb45d88e80f0e4ec77d23936268694c0e7ac2e0c9085c5c6bdfcfbc492398152602001908152602001600020540290505b85603660008781526020019081526020016000206000018190555060006036600087815260200190815260200160002060020160026101000a81548160ff021916908315150217905550866036600087815260200190815260200160002060020160036101000a81548173ffffffffffffffffffffffffffffffffffffffff021916908373ffffffffffffffffffffffffffffffffffffffff160217905550336036600087815260200190815260200160002060030160006101000a81548173ffffffffffffffffffffffffffffffffffffffff021916908373ffffffffffffffffffffffffffffffffffffffff16021790555060006036600087815260200190815260200160002060040160006101000a81548173ffffffffffffffffffffffffffffffffffffffff021916908373ffffffffffffffffffffffffffffffffffffffff16021790555060006036600087815260200190815260200160002060020160006101000a81548160ff02191690831515021790555060006036600087815260200190815260200160002060020160016101000a81548160ff021916908315150217905550600060366000878152602001908152602001600020600101819055508a6036600087815260200190815260200160002060050160007f31b40192effc42bcf1e4289fe674c678e673a3052992548fef566d8c33a21b91815260200190815260200160002081905550896036600087815260200190815260200160002060050160007f4ebf727c48eac2c66272456b06a885c5cc03e54d140f63b63b6fd10c1227958e8152602001908152602001600020819055508760060160008b81526020019081526020016000208960058110611cef57fe5b01546036600087815260200190815260200160002060050160007f81afeeaff0ed5cee7d05a21078399c2f56226b0cd5657062500cef4c4e736f85815260200190815260200160002081905550816202a3000242016036600087815260200190815260200160002060050160007f74c9bc34b0b2333f1b565fbee67d940cf7d78b5a980c5f23da43f6729965ed40815260200190815260200160002081905550436036600087815260200190815260200160002060050160007f6f8f54d1af9b6cb8a219d88672c797f9f3ee97ce5d9369aa897fd0deb5e2dffa815260200190815260200160002081905550886036600087815260200190815260200160002060050160007f8ef61a1efbc527d6428ff88c95fdff5c6e644b979bfe67e03cbf88c8162c5fac815260200190815260200160002081905550806036600087815260200190815260200160002060050160007f833b9f6abf0b529613680afe2a00fa663cc95cbdc47d726d85a044462eabbf02815260200190815260200160002081905550611e7e3330836134e7565b6002891415611ed15760018860040160008c815260200190815260200160002060006101000a81548160ff02191690831515021790555060008860030160008c8152602001908152602001600020819055505b6003604460008973ffffffffffffffffffffffffffffffffffffffff1673ffffffffffffffffffffffffffffffffffffffff168152602001908152602001600020600001819055508a857feceec1aebf67772b2440120c4b4dc913a1fe1b865509219f9456785c23b9da648c8a604051808381526020018273ffffffffffffffffffffffffffffffffffffffff1681526020019250505060405180910390a35050505050505050505050565b6000604760007f7be108969d31a3f0b261465c71f2b0ba9301cd914d55d9091c3b36a49d4d41b281526020019081526020016000205490506000604760007fabef544d8048318ece54fb2c6385255cd1b06e176525d149a0338a7acca6deb3815260200190815260200160002054905061205767d02ab486cedc00006103e8836103e861203d86604760007fedddb9344bfe0dadc78c558b8ffca446679cbffc17be64eb83973fce7bea5f34815260200190815260200160002054613756565b0286028161204757fe5b048161204f57fe5b04840361376f565b604760007f8b75eb45d88e80f0e4ec77d23936268694c0e7ac2e0c9085c5c6bdfcfbc492398152602001908152602001600020819055505050565b600080604460008573ffffffffffffffffffffffffffffffffffffffff1673ffffffffffffffffffffffffffffffffffffffff168152602001908152602001600020600001541415801561212857506005604460008573ffffffffffffffffffffffffffffffffffffffff1673ffffffffffffffffffffffffffffffffffffffff16815260200190815260200160002060000154105b156121865781604760007f7be108969d31a3f0b261465c71f2b0ba9301cd914d55d9091c3b36a49d4d41b260001b81526020019081526020016000205461216e85611356565b031061217d5760019050612195565b60009050612195565b8161219084611356565b101590505b92915050565b6000603860006036600085815260200190815260200160002060000154815260200190815260200160002054905060006036600083815260200190815260200160002060050160006036600085815260200190815260200160002060050160007f0ac3d41253ab0239953bd9ac38f67f22c9f59179aad422b7d83f5c7089a1be2981526020019081526020016000205460405160200180828152602001915050604051602081830303815290604052805190602001208152602001908152602001600020549050600081141561226f578190505b6000603660008481526020019081526020016000209050600060366000848152602001908152602001600020905060008260050160007f0ac3d41253ab0239953bd9ac38f67f22c9f59179aad422b7d83f5c7089a1be29815260200190815260200160002054905060008114156122e557600190505b6000808460050160007f5ab53550295bfc9315c562232d99e75119ebb4d3b8a6e012160126a3506b02a881526020019081526020016000205414612391576040517f08c379a00000000000000000000000000000000000000000000000000000000081526004018080602001828103825260108152602001807f616c72656164792070616964206f75740000000000000000000000000000000081525060200191505060405180910390fd5b620151808360050160007fa411e55cb12d8659b5a982c01809e4446e10b0f66f1a7ee08545382e89121270815260200190815260200160002054420311612440576040517f08c379a000000000000000000000000000000000000000000000000000000000815260040180806020018281038252601f8152602001807f54696d6520666f7220766f74696e6720686176656e277420656c61707365640081525060200191505060405180910390fd5b6000604460008660020160039054906101000a900473ffffffffffffffffffffffffffffffffffffffff1673ffffffffffffffffffffffffffffffffffffffff1673ffffffffffffffffffffffffffffffffffffffff168152602001908152602001600020905060018560050160007f5ab53550295bfc9315c562232d99e75119ebb4d3b8a6e012160126a3506b02a8815260200190815260200160002081905550600115158460020160019054906101000a900460ff16151514156126f05762015180428161250c57fe5b06420381600101819055506001604760007fedddb9344bfe0dadc78c558b8ffca446679cbffc17be64eb83973fce7bea5f34815260200190815260200160002060008282540392505081905550612561611f7d565b60048160000154141561260957600581600001819055506125fe8560020160039054906101000a900473ffffffffffffffffffffffffffffffffffffffff168660030160009054906101000a900473ffffffffffffffffffffffffffffffffffffffff16604760007f7be108969d31a3f0b261465c71f2b0ba9301cd914d55d9091c3b36a49d4d41b28152602001908152602001600020546134e7565b600081600001819055505b60005b838110156126ea57856005016000828603604051602001808281526020019150506040516020818303038152906040528051906020012081526020019081526020016000205492506000831415612661578792505b60006036600085815260200190815260200160002090506126dc308260030160009054906101000a900473ffffffffffffffffffffffffffffffffffffffff168360050160007f833b9f6abf0b529613680afe2a00fa663cc95cbdc47d726d85a044462eabbf028152602001908152602001600020546134e7565b50808060010191505061260c565b506129c0565b600181600001819055506000604560008760050160007f31b40192effc42bcf1e4289fe674c678e673a3052992548fef566d8c33a21b918152602001908152602001600020548152602001908152602001600020905060028660050160007f8ef61a1efbc527d6428ff88c95fdff5c6e644b979bfe67e03cbf88c8162c5fac8152602001908152602001600020541415612809578560050160007f81afeeaff0ed5cee7d05a21078399c2f56226b0cd5657062500cef4c4e736f858152602001908152602001600020548160030160008860050160007f4ebf727c48eac2c66272456b06a885c5cc03e54d140f63b63b6fd10c1227958e8152602001908152602001600020548152602001908152602001600020819055505b600115158160040160008860050160007f4ebf727c48eac2c66272456b06a885c5cc03e54d140f63b63b6fd10c1227958e815260200190815260200160002054815260200190815260200160002060009054906101000a900460ff16151514156128d15760008160040160008860050160007f4ebf727c48eac2c66272456b06a885c5cc03e54d140f63b63b6fd10c1227958e815260200190815260200160002054815260200190815260200160002060006101000a81548160ff0219169083151502179055505b60005b848110156129bd57866005016000828703604051602001808281526020019150506040516020818303038152906040528051906020012081526020019081526020016000205493506000841461293a576036600085815260200190815260200160002095505b6129b0308760020160039054906101000a900473ffffffffffffffffffffffffffffffffffffffff166036600088815260200190815260200160002060050160007f833b9f6abf0b529613680afe2a00fa663cc95cbdc47d726d85a044462eabbf028152602001908152602001600020546134e7565b80806001019150506128d4565b50505b60028560050160007f8ef61a1efbc527d6428ff88c95fdff5c6e644b979bfe67e03cbf88c8162c5fac8152602001908152602001600020541415612a8c57604560008660050160007f31b40192effc42bcf1e4289fe674c678e673a3052992548fef566d8c33a21b91815260200190815260200160002054815260200190815260200160002060010160007f475da5340e76792184fb177cb85d21980c2530616313aef501564d484eb5ca1e815260200190815260200160002060008154809291906001900391905055505b5050505050505050565b6000612aa33384846134e7565b6001905092915050565b60476020528060005260406000206000915090505481565b6000604460003373ffffffffffffffffffffffffffffffffffffffff1673ffffffffffffffffffffffffffffffffffffffff168152602001908152602001600020905062093a808160010154620151804281612b1d57fe5b064203031015612b95576040517f08c379a00000000000000000000000000000000000000000000000000000000081526004018080602001828103825260128152602001807f372064617973206469646e27742070617373000000000000000000000000000081525060200191505060405180910390fd5b6002816000015414612bf2576040517f08c379a00000000000000000000000000000000000000000000000000000000081526004018080602001828103825260238152602001806137f16023913960400191505060405180910390fd5b600081600001819055503373ffffffffffffffffffffffffffffffffffffffff167f4a7934670bd8304e7da22378be1368f7c4fef17c5aee81804beda8638fe428ec60405160405180910390a250565b60006036600084815260200190815260200160002090506000612c9a338360050160007f6f8f54d1af9b6cb8a219d88672c797f9f3ee97ce5d9369aa897fd0deb5e2dffa815260200190815260200160002054611007565b9050600115158260060160003373ffffffffffffffffffffffffffffffffffffffff1673ffffffffffffffffffffffffffffffffffffffff16815260200190815260200160002060009054906101000a900460ff1615151415612d65576040517f08c379a00000000000000000000000000000000000000000000000000000000081526004018080602001828103825260188152602001807f53656e6465722068617320616c726561647920766f746564000000000000000081525060200191505060405180910390fd5b6000811415612ddc576040517f08c379a00000000000000000000000000000000000000000000000000000000081526004018080602001828103825260118152602001807f557365722062616c616e6365206973203000000000000000000000000000000081525060200191505060405180910390fd5b6003604460003373ffffffffffffffffffffffffffffffffffffffff1673ffffffffffffffffffffffffffffffffffffffff168152602001908152602001600020600001541415612e95576040517f08c379a00000000000000000000000000000000000000000000000000000000081526004018080602001828103825260168152602001807f4d696e657220697320756e64657220646973707574650000000000000000000081525060200191505060405180910390fd5b60018260060160003373ffffffffffffffffffffffffffffffffffffffff1673ffffffffffffffffffffffffffffffffffffffff16815260200190815260200160002060006101000a81548160ff02191690831515021790555060018260050160007fa0bc13ce85a2091e950a370bced0825e58ab3a3ffeb709ed50d5562cbd82faab8152602001908152602001600020600082825401925050819055508215612f5d57612f5081836001015461378890919063ffffffff16565b8260010181905550612f7d565b612f748183600101546137bc90919063ffffffff16565b82600101819055505b803373ffffffffffffffffffffffffffffffffffffffff16857f911ef2e98570b1d96c0e8ef81107a33d5b8e844aeb8f9710f9bc76c3b3fef40e8660405180821515815260200191505060405180910390a450505050565b6000604a60008473ffffffffffffffffffffffffffffffffffffffff1673ffffffffffffffffffffffffffffffffffffffff16815260200190815260200160002090506000818054905014806130795750438160018380549050038154811061303a57fe5b9060005260206000200160000160009054906101000a90046fffffffffffffffffffffffffffffffff166fffffffffffffffffffffffffffffffff1614155b1561316257806040518060400160405280436fffffffffffffffffffffffffffffffff168152602001846fffffffffffffffffffffffffffffffff168152509080600181540180825580915050600190039060005260206000200160009091909190915060008201518160000160006101000a8154816fffffffffffffffffffffffffffffffff02191690836fffffffffffffffffffffffffffffffff16021790555060208201518160000160106101000a8154816fffffffffffffffffffffffffffffffff02191690836fffffffffffffffffffffffffffffffff16021790555050506131c0565b60008160018380549050038154811061317757fe5b906000526020600020019050828160000160106101000a8154816fffffffffffffffffffffffffffffffff02191690836fffffffffffffffffffffffffffffffff160217905550505b505050565b6000604b60008473ffffffffffffffffffffffffffffffffffffffff1673ffffffffffffffffffffffffffffffffffffffff16815260200190815260200160002060008373ffffffffffffffffffffffffffffffffffffffff1673ffffffffffffffffffffffffffffffffffffffff16815260200190815260200160002054905092915050565b604760007f7be108969d31a3f0b261465c71f2b0ba9301cd914d55d9091c3b36a49d4d41b281526020019081526020016000205461328982611356565b10156132e0576040517f08c379a000000000000000000000000000000000000000000000000000000000815260040180806020018281038252602281526020018061387e6022913960400191505060405180910390fd5b6000604460008373ffffffffffffffffffffffffffffffffffffffff1673ffffffffffffffffffffffffffffffffffffffff16815260200190815260200160002060000154148061337357506002604460008373ffffffffffffffffffffffffffffffffffffffff1673ffffffffffffffffffffffffffffffffffffffff16815260200190815260200160002060000154145b6133e5576040517f08c379a000000000000000000000000000000000000000000000000000000000815260040180806020018281038252601b8152602001807f4d696e657220697320696e207468652077726f6e67207374617465000000000081525060200191505060405180910390fd5b6001604760007fedddb9344bfe0dadc78c558b8ffca446679cbffc17be64eb83973fce7bea5f3481526020019081526020016000206000828254019250508190555060405180604001604052806001815260200162015180428161344557fe5b064203815250604460008373ffffffffffffffffffffffffffffffffffffffff1673ffffffffffffffffffffffffffffffffffffffff16815260200190815260200160002060008201518160000155602082015181600101559050508073ffffffffffffffffffffffffffffffffffffffff167f46d8ab1385f70e5a3673e97c23c764f7600f7ed7a09b6687deae7131d51752e260405160405180910390a250565b6000811415613541576040517f08c379a000000000000000000000000000000000000000000000000000000000815260040180806020018281038252602181526020018061385d6021913960400191505060405180910390fd5b600073ffffffffffffffffffffffffffffffffffffffff168273ffffffffffffffffffffffffffffffffffffffff1614156135e4576040517f08c379a00000000000000000000000000000000000000000000000000000000081526004018080602001828103825260158152602001807f526563656976657220697320302061646472657373000000000000000000000081525060200191505060405180910390fd5b6135ee8382612092565b613643576040517f08c379a00000000000000000000000000000000000000000000000000000000081526004018080602001828103825260278152602001806138366027913960400191505060405180910390fd5b600061364e84611356565b905061365c84838303612fd5565b61366583611356565b90508082820110156136df576040517f08c379a00000000000000000000000000000000000000000000000000000000081526004018080602001828103825260118152602001807f4f766572666c6f772068617070656e656400000000000000000000000000000081525060200191505060405180910390fd5b6136eb83838301612fd5565b8273ffffffffffffffffffffffffffffffffffffffff168473ffffffffffffffffffffffffffffffffffffffff167fddf252ad1be2c89b69c2b068fc378daa952ba7f163c4a11628f55a4df523b3ef846040518082815260200191505060405180910390a350505050565b60008183106137655781613767565b825b905092915050565b600081831161377e5781613780565b825b905092915050565b6000808213156137a6578183019050828112156137a157fe5b6137b6565b8183019050828113156137b557fe5b5b92915050565b6000808213156137da578183039050828113156137d557fe5b6137ea565b8183039050828112156137e957fe5b5b9291505056fe4d696e657220776173206e6f74206c6f636b656420666f72207769746864726177616c45524332303a20617070726f766520746f20746865207a65726f206164647265737353686f756c6420686176652073756666696369656e742062616c616e636520746f207472616465547269656420746f2073656e64206e6f6e2d706f73697469766520616d6f756e7442616c616e6365206973206c6f776572207468616e207374616b6520616d6f756e744469737075746520686173206265656e20616c726561647920657865637574656445524332303a20617070726f76652066726f6d20746865207a65726f2061646472657373a2646970667358221220180246d1318a1afca3b1ca5529fdb782cfe0a7093179e6c7edbd4a0881eaa47a64736f6c63430007040033",
  "linkReferences": {},
  "deployedLinkReferences": {}
}