{
  "_format": "hh-sol-artifact-1",
  "contractName": "TellorStake",
  "sourceName": "contracts/TellorStake.sol",
  "abi": [
    {
      "anonymous": false,
      "inputs": [
        {
          "indexed": true,
          "internalType": "address",
          "name": "owner",
          "type": "address"
        },
        {
          "indexed": true,
          "internalType": "address",
          "name": "spender",
          "type": "address"
        },
        {
          "indexed": false,
          "internalType": "uint256",
          "name": "value",
          "type": "uint256"
        }
      ],
      "name": "Approval",
      "type": "event"
    },
    {
      "anonymous": false,
      "inputs": [
        {
          "indexed": true,
          "internalType": "uint256",
          "name": "_disputeID",
          "type": "uint256"
        },
        {
          "indexed": false,
          "internalType": "int256",
          "name": "_result",
          "type": "int256"
        },
        {
          "indexed": true,
          "internalType": "address",
          "name": "_reportedMiner",
          "type": "address"
        },
        {
          "indexed": false,
          "internalType": "address",
          "name": "_reportingParty",
          "type": "address"
        },
        {
          "indexed": false,
          "internalType": "bool",
          "name": "_active",
          "type": "bool"
        }
      ],
      "name": "DisputeVoteTallied",
      "type": "event"
    },
    {
      "anonymous": false,
      "inputs": [
        {
          "indexed": true,
          "internalType": "uint256",
          "name": "_disputeId",
          "type": "uint256"
        },
        {
          "indexed": true,
          "internalType": "uint256",
          "name": "_requestId",
          "type": "uint256"
        },
        {
          "indexed": false,
          "internalType": "uint256",
          "name": "_timestamp",
          "type": "uint256"
        },
        {
          "indexed": false,
          "internalType": "address",
          "name": "_miner",
          "type": "address"
        }
      ],
      "name": "NewDispute",
      "type": "event"
    },
    {
      "anonymous": false,
      "inputs": [
        {
          "indexed": true,
          "internalType": "address",
          "name": "_sender",
          "type": "address"
        }
      ],
      "name": "NewStake",
      "type": "event"
    },
    {
      "anonymous": false,
      "inputs": [
        {
          "indexed": true,
          "internalType": "address",
          "name": "_sender",
          "type": "address"
        }
      ],
      "name": "StakeWithdrawRequested",
      "type": "event"
    },
    {
      "anonymous": false,
      "inputs": [
        {
          "indexed": true,
          "internalType": "address",
          "name": "_sender",
          "type": "address"
        }
      ],
      "name": "StakeWithdrawn",
      "type": "event"
    },
    {
      "anonymous": false,
      "inputs": [
        {
          "indexed": true,
          "internalType": "address",
          "name": "from",
          "type": "address"
        },
        {
          "indexed": true,
          "internalType": "address",
          "name": "to",
          "type": "address"
        },
        {
          "indexed": false,
          "internalType": "uint256",
          "name": "value",
          "type": "uint256"
        }
      ],
      "name": "Transfer",
      "type": "event"
    },
    {
      "anonymous": false,
      "inputs": [
        {
          "indexed": true,
          "internalType": "uint256",
          "name": "_disputeID",
          "type": "uint256"
        },
        {
          "indexed": false,
          "internalType": "bool",
          "name": "_position",
          "type": "bool"
        },
        {
          "indexed": true,
          "internalType": "address",
          "name": "_voter",
          "type": "address"
        },
        {
          "indexed": true,
          "internalType": "uint256",
          "name": "_voteWeight",
          "type": "uint256"
        }
      ],
      "name": "Voted",
      "type": "event"
    },
    {
      "inputs": [
        {
          "internalType": "address",
          "name": "",
          "type": "address"
        },
        {
          "internalType": "address",
          "name": "",
          "type": "address"
        }
      ],
      "name": "_allowances",
      "outputs": [
        {
          "internalType": "uint256",
          "name": "",
          "type": "uint256"
        }
      ],
      "stateMutability": "view",
      "type": "function"
    },
    {
      "inputs": [],
      "name": "_owner",
      "outputs": [
        {
          "internalType": "bytes32",
          "name": "",
          "type": "bytes32"
        }
      ],
      "stateMutability": "view",
      "type": "function"
    },
    {
      "inputs": [],
      "name": "_tBlock",
      "outputs": [
        {
          "internalType": "bytes32",
          "name": "",
          "type": "bytes32"
        }
      ],
      "stateMutability": "view",
      "type": "function"
    },
    {
      "inputs": [
        {
          "internalType": "bytes32",
          "name": "",
          "type": "bytes32"
        }
      ],
      "name": "addresses",
      "outputs": [
        {
          "internalType": "address",
          "name": "",
          "type": "address"
        }
      ],
      "stateMutability": "view",
      "type": "function"
    },
    {
      "inputs": [
        {
          "internalType": "address",
          "name": "_user",
          "type": "address"
        },
        {
          "internalType": "address",
          "name": "_spender",
          "type": "address"
        }
      ],
      "name": "allowance",
      "outputs": [
        {
          "internalType": "uint256",
          "name": "",
          "type": "uint256"
        }
      ],
      "stateMutability": "view",
      "type": "function"
    },
    {
      "inputs": [
        {
          "internalType": "address",
          "name": "_user",
          "type": "address"
        },
        {
          "internalType": "uint256",
          "name": "_amount",
          "type": "uint256"
        }
      ],
      "name": "allowedToTrade",
      "outputs": [
        {
          "internalType": "bool",
          "name": "",
          "type": "bool"
        }
      ],
      "stateMutability": "view",
      "type": "function"
    },
    {
      "inputs": [
        {
          "internalType": "address",
          "name": "_spender",
          "type": "address"
        },
        {
          "internalType": "uint256",
          "name": "_amount",
          "type": "uint256"
        }
      ],
      "name": "approve",
      "outputs": [
        {
          "internalType": "bool",
          "name": "",
          "type": "bool"
        }
      ],
      "stateMutability": "nonpayable",
      "type": "function"
    },
    {
      "inputs": [
        {
          "internalType": "address",
          "name": "_user",
          "type": "address"
        }
      ],
      "name": "balanceOf",
      "outputs": [
        {
          "internalType": "uint256",
          "name": "",
          "type": "uint256"
        }
      ],
      "stateMutability": "view",
      "type": "function"
    },
    {
      "inputs": [
        {
          "internalType": "address",
          "name": "_user",
          "type": "address"
        },
        {
          "internalType": "uint256",
          "name": "_blockNumber",
          "type": "uint256"
        }
      ],
      "name": "balanceOfAt",
      "outputs": [
        {
          "internalType": "uint256",
          "name": "",
          "type": "uint256"
        }
      ],
      "stateMutability": "view",
      "type": "function"
    },
    {
      "inputs": [
        {
          "internalType": "uint256",
          "name": "_requestId",
          "type": "uint256"
        },
        {
          "internalType": "uint256",
          "name": "_timestamp",
          "type": "uint256"
        },
        {
          "internalType": "uint256",
          "name": "_minerIndex",
          "type": "uint256"
        }
      ],
      "name": "beginDispute",
      "outputs": [],
      "stateMutability": "nonpayable",
      "type": "function"
    },
    {
      "inputs": [
        {
          "internalType": "bytes32",
          "name": "",
          "type": "bytes32"
        }
      ],
      "name": "bytesVars",
      "outputs": [
        {
          "internalType": "bytes32",
          "name": "",
          "type": "bytes32"
        }
      ],
      "stateMutability": "view",
      "type": "function"
    },
    {
      "inputs": [],
      "name": "currentChallenge",
      "outputs": [
        {
          "internalType": "bytes32",
          "name": "",
          "type": "bytes32"
        }
      ],
      "stateMutability": "view",
      "type": "function"
    },
    {
      "inputs": [],
      "name": "currentRequestId",
      "outputs": [
        {
          "internalType": "bytes32",
          "name": "",
          "type": "bytes32"
        }
      ],
      "stateMutability": "view",
      "type": "function"
    },
    {
      "inputs": [],
      "name": "currentTotalTips",
      "outputs": [
        {
          "internalType": "bytes32",
          "name": "",
          "type": "bytes32"
        }
      ],
      "stateMutability": "view",
      "type": "function"
    },
    {
      "inputs": [],
      "name": "decimals",
      "outputs": [
        {
          "internalType": "uint8",
          "name": "",
          "type": "uint8"
        }
      ],
      "stateMutability": "pure",
      "type": "function"
    },
    {
      "inputs": [],
      "name": "depositStake",
      "outputs": [],
      "stateMutability": "nonpayable",
      "type": "function"
    },
    {
      "inputs": [
        {
          "internalType": "bytes32",
          "name": "_challenge",
          "type": "bytes32"
        },
        {
          "internalType": "address",
          "name": "_miner",
          "type": "address"
        }
      ],
      "name": "didMine",
      "outputs": [
        {
          "internalType": "bool",
          "name": "",
          "type": "bool"
        }
      ],
      "stateMutability": "view",
      "type": "function"
    },
    {
      "inputs": [
        {
          "internalType": "uint256",
          "name": "_disputeId",
          "type": "uint256"
        },
        {
          "internalType": "address",
          "name": "_address",
          "type": "address"
        }
      ],
      "name": "didVote",
      "outputs": [
        {
          "internalType": "bool",
          "name": "",
          "type": "bool"
        }
      ],
      "stateMutability": "view",
      "type": "function"
    },
    {
      "inputs": [],
      "name": "difficulty",
      "outputs": [
        {
          "internalType": "bytes32",
          "name": "",
          "type": "bytes32"
        }
      ],
      "stateMutability": "view",
      "type": "function"
    },
    {
      "inputs": [],
      "name": "disputeFee",
      "outputs": [
        {
          "internalType": "bytes32",
          "name": "",
          "type": "bytes32"
        }
      ],
      "stateMutability": "view",
      "type": "function"
    },
    {
      "inputs": [
        {
          "internalType": "bytes32",
          "name": "_data",
          "type": "bytes32"
        }
      ],
      "name": "getAddressVars",
      "outputs": [
        {
          "internalType": "address",
          "name": "",
          "type": "address"
        }
      ],
      "stateMutability": "view",
      "type": "function"
    },
    {
      "inputs": [
        {
          "internalType": "uint256",
          "name": "_disputeId",
          "type": "uint256"
        }
      ],
      "name": "getAllDisputeVars",
      "outputs": [
        {
          "internalType": "bytes32",
          "name": "",
          "type": "bytes32"
        },
        {
          "internalType": "bool",
          "name": "",
          "type": "bool"
        },
        {
          "internalType": "bool",
          "name": "",
          "type": "bool"
        },
        {
          "internalType": "bool",
          "name": "",
          "type": "bool"
        },
        {
          "internalType": "address",
          "name": "",
          "type": "address"
        },
        {
          "internalType": "address",
          "name": "",
          "type": "address"
        },
        {
          "internalType": "address",
          "name": "",
          "type": "address"
        },
        {
          "internalType": "uint256[9]",
          "name": "",
          "type": "uint256[9]"
        },
        {
          "internalType": "int256",
          "name": "",
          "type": "int256"
        }
      ],
      "stateMutability": "view",
      "type": "function"
    },
    {
      "inputs": [
        {
          "internalType": "bytes32",
          "name": "_hash",
          "type": "bytes32"
        }
      ],
      "name": "getDisputeIdByDisputeHash",
      "outputs": [
        {
          "internalType": "uint256",
          "name": "",
          "type": "uint256"
        }
      ],
      "stateMutability": "view",
      "type": "function"
    },
    {
      "inputs": [
        {
          "internalType": "uint256",
          "name": "_disputeId",
          "type": "uint256"
        },
        {
          "internalType": "bytes32",
          "name": "_data",
          "type": "bytes32"
        }
      ],
      "name": "getDisputeUintVars",
      "outputs": [
        {
          "internalType": "uint256",
          "name": "",
          "type": "uint256"
        }
      ],
      "stateMutability": "view",
      "type": "function"
    },
    {
      "inputs": [],
      "name": "getLastNewValue",
      "outputs": [
        {
          "internalType": "uint256",
          "name": "",
          "type": "uint256"
        },
        {
          "internalType": "bool",
          "name": "",
          "type": "bool"
        }
      ],
      "stateMutability": "view",
      "type": "function"
    },
    {
      "inputs": [
        {
          "internalType": "uint256",
          "name": "_requestId",
          "type": "uint256"
        }
      ],
      "name": "getLastNewValueById",
      "outputs": [
        {
          "internalType": "uint256",
          "name": "",
          "type": "uint256"
        },
        {
          "internalType": "bool",
          "name": "",
          "type": "bool"
        }
      ],
      "stateMutability": "view",
      "type": "function"
    },
    {
      "inputs": [
        {
          "internalType": "uint256",
          "name": "_requestId",
          "type": "uint256"
        },
        {
          "internalType": "uint256",
          "name": "_timestamp",
          "type": "uint256"
        }
      ],
      "name": "getMinedBlockNum",
      "outputs": [
        {
          "internalType": "uint256",
          "name": "",
          "type": "uint256"
        }
      ],
      "stateMutability": "view",
      "type": "function"
    },
    {
      "inputs": [
        {
          "internalType": "uint256",
          "name": "_requestId",
          "type": "uint256"
        },
        {
          "internalType": "uint256",
          "name": "_timestamp",
          "type": "uint256"
        }
      ],
      "name": "getMinersByRequestIdAndTimestamp",
      "outputs": [
        {
          "internalType": "address[5]",
          "name": "",
          "type": "address[5]"
        }
      ],
      "stateMutability": "view",
      "type": "function"
    },
    {
      "inputs": [],
      "name": "getNewCurrentVariables",
      "outputs": [
        {
          "internalType": "bytes32",
          "name": "_challenge",
          "type": "bytes32"
        },
        {
          "internalType": "uint256[5]",
          "name": "_requestIds",
          "type": "uint256[5]"
        },
        {
          "internalType": "uint256",
          "name": "_difficulty",
          "type": "uint256"
        },
        {
          "internalType": "uint256",
          "name": "_tip",
          "type": "uint256"
        }
      ],
      "stateMutability": "view",
      "type": "function"
    },
    {
      "inputs": [
        {
          "internalType": "uint256",
          "name": "_requestId",
          "type": "uint256"
        }
      ],
      "name": "getNewValueCountbyRequestId",
      "outputs": [
        {
          "internalType": "uint256",
          "name": "",
          "type": "uint256"
        }
      ],
      "stateMutability": "view",
      "type": "function"
    },
    {
      "inputs": [],
      "name": "getNewVariablesOnDeck",
      "outputs": [
        {
          "internalType": "uint256[5]",
          "name": "idsOnDeck",
          "type": "uint256[5]"
        },
        {
          "internalType": "uint256[5]",
          "name": "tipsOnDeck",
          "type": "uint256[5]"
        }
      ],
      "stateMutability": "view",
      "type": "function"
    },
    {
      "inputs": [
        {
          "internalType": "uint256",
          "name": "_index",
          "type": "uint256"
        }
      ],
      "name": "getRequestIdByRequestQIndex",
      "outputs": [
        {
          "internalType": "uint256",
          "name": "",
          "type": "uint256"
        }
      ],
      "stateMutability": "view",
      "type": "function"
    },
    {
      "inputs": [
        {
          "internalType": "uint256",
          "name": "_timestamp",
          "type": "uint256"
        }
      ],
      "name": "getRequestIdByTimestamp",
      "outputs": [
        {
          "internalType": "uint256",
          "name": "",
          "type": "uint256"
        }
      ],
      "stateMutability": "view",
      "type": "function"
    },
    {
      "inputs": [],
      "name": "getRequestQ",
      "outputs": [
        {
          "internalType": "uint256[51]",
          "name": "",
          "type": "uint256[51]"
        }
      ],
      "stateMutability": "view",
      "type": "function"
    },
    {
      "inputs": [
        {
          "internalType": "uint256",
          "name": "_requestId",
          "type": "uint256"
        },
        {
          "internalType": "bytes32",
          "name": "_data",
          "type": "bytes32"
        }
      ],
      "name": "getRequestUintVars",
      "outputs": [
        {
          "internalType": "uint256",
          "name": "",
          "type": "uint256"
        }
      ],
      "stateMutability": "view",
      "type": "function"
    },
    {
      "inputs": [
        {
          "internalType": "uint256",
          "name": "_requestId",
          "type": "uint256"
        }
      ],
      "name": "getRequestVars",
      "outputs": [
        {
          "internalType": "uint256",
          "name": "",
          "type": "uint256"
        },
        {
          "internalType": "uint256",
          "name": "",
          "type": "uint256"
        }
      ],
      "stateMutability": "view",
      "type": "function"
    },
    {
      "inputs": [
        {
          "internalType": "address",
          "name": "_staker",
          "type": "address"
        }
      ],
      "name": "getStakerInfo",
      "outputs": [
        {
          "internalType": "uint256",
          "name": "",
          "type": "uint256"
        },
        {
          "internalType": "uint256",
          "name": "",
          "type": "uint256"
        }
      ],
      "stateMutability": "view",
      "type": "function"
    },
    {
      "inputs": [
        {
          "internalType": "uint256",
          "name": "_requestId",
          "type": "uint256"
        },
        {
          "internalType": "uint256",
          "name": "_timestamp",
          "type": "uint256"
        }
      ],
      "name": "getSubmissionsByTimestamp",
      "outputs": [
        {
          "internalType": "uint256[5]",
          "name": "",
          "type": "uint256[5]"
        }
      ],
      "stateMutability": "view",
      "type": "function"
    },
    {
      "inputs": [
        {
          "internalType": "uint256",
          "name": "_requestID",
          "type": "uint256"
        },
        {
          "internalType": "uint256",
          "name": "_index",
          "type": "uint256"
        }
      ],
      "name": "getTimestampbyRequestIDandIndex",
      "outputs": [
        {
          "internalType": "uint256",
          "name": "",
          "type": "uint256"
        }
      ],
      "stateMutability": "view",
      "type": "function"
    },
    {
      "inputs": [],
      "name": "getTopRequestIDs",
      "outputs": [
        {
          "internalType": "uint256[5]",
          "name": "_requestIds",
          "type": "uint256[5]"
        }
      ],
      "stateMutability": "view",
      "type": "function"
    },
    {
      "inputs": [
        {
          "internalType": "bytes32",
          "name": "_data",
          "type": "bytes32"
        }
      ],
      "name": "getUintVar",
      "outputs": [
        {
          "internalType": "uint256",
          "name": "",
          "type": "uint256"
        }
      ],
      "stateMutability": "view",
      "type": "function"
    },
    {
      "inputs": [
        {
          "internalType": "uint256",
          "name": "_requestId",
          "type": "uint256"
        },
        {
          "internalType": "uint256",
          "name": "_timestamp",
          "type": "uint256"
        }
      ],
      "name": "isInDispute",
      "outputs": [
        {
          "internalType": "bool",
          "name": "",
          "type": "bool"
        }
      ],
      "stateMutability": "view",
      "type": "function"
    },
    {
      "inputs": [],
      "name": "name",
      "outputs": [
        {
          "internalType": "string",
          "name": "",
          "type": "string"
        }
      ],
      "stateMutability": "pure",
      "type": "function"
    },
    {
      "inputs": [],
      "name": "pending_owner",
      "outputs": [
        {
          "internalType": "bytes32",
          "name": "",
          "type": "bytes32"
        }
      ],
      "stateMutability": "view",
      "type": "function"
    },
    {
      "inputs": [],
      "name": "requestCount",
      "outputs": [
        {
          "internalType": "bytes32",
          "name": "",
          "type": "bytes32"
        }
      ],
      "stateMutability": "view",
      "type": "function"
    },
    {
      "inputs": [],
      "name": "requestQPosition",
      "outputs": [
        {
          "internalType": "bytes32",
          "name": "",
          "type": "bytes32"
        }
      ],
      "stateMutability": "view",
      "type": "function"
    },
    {
      "inputs": [],
      "name": "requestStakingWithdraw",
      "outputs": [],
      "stateMutability": "nonpayable",
      "type": "function"
    },
    {
      "inputs": [
        {
          "internalType": "uint256",
          "name": "_requestId",
          "type": "uint256"
        },
        {
          "internalType": "uint256",
          "name": "_timestamp",
          "type": "uint256"
        }
      ],
      "name": "retrieveData",
      "outputs": [
        {
          "internalType": "uint256",
          "name": "",
          "type": "uint256"
        }
      ],
      "stateMutability": "view",
      "type": "function"
    },
    {
      "inputs": [],
      "name": "slotProgress",
      "outputs": [
        {
          "internalType": "bytes32",
          "name": "",
          "type": "bytes32"
        }
      ],
      "stateMutability": "view",
      "type": "function"
    },
    {
      "inputs": [],
      "name": "stakeAmount",
      "outputs": [
        {
          "internalType": "bytes32",
          "name": "",
          "type": "bytes32"
        }
      ],
      "stateMutability": "view",
      "type": "function"
    },
    {
      "inputs": [],
      "name": "stakerCount",
      "outputs": [
        {
          "internalType": "bytes32",
          "name": "",
          "type": "bytes32"
        }
      ],
      "stateMutability": "view",
      "type": "function"
    },
    {
      "inputs": [],
      "name": "symbol",
      "outputs": [
        {
          "internalType": "string",
          "name": "",
          "type": "string"
        }
      ],
      "stateMutability": "pure",
      "type": "function"
    },
    {
      "inputs": [
        {
          "internalType": "uint256",
          "name": "_disputeId",
          "type": "uint256"
        }
      ],
      "name": "tallyVotes",
      "outputs": [],
      "stateMutability": "nonpayable",
      "type": "function"
    },
    {
      "inputs": [],
      "name": "targetMiners",
      "outputs": [
        {
          "internalType": "bytes32",
          "name": "",
          "type": "bytes32"
        }
      ],
      "stateMutability": "view",
      "type": "function"
    },
    {
      "inputs": [],
      "name": "timeOfLastNewValue",
      "outputs": [
        {
          "internalType": "bytes32",
          "name": "",
          "type": "bytes32"
        }
      ],
      "stateMutability": "view",
      "type": "function"
    },
    {
      "inputs": [],
      "name": "timeTarget",
      "outputs": [
        {
          "internalType": "bytes32",
          "name": "",
          "type": "bytes32"
        }
      ],
      "stateMutability": "view",
      "type": "function"
    },
    {
      "inputs": [],
      "name": "totalSupply",
      "outputs": [
        {
          "internalType": "uint256",
          "name": "",
          "type": "uint256"
        }
      ],
      "stateMutability": "view",
      "type": "function"
    },
    {
      "inputs": [],
      "name": "totalTip",
      "outputs": [
        {
          "internalType": "bytes32",
          "name": "",
          "type": "bytes32"
        }
      ],
      "stateMutability": "view",
      "type": "function"
    },
    {
      "inputs": [],
      "name": "total_supply",
      "outputs": [
        {
          "internalType": "bytes32",
          "name": "",
          "type": "bytes32"
        }
      ],
      "stateMutability": "view",
      "type": "function"
    },
    {
      "inputs": [
        {
          "internalType": "address",
          "name": "_to",
          "type": "address"
        },
        {
          "internalType": "uint256",
          "name": "_amount",
          "type": "uint256"
        }
      ],
      "name": "transfer",
      "outputs": [
        {
          "internalType": "bool",
          "name": "success",
          "type": "bool"
        }
      ],
      "stateMutability": "nonpayable",
      "type": "function"
    },
    {
      "inputs": [
        {
          "internalType": "address",
          "name": "_from",
          "type": "address"
        },
        {
          "internalType": "address",
          "name": "_to",
          "type": "address"
        },
        {
          "internalType": "uint256",
          "name": "_amount",
          "type": "uint256"
        }
      ],
      "name": "transferFrom",
      "outputs": [
        {
          "internalType": "bool",
          "name": "success",
          "type": "bool"
        }
      ],
      "stateMutability": "nonpayable",
      "type": "function"
    },
    {
      "inputs": [
        {
          "internalType": "bytes32",
          "name": "",
          "type": "bytes32"
        }
      ],
      "name": "uints",
      "outputs": [
        {
          "internalType": "uint256",
          "name": "",
          "type": "uint256"
        }
      ],
      "stateMutability": "view",
      "type": "function"
    },
    {
      "inputs": [
        {
          "internalType": "uint256",
          "name": "_disputeId",
          "type": "uint256"
        }
      ],
      "name": "unlockDisputeFee",
      "outputs": [],
      "stateMutability": "nonpayable",
      "type": "function"
    },
    {
      "inputs": [
        {
          "internalType": "address",
          "name": "_user",
          "type": "address"
        },
        {
          "internalType": "uint256",
          "name": "_value",
          "type": "uint256"
        }
      ],
      "name": "updateBalanceAtNow",
      "outputs": [],
      "stateMutability": "nonpayable",
      "type": "function"
    },
    {
      "inputs": [],
      "name": "updateMinDisputeFee",
      "outputs": [],
      "stateMutability": "nonpayable",
      "type": "function"
    },
    {
      "inputs": [
        {
          "internalType": "uint256",
          "name": "_disputeId",
          "type": "uint256"
        },
        {
          "internalType": "bool",
          "name": "_supportsDispute",
          "type": "bool"
        }
      ],
      "name": "vote",
      "outputs": [],
      "stateMutability": "nonpayable",
      "type": "function"
    },
    {
      "inputs": [],
      "name": "withdrawStake",
      "outputs": [],
      "stateMutability": "nonpayable",
      "type": "function"
    }
  ],
  "bytecode": "0x608060405234801561001057600080fd5b50615b7a80620000216000396000f3fe608060405234801561001057600080fd5b50600436106103f15760003560e01c80636fc3781111610215578063af0b132711610125578063d67dcbc5116100b8578063dff6978711610087578063dff6978714611437578063e0ae93c114611455578063e1eee6d6146114a1578063fc7cf0a0146114ea578063fe1cd15d14611511576103f1565b8063d67dcbc514611311578063da3799411461135f578063dd62ed3e146113a1578063dfee1ff114611419576103f1565b8063b9ce896b116100f4578063b9ce896b14611263578063bed9d86114611281578063c775b5421461128b578063c9d27afe146112d7576103f1565b8063af0b1327146110d3578063b2bdfa7b146111bd578063b5413029146111db578063b59e14d414611221576103f1565b80638581af19116101a8578063999cf26c11610177578063999cf26c14610f045780639a01ca1314610f685780639a7077ab14610f96578063a7c438bc1461100b578063a9059cbb1461106f576103f1565b80638581af1914610de957806390e5b23514610e2b57806393fa491514610e3557806395d89b4114610e81576103f1565b806375ad1a2a116101e457806375ad1a2a14610d1557806377fbb66314610d335780637f4ec4c314610d7f5780637f6fd5d914610d9d576103f1565b80636fc3781114610c225780636fd4f22914610c4057806370a0823114610c5e578063733bdef014610cb6576103f1565b80633df0777b116103105780635badbe4c116102a357806362dd1d2a1161027257806362dd1d2a14610a9257806363bb82ad14610ad457806369026d6314610b38578063699f200f14610bac5780636e3cf88514610c04576103f1565b80635badbe4c146109d257806360c7dc47146109f0578063612c8f7f14610a0e5780636173c0b814610a50576103f1565b80634ee2cd7e116102df5780634ee2cd7e1461091657806351bdd58514610978578063561cb04a146109965780635ae2bfdb146109b4576103f1565b80633df0777b146107fd5780634049f1981461084b57806346eee1c4146108a65780634d318b0e146108e8576103f1565b806318160ddd116103885780632bf07e9e116103575780632bf07e9e14610755578063313ce567146107735780633180f8df146107945780633940e9ee146107df576103f1565b806318160ddd1461068b57806319cae462146106a957806323b872dd146106c757806328449c3a1461074b576103f1565b80630d2d76a2116103c45780630d2d76a2146105735780630f0b424d1461057d57806311c98512146105bf578063133bee5e14610633576103f1565b8063024c2ddd146103f657806303b3160f1461046e57806306fdde031461048c578063095ea7b31461050f575b600080fd5b6104586004803603604081101561040c57600080fd5b81019080803573ffffffffffffffffffffffffffffffffffffffff169060200190929190803573ffffffffffffffffffffffffffffffffffffffff169060200190929190505050611557565b6040518082815260200191505060405180910390f35b61047661157c565b6040518082815260200191505060405180910390f35b6104946115a3565b6040518080602001828103825283818151815260200191508051906020019080838360005b838110156104d45780820151818401526020810190506104b9565b50505050905090810190601f1680156105015780820380516001836020036101000a031916815260200191505b509250505060405180910390f35b61055b6004803603604081101561052557600080fd5b81019080803573ffffffffffffffffffffffffffffffffffffffff169060200190929190803590602001909291905050506115e0565b60405180821515815260200191505060405180910390f35b61057b6117dd565b005b6105a96004803603602081101561059357600080fd5b81019080803590602001909291905050506117f0565b6040518082815260200191505060405180910390f35b6105f5600480360360408110156105d557600080fd5b81019080803590602001909291908035906020019092919050505061180d565b6040518082600560200280838360005b83811015610620578082015181840152602081019050610605565b5050505090500191505060405180910390f35b61065f6004803603602081101561064957600080fd5b8101908080359060200190929190505050611880565b604051808273ffffffffffffffffffffffffffffffffffffffff16815260200191505060405180910390f35b6106936118bd565b6040518082815260200191505060405180910390f35b6106b16118fb565b6040518082815260200191505060405180910390f35b610733600480360360608110156106dd57600080fd5b81019080803573ffffffffffffffffffffffffffffffffffffffff169060200190929190803573ffffffffffffffffffffffffffffffffffffffff16906020019092919080359060200190929190505050611922565b60405180821515815260200191505060405180910390f35b610753611ab6565b005b61075d611c24565b6040518082815260200191505060405180910390f35b61077b611c4b565b604051808260ff16815260200191505060405180910390f35b6107c0600480360360208110156107aa57600080fd5b8101908080359060200190929190505050611c54565b6040518083815260200182151581526020019250505060405180910390f35b6107e7611cc4565b6040518082815260200191505060405180910390f35b6108336004803603604081101561081357600080fd5b810190808035906020019092919080359060200190929190505050611ceb565b60405180821515815260200191505060405180910390f35b610853611d2a565b6040518085815260200184600560200280838360005b83811015610884578082015181840152602081019050610869565b5050505090500183815260200182815260200194505050505060405180910390f35b6108d2600480360360208110156108bc57600080fd5b8101908080359060200190929190505050611e19565b6040518082815260200191505060405180910390f35b610914600480360360208110156108fe57600080fd5b8101908080359060200190929190505050611e3c565b005b6109626004803603604081101561092c57600080fd5b81019080803573ffffffffffffffffffffffffffffffffffffffff1690602001909291908035906020019092919050505061222e565b6040518082815260200191505060405180910390f35b61098061250b565b6040518082815260200191505060405180910390f35b61099e61252f565b6040518082815260200191505060405180910390f35b6109bc612556565b6040518082815260200191505060405180910390f35b6109da61257d565b6040518082815260200191505060405180910390f35b6109f86125a4565b6040518082815260200191505060405180910390f35b610a3a60048036036020811015610a2457600080fd5b81019080803590602001909291905050506125cb565b6040518082815260200191505060405180910390f35b610a7c60048036036020811015610a6657600080fd5b81019080803590602001909291905050506125e8565b6040518082815260200191505060405180910390f35b610abe60048036036020811015610aa857600080fd5b810190808035906020019092919050505061267c565b6040518082815260200191505060405180910390f35b610b2060048036036040811015610aea57600080fd5b8101908080359060200190929190803573ffffffffffffffffffffffffffffffffffffffff169060200190929190505050612694565b60405180821515815260200191505060405180910390f35b610b6e60048036036040811015610b4e57600080fd5b81019080803590602001909291908035906020019092919050505061276b565b6040518082600560200280838360005b83811015610b99578082015181840152602081019050610b7e565b5050505090500191505060405180910390f35b610bd860048036036020811015610bc257600080fd5b8101908080359060200190929190505050612814565b604051808273ffffffffffffffffffffffffffffffffffffffff16815260200191505060405180910390f35b610c0c612847565b6040518082815260200191505060405180910390f35b610c2a61286e565b6040518082815260200191505060405180910390f35b610c48612895565b6040518082815260200191505060405180910390f35b610ca060048036036020811015610c7457600080fd5b81019080803573ffffffffffffffffffffffffffffffffffffffff1690602001909291905050506128bc565b6040518082815260200191505060405180910390f35b610cf860048036036020811015610ccc57600080fd5b81019080803573ffffffffffffffffffffffffffffffffffffffff1690602001909291905050506128cf565b604051808381526020018281526020019250505060405180910390f35b610d1d612961565b6040518082815260200191505060405180910390f35b610d6960048036036040811015610d4957600080fd5b810190808035906020019092919080359060200190929190505050612988565b6040518082815260200191505060405180910390f35b610d876129be565b6040518082815260200191505060405180910390f35b610dd360048036036040811015610db357600080fd5b8101908080359060200190929190803590602001909291905050506129e5565b6040518082815260200191505060405180910390f35b610e2960048036036060811015610dff57600080fd5b81019080803590602001909291908035906020019092919080359060200190929190505050612a17565b005b610e3361362b565b005b610e6b60048036036040811015610e4b57600080fd5b810190808035906020019092919080359060200190929190505050613743565b6040518082815260200191505060405180910390f35b610e89613775565b6040518080602001828103825283818151815260200191508051906020019080838360005b83811015610ec9578082015181840152602081019050610eae565b50505050905090810190601f168015610ef65780820380516001836020036101000a031916815260200191505b509250505060405180910390f35b610f5060048036036040811015610f1a57600080fd5b81019080803573ffffffffffffffffffffffffffffffffffffffff169060200190929190803590602001909291905050506137b2565b60405180821515815260200191505060405180910390f35b610f9460048036036020811015610f7e57600080fd5b81019080803590602001909291905050506138bb565b005b610f9e6141b6565b6040518083600560200280838360005b83811015610fc9578082015181840152602081019050610fae565b5050505090500182600560200280838360005b83811015610ff7578082015181840152602081019050610fdc565b505050509050019250505060405180910390f35b6110576004803603604081101561102157600080fd5b8101908080359060200190929190803573ffffffffffffffffffffffffffffffffffffffff16906020019092919050505061425e565b60405180821515815260200191505060405180910390f35b6110bb6004803603604081101561108557600080fd5b81019080803573ffffffffffffffffffffffffffffffffffffffff169060200190929190803590602001909291905050506142c9565b60405180821515815260200191505060405180910390f35b6110ff600480360360208110156110e957600080fd5b81019080803590602001909291905050506142e0565b604051808a81526020018915158152602001881515815260200187151581526020018673ffffffffffffffffffffffffffffffffffffffff1681526020018573ffffffffffffffffffffffffffffffffffffffff1681526020018473ffffffffffffffffffffffffffffffffffffffff16815260200183600960200280838360005b8381101561119c578082015181840152602081019050611181565b50505050905001828152602001995050505050505050505060405180910390f35b6111c56145f7565b6040518082815260200191505060405180910390f35b6111e361461e565b6040518082603360200280838360005b8381101561120e5780820151818401526020810190506111f3565b5050505090500191505060405180910390f35b61124d6004803603602081101561123757600080fd5b8101908080359060200190929190505050614669565b6040518082815260200191505060405180910390f35b61126b614681565b6040518082815260200191505060405180910390f35b6112896146a5565b005b6112c1600480360360408110156112a157600080fd5b810190808035906020019092919080359060200190929190505050614822565b6040518082815260200191505060405180910390f35b61130f600480360360408110156112ed57600080fd5b8101908080359060200190929190803515159060200190929190505050614854565b005b61135d6004803603604081101561132757600080fd5b81019080803573ffffffffffffffffffffffffffffffffffffffff16906020019092919080359060200190929190505050614be7565b005b61138b6004803603602081101561137557600080fd5b8101908080359060200190929190505050614dd7565b6040518082815260200191505060405180910390f35b611403600480360360408110156113b757600080fd5b81019080803573ffffffffffffffffffffffffffffffffffffffff169060200190929190803573ffffffffffffffffffffffffffffffffffffffff169060200190929190505050614df4565b6040518082815260200191505060405180910390f35b611421614e7b565b6040518082815260200191505060405180910390f35b61143f614e9f565b6040518082815260200191505060405180910390f35b61148b6004803603604081101561146b57600080fd5b810190808035906020019092919080359060200190929190505050614ec3565b6040518082815260200191505060405180910390f35b6114cd600480360360208110156114b757600080fd5b8101908080359060200190929190505050614ef5565b604051808381526020018281526020019250505060405180910390f35b6114f2614f88565b6040518083815260200182151581526020019250505060405180910390f35b61151961501b565b6040518082600560200280838360005b83811015611544578082015181840152602081019050611529565b5050505090500191505060405180910390f35b604a602052816000526040600020602052806000526040600020600091509150505481565b7f6c505cb2db6644f57b42d87bd9407b0f66788b07d0617a2bc1356a0e69e66f9a60001b81565b60606040518060400160405280600f81526020017f54656c6c6f722054726962757465730000000000000000000000000000000000815250905090565b60008073ffffffffffffffffffffffffffffffffffffffff163373ffffffffffffffffffffffffffffffffffffffff161415611667576040517f08c379a0000000000000000000000000000000000000000000000000000000008152600401808060200182810382526024815260200180615b216024913960400191505060405180910390fd5b600073ffffffffffffffffffffffffffffffffffffffff168373ffffffffffffffffffffffffffffffffffffffff1614156116ed576040517f08c379a0000000000000000000000000000000000000000000000000000000008152600401808060200182810382526022815260200180615a746022913960400191505060405180910390fd5b81604a60003373ffffffffffffffffffffffffffffffffffffffff1673ffffffffffffffffffffffffffffffffffffffff16815260200190815260200160002060008573ffffffffffffffffffffffffffffffffffffffff1673ffffffffffffffffffffffffffffffffffffffff168152602001908152602001600020819055508273ffffffffffffffffffffffffffffffffffffffff163373ffffffffffffffffffffffffffffffffffffffff167f8c5be1e5ebec7d5bd14f71427d1e84f3dd0314c0f7b2291e5b200ac8c7c3b925846040518082815260200191505060405180910390a36001905092915050565b6117e633615124565b6117ee61362b565b565b600060346000838152602001908152602001600020549050919050565b6118156159c6565b604560008481526020019081526020016000206006016000838152602001908152602001600020600580602002604051908101604052809291908260058015611873576020028201915b81548152602001906001019080831161185f575b5050505050905092915050565b60006047600083815260200190815260200160002060009054906101000a900473ffffffffffffffffffffffffffffffffffffffff169050919050565b6000604660007fb1557182e4359a1f0c6301278e8f5b35a776ab58d39892581e357578fb28783660001b815260200190815260200160002054905090565b7fb12aff7664b16cb99339be399b863feecd64d14817be7e1f042f97e3f358e64e60001b81565b600081604a60008673ffffffffffffffffffffffffffffffffffffffff1673ffffffffffffffffffffffffffffffffffffffff16815260200190815260200160002060003373ffffffffffffffffffffffffffffffffffffffff1673ffffffffffffffffffffffffffffffffffffffff168152602001908152602001600020541015611a16576040517f08c379a00000000000000000000000000000000000000000000000000000000081526004018080602001828103825260128152602001807f416c6c6f77616e63652069732077726f6e67000000000000000000000000000081525060200191505060405180910390fd5b81604a60008673ffffffffffffffffffffffffffffffffffffffff1673ffffffffffffffffffffffffffffffffffffffff16815260200190815260200160002060003373ffffffffffffffffffffffffffffffffffffffff1673ffffffffffffffffffffffffffffffffffffffff16815260200190815260200160002060008282540392505081905550611aab8484846153c2565b600190509392505050565b6000604460003373ffffffffffffffffffffffffffffffffffffffff1673ffffffffffffffffffffffffffffffffffffffff16815260200190815260200160002090506001816000015414611b73576040517f08c379a00000000000000000000000000000000000000000000000000000000081526004018080602001828103825260138152602001807f4d696e6572206973206e6f74207374616b65640000000000000000000000000081525060200191505060405180910390fd5b60028160000181905550620151804281611b8957fe5b06420381600101819055506001604660007fedddb9344bfe0dadc78c558b8ffca446679cbffc17be64eb83973fce7bea5f34815260200190815260200160002060008282540392505081905550611bde61362b565b3373ffffffffffffffffffffffffffffffffffffffff167f453865710d0cb4b14ad25de371c860da196368895daa9662e5087711d14daecf60405160405180910390a250565b7f1e344bd070f05f1c5b3f0b1266f4f20d837a0a8190a3a2da8b0375eac2ba86ea60001b81565b60006012905090565b60008060006045600085815260200190815260200160002090506000816000018054905014611cb657611caa8482600001600184600001805490500381548110611c9a57fe5b9060005260206000200154613743565b60019250925050611cbf565b60008092509250505b915091565b7fb1557182e4359a1f0c6301278e8f5b35a776ab58d39892581e357578fb28783660001b81565b600060456000848152602001908152602001600020600401600083815260200190815260200160002060009054906101000a900460ff16905092915050565b6000611d346159c6565b60008060005b6005811015611d7a57603a8160058110611d5057fe5b6002020160000154848260058110611d6457fe5b6020020181815250508080600101915050611d3a565b507f3375fb9157bb77048f607329b1c4d45487433f61e0f51bcdeba91d975b2dab1883604660007fb12aff7664b16cb99339be399b863feecd64d14817be7e1f042f97e3f358e64e60001b815260200190815260200160002054604660007fd26d9834adf5a73309c4974bf654850bb699df8505e70d4cfde365c417b19dfc60001b815260200190815260200160002054935093509350935090919293565b600060456000838152602001908152602001600020600001805490509050919050565b6000603660008381526020019081526020016000209050600015158160020160009054906101000a900460ff16151514611ec1576040517f08c379a0000000000000000000000000000000000000000000000000000000008152600401808060200182810382526021815260200180615b006021913960400191505060405180910390fd5b8060050160007f74c9bc34b0b2333f1b565fbee67d940cf7d78b5a980c5f23da43f6729965ed40815260200190815260200160002054421015611f6c576040517f08c379a000000000000000000000000000000000000000000000000000000000815260040180806020018281038252601f8152602001807f54696d6520666f7220766f74696e6720686176656e277420656c61707365640081525060200191505060405180910390fd5b600073ffffffffffffffffffffffffffffffffffffffff168160030160009054906101000a900473ffffffffffffffffffffffffffffffffffffffff1673ffffffffffffffffffffffffffffffffffffffff161415612033576040517f08c379a000000000000000000000000000000000000000000000000000000000815260040180806020018281038252601c8152602001807f7265706f7274696e67205061727479206973206164647265737320300000000081525060200191505060405180910390fd5b60008160010154905060008113156120635760018260020160016101000a81548160ff0219169083151502179055505b600015158260020160029054906101000a900460ff1615151415612102576000604460008460020160039054906101000a900473ffffffffffffffffffffffffffffffffffffffff1673ffffffffffffffffffffffffffffffffffffffff1673ffffffffffffffffffffffffffffffffffffffff168152602001908152602001600020905060038160000154141561210057600481600001819055505b505b428260050160007fa411e55cb12d8659b5a982c01809e4446e10b0f66f1a7ee08545382e8912127081526020019081526020016000208190555060018260020160006101000a81548160ff0219169083151502179055508160020160039054906101000a900473ffffffffffffffffffffffffffffffffffffffff1673ffffffffffffffffffffffffffffffffffffffff16837f21459c2f5447ebcf83a7f0a238c32c71076faef0d12295e771c0cb1e10434739838560030160009054906101000a900473ffffffffffffffffffffffffffffffffffffffff168660020160019054906101000a900460ff16604051808481526020018373ffffffffffffffffffffffffffffffffffffffff1681526020018215158152602001935050505060405180910390a3505050565b600080604960008573ffffffffffffffffffffffffffffffffffffffff1673ffffffffffffffffffffffffffffffffffffffff16815260200190815260200160002090506000818054905014806122cc5750828160008154811061228e57fe5b9060005260206000200160000160009054906101000a90046fffffffffffffffffffffffffffffffff166fffffffffffffffffffffffffffffffff16115b156122db576000915050612505565b806001828054905003815481106122ee57fe5b9060005260206000200160000160009054906101000a90046fffffffffffffffffffffffffffffffff166fffffffffffffffffffffffffffffffff168310612387578060018280549050038154811061234357fe5b9060005260206000200160000160109054906101000a90046fffffffffffffffffffffffffffffffff166fffffffffffffffffffffffffffffffff16915050612505565b600080600283805490500390505b818111156124b75760006002600184840101816123ae57fe5b049050858482815481106123be57fe5b9060005260206000200160000160009054906101000a90046fffffffffffffffffffffffffffffffff166fffffffffffffffffffffffffffffffff1614156124535783818154811061240c57fe5b9060005260206000200160000160109054906101000a90046fffffffffffffffffffffffffffffffff166fffffffffffffffffffffffffffffffff16945050505050612505565b8584828154811061246057fe5b9060005260206000200160000160009054906101000a90046fffffffffffffffffffffffffffffffff166fffffffffffffffffffffffffffffffff1610156124aa578092506124b1565b6001810391505b50612395565b8282815481106124c357fe5b9060005260206000200160000160109054906101000a90046fffffffffffffffffffffffffffffffff166fffffffffffffffffffffffffffffffff1693505050505b92915050565b7f3375fb9157bb77048f607329b1c4d45487433f61e0f51bcdeba91d975b2dab1881565b7f2a9e355a92978430eca9c1aa3a9ba590094bac282594bccf82de16b83046e2c360001b81565b7f7584d7d8701714da9c117f5bf30af73b0b88aca5338a84a21eb28de2fe0d93b860001b81565b7f05de9147d05477c0a5dc675aeea733157f5092f82add148cf39d579cafe3dc9860001b81565b7f7be108969d31a3f0b261465c71f2b0ba9301cd914d55d9091c3b36a49d4d41b260001b81565b600060466000838152602001908152602001600020549050919050565b60006032821115612661576040517f08c379a000000000000000000000000000000000000000000000000000000000815260040180806020018281038252601a8152602001807f526571756573745120696e6465782069732061626f766520353000000000000081525060200191505060405180910390fd5b60356000838152602001908152602001600020549050919050565b60486020528060005260406000206000915090505481565b600061269f82615631565b6127056039600085815260200190815260200160002060008473ffffffffffffffffffffffffffffffffffffffff1673ffffffffffffffffffffffffffffffffffffffff16815260200190815260200160002060009054906101000a900460ff166156e0565b6039600084815260200190815260200160002060008373ffffffffffffffffffffffffffffffffffffffff1673ffffffffffffffffffffffffffffffffffffffff16815260200190815260200160002060009054906101000a900460ff16905092915050565b6127736159e8565b604560008481526020019081526020016000206005016000838152602001908152602001600020600580602002604051908101604052809291908260058015612807576020028201915b8160009054906101000a900473ffffffffffffffffffffffffffffffffffffffff1673ffffffffffffffffffffffffffffffffffffffff16815260200190600101908083116127bd575b5050505050905092915050565b60476020528060005260406000206000915054906101000a900473ffffffffffffffffffffffffffffffffffffffff1681565b7f969ea04b74d02bb4d9e6e8e57236e1b9ca31627139ae9f0e465249932e82450260001b81565b7fad16221efc80aaf1b7e69bd3ecb61ba5ffa539adf129c3b4ffff769c9b5bbc3360001b81565b7f97e6eb29f6a85471f7cc9b57f9e4c3deaf398cfc9798673160d7798baf0b13a460001b81565b60006128c8824361222e565b9050919050565b600080604460008473ffffffffffffffffffffffffffffffffffffffff1673ffffffffffffffffffffffffffffffffffffffff16815260200190815260200160002060000154604460008573ffffffffffffffffffffffffffffffffffffffff1673ffffffffffffffffffffffffffffffffffffffff1681526020019081526020016000206001015491509150915091565b7fd26d9834adf5a73309c4974bf654850bb699df8505e70d4cfde365c417b19dfc60001b81565b60006045600084815260200190815260200160002060000182815481106129ab57fe5b9060005260206000200154905092915050565b7f44b2657a0f8a90ed8e62f4c4cceca06eacaa9b4b25751ae1ebca9280a70abd6860001b81565b600060366000848152602001908152602001600020600501600083815260200190815260200160002054905092915050565b60006045600085815260200190815260200160002090506000816002016000858152602001908152602001600020541415612aba576040517f08c379a00000000000000000000000000000000000000000000000000000000081526004018080602001828103825260108152602001807f4d696e656420626c6f636b20697320300000000000000000000000000000000081525060200191505060405180910390fd5b60058210612b30576040517f08c379a00000000000000000000000000000000000000000000000000000000081526004018080602001828103825260148152602001807f4d696e657220696e6465782069732077726f6e6700000000000000000000000081525060200191505060405180910390fd5b60008160050160008581526020019081526020016000208360058110612b5257fe5b0160009054906101000a900473ffffffffffffffffffffffffffffffffffffffff1690506000818686604051602001808473ffffffffffffffffffffffffffffffffffffffff1660601b8152601401838152602001828152602001935050505060405160208183030381529060405280519060200120905060006001604660007f475da5340e76792184fb177cb85d21980c2530616313aef501564d484eb5ca1e81526020019081526020016000205401905080604660007f475da5340e76792184fb177cb85d21980c2530616313aef501564d484eb5ca1e81526020019081526020016000208190555060006038600084815260200190815260200160002054905060008114612cae57806036600084815260200190815260200160002060050160007f0560b748d0e65de8b7394b0e1e09049ca56cf3fdc3429a6e3214e41d5d5023ef815260200190815260200160002081905550612cca565b8160386000858152602001908152602001600020819055508190505b6000819050600060016036600084815260200190815260200160002060050160007f0ac3d41253ab0239953bd9ac38f67f22c9f59179aad422b7d83f5c7089a1be29815260200190815260200160002054019050806036600084815260200190815260200160002060050160007f0ac3d41253ab0239953bd9ac38f67f22c9f59179aad422b7d83f5c7089a1be2981526020019081526020016000208190555083603660008481526020019081526020016000206005016000836040516020018082815260200191505060405160208183030381529060405280519060200120815260200190815260200160002081905550818414612fc35760006036600084815260200190815260200160002060050160006001840360405160200180828152602001915050604051602081830303815290604052805190602001208152602001908152602001600020549050426036600083815260200190815260200160002060050160007f74c9bc34b0b2333f1b565fbee67d940cf7d78b5a980c5f23da43f6729965ed408152602001908152602001600020541115612ed5576040517f08c379a00000000000000000000000000000000000000000000000000000000081526004018080602001828103825260178152602001807f4469737075746520697320616c7265616479206f70656e00000000000000000081525060200191505060405180910390fd5b6036600082815260200190815260200160002060020160009054906101000a900460ff1615612fc157620151806036600083815260200190815260200160002060050160007fa411e55cb12d8659b5a982c01809e4446e10b0f66f1a7ee08545382e8912127081526020019081526020016000205442031115612fc0576040517f08c379a000000000000000000000000000000000000000000000000000000000815260040180806020018281038252601f8152602001807f54696d6520666f7220766f74696e6720686176656e277420656c61707365640081525060200191505060405180910390fd5b5b505b600060028914156130e8576001604560008d815260200190815260200160002060010160007f475da5340e76792184fb177cb85d21980c2530616313aef501564d484eb5ca1e81526020019081526020016000205401604560008d815260200190815260200160002060010160007f475da5340e76792184fb177cb85d21980c2530616313aef501564d484eb5ca1e815260200190815260200160002081905550604560008c815260200190815260200160002060010160007f475da5340e76792184fb177cb85d21980c2530616313aef501564d484eb5ca1e815260200190815260200160002054604660007f7be108969d31a3f0b261465c71f2b0ba9301cd914d55d9091c3b36a49d4d41b2815260200190815260200160002054029050613121565b81604660007f8b75eb45d88e80f0e4ec77d23936268694c0e7ac2e0c9085c5c6bdfcfbc492398152602001908152602001600020540290505b85603660008781526020019081526020016000206000018190555060006036600087815260200190815260200160002060020160026101000a81548160ff021916908315150217905550866036600087815260200190815260200160002060020160036101000a81548173ffffffffffffffffffffffffffffffffffffffff021916908373ffffffffffffffffffffffffffffffffffffffff160217905550336036600087815260200190815260200160002060030160006101000a81548173ffffffffffffffffffffffffffffffffffffffff021916908373ffffffffffffffffffffffffffffffffffffffff16021790555060006036600087815260200190815260200160002060040160006101000a81548173ffffffffffffffffffffffffffffffffffffffff021916908373ffffffffffffffffffffffffffffffffffffffff16021790555060006036600087815260200190815260200160002060020160006101000a81548160ff02191690831515021790555060006036600087815260200190815260200160002060020160016101000a81548160ff021916908315150217905550600060366000878152602001908152602001600020600101819055508a6036600087815260200190815260200160002060050160007f31b40192effc42bcf1e4289fe674c678e673a3052992548fef566d8c33a21b91815260200190815260200160002081905550896036600087815260200190815260200160002060050160007f4ebf727c48eac2c66272456b06a885c5cc03e54d140f63b63b6fd10c1227958e8152602001908152602001600020819055508760060160008b8152602001908152602001600020896005811061339d57fe5b01546036600087815260200190815260200160002060050160007f81afeeaff0ed5cee7d05a21078399c2f56226b0cd5657062500cef4c4e736f85815260200190815260200160002081905550816202a3000242016036600087815260200190815260200160002060050160007f74c9bc34b0b2333f1b565fbee67d940cf7d78b5a980c5f23da43f6729965ed40815260200190815260200160002081905550436036600087815260200190815260200160002060050160007f6f8f54d1af9b6cb8a219d88672c797f9f3ee97ce5d9369aa897fd0deb5e2dffa815260200190815260200160002081905550886036600087815260200190815260200160002060050160007f8ef61a1efbc527d6428ff88c95fdff5c6e644b979bfe67e03cbf88c8162c5fac815260200190815260200160002081905550806036600087815260200190815260200160002060050160007f833b9f6abf0b529613680afe2a00fa663cc95cbdc47d726d85a044462eabbf0281526020019081526020016000208190555061352c3330836153c2565b600289141561357f5760018860040160008c815260200190815260200160002060006101000a81548160ff02191690831515021790555060008860030160008c8152602001908152602001600020819055505b6003604460008973ffffffffffffffffffffffffffffffffffffffff1673ffffffffffffffffffffffffffffffffffffffff168152602001908152602001600020600001819055508a857feceec1aebf67772b2440120c4b4dc913a1fe1b865509219f9456785c23b9da648c8a604051808381526020018273ffffffffffffffffffffffffffffffffffffffff1681526020019250505060405180910390a35050505050505050505050565b6000604660007f7be108969d31a3f0b261465c71f2b0ba9301cd914d55d9091c3b36a49d4d41b260001b81526020019081526020016000205490506000604660007fabef544d8048318ece54fb2c6385255cd1b06e176525d149a0338a7acca6deb3815260200190815260200160002054905061370867d02ab486cedc00006103e8836103e86136ee86604660007fedddb9344bfe0dadc78c558b8ffca446679cbffc17be64eb83973fce7bea5f3481526020019081526020016000205461577b565b028602816136f857fe5b048161370057fe5b048403615794565b604660007f8b75eb45d88e80f0e4ec77d23936268694c0e7ac2e0c9085c5c6bdfcfbc492398152602001908152602001600020819055505050565b600060456000848152602001908152602001600020600301600083815260200190815260200160002054905092915050565b60606040518060400160405280600381526020017f5452420000000000000000000000000000000000000000000000000000000000815250905090565b600080604460008573ffffffffffffffffffffffffffffffffffffffff1673ffffffffffffffffffffffffffffffffffffffff168152602001908152602001600020600001541415801561384857506005604460008573ffffffffffffffffffffffffffffffffffffffff1673ffffffffffffffffffffffffffffffffffffffff16815260200190815260200160002060000154105b156138a65781604660007f7be108969d31a3f0b261465c71f2b0ba9301cd914d55d9091c3b36a49d4d41b260001b81526020019081526020016000205461388e856128bc565b031061389d57600190506138b5565b600090506138b5565b816138b0846128bc565b101590505b92915050565b6000603860006036600085815260200190815260200160002060000154815260200190815260200160002054905060006036600083815260200190815260200160002060050160006036600085815260200190815260200160002060050160007f0ac3d41253ab0239953bd9ac38f67f22c9f59179aad422b7d83f5c7089a1be2981526020019081526020016000205460405160200180828152602001915050604051602081830303815290604052805190602001208152602001908152602001600020549050600081141561398f578190505b6000603660008481526020019081526020016000209050600060366000848152602001908152602001600020905060008260050160007f0ac3d41253ab0239953bd9ac38f67f22c9f59179aad422b7d83f5c7089a1be2981526020019081526020016000205490506000811415613a0557600190505b6000808460050160007f5ab53550295bfc9315c562232d99e75119ebb4d3b8a6e012160126a3506b02a881526020019081526020016000205414613ab1576040517f08c379a00000000000000000000000000000000000000000000000000000000081526004018080602001828103825260108152602001807f616c72656164792070616964206f75740000000000000000000000000000000081525060200191505060405180910390fd5b620151808360050160007fa411e55cb12d8659b5a982c01809e4446e10b0f66f1a7ee08545382e89121270815260200190815260200160002054420311613b60576040517f08c379a000000000000000000000000000000000000000000000000000000000815260040180806020018281038252601f8152602001807f54696d6520666f7220766f74696e6720686176656e277420656c61707365640081525060200191505060405180910390fd5b6000604460008660020160039054906101000a900473ffffffffffffffffffffffffffffffffffffffff1673ffffffffffffffffffffffffffffffffffffffff1673ffffffffffffffffffffffffffffffffffffffff168152602001908152602001600020905060018560050160007f5ab53550295bfc9315c562232d99e75119ebb4d3b8a6e012160126a3506b02a8815260200190815260200160002081905550600115158460020160019054906101000a900460ff1615151415613e1057620151804281613c2c57fe5b06420381600101819055506001604660007fedddb9344bfe0dadc78c558b8ffca446679cbffc17be64eb83973fce7bea5f34815260200190815260200160002060008282540392505081905550613c8161362b565b600481600001541415613d295760058160000181905550613d1e8560020160039054906101000a900473ffffffffffffffffffffffffffffffffffffffff168660030160009054906101000a900473ffffffffffffffffffffffffffffffffffffffff16604660007f7be108969d31a3f0b261465c71f2b0ba9301cd914d55d9091c3b36a49d4d41b28152602001908152602001600020546153c2565b600081600001819055505b60005b83811015613e0a57856005016000828603604051602001808281526020019150506040516020818303038152906040528051906020012081526020019081526020016000205492506000831415613d81578792505b6000603660008581526020019081526020016000209050613dfc308260030160009054906101000a900473ffffffffffffffffffffffffffffffffffffffff168360050160007f833b9f6abf0b529613680afe2a00fa663cc95cbdc47d726d85a044462eabbf028152602001908152602001600020546153c2565b508080600101915050613d2c565b506140e0565b600181600001819055506000604560008760050160007f31b40192effc42bcf1e4289fe674c678e673a3052992548fef566d8c33a21b918152602001908152602001600020548152602001908152602001600020905060028660050160007f8ef61a1efbc527d6428ff88c95fdff5c6e644b979bfe67e03cbf88c8162c5fac8152602001908152602001600020541415613f29578560050160007f81afeeaff0ed5cee7d05a21078399c2f56226b0cd5657062500cef4c4e736f858152602001908152602001600020548160030160008860050160007f4ebf727c48eac2c66272456b06a885c5cc03e54d140f63b63b6fd10c1227958e8152602001908152602001600020548152602001908152602001600020819055505b600115158160040160008860050160007f4ebf727c48eac2c66272456b06a885c5cc03e54d140f63b63b6fd10c1227958e815260200190815260200160002054815260200190815260200160002060009054906101000a900460ff1615151415613ff15760008160040160008860050160007f4ebf727c48eac2c66272456b06a885c5cc03e54d140f63b63b6fd10c1227958e815260200190815260200160002054815260200190815260200160002060006101000a81548160ff0219169083151502179055505b60005b848110156140dd57866005016000828703604051602001808281526020019150506040516020818303038152906040528051906020012081526020019081526020016000205493506000841461405a576036600085815260200190815260200160002095505b6140d0308760020160039054906101000a900473ffffffffffffffffffffffffffffffffffffffff166036600088815260200190815260200160002060050160007f833b9f6abf0b529613680afe2a00fa663cc95cbdc47d726d85a044462eabbf028152602001908152602001600020546153c2565b8080600101915050613ff4565b50505b60028560050160007f8ef61a1efbc527d6428ff88c95fdff5c6e644b979bfe67e03cbf88c8162c5fac81526020019081526020016000205414156141ac57604560008660050160007f31b40192effc42bcf1e4289fe674c678e673a3052992548fef566d8c33a21b91815260200190815260200160002054815260200190815260200160002060010160007f475da5340e76792184fb177cb85d21980c2530616313aef501564d484eb5ca1e815260200190815260200160002060008154809291906001900391905055505b5050505050505050565b6141be6159c6565b6141c66159c6565b6141ce61501b565b915060005b600581101561425957604560008483600581106141ec57fe5b6020020151815260200190815260200160002060010160007f2a9e355a92978430eca9c1aa3a9ba590094bac282594bccf82de16b83046e2c360001b81526020019081526020016000205482826005811061424357fe5b60200201818152505080806001019150506141d3565b509091565b60006036600084815260200190815260200160002060060160008373ffffffffffffffffffffffffffffffffffffffff1673ffffffffffffffffffffffffffffffffffffffff16815260200190815260200160002060009054906101000a900460ff16905092915050565b60006142d63384846153c2565b6001905092915050565b60008060008060008060006142f3615a0a565b600080603660008c8152602001908152602001600020905080600001548160020160009054906101000a900460ff168260020160019054906101000a900460ff168360020160029054906101000a900460ff168460020160039054906101000a900473ffffffffffffffffffffffffffffffffffffffff168560030160009054906101000a900473ffffffffffffffffffffffffffffffffffffffff168660040160009054906101000a900473ffffffffffffffffffffffffffffffffffffffff166040518061012001604052808960050160007f31b40192effc42bcf1e4289fe674c678e673a3052992548fef566d8c33a21b9181526020019081526020016000205481526020018960050160007f4ebf727c48eac2c66272456b06a885c5cc03e54d140f63b63b6fd10c1227958e81526020019081526020016000205481526020018960050160007f81afeeaff0ed5cee7d05a21078399c2f56226b0cd5657062500cef4c4e736f8581526020019081526020016000205481526020018960050160007f74c9bc34b0b2333f1b565fbee67d940cf7d78b5a980c5f23da43f6729965ed4081526020019081526020016000205481526020018960050160007fa0bc13ce85a2091e950a370bced0825e58ab3a3ffeb709ed50d5562cbd82faab81526020019081526020016000205481526020018960050160007f6f8f54d1af9b6cb8a219d88672c797f9f3ee97ce5d9369aa897fd0deb5e2dffa81526020019081526020016000205481526020018960050160007f8ef61a1efbc527d6428ff88c95fdff5c6e644b979bfe67e03cbf88c8162c5fac81526020019081526020016000205481526020018960050160007f30e85ae205656781c1a951cba9f9f53f884833c049d377a2a7046eb5e6d14b2681526020019081526020016000205481526020018960050160007f833b9f6abf0b529613680afe2a00fa663cc95cbdc47d726d85a044462eabbf028152602001908152602001600020548152508860010154995099509950995099509950995099509950509193959799909294969850565b7f9dbc393ddc18fd27b1d9b1b129059925688d2f2d5818a5ec3ebb750b7c286ea660001b81565b614626615a2d565b600060338060200260405190810160405280929190826033801561465f576020028201915b81548152602001906001019080831161464b575b5050505050905090565b60466020528060005260406000206000915090505481565b7f8b75eb45d88e80f0e4ec77d23936268694c0e7ac2e0c9085c5c6bdfcfbc4923981565b6000604460003373ffffffffffffffffffffffffffffffffffffffff1673ffffffffffffffffffffffffffffffffffffffff168152602001908152602001600020905062093a8081600101546201518042816146fd57fe5b064203031015614775576040517f08c379a00000000000000000000000000000000000000000000000000000000081526004018080602001828103825260128152602001807f372064617973206469646e27742070617373000000000000000000000000000081525060200191505060405180910390fd5b60028160000154146147d2576040517f08c379a0000000000000000000000000000000000000000000000000000000008152600401808060200182810382526023815260200180615a516023913960400191505060405180910390fd5b600081600001819055503373ffffffffffffffffffffffffffffffffffffffff167f4a7934670bd8304e7da22378be1368f7c4fef17c5aee81804beda8638fe428ec60405160405180910390a250565b600060456000848152602001908152602001600020600201600083815260200190815260200160002054905092915050565b600060366000848152602001908152602001600020905060006148ac338360050160007f6f8f54d1af9b6cb8a219d88672c797f9f3ee97ce5d9369aa897fd0deb5e2dffa81526020019081526020016000205461222e565b9050600115158260060160003373ffffffffffffffffffffffffffffffffffffffff1673ffffffffffffffffffffffffffffffffffffffff16815260200190815260200160002060009054906101000a900460ff1615151415614977576040517f08c379a00000000000000000000000000000000000000000000000000000000081526004018080602001828103825260188152602001807f53656e6465722068617320616c726561647920766f746564000000000000000081525060200191505060405180910390fd5b60008114156149ee576040517f08c379a00000000000000000000000000000000000000000000000000000000081526004018080602001828103825260118152602001807f557365722062616c616e6365206973203000000000000000000000000000000081525060200191505060405180910390fd5b6003604460003373ffffffffffffffffffffffffffffffffffffffff1673ffffffffffffffffffffffffffffffffffffffff168152602001908152602001600020600001541415614aa7576040517f08c379a00000000000000000000000000000000000000000000000000000000081526004018080602001828103825260168152602001807f4d696e657220697320756e64657220646973707574650000000000000000000081525060200191505060405180910390fd5b60018260060160003373ffffffffffffffffffffffffffffffffffffffff1673ffffffffffffffffffffffffffffffffffffffff16815260200190815260200160002060006101000a81548160ff02191690831515021790555060018260050160007fa0bc13ce85a2091e950a370bced0825e58ab3a3ffeb709ed50d5562cbd82faab8152602001908152602001600020600082825401925050819055508215614b6f57614b628183600101546157ad90919063ffffffff16565b8260010181905550614b8f565b614b868183600101546157e190919063ffffffff16565b82600101819055505b803373ffffffffffffffffffffffffffffffffffffffff16857f911ef2e98570b1d96c0e8ef81107a33d5b8e844aeb8f9710f9bc76c3b3fef40e8660405180821515815260200191505060405180910390a450505050565b6000604960008473ffffffffffffffffffffffffffffffffffffffff1673ffffffffffffffffffffffffffffffffffffffff1681526020019081526020016000209050600081805490501480614c8b57504381600183805490500381548110614c4c57fe5b9060005260206000200160000160009054906101000a90046fffffffffffffffffffffffffffffffff166fffffffffffffffffffffffffffffffff1614155b15614d7457806040518060400160405280436fffffffffffffffffffffffffffffffff168152602001846fffffffffffffffffffffffffffffffff168152509080600181540180825580915050600190039060005260206000200160009091909190915060008201518160000160006101000a8154816fffffffffffffffffffffffffffffffff02191690836fffffffffffffffffffffffffffffffff16021790555060208201518160000160106101000a8154816fffffffffffffffffffffffffffffffff02191690836fffffffffffffffffffffffffffffffff1602179055505050614dd2565b600081600183805490500381548110614d8957fe5b906000526020600020019050828160000160106101000a8154816fffffffffffffffffffffffffffffffff02191690836fffffffffffffffffffffffffffffffff160217905550505b505050565b600060386000838152602001908152602001600020549050919050565b6000604a60008473ffffffffffffffffffffffffffffffffffffffff1673ffffffffffffffffffffffffffffffffffffffff16815260200190815260200160002060008373ffffffffffffffffffffffffffffffffffffffff1673ffffffffffffffffffffffffffffffffffffffff16815260200190815260200160002054905092915050565b7fabef544d8048318ece54fb2c6385255cd1b06e176525d149a0338a7acca6deb381565b7fedddb9344bfe0dadc78c558b8ffca446679cbffc17be64eb83973fce7bea5f3481565b600060456000848152602001908152602001600020600101600083815260200190815260200160002054905092915050565b60008060006045600085815260200190815260200160002090508060010160007f1e344bd070f05f1c5b3f0b1266f4f20d837a0a8190a3a2da8b0375eac2ba86ea8152602001908152602001600020548160010160007f2a9e355a92978430eca9c1aa3a9ba590094bac282594bccf82de16b83046e2c360001b8152602001908152602001600020549250925050915091565b60008061501160346000604660007f97e6eb29f6a85471f7cc9b57f9e4c3deaf398cfc9798673160d7798baf0b13a4815260200190815260200160002054815260200190815260200160002054604660007f97e6eb29f6a85471f7cc9b57f9e4c3deaf398cfc9798673160d7798baf0b13a460001b815260200190815260200160002054613743565b6001915091509091565b6150236159c6565b61502b6159c6565b6150336159c6565b615079600060338060200260405190810160405280929190826033801561506f576020028201915b81548152602001906001019080831161505b575b5050505050615815565b809250819350505060005b600581101561511e57600083826005811061509b57fe5b6020020151146150e357603560008383600581106150b557fe5b60200201518152602001908152602001600020548482600581106150d557fe5b602002018181525050615111565b603a81600403600581106150f357fe5b600202016000015484826005811061510757fe5b6020020181815250505b8080600101915050615084565b50505090565b604660007f7be108969d31a3f0b261465c71f2b0ba9301cd914d55d9091c3b36a49d4d41b260001b815260200190815260200160002054615164826128bc565b10156151bb576040517f08c379a0000000000000000000000000000000000000000000000000000000008152600401808060200182810382526022815260200180615ade6022913960400191505060405180910390fd5b6000604460008373ffffffffffffffffffffffffffffffffffffffff1673ffffffffffffffffffffffffffffffffffffffff16815260200190815260200160002060000154148061524e57506002604460008373ffffffffffffffffffffffffffffffffffffffff1673ffffffffffffffffffffffffffffffffffffffff16815260200190815260200160002060000154145b6152c0576040517f08c379a000000000000000000000000000000000000000000000000000000000815260040180806020018281038252601b8152602001807f4d696e657220697320696e207468652077726f6e67207374617465000000000081525060200191505060405180910390fd5b6001604660007fedddb9344bfe0dadc78c558b8ffca446679cbffc17be64eb83973fce7bea5f3481526020019081526020016000206000828254019250508190555060405180604001604052806001815260200162015180428161532057fe5b064203815250604460008373ffffffffffffffffffffffffffffffffffffffff1673ffffffffffffffffffffffffffffffffffffffff16815260200190815260200160002060008201518160000155602082015181600101559050508073ffffffffffffffffffffffffffffffffffffffff167f46d8ab1385f70e5a3673e97c23c764f7600f7ed7a09b6687deae7131d51752e260405160405180910390a250565b600081141561541c576040517f08c379a0000000000000000000000000000000000000000000000000000000008152600401808060200182810382526021815260200180615abd6021913960400191505060405180910390fd5b600073ffffffffffffffffffffffffffffffffffffffff168273ffffffffffffffffffffffffffffffffffffffff1614156154bf576040517f08c379a00000000000000000000000000000000000000000000000000000000081526004018080602001828103825260158152602001807f526563656976657220697320302061646472657373000000000000000000000081525060200191505060405180910390fd5b6154c983826137b2565b61551e576040517f08c379a0000000000000000000000000000000000000000000000000000000008152600401808060200182810382526027815260200180615a966027913960400191505060405180910390fd5b6000615529846128bc565b905061553784838303614be7565b615540836128bc565b90508082820110156155ba576040517f08c379a00000000000000000000000000000000000000000000000000000000081526004018080602001828103825260118152602001807f4f766572666c6f772068617070656e656400000000000000000000000000000081525060200191505060405180910390fd5b6155c683838301614be7565b8273ffffffffffffffffffffffffffffffffffffffff168473ffffffffffffffffffffffffffffffffffffffff167fddf252ad1be2c89b69c2b068fc378daa952ba7f163c4a11628f55a4df523b3ef846040518082815260200191505060405180910390a350505050565b6156dd81604051602401808273ffffffffffffffffffffffffffffffffffffffff1681526020019150506040516020818303038152906040527f2c2ecbc2000000000000000000000000000000000000000000000000000000007bffffffffffffffffffffffffffffffffffffffffffffffffffffffff19166020820180517bffffffffffffffffffffffffffffffffffffffffffffffffffffffff838183161783525050505061599d565b50565b615778816040516024018082151581526020019150506040516020818303038152906040527f32458eed000000000000000000000000000000000000000000000000000000007bffffffffffffffffffffffffffffffffffffffffffffffffffffffff19166020820180517bffffffffffffffffffffffffffffffffffffffffffffffffffffffff838183161783525050505061599d565b50565b600081831061578a578161578c565b825b905092915050565b60008183116157a357816157a5565b825b905092915050565b6000808213156157cb578183019050828112156157c657fe5b6157db565b8183019050828113156157da57fe5b5b92915050565b6000808213156157ff578183039050828113156157fa57fe5b61580f565b81830390508281121561580e57fe5b5b92915050565b61581d6159c6565b6158256159c6565b60008360016033811061583457fe5b602002015190506000805b60058110156158c65785600182016033811061585757fe5b602002015185826005811061586857fe5b6020020181815250506001810184826005811061588157fe5b6020020181815250508285826005811061589757fe5b602002015110156158b9578481600581106158ae57fe5b602002015192508091505b808060010191505061583f565b506000600690505b603381101561599557828682603381106158e457fe5b60200201511115615988578581603381106158fb57fe5b602002015185836005811061590c57fe5b6020020181815250508084836005811061592257fe5b60200201818152505085816033811061593757fe5b6020020151925060005b6005811015615986578386826005811061595757fe5b602002015110156159795785816005811061596e57fe5b602002015193508092505b8080600101915050615941565b505b80806001019150506158ce565b505050915091565b60008151905060006a636f6e736f6c652e6c6f679050602083016000808483855afa5050505050565b6040518060a00160405280600590602082028036833780820191505090505090565b6040518060a00160405280600590602082028036833780820191505090505090565b604051806101200160405280600990602082028036833780820191505090505090565b60405180610660016040528060339060208202803683378082019150509050509056fe4d696e657220776173206e6f74206c6f636b656420666f72207769746864726177616c45524332303a20617070726f766520746f20746865207a65726f206164647265737353686f756c6420686176652073756666696369656e742062616c616e636520746f207472616465547269656420746f2073656e64206e6f6e2d706f73697469766520616d6f756e7442616c616e6365206973206c6f776572207468616e207374616b6520616d6f756e744469737075746520686173206265656e20616c726561647920657865637574656445524332303a20617070726f76652066726f6d20746865207a65726f2061646472657373a2646970667358221220d9a41bf35debd3f036fb84d661ef3db542e964b62fe320857937eed593623d8364736f6c63430007040033",
  "linkReferences": {},
  "deployedLinkReferences": {}
}