{
  "_format": "hh-sol-artifact-1",
  "contractName": "TellorStake",
  "sourceName": "contracts/TellorStake.sol",
  "abi": [
    {
      "anonymous": false,
      "inputs": [
        {
          "indexed": true,
          "internalType": "address",
          "name": "owner",
          "type": "address"
        },
        {
          "indexed": true,
          "internalType": "address",
          "name": "spender",
          "type": "address"
        },
        {
          "indexed": false,
          "internalType": "uint256",
          "name": "value",
          "type": "uint256"
        }
      ],
      "name": "Approval",
      "type": "event"
    },
    {
      "anonymous": false,
      "inputs": [
        {
          "indexed": true,
          "internalType": "uint256",
          "name": "_disputeID",
          "type": "uint256"
        },
        {
          "indexed": false,
          "internalType": "int256",
          "name": "_result",
          "type": "int256"
        },
        {
          "indexed": true,
          "internalType": "address",
          "name": "_reportedMiner",
          "type": "address"
        },
        {
          "indexed": false,
          "internalType": "address",
          "name": "_reportingParty",
          "type": "address"
        },
        {
          "indexed": false,
          "internalType": "bool",
          "name": "_active",
          "type": "bool"
        }
      ],
      "name": "DisputeVoteTallied",
      "type": "event"
    },
    {
      "anonymous": false,
      "inputs": [
        {
          "indexed": true,
          "internalType": "uint256",
          "name": "_disputeId",
          "type": "uint256"
        },
        {
          "indexed": true,
          "internalType": "uint256",
          "name": "_requestId",
          "type": "uint256"
        },
        {
          "indexed": false,
          "internalType": "uint256",
          "name": "_timestamp",
          "type": "uint256"
        },
        {
          "indexed": false,
          "internalType": "address",
          "name": "_miner",
          "type": "address"
        }
      ],
      "name": "NewDispute",
      "type": "event"
    },
    {
      "anonymous": false,
      "inputs": [
        {
          "indexed": true,
          "internalType": "address",
          "name": "_sender",
          "type": "address"
        }
      ],
      "name": "NewStake",
      "type": "event"
    },
    {
      "anonymous": false,
      "inputs": [
        {
          "indexed": true,
          "internalType": "address",
          "name": "_sender",
          "type": "address"
        }
      ],
      "name": "StakeWithdrawRequested",
      "type": "event"
    },
    {
      "anonymous": false,
      "inputs": [
        {
          "indexed": true,
          "internalType": "address",
          "name": "_sender",
          "type": "address"
        }
      ],
      "name": "StakeWithdrawn",
      "type": "event"
    },
    {
      "anonymous": false,
      "inputs": [
        {
          "indexed": true,
          "internalType": "address",
          "name": "from",
          "type": "address"
        },
        {
          "indexed": true,
          "internalType": "address",
          "name": "to",
          "type": "address"
        },
        {
          "indexed": false,
          "internalType": "uint256",
          "name": "value",
          "type": "uint256"
        }
      ],
      "name": "Transfer",
      "type": "event"
    },
    {
      "anonymous": false,
      "inputs": [
        {
          "indexed": true,
          "internalType": "uint256",
          "name": "_disputeID",
          "type": "uint256"
        },
        {
          "indexed": false,
          "internalType": "bool",
          "name": "_position",
          "type": "bool"
        },
        {
          "indexed": true,
          "internalType": "address",
          "name": "_voter",
          "type": "address"
        },
        {
          "indexed": true,
          "internalType": "uint256",
          "name": "_voteWeight",
          "type": "uint256"
        }
      ],
      "name": "Voted",
      "type": "event"
    },
    {
      "inputs": [
        {
          "internalType": "address",
          "name": "",
          "type": "address"
        },
        {
          "internalType": "address",
          "name": "",
          "type": "address"
        }
      ],
      "name": "_allowances",
      "outputs": [
        {
          "internalType": "uint256",
          "name": "",
          "type": "uint256"
        }
      ],
      "stateMutability": "view",
      "type": "function"
    },
    {
      "inputs": [],
      "name": "_owner",
      "outputs": [
        {
          "internalType": "bytes32",
          "name": "",
          "type": "bytes32"
        }
      ],
      "stateMutability": "view",
      "type": "function"
    },
    {
      "inputs": [],
      "name": "_tBlock",
      "outputs": [
        {
          "internalType": "bytes32",
          "name": "",
          "type": "bytes32"
        }
      ],
      "stateMutability": "view",
      "type": "function"
    },
    {
      "inputs": [
        {
          "internalType": "bytes32",
          "name": "",
          "type": "bytes32"
        }
      ],
      "name": "addresses",
      "outputs": [
        {
          "internalType": "address",
          "name": "",
          "type": "address"
        }
      ],
      "stateMutability": "view",
      "type": "function"
    },
    {
      "inputs": [
        {
          "internalType": "address",
          "name": "_user",
          "type": "address"
        },
        {
          "internalType": "address",
          "name": "_spender",
          "type": "address"
        }
      ],
      "name": "allowance",
      "outputs": [
        {
          "internalType": "uint256",
          "name": "",
          "type": "uint256"
        }
      ],
      "stateMutability": "view",
      "type": "function"
    },
    {
      "inputs": [
        {
          "internalType": "address",
          "name": "_user",
          "type": "address"
        },
        {
          "internalType": "uint256",
          "name": "_amount",
          "type": "uint256"
        }
      ],
      "name": "allowedToTrade",
      "outputs": [
        {
          "internalType": "bool",
          "name": "",
          "type": "bool"
        }
      ],
      "stateMutability": "view",
      "type": "function"
    },
    {
      "inputs": [
        {
          "internalType": "address",
          "name": "_spender",
          "type": "address"
        },
        {
          "internalType": "uint256",
          "name": "_amount",
          "type": "uint256"
        }
      ],
      "name": "approve",
      "outputs": [
        {
          "internalType": "bool",
          "name": "",
          "type": "bool"
        }
      ],
      "stateMutability": "nonpayable",
      "type": "function"
    },
    {
      "inputs": [
        {
          "internalType": "address",
          "name": "_user",
          "type": "address"
        }
      ],
      "name": "balanceOf",
      "outputs": [
        {
          "internalType": "uint256",
          "name": "",
          "type": "uint256"
        }
      ],
      "stateMutability": "view",
      "type": "function"
    },
    {
      "inputs": [
        {
          "internalType": "address",
          "name": "_user",
          "type": "address"
        },
        {
          "internalType": "uint256",
          "name": "_blockNumber",
          "type": "uint256"
        }
      ],
      "name": "balanceOfAt",
      "outputs": [
        {
          "internalType": "uint256",
          "name": "",
          "type": "uint256"
        }
      ],
      "stateMutability": "view",
      "type": "function"
    },
    {
      "inputs": [
        {
          "internalType": "uint256",
          "name": "_requestId",
          "type": "uint256"
        },
        {
          "internalType": "uint256",
          "name": "_timestamp",
          "type": "uint256"
        },
        {
          "internalType": "uint256",
          "name": "_minerIndex",
          "type": "uint256"
        }
      ],
      "name": "beginDispute",
      "outputs": [],
      "stateMutability": "nonpayable",
      "type": "function"
    },
    {
      "inputs": [
        {
          "internalType": "bytes32",
          "name": "",
          "type": "bytes32"
        }
      ],
      "name": "bytesVars",
      "outputs": [
        {
          "internalType": "bytes32",
          "name": "",
          "type": "bytes32"
        }
      ],
      "stateMutability": "view",
      "type": "function"
    },
    {
      "inputs": [],
      "name": "currentChallenge",
      "outputs": [
        {
          "internalType": "bytes32",
          "name": "",
          "type": "bytes32"
        }
      ],
      "stateMutability": "view",
      "type": "function"
    },
    {
      "inputs": [],
      "name": "currentRequestId",
      "outputs": [
        {
          "internalType": "bytes32",
          "name": "",
          "type": "bytes32"
        }
      ],
      "stateMutability": "view",
      "type": "function"
    },
    {
      "inputs": [],
      "name": "currentTotalTips",
      "outputs": [
        {
          "internalType": "bytes32",
          "name": "",
          "type": "bytes32"
        }
      ],
      "stateMutability": "view",
      "type": "function"
    },
    {
      "inputs": [],
      "name": "decimals",
      "outputs": [
        {
          "internalType": "uint8",
          "name": "",
          "type": "uint8"
        }
      ],
      "stateMutability": "pure",
      "type": "function"
    },
    {
      "inputs": [],
      "name": "depositStake",
      "outputs": [],
      "stateMutability": "nonpayable",
      "type": "function"
    },
    {
      "inputs": [
        {
          "internalType": "bytes32",
          "name": "_challenge",
          "type": "bytes32"
        },
        {
          "internalType": "address",
          "name": "_miner",
          "type": "address"
        }
      ],
      "name": "didMine",
      "outputs": [
        {
          "internalType": "bool",
          "name": "",
          "type": "bool"
        }
      ],
      "stateMutability": "view",
      "type": "function"
    },
    {
      "inputs": [
        {
          "internalType": "uint256",
          "name": "_disputeId",
          "type": "uint256"
        },
        {
          "internalType": "address",
          "name": "_address",
          "type": "address"
        }
      ],
      "name": "didVote",
      "outputs": [
        {
          "internalType": "bool",
          "name": "",
          "type": "bool"
        }
      ],
      "stateMutability": "view",
      "type": "function"
    },
    {
      "inputs": [],
      "name": "difficulty",
      "outputs": [
        {
          "internalType": "bytes32",
          "name": "",
          "type": "bytes32"
        }
      ],
      "stateMutability": "view",
      "type": "function"
    },
    {
      "inputs": [],
      "name": "disputeFee",
      "outputs": [
        {
          "internalType": "bytes32",
          "name": "",
          "type": "bytes32"
        }
      ],
      "stateMutability": "view",
      "type": "function"
    },
    {
      "inputs": [
        {
          "internalType": "bytes32",
          "name": "_data",
          "type": "bytes32"
        }
      ],
      "name": "getAddressVars",
      "outputs": [
        {
          "internalType": "address",
          "name": "",
          "type": "address"
        }
      ],
      "stateMutability": "view",
      "type": "function"
    },
    {
      "inputs": [
        {
          "internalType": "uint256",
          "name": "_disputeId",
          "type": "uint256"
        }
      ],
      "name": "getAllDisputeVars",
      "outputs": [
        {
          "internalType": "bytes32",
          "name": "",
          "type": "bytes32"
        },
        {
          "internalType": "bool",
          "name": "",
          "type": "bool"
        },
        {
          "internalType": "bool",
          "name": "",
          "type": "bool"
        },
        {
          "internalType": "bool",
          "name": "",
          "type": "bool"
        },
        {
          "internalType": "address",
          "name": "",
          "type": "address"
        },
        {
          "internalType": "address",
          "name": "",
          "type": "address"
        },
        {
          "internalType": "address",
          "name": "",
          "type": "address"
        },
        {
          "internalType": "uint256[9]",
          "name": "",
          "type": "uint256[9]"
        },
        {
          "internalType": "int256",
          "name": "",
          "type": "int256"
        }
      ],
      "stateMutability": "view",
      "type": "function"
    },
    {
      "inputs": [
        {
          "internalType": "bytes32",
          "name": "_hash",
          "type": "bytes32"
        }
      ],
      "name": "getDisputeIdByDisputeHash",
      "outputs": [
        {
          "internalType": "uint256",
          "name": "",
          "type": "uint256"
        }
      ],
      "stateMutability": "view",
      "type": "function"
    },
    {
      "inputs": [
        {
          "internalType": "uint256",
          "name": "_disputeId",
          "type": "uint256"
        },
        {
          "internalType": "bytes32",
          "name": "_data",
          "type": "bytes32"
        }
      ],
      "name": "getDisputeUintVars",
      "outputs": [
        {
          "internalType": "uint256",
          "name": "",
          "type": "uint256"
        }
      ],
      "stateMutability": "view",
      "type": "function"
    },
    {
      "inputs": [],
      "name": "getLastNewValue",
      "outputs": [
        {
          "internalType": "uint256",
          "name": "",
          "type": "uint256"
        },
        {
          "internalType": "bool",
          "name": "",
          "type": "bool"
        }
      ],
      "stateMutability": "view",
      "type": "function"
    },
    {
      "inputs": [
        {
          "internalType": "uint256",
          "name": "_requestId",
          "type": "uint256"
        }
      ],
      "name": "getLastNewValueById",
      "outputs": [
        {
          "internalType": "uint256",
          "name": "",
          "type": "uint256"
        },
        {
          "internalType": "bool",
          "name": "",
          "type": "bool"
        }
      ],
      "stateMutability": "view",
      "type": "function"
    },
    {
      "inputs": [
        {
          "internalType": "uint256[51]",
          "name": "data",
          "type": "uint256[51]"
        }
      ],
      "name": "getMax",
      "outputs": [
        {
          "internalType": "uint256",
          "name": "max",
          "type": "uint256"
        },
        {
          "internalType": "uint256",
          "name": "maxIndex",
          "type": "uint256"
        }
      ],
      "stateMutability": "pure",
      "type": "function"
    },
    {
      "inputs": [
        {
          "internalType": "uint256[51]",
          "name": "data",
          "type": "uint256[51]"
        }
      ],
      "name": "getMax5",
      "outputs": [
        {
          "internalType": "uint256[5]",
          "name": "max",
          "type": "uint256[5]"
        },
        {
          "internalType": "uint256[5]",
          "name": "maxIndex",
          "type": "uint256[5]"
        }
      ],
      "stateMutability": "view",
      "type": "function"
    },
    {
      "inputs": [
        {
          "internalType": "uint256[51]",
          "name": "data",
          "type": "uint256[51]"
        }
      ],
      "name": "getMin",
      "outputs": [
        {
          "internalType": "uint256",
          "name": "min",
          "type": "uint256"
        },
        {
          "internalType": "uint256",
          "name": "minIndex",
          "type": "uint256"
        }
      ],
      "stateMutability": "pure",
      "type": "function"
    },
    {
      "inputs": [
        {
          "internalType": "uint256",
          "name": "_requestId",
          "type": "uint256"
        },
        {
          "internalType": "uint256",
          "name": "_timestamp",
          "type": "uint256"
        }
      ],
      "name": "getMinedBlockNum",
      "outputs": [
        {
          "internalType": "uint256",
          "name": "",
          "type": "uint256"
        }
      ],
      "stateMutability": "view",
      "type": "function"
    },
    {
      "inputs": [
        {
          "internalType": "uint256",
          "name": "_requestId",
          "type": "uint256"
        },
        {
          "internalType": "uint256",
          "name": "_timestamp",
          "type": "uint256"
        }
      ],
      "name": "getMinersByRequestIdAndTimestamp",
      "outputs": [
        {
          "internalType": "address[5]",
          "name": "",
          "type": "address[5]"
        }
      ],
      "stateMutability": "view",
      "type": "function"
    },
    {
      "inputs": [],
      "name": "getNewCurrentVariables",
      "outputs": [
        {
          "internalType": "bytes32",
          "name": "_challenge",
          "type": "bytes32"
        },
        {
          "internalType": "uint256[5]",
          "name": "_requestIds",
          "type": "uint256[5]"
        },
        {
          "internalType": "uint256",
          "name": "_difficulty",
          "type": "uint256"
        },
        {
          "internalType": "uint256",
          "name": "_tip",
          "type": "uint256"
        }
      ],
      "stateMutability": "view",
      "type": "function"
    },
    {
      "inputs": [
        {
          "internalType": "uint256",
          "name": "_requestId",
          "type": "uint256"
        }
      ],
      "name": "getNewValueCountbyRequestId",
      "outputs": [
        {
          "internalType": "uint256",
          "name": "",
          "type": "uint256"
        }
      ],
      "stateMutability": "view",
      "type": "function"
    },
    {
      "inputs": [],
      "name": "getNewVariablesOnDeck",
      "outputs": [
        {
          "internalType": "uint256[5]",
          "name": "idsOnDeck",
          "type": "uint256[5]"
        },
        {
          "internalType": "uint256[5]",
          "name": "tipsOnDeck",
          "type": "uint256[5]"
        }
      ],
      "stateMutability": "view",
      "type": "function"
    },
    {
      "inputs": [
        {
          "internalType": "uint256",
          "name": "_index",
          "type": "uint256"
        }
      ],
      "name": "getRequestIdByRequestQIndex",
      "outputs": [
        {
          "internalType": "uint256",
          "name": "",
          "type": "uint256"
        }
      ],
      "stateMutability": "view",
      "type": "function"
    },
    {
      "inputs": [
        {
          "internalType": "uint256",
          "name": "_timestamp",
          "type": "uint256"
        }
      ],
      "name": "getRequestIdByTimestamp",
      "outputs": [
        {
          "internalType": "uint256",
          "name": "",
          "type": "uint256"
        }
      ],
      "stateMutability": "view",
      "type": "function"
    },
    {
      "inputs": [],
      "name": "getRequestQ",
      "outputs": [
        {
          "internalType": "uint256[51]",
          "name": "",
          "type": "uint256[51]"
        }
      ],
      "stateMutability": "view",
      "type": "function"
    },
    {
      "inputs": [
        {
          "internalType": "uint256",
          "name": "_requestId",
          "type": "uint256"
        },
        {
          "internalType": "bytes32",
          "name": "_data",
          "type": "bytes32"
        }
      ],
      "name": "getRequestUintVars",
      "outputs": [
        {
          "internalType": "uint256",
          "name": "",
          "type": "uint256"
        }
      ],
      "stateMutability": "view",
      "type": "function"
    },
    {
      "inputs": [
        {
          "internalType": "uint256",
          "name": "_requestId",
          "type": "uint256"
        }
      ],
      "name": "getRequestVars",
      "outputs": [
        {
          "internalType": "uint256",
          "name": "",
          "type": "uint256"
        },
        {
          "internalType": "uint256",
          "name": "",
          "type": "uint256"
        }
      ],
      "stateMutability": "view",
      "type": "function"
    },
    {
      "inputs": [
        {
          "internalType": "address",
          "name": "_staker",
          "type": "address"
        }
      ],
      "name": "getStakerInfo",
      "outputs": [
        {
          "internalType": "uint256",
          "name": "",
          "type": "uint256"
        },
        {
          "internalType": "uint256",
          "name": "",
          "type": "uint256"
        }
      ],
      "stateMutability": "view",
      "type": "function"
    },
    {
      "inputs": [
        {
          "internalType": "uint256",
          "name": "_requestId",
          "type": "uint256"
        },
        {
          "internalType": "uint256",
          "name": "_timestamp",
          "type": "uint256"
        }
      ],
      "name": "getSubmissionsByTimestamp",
      "outputs": [
        {
          "internalType": "uint256[5]",
          "name": "",
          "type": "uint256[5]"
        }
      ],
      "stateMutability": "view",
      "type": "function"
    },
    {
      "inputs": [
        {
          "internalType": "uint256",
          "name": "_requestID",
          "type": "uint256"
        },
        {
          "internalType": "uint256",
          "name": "_index",
          "type": "uint256"
        }
      ],
      "name": "getTimestampbyRequestIDandIndex",
      "outputs": [
        {
          "internalType": "uint256",
          "name": "",
          "type": "uint256"
        }
      ],
      "stateMutability": "view",
      "type": "function"
    },
    {
      "inputs": [],
      "name": "getTopRequestIDs",
      "outputs": [
        {
          "internalType": "uint256[5]",
          "name": "_requestIds",
          "type": "uint256[5]"
        }
      ],
      "stateMutability": "view",
      "type": "function"
    },
    {
      "inputs": [
        {
          "internalType": "bytes32",
          "name": "_data",
          "type": "bytes32"
        }
      ],
      "name": "getUintVar",
      "outputs": [
        {
          "internalType": "uint256",
          "name": "",
          "type": "uint256"
        }
      ],
      "stateMutability": "view",
      "type": "function"
    },
    {
      "inputs": [
        {
          "internalType": "uint256",
          "name": "_requestId",
          "type": "uint256"
        },
        {
          "internalType": "uint256",
          "name": "_timestamp",
          "type": "uint256"
        }
      ],
      "name": "isInDispute",
      "outputs": [
        {
          "internalType": "bool",
          "name": "",
          "type": "bool"
        }
      ],
      "stateMutability": "view",
      "type": "function"
    },
    {
      "inputs": [],
      "name": "name",
      "outputs": [
        {
          "internalType": "string",
          "name": "",
          "type": "string"
        }
      ],
      "stateMutability": "pure",
      "type": "function"
    },
    {
      "inputs": [],
      "name": "pending_owner",
      "outputs": [
        {
          "internalType": "bytes32",
          "name": "",
          "type": "bytes32"
        }
      ],
      "stateMutability": "view",
      "type": "function"
    },
    {
      "inputs": [],
      "name": "requestCount",
      "outputs": [
        {
          "internalType": "bytes32",
          "name": "",
          "type": "bytes32"
        }
      ],
      "stateMutability": "view",
      "type": "function"
    },
    {
      "inputs": [],
      "name": "requestQPosition",
      "outputs": [
        {
          "internalType": "bytes32",
          "name": "",
          "type": "bytes32"
        }
      ],
      "stateMutability": "view",
      "type": "function"
    },
    {
      "inputs": [],
      "name": "requestStakingWithdraw",
      "outputs": [],
      "stateMutability": "nonpayable",
      "type": "function"
    },
    {
      "inputs": [
        {
          "internalType": "uint256",
          "name": "_requestId",
          "type": "uint256"
        },
        {
          "internalType": "uint256",
          "name": "_timestamp",
          "type": "uint256"
        }
      ],
      "name": "retrieveData",
      "outputs": [
        {
          "internalType": "uint256",
          "name": "",
          "type": "uint256"
        }
      ],
      "stateMutability": "view",
      "type": "function"
    },
    {
      "inputs": [],
      "name": "slotProgress",
      "outputs": [
        {
          "internalType": "bytes32",
          "name": "",
          "type": "bytes32"
        }
      ],
      "stateMutability": "view",
      "type": "function"
    },
    {
      "inputs": [],
      "name": "stakeAmount",
      "outputs": [
        {
          "internalType": "bytes32",
          "name": "",
          "type": "bytes32"
        }
      ],
      "stateMutability": "view",
      "type": "function"
    },
    {
      "inputs": [],
      "name": "stakerCount",
      "outputs": [
        {
          "internalType": "bytes32",
          "name": "",
          "type": "bytes32"
        }
      ],
      "stateMutability": "view",
      "type": "function"
    },
    {
      "inputs": [],
      "name": "symbol",
      "outputs": [
        {
          "internalType": "string",
          "name": "",
          "type": "string"
        }
      ],
      "stateMutability": "pure",
      "type": "function"
    },
    {
      "inputs": [
        {
          "internalType": "uint256",
          "name": "_disputeId",
          "type": "uint256"
        }
      ],
      "name": "tallyVotes",
      "outputs": [],
      "stateMutability": "nonpayable",
      "type": "function"
    },
    {
      "inputs": [],
      "name": "targetMiners",
      "outputs": [
        {
          "internalType": "bytes32",
          "name": "",
          "type": "bytes32"
        }
      ],
      "stateMutability": "view",
      "type": "function"
    },
    {
      "inputs": [],
      "name": "timeOfLastNewValue",
      "outputs": [
        {
          "internalType": "bytes32",
          "name": "",
          "type": "bytes32"
        }
      ],
      "stateMutability": "view",
      "type": "function"
    },
    {
      "inputs": [],
      "name": "timeTarget",
      "outputs": [
        {
          "internalType": "bytes32",
          "name": "",
          "type": "bytes32"
        }
      ],
      "stateMutability": "view",
      "type": "function"
    },
    {
      "inputs": [],
      "name": "totalSupply",
      "outputs": [
        {
          "internalType": "uint256",
          "name": "",
          "type": "uint256"
        }
      ],
      "stateMutability": "view",
      "type": "function"
    },
    {
      "inputs": [],
      "name": "totalTip",
      "outputs": [
        {
          "internalType": "bytes32",
          "name": "",
          "type": "bytes32"
        }
      ],
      "stateMutability": "view",
      "type": "function"
    },
    {
      "inputs": [],
      "name": "total_supply",
      "outputs": [
        {
          "internalType": "bytes32",
          "name": "",
          "type": "bytes32"
        }
      ],
      "stateMutability": "view",
      "type": "function"
    },
    {
      "inputs": [
        {
          "internalType": "address",
          "name": "_to",
          "type": "address"
        },
        {
          "internalType": "uint256",
          "name": "_amount",
          "type": "uint256"
        }
      ],
      "name": "transfer",
      "outputs": [
        {
          "internalType": "bool",
          "name": "success",
          "type": "bool"
        }
      ],
      "stateMutability": "nonpayable",
      "type": "function"
    },
    {
      "inputs": [
        {
          "internalType": "address",
          "name": "_from",
          "type": "address"
        },
        {
          "internalType": "address",
          "name": "_to",
          "type": "address"
        },
        {
          "internalType": "uint256",
          "name": "_amount",
          "type": "uint256"
        }
      ],
      "name": "transferFrom",
      "outputs": [
        {
          "internalType": "bool",
          "name": "success",
          "type": "bool"
        }
      ],
      "stateMutability": "nonpayable",
      "type": "function"
    },
    {
      "inputs": [
        {
          "internalType": "bytes32",
          "name": "",
          "type": "bytes32"
        }
      ],
      "name": "uints",
      "outputs": [
        {
          "internalType": "uint256",
          "name": "",
          "type": "uint256"
        }
      ],
      "stateMutability": "view",
      "type": "function"
    },
    {
      "inputs": [
        {
          "internalType": "uint256",
          "name": "_disputeId",
          "type": "uint256"
        }
      ],
      "name": "unlockDisputeFee",
      "outputs": [],
      "stateMutability": "nonpayable",
      "type": "function"
    },
    {
      "inputs": [
        {
          "internalType": "address",
          "name": "_user",
          "type": "address"
        },
        {
          "internalType": "uint256",
          "name": "_value",
          "type": "uint256"
        }
      ],
      "name": "updateBalanceAtNow",
      "outputs": [],
      "stateMutability": "nonpayable",
      "type": "function"
    },
    {
      "inputs": [],
      "name": "updateMinDisputeFee",
      "outputs": [],
      "stateMutability": "nonpayable",
      "type": "function"
    },
    {
      "inputs": [
        {
          "internalType": "uint256",
          "name": "_disputeId",
          "type": "uint256"
        },
        {
          "internalType": "bool",
          "name": "_supportsDispute",
          "type": "bool"
        }
      ],
      "name": "vote",
      "outputs": [],
      "stateMutability": "nonpayable",
      "type": "function"
    },
    {
      "inputs": [],
      "name": "withdrawStake",
      "outputs": [],
      "stateMutability": "nonpayable",
      "type": "function"
    }
  ],
  "bytecode": "0x608060405234801561001057600080fd5b50615e5080620000216000396000f3fe608060405234801561001057600080fd5b50600436106104125760003560e01c806370a0823111610220578063b2bdfa7b11610130578063da379941116100b8578063e0ae93c111610087578063e0ae93c1146115ca578063e1eee6d614611616578063f29e5e9a1461165f578063fc7cf0a0146116e1578063fe1cd15d1461170857610412565b8063da379941146114d4578063dd62ed3e14611516578063dfee1ff11461158e578063dff69787146115ac57610412565b8063bed9d861116100ff578063bed9d86114611374578063c775b5421461137e578063c87a336d146113ca578063c9d27afe1461144c578063d67dcbc51461148657610412565b8063b2bdfa7b146112b0578063b5413029146112ce578063b59e14d414611314578063b9ce896b1461135657610412565b806393fa4915116101b35780639a01ca13116101825780639a01ca131461105b5780639a7077ab14611089578063a7c438bc146110fe578063a9059cbb14611162578063af0b1327146111c657610412565b806393fa491514610e5657806395d89b4114610ea257806399830e3214610f25578063999cf26c14610ff757610412565b80637f4ec4c3116101ef5780637f4ec4c314610da05780637f6fd5d914610dbe5780638581af1914610e0a57806390e5b23514610e4c57610412565b806370a0823114610c7f578063733bdef014610cd757806375ad1a2a14610d3657806377fbb66314610d5457610412565b80634049f19811610326578063612c8f7f116102ae57806369026d631161027d57806369026d6314610b59578063699f200f14610bcd5780636e3cf88514610c255780636fc3781114610c435780636fd4f22914610c6157610412565b8063612c8f7f14610a2f5780636173c0b814610a7157806362dd1d2a14610ab357806363bb82ad14610af557610412565b806351bdd585116102f557806351bdd58514610999578063561cb04a146109b75780635ae2bfdb146109d55780635badbe4c146109f357806360c7dc4714610a1157610412565b80634049f1981461086c57806346eee1c4146108c75780634d318b0e146109095780634ee2cd7e1461093757610412565b806318160ddd116103a95780632bf07e9e116103785780632bf07e9e14610776578063313ce567146107945780633180f8df146107b55780633940e9ee146108005780633df0777b1461081e57610412565b806318160ddd146106ac57806319cae462146106ca57806323b872dd146106e857806328449c3a1461076c57610412565b80630d2d76a2116103e55780630d2d76a2146105945780630f0b424d1461059e57806311c98512146105e0578063133bee5e1461065457610412565b8063024c2ddd1461041757806303b3160f1461048f57806306fdde03146104ad578063095ea7b314610530575b600080fd5b6104796004803603604081101561042d57600080fd5b81019080803573ffffffffffffffffffffffffffffffffffffffff169060200190929190803573ffffffffffffffffffffffffffffffffffffffff16906020019092919050505061174e565b6040518082815260200191505060405180910390f35b610497611773565b6040518082815260200191505060405180910390f35b6104b561179a565b6040518080602001828103825283818151815260200191508051906020019080838360005b838110156104f55780820151818401526020810190506104da565b50505050905090810190601f1680156105225780820380516001836020036101000a031916815260200191505b509250505060405180910390f35b61057c6004803603604081101561054657600080fd5b81019080803573ffffffffffffffffffffffffffffffffffffffff169060200190929190803590602001909291905050506117d7565b60405180821515815260200191505060405180910390f35b61059c6119d4565b005b6105ca600480360360208110156105b457600080fd5b81019080803590602001909291905050506119e7565b6040518082815260200191505060405180910390f35b610616600480360360408110156105f657600080fd5b810190808035906020019092919080359060200190929190505050611a04565b6040518082600560200280838360005b83811015610641578082015181840152602081019050610626565b5050505090500191505060405180910390f35b6106806004803603602081101561066a57600080fd5b8101908080359060200190929190505050611a77565b604051808273ffffffffffffffffffffffffffffffffffffffff16815260200191505060405180910390f35b6106b4611ab4565b6040518082815260200191505060405180910390f35b6106d2611af2565b6040518082815260200191505060405180910390f35b610754600480360360608110156106fe57600080fd5b81019080803573ffffffffffffffffffffffffffffffffffffffff169060200190929190803573ffffffffffffffffffffffffffffffffffffffff16906020019092919080359060200190929190505050611b19565b60405180821515815260200191505060405180910390f35b610774611cad565b005b61077e611e1b565b6040518082815260200191505060405180910390f35b61079c611e42565b604051808260ff16815260200191505060405180910390f35b6107e1600480360360208110156107cb57600080fd5b8101908080359060200190929190505050611e4b565b6040518083815260200182151581526020019250505060405180910390f35b610808611ebb565b6040518082815260200191505060405180910390f35b6108546004803603604081101561083457600080fd5b810190808035906020019092919080359060200190929190505050611ee2565b60405180821515815260200191505060405180910390f35b610874611f21565b6040518085815260200184600560200280838360005b838110156108a557808201518184015260208101905061088a565b5050505090500183815260200182815260200194505050505060405180910390f35b6108f3600480360360208110156108dd57600080fd5b8101908080359060200190929190505050612010565b6040518082815260200191505060405180910390f35b6109356004803603602081101561091f57600080fd5b8101908080359060200190929190505050612033565b005b6109836004803603604081101561094d57600080fd5b81019080803573ffffffffffffffffffffffffffffffffffffffff16906020019092919080359060200190929190505050612425565b6040518082815260200191505060405180910390f35b6109a1612702565b6040518082815260200191505060405180910390f35b6109bf612726565b6040518082815260200191505060405180910390f35b6109dd61274d565b6040518082815260200191505060405180910390f35b6109fb612774565b6040518082815260200191505060405180910390f35b610a1961279b565b6040518082815260200191505060405180910390f35b610a5b60048036036020811015610a4557600080fd5b81019080803590602001909291905050506127c2565b6040518082815260200191505060405180910390f35b610a9d60048036036020811015610a8757600080fd5b81019080803590602001909291905050506127df565b6040518082815260200191505060405180910390f35b610adf60048036036020811015610ac957600080fd5b8101908080359060200190929190505050612873565b6040518082815260200191505060405180910390f35b610b4160048036036040811015610b0b57600080fd5b8101908080359060200190929190803573ffffffffffffffffffffffffffffffffffffffff16906020019092919050505061288b565b60405180821515815260200191505060405180910390f35b610b8f60048036036040811015610b6f57600080fd5b810190808035906020019092919080359060200190929190505050612962565b6040518082600560200280838360005b83811015610bba578082015181840152602081019050610b9f565b5050505090500191505060405180910390f35b610bf960048036036020811015610be357600080fd5b8101908080359060200190929190505050612a0b565b604051808273ffffffffffffffffffffffffffffffffffffffff16815260200191505060405180910390f35b610c2d612a3e565b6040518082815260200191505060405180910390f35b610c4b612a65565b6040518082815260200191505060405180910390f35b610c69612a8c565b6040518082815260200191505060405180910390f35b610cc160048036036020811015610c9557600080fd5b81019080803573ffffffffffffffffffffffffffffffffffffffff169060200190929190505050612ab3565b6040518082815260200191505060405180910390f35b610d1960048036036020811015610ced57600080fd5b81019080803573ffffffffffffffffffffffffffffffffffffffff169060200190929190505050612ac6565b604051808381526020018281526020019250505060405180910390f35b610d3e612b58565b6040518082815260200191505060405180910390f35b610d8a60048036036040811015610d6a57600080fd5b810190808035906020019092919080359060200190929190505050612b7f565b6040518082815260200191505060405180910390f35b610da8612bb5565b6040518082815260200191505060405180910390f35b610df460048036036040811015610dd457600080fd5b810190808035906020019092919080359060200190929190505050612bdc565b6040518082815260200191505060405180910390f35b610e4a60048036036060811015610e2057600080fd5b81019080803590602001909291908035906020019092919080359060200190929190505050612c0e565b005b610e54613822565b005b610e8c60048036036040811015610e6c57600080fd5b81019080803590602001909291908035906020019092919050505061393a565b6040518082815260200191505060405180910390f35b610eaa61396c565b6040518080602001828103825283818151815260200191508051906020019080838360005b83811015610eea578082015181840152602081019050610ecf565b50505050905090810190601f168015610f175780820380516001836020036101000a031916815260200191505b509250505060405180910390f35b610f8a6004803603610660811015610f3c57600080fd5b810190808061066001906033806020026040519081016040528092919082603360200280828437600081840152601f19601f82011690508083019250505050505091929192905050506139a9565b6040518083600560200280838360005b83811015610fb5578082015181840152602081019050610f9a565b5050505090500182600560200280838360005b83811015610fe3578082015181840152602081019050610fc8565b505050509050019250505060405180910390f35b6110436004803603604081101561100d57600080fd5b81019080803573ffffffffffffffffffffffffffffffffffffffff16906020019092919080359060200190929190505050613b31565b60405180821515815260200191505060405180910390f35b6110876004803603602081101561107157600080fd5b8101908080359060200190929190505050613c3a565b005b611091614535565b6040518083600560200280838360005b838110156110bc5780820151818401526020810190506110a1565b5050505090500182600560200280838360005b838110156110ea5780820151818401526020810190506110cf565b505050509050019250505060405180910390f35b61114a6004803603604081101561111457600080fd5b8101908080359060200190929190803573ffffffffffffffffffffffffffffffffffffffff1690602001909291905050506145dd565b60405180821515815260200191505060405180910390f35b6111ae6004803603604081101561117857600080fd5b81019080803573ffffffffffffffffffffffffffffffffffffffff16906020019092919080359060200190929190505050614648565b60405180821515815260200191505060405180910390f35b6111f2600480360360208110156111dc57600080fd5b810190808035906020019092919050505061465f565b604051808a81526020018915158152602001881515815260200187151581526020018673ffffffffffffffffffffffffffffffffffffffff1681526020018573ffffffffffffffffffffffffffffffffffffffff1681526020018473ffffffffffffffffffffffffffffffffffffffff16815260200183600960200280838360005b8381101561128f578082015181840152602081019050611274565b50505050905001828152602001995050505050505050505060405180910390f35b6112b8614976565b6040518082815260200191505060405180910390f35b6112d661499d565b6040518082603360200280838360005b838110156113015780820151818401526020810190506112e6565b5050505090500191505060405180910390f35b6113406004803603602081101561132a57600080fd5b81019080803590602001909291905050506149e8565b6040518082815260200191505060405180910390f35b61135e614a00565b6040518082815260200191505060405180910390f35b61137c614a24565b005b6113b46004803603604081101561139457600080fd5b810190808035906020019092919080359060200190929190505050614ba1565b6040518082815260200191505060405180910390f35b61142f60048036036106608110156113e157600080fd5b810190808061066001906033806020026040519081016040528092919082603360200280828437600081840152601f19601f8201169050808301925050505050509192919290505050614bd3565b604051808381526020018281526020019250505060405180910390f35b6114846004803603604081101561146257600080fd5b8101908080359060200190929190803515159060200190929190505050614c3f565b005b6114d26004803603604081101561149c57600080fd5b81019080803573ffffffffffffffffffffffffffffffffffffffff16906020019092919080359060200190929190505050614fd2565b005b611500600480360360208110156114ea57600080fd5b81019080803590602001909291905050506151c2565b6040518082815260200191505060405180910390f35b6115786004803603604081101561152c57600080fd5b81019080803573ffffffffffffffffffffffffffffffffffffffff169060200190929190803573ffffffffffffffffffffffffffffffffffffffff1690602001909291905050506151df565b6040518082815260200191505060405180910390f35b611596615266565b6040518082815260200191505060405180910390f35b6115b461528a565b6040518082815260200191505060405180910390f35b611600600480360360408110156115e057600080fd5b8101908080359060200190929190803590602001909291905050506152ae565b6040518082815260200191505060405180910390f35b6116426004803603602081101561162c57600080fd5b81019080803590602001909291905050506152e0565b604051808381526020018281526020019250505060405180910390f35b6116c4600480360361066081101561167657600080fd5b810190808061066001906033806020026040519081016040528092919082603360200280828437600081840152601f19601f8201169050808301925050505050509192919290505050615373565b604051808381526020018281526020019250505060405180910390f35b6116e96153e6565b6040518083815260200182151581526020019250505060405180910390f35b611710615479565b6040518082600560200280838360005b8381101561173b578082015181840152602081019050611720565b5050505090500191505060405180910390f35b604a602052816000526040600020602052806000526040600020600091509150505481565b7f6c505cb2db6644f57b42d87bd9407b0f66788b07d0617a2bc1356a0e69e66f9a60001b81565b60606040518060400160405280600f81526020017f54656c6c6f722054726962757465730000000000000000000000000000000000815250905090565b60008073ffffffffffffffffffffffffffffffffffffffff163373ffffffffffffffffffffffffffffffffffffffff16141561185e576040517f08c379a0000000000000000000000000000000000000000000000000000000008152600401808060200182810382526024815260200180615df76024913960400191505060405180910390fd5b600073ffffffffffffffffffffffffffffffffffffffff168373ffffffffffffffffffffffffffffffffffffffff1614156118e4576040517f08c379a0000000000000000000000000000000000000000000000000000000008152600401808060200182810382526022815260200180615d4a6022913960400191505060405180910390fd5b81604a60003373ffffffffffffffffffffffffffffffffffffffff1673ffffffffffffffffffffffffffffffffffffffff16815260200190815260200160002060008573ffffffffffffffffffffffffffffffffffffffff1673ffffffffffffffffffffffffffffffffffffffff168152602001908152602001600020819055508273ffffffffffffffffffffffffffffffffffffffff163373ffffffffffffffffffffffffffffffffffffffff167f8c5be1e5ebec7d5bd14f71427d1e84f3dd0314c0f7b2291e5b200ac8c7c3b925846040518082815260200191505060405180910390a36001905092915050565b6119dd33615582565b6119e5613822565b565b600060346000838152602001908152602001600020549050919050565b611a0c615c9c565b604560008481526020019081526020016000206006016000838152602001908152602001600020600580602002604051908101604052809291908260058015611a6a576020028201915b815481526020019060010190808311611a56575b5050505050905092915050565b60006047600083815260200190815260200160002060009054906101000a900473ffffffffffffffffffffffffffffffffffffffff169050919050565b6000604660007fb1557182e4359a1f0c6301278e8f5b35a776ab58d39892581e357578fb28783660001b815260200190815260200160002054905090565b7fb12aff7664b16cb99339be399b863feecd64d14817be7e1f042f97e3f358e64e60001b81565b600081604a60008673ffffffffffffffffffffffffffffffffffffffff1673ffffffffffffffffffffffffffffffffffffffff16815260200190815260200160002060003373ffffffffffffffffffffffffffffffffffffffff1673ffffffffffffffffffffffffffffffffffffffff168152602001908152602001600020541015611c0d576040517f08c379a00000000000000000000000000000000000000000000000000000000081526004018080602001828103825260128152602001807f416c6c6f77616e63652069732077726f6e67000000000000000000000000000081525060200191505060405180910390fd5b81604a60008673ffffffffffffffffffffffffffffffffffffffff1673ffffffffffffffffffffffffffffffffffffffff16815260200190815260200160002060003373ffffffffffffffffffffffffffffffffffffffff1673ffffffffffffffffffffffffffffffffffffffff16815260200190815260200160002060008282540392505081905550611ca2848484615820565b600190509392505050565b6000604460003373ffffffffffffffffffffffffffffffffffffffff1673ffffffffffffffffffffffffffffffffffffffff16815260200190815260200160002090506001816000015414611d6a576040517f08c379a00000000000000000000000000000000000000000000000000000000081526004018080602001828103825260138152602001807f4d696e6572206973206e6f74207374616b65640000000000000000000000000081525060200191505060405180910390fd5b60028160000181905550620151804281611d8057fe5b06420381600101819055506001604660007fedddb9344bfe0dadc78c558b8ffca446679cbffc17be64eb83973fce7bea5f34815260200190815260200160002060008282540392505081905550611dd5613822565b3373ffffffffffffffffffffffffffffffffffffffff167f453865710d0cb4b14ad25de371c860da196368895daa9662e5087711d14daecf60405160405180910390a250565b7f1e344bd070f05f1c5b3f0b1266f4f20d837a0a8190a3a2da8b0375eac2ba86ea60001b81565b60006012905090565b60008060006045600085815260200190815260200160002090506000816000018054905014611ead57611ea18482600001600184600001805490500381548110611e9157fe5b906000526020600020015461393a565b60019250925050611eb6565b60008092509250505b915091565b7fb1557182e4359a1f0c6301278e8f5b35a776ab58d39892581e357578fb28783660001b81565b600060456000848152602001908152602001600020600401600083815260200190815260200160002060009054906101000a900460ff16905092915050565b6000611f2b615c9c565b60008060005b6005811015611f7157603a8160058110611f4757fe5b6002020160000154848260058110611f5b57fe5b6020020181815250508080600101915050611f31565b507f3375fb9157bb77048f607329b1c4d45487433f61e0f51bcdeba91d975b2dab1883604660007fb12aff7664b16cb99339be399b863feecd64d14817be7e1f042f97e3f358e64e60001b815260200190815260200160002054604660007fd26d9834adf5a73309c4974bf654850bb699df8505e70d4cfde365c417b19dfc60001b815260200190815260200160002054935093509350935090919293565b600060456000838152602001908152602001600020600001805490509050919050565b6000603660008381526020019081526020016000209050600015158160020160009054906101000a900460ff161515146120b8576040517f08c379a0000000000000000000000000000000000000000000000000000000008152600401808060200182810382526021815260200180615dd66021913960400191505060405180910390fd5b8060050160007f74c9bc34b0b2333f1b565fbee67d940cf7d78b5a980c5f23da43f6729965ed40815260200190815260200160002054421015612163576040517f08c379a000000000000000000000000000000000000000000000000000000000815260040180806020018281038252601f8152602001807f54696d6520666f7220766f74696e6720686176656e277420656c61707365640081525060200191505060405180910390fd5b600073ffffffffffffffffffffffffffffffffffffffff168160030160009054906101000a900473ffffffffffffffffffffffffffffffffffffffff1673ffffffffffffffffffffffffffffffffffffffff16141561222a576040517f08c379a000000000000000000000000000000000000000000000000000000000815260040180806020018281038252601c8152602001807f7265706f7274696e67205061727479206973206164647265737320300000000081525060200191505060405180910390fd5b600081600101549050600081131561225a5760018260020160016101000a81548160ff0219169083151502179055505b600015158260020160029054906101000a900460ff16151514156122f9576000604460008460020160039054906101000a900473ffffffffffffffffffffffffffffffffffffffff1673ffffffffffffffffffffffffffffffffffffffff1673ffffffffffffffffffffffffffffffffffffffff16815260200190815260200160002090506003816000015414156122f757600481600001819055505b505b428260050160007fa411e55cb12d8659b5a982c01809e4446e10b0f66f1a7ee08545382e8912127081526020019081526020016000208190555060018260020160006101000a81548160ff0219169083151502179055508160020160039054906101000a900473ffffffffffffffffffffffffffffffffffffffff1673ffffffffffffffffffffffffffffffffffffffff16837f21459c2f5447ebcf83a7f0a238c32c71076faef0d12295e771c0cb1e10434739838560030160009054906101000a900473ffffffffffffffffffffffffffffffffffffffff168660020160019054906101000a900460ff16604051808481526020018373ffffffffffffffffffffffffffffffffffffffff1681526020018215158152602001935050505060405180910390a3505050565b600080604960008573ffffffffffffffffffffffffffffffffffffffff1673ffffffffffffffffffffffffffffffffffffffff16815260200190815260200160002090506000818054905014806124c35750828160008154811061248557fe5b9060005260206000200160000160009054906101000a90046fffffffffffffffffffffffffffffffff166fffffffffffffffffffffffffffffffff16115b156124d25760009150506126fc565b806001828054905003815481106124e557fe5b9060005260206000200160000160009054906101000a90046fffffffffffffffffffffffffffffffff166fffffffffffffffffffffffffffffffff16831061257e578060018280549050038154811061253a57fe5b9060005260206000200160000160109054906101000a90046fffffffffffffffffffffffffffffffff166fffffffffffffffffffffffffffffffff169150506126fc565b600080600283805490500390505b818111156126ae5760006002600184840101816125a557fe5b049050858482815481106125b557fe5b9060005260206000200160000160009054906101000a90046fffffffffffffffffffffffffffffffff166fffffffffffffffffffffffffffffffff16141561264a5783818154811061260357fe5b9060005260206000200160000160109054906101000a90046fffffffffffffffffffffffffffffffff166fffffffffffffffffffffffffffffffff169450505050506126fc565b8584828154811061265757fe5b9060005260206000200160000160009054906101000a90046fffffffffffffffffffffffffffffffff166fffffffffffffffffffffffffffffffff1610156126a1578092506126a8565b6001810391505b5061258c565b8282815481106126ba57fe5b9060005260206000200160000160109054906101000a90046fffffffffffffffffffffffffffffffff166fffffffffffffffffffffffffffffffff1693505050505b92915050565b7f3375fb9157bb77048f607329b1c4d45487433f61e0f51bcdeba91d975b2dab1881565b7f2a9e355a92978430eca9c1aa3a9ba590094bac282594bccf82de16b83046e2c360001b81565b7f7584d7d8701714da9c117f5bf30af73b0b88aca5338a84a21eb28de2fe0d93b860001b81565b7f05de9147d05477c0a5dc675aeea733157f5092f82add148cf39d579cafe3dc9860001b81565b7f7be108969d31a3f0b261465c71f2b0ba9301cd914d55d9091c3b36a49d4d41b260001b81565b600060466000838152602001908152602001600020549050919050565b60006032821115612858576040517f08c379a000000000000000000000000000000000000000000000000000000000815260040180806020018281038252601a8152602001807f526571756573745120696e6465782069732061626f766520353000000000000081525060200191505060405180910390fd5b60356000838152602001908152602001600020549050919050565b60486020528060005260406000206000915090505481565b600061289682615a8f565b6128fc6039600085815260200190815260200160002060008473ffffffffffffffffffffffffffffffffffffffff1673ffffffffffffffffffffffffffffffffffffffff16815260200190815260200160002060009054906101000a900460ff16615b3e565b6039600084815260200190815260200160002060008373ffffffffffffffffffffffffffffffffffffffff1673ffffffffffffffffffffffffffffffffffffffff16815260200190815260200160002060009054906101000a900460ff16905092915050565b61296a615cbe565b6045600084815260200190815260200160002060050160008381526020019081526020016000206005806020026040519081016040528092919082600580156129fe576020028201915b8160009054906101000a900473ffffffffffffffffffffffffffffffffffffffff1673ffffffffffffffffffffffffffffffffffffffff16815260200190600101908083116129b4575b5050505050905092915050565b60476020528060005260406000206000915054906101000a900473ffffffffffffffffffffffffffffffffffffffff1681565b7f969ea04b74d02bb4d9e6e8e57236e1b9ca31627139ae9f0e465249932e82450260001b81565b7fad16221efc80aaf1b7e69bd3ecb61ba5ffa539adf129c3b4ffff769c9b5bbc3360001b81565b7f97e6eb29f6a85471f7cc9b57f9e4c3deaf398cfc9798673160d7798baf0b13a460001b81565b6000612abf8243612425565b9050919050565b600080604460008473ffffffffffffffffffffffffffffffffffffffff1673ffffffffffffffffffffffffffffffffffffffff16815260200190815260200160002060000154604460008573ffffffffffffffffffffffffffffffffffffffff1673ffffffffffffffffffffffffffffffffffffffff1681526020019081526020016000206001015491509150915091565b7fd26d9834adf5a73309c4974bf654850bb699df8505e70d4cfde365c417b19dfc60001b81565b6000604560008481526020019081526020016000206000018281548110612ba257fe5b9060005260206000200154905092915050565b7f44b2657a0f8a90ed8e62f4c4cceca06eacaa9b4b25751ae1ebca9280a70abd6860001b81565b600060366000848152602001908152602001600020600501600083815260200190815260200160002054905092915050565b60006045600085815260200190815260200160002090506000816002016000858152602001908152602001600020541415612cb1576040517f08c379a00000000000000000000000000000000000000000000000000000000081526004018080602001828103825260108152602001807f4d696e656420626c6f636b20697320300000000000000000000000000000000081525060200191505060405180910390fd5b60058210612d27576040517f08c379a00000000000000000000000000000000000000000000000000000000081526004018080602001828103825260148152602001807f4d696e657220696e6465782069732077726f6e6700000000000000000000000081525060200191505060405180910390fd5b60008160050160008581526020019081526020016000208360058110612d4957fe5b0160009054906101000a900473ffffffffffffffffffffffffffffffffffffffff1690506000818686604051602001808473ffffffffffffffffffffffffffffffffffffffff1660601b8152601401838152602001828152602001935050505060405160208183030381529060405280519060200120905060006001604660007f475da5340e76792184fb177cb85d21980c2530616313aef501564d484eb5ca1e81526020019081526020016000205401905080604660007f475da5340e76792184fb177cb85d21980c2530616313aef501564d484eb5ca1e81526020019081526020016000208190555060006038600084815260200190815260200160002054905060008114612ea557806036600084815260200190815260200160002060050160007f0560b748d0e65de8b7394b0e1e09049ca56cf3fdc3429a6e3214e41d5d5023ef815260200190815260200160002081905550612ec1565b8160386000858152602001908152602001600020819055508190505b6000819050600060016036600084815260200190815260200160002060050160007f0ac3d41253ab0239953bd9ac38f67f22c9f59179aad422b7d83f5c7089a1be29815260200190815260200160002054019050806036600084815260200190815260200160002060050160007f0ac3d41253ab0239953bd9ac38f67f22c9f59179aad422b7d83f5c7089a1be29815260200190815260200160002081905550836036600084815260200190815260200160002060050160008360405160200180828152602001915050604051602081830303815290604052805190602001208152602001908152602001600020819055508184146131ba5760006036600084815260200190815260200160002060050160006001840360405160200180828152602001915050604051602081830303815290604052805190602001208152602001908152602001600020549050426036600083815260200190815260200160002060050160007f74c9bc34b0b2333f1b565fbee67d940cf7d78b5a980c5f23da43f6729965ed4081526020019081526020016000205411156130cc576040517f08c379a00000000000000000000000000000000000000000000000000000000081526004018080602001828103825260178152602001807f4469737075746520697320616c7265616479206f70656e00000000000000000081525060200191505060405180910390fd5b6036600082815260200190815260200160002060020160009054906101000a900460ff16156131b857620151806036600083815260200190815260200160002060050160007fa411e55cb12d8659b5a982c01809e4446e10b0f66f1a7ee08545382e89121270815260200190815260200160002054420311156131b7576040517f08c379a000000000000000000000000000000000000000000000000000000000815260040180806020018281038252601f8152602001807f54696d6520666f7220766f74696e6720686176656e277420656c61707365640081525060200191505060405180910390fd5b5b505b600060028914156132df576001604560008d815260200190815260200160002060010160007f475da5340e76792184fb177cb85d21980c2530616313aef501564d484eb5ca1e81526020019081526020016000205401604560008d815260200190815260200160002060010160007f475da5340e76792184fb177cb85d21980c2530616313aef501564d484eb5ca1e815260200190815260200160002081905550604560008c815260200190815260200160002060010160007f475da5340e76792184fb177cb85d21980c2530616313aef501564d484eb5ca1e815260200190815260200160002054604660007f7be108969d31a3f0b261465c71f2b0ba9301cd914d55d9091c3b36a49d4d41b2815260200190815260200160002054029050613318565b81604660007f8b75eb45d88e80f0e4ec77d23936268694c0e7ac2e0c9085c5c6bdfcfbc492398152602001908152602001600020540290505b85603660008781526020019081526020016000206000018190555060006036600087815260200190815260200160002060020160026101000a81548160ff021916908315150217905550866036600087815260200190815260200160002060020160036101000a81548173ffffffffffffffffffffffffffffffffffffffff021916908373ffffffffffffffffffffffffffffffffffffffff160217905550336036600087815260200190815260200160002060030160006101000a81548173ffffffffffffffffffffffffffffffffffffffff021916908373ffffffffffffffffffffffffffffffffffffffff16021790555060006036600087815260200190815260200160002060040160006101000a81548173ffffffffffffffffffffffffffffffffffffffff021916908373ffffffffffffffffffffffffffffffffffffffff16021790555060006036600087815260200190815260200160002060020160006101000a81548160ff02191690831515021790555060006036600087815260200190815260200160002060020160016101000a81548160ff021916908315150217905550600060366000878152602001908152602001600020600101819055508a6036600087815260200190815260200160002060050160007f31b40192effc42bcf1e4289fe674c678e673a3052992548fef566d8c33a21b91815260200190815260200160002081905550896036600087815260200190815260200160002060050160007f4ebf727c48eac2c66272456b06a885c5cc03e54d140f63b63b6fd10c1227958e8152602001908152602001600020819055508760060160008b8152602001908152602001600020896005811061359457fe5b01546036600087815260200190815260200160002060050160007f81afeeaff0ed5cee7d05a21078399c2f56226b0cd5657062500cef4c4e736f85815260200190815260200160002081905550816202a3000242016036600087815260200190815260200160002060050160007f74c9bc34b0b2333f1b565fbee67d940cf7d78b5a980c5f23da43f6729965ed40815260200190815260200160002081905550436036600087815260200190815260200160002060050160007f6f8f54d1af9b6cb8a219d88672c797f9f3ee97ce5d9369aa897fd0deb5e2dffa815260200190815260200160002081905550886036600087815260200190815260200160002060050160007f8ef61a1efbc527d6428ff88c95fdff5c6e644b979bfe67e03cbf88c8162c5fac815260200190815260200160002081905550806036600087815260200190815260200160002060050160007f833b9f6abf0b529613680afe2a00fa663cc95cbdc47d726d85a044462eabbf02815260200190815260200160002081905550613723333083615820565b60028914156137765760018860040160008c815260200190815260200160002060006101000a81548160ff02191690831515021790555060008860030160008c8152602001908152602001600020819055505b6003604460008973ffffffffffffffffffffffffffffffffffffffff1673ffffffffffffffffffffffffffffffffffffffff168152602001908152602001600020600001819055508a857feceec1aebf67772b2440120c4b4dc913a1fe1b865509219f9456785c23b9da648c8a604051808381526020018273ffffffffffffffffffffffffffffffffffffffff1681526020019250505060405180910390a35050505050505050505050565b6000604660007f7be108969d31a3f0b261465c71f2b0ba9301cd914d55d9091c3b36a49d4d41b260001b81526020019081526020016000205490506000604660007fabef544d8048318ece54fb2c6385255cd1b06e176525d149a0338a7acca6deb381526020019081526020016000205490506138ff67d02ab486cedc00006103e8836103e86138e586604660007fedddb9344bfe0dadc78c558b8ffca446679cbffc17be64eb83973fce7bea5f34815260200190815260200160002054615bd9565b028602816138ef57fe5b04816138f757fe5b048403615bf2565b604660007f8b75eb45d88e80f0e4ec77d23936268694c0e7ac2e0c9085c5c6bdfcfbc492398152602001908152602001600020819055505050565b600060456000848152602001908152602001600020600301600083815260200190815260200160002054905092915050565b60606040518060400160405280600381526020017f5452420000000000000000000000000000000000000000000000000000000000815250905090565b6139b1615c9c565b6139b9615c9c565b6000836001603381106139c857fe5b602002015190506000805b6005811015613a5a578560018201603381106139eb57fe5b60200201518582600581106139fc57fe5b60200201818152505060018101848260058110613a1557fe5b60200201818152505082858260058110613a2b57fe5b60200201511015613a4d57848160058110613a4257fe5b602002015192508091505b80806001019150506139d3565b506000600690505b6033811015613b295782868260338110613a7857fe5b60200201511115613b1c57858160338110613a8f57fe5b6020020151858360058110613aa057fe5b60200201818152505080848360058110613ab657fe5b602002018181525050858160338110613acb57fe5b6020020151925060005b6005811015613b1a5783868260058110613aeb57fe5b60200201511015613b0d57858160058110613b0257fe5b602002015193508092505b8080600101915050613ad5565b505b8080600101915050613a62565b505050915091565b600080604460008573ffffffffffffffffffffffffffffffffffffffff1673ffffffffffffffffffffffffffffffffffffffff1681526020019081526020016000206000015414158015613bc757506005604460008573ffffffffffffffffffffffffffffffffffffffff1673ffffffffffffffffffffffffffffffffffffffff16815260200190815260200160002060000154105b15613c255781604660007f7be108969d31a3f0b261465c71f2b0ba9301cd914d55d9091c3b36a49d4d41b260001b815260200190815260200160002054613c0d85612ab3565b0310613c1c5760019050613c34565b60009050613c34565b81613c2f84612ab3565b101590505b92915050565b6000603860006036600085815260200190815260200160002060000154815260200190815260200160002054905060006036600083815260200190815260200160002060050160006036600085815260200190815260200160002060050160007f0ac3d41253ab0239953bd9ac38f67f22c9f59179aad422b7d83f5c7089a1be29815260200190815260200160002054604051602001808281526020019150506040516020818303038152906040528051906020012081526020019081526020016000205490506000811415613d0e578190505b6000603660008481526020019081526020016000209050600060366000848152602001908152602001600020905060008260050160007f0ac3d41253ab0239953bd9ac38f67f22c9f59179aad422b7d83f5c7089a1be2981526020019081526020016000205490506000811415613d8457600190505b6000808460050160007f5ab53550295bfc9315c562232d99e75119ebb4d3b8a6e012160126a3506b02a881526020019081526020016000205414613e30576040517f08c379a00000000000000000000000000000000000000000000000000000000081526004018080602001828103825260108152602001807f616c72656164792070616964206f75740000000000000000000000000000000081525060200191505060405180910390fd5b620151808360050160007fa411e55cb12d8659b5a982c01809e4446e10b0f66f1a7ee08545382e89121270815260200190815260200160002054420311613edf576040517f08c379a000000000000000000000000000000000000000000000000000000000815260040180806020018281038252601f8152602001807f54696d6520666f7220766f74696e6720686176656e277420656c61707365640081525060200191505060405180910390fd5b6000604460008660020160039054906101000a900473ffffffffffffffffffffffffffffffffffffffff1673ffffffffffffffffffffffffffffffffffffffff1673ffffffffffffffffffffffffffffffffffffffff168152602001908152602001600020905060018560050160007f5ab53550295bfc9315c562232d99e75119ebb4d3b8a6e012160126a3506b02a8815260200190815260200160002081905550600115158460020160019054906101000a900460ff161515141561418f57620151804281613fab57fe5b06420381600101819055506001604660007fedddb9344bfe0dadc78c558b8ffca446679cbffc17be64eb83973fce7bea5f34815260200190815260200160002060008282540392505081905550614000613822565b6004816000015414156140a8576005816000018190555061409d8560020160039054906101000a900473ffffffffffffffffffffffffffffffffffffffff168660030160009054906101000a900473ffffffffffffffffffffffffffffffffffffffff16604660007f7be108969d31a3f0b261465c71f2b0ba9301cd914d55d9091c3b36a49d4d41b2815260200190815260200160002054615820565b600081600001819055505b60005b8381101561418957856005016000828603604051602001808281526020019150506040516020818303038152906040528051906020012081526020019081526020016000205492506000831415614100578792505b600060366000858152602001908152602001600020905061417b308260030160009054906101000a900473ffffffffffffffffffffffffffffffffffffffff168360050160007f833b9f6abf0b529613680afe2a00fa663cc95cbdc47d726d85a044462eabbf02815260200190815260200160002054615820565b5080806001019150506140ab565b5061445f565b600181600001819055506000604560008760050160007f31b40192effc42bcf1e4289fe674c678e673a3052992548fef566d8c33a21b918152602001908152602001600020548152602001908152602001600020905060028660050160007f8ef61a1efbc527d6428ff88c95fdff5c6e644b979bfe67e03cbf88c8162c5fac81526020019081526020016000205414156142a8578560050160007f81afeeaff0ed5cee7d05a21078399c2f56226b0cd5657062500cef4c4e736f858152602001908152602001600020548160030160008860050160007f4ebf727c48eac2c66272456b06a885c5cc03e54d140f63b63b6fd10c1227958e8152602001908152602001600020548152602001908152602001600020819055505b600115158160040160008860050160007f4ebf727c48eac2c66272456b06a885c5cc03e54d140f63b63b6fd10c1227958e815260200190815260200160002054815260200190815260200160002060009054906101000a900460ff16151514156143705760008160040160008860050160007f4ebf727c48eac2c66272456b06a885c5cc03e54d140f63b63b6fd10c1227958e815260200190815260200160002054815260200190815260200160002060006101000a81548160ff0219169083151502179055505b60005b8481101561445c5786600501600082870360405160200180828152602001915050604051602081830303815290604052805190602001208152602001908152602001600020549350600084146143d9576036600085815260200190815260200160002095505b61444f308760020160039054906101000a900473ffffffffffffffffffffffffffffffffffffffff166036600088815260200190815260200160002060050160007f833b9f6abf0b529613680afe2a00fa663cc95cbdc47d726d85a044462eabbf02815260200190815260200160002054615820565b8080600101915050614373565b50505b60028560050160007f8ef61a1efbc527d6428ff88c95fdff5c6e644b979bfe67e03cbf88c8162c5fac815260200190815260200160002054141561452b57604560008660050160007f31b40192effc42bcf1e4289fe674c678e673a3052992548fef566d8c33a21b91815260200190815260200160002054815260200190815260200160002060010160007f475da5340e76792184fb177cb85d21980c2530616313aef501564d484eb5ca1e815260200190815260200160002060008154809291906001900391905055505b5050505050505050565b61453d615c9c565b614545615c9c565b61454d615479565b915060005b60058110156145d8576045600084836005811061456b57fe5b6020020151815260200190815260200160002060010160007f2a9e355a92978430eca9c1aa3a9ba590094bac282594bccf82de16b83046e2c360001b8152602001908152602001600020548282600581106145c257fe5b6020020181815250508080600101915050614552565b509091565b60006036600084815260200190815260200160002060060160008373ffffffffffffffffffffffffffffffffffffffff1673ffffffffffffffffffffffffffffffffffffffff16815260200190815260200160002060009054906101000a900460ff16905092915050565b6000614655338484615820565b6001905092915050565b6000806000806000806000614672615ce0565b600080603660008c8152602001908152602001600020905080600001548160020160009054906101000a900460ff168260020160019054906101000a900460ff168360020160029054906101000a900460ff168460020160039054906101000a900473ffffffffffffffffffffffffffffffffffffffff168560030160009054906101000a900473ffffffffffffffffffffffffffffffffffffffff168660040160009054906101000a900473ffffffffffffffffffffffffffffffffffffffff166040518061012001604052808960050160007f31b40192effc42bcf1e4289fe674c678e673a3052992548fef566d8c33a21b9181526020019081526020016000205481526020018960050160007f4ebf727c48eac2c66272456b06a885c5cc03e54d140f63b63b6fd10c1227958e81526020019081526020016000205481526020018960050160007f81afeeaff0ed5cee7d05a21078399c2f56226b0cd5657062500cef4c4e736f8581526020019081526020016000205481526020018960050160007f74c9bc34b0b2333f1b565fbee67d940cf7d78b5a980c5f23da43f6729965ed4081526020019081526020016000205481526020018960050160007fa0bc13ce85a2091e950a370bced0825e58ab3a3ffeb709ed50d5562cbd82faab81526020019081526020016000205481526020018960050160007f6f8f54d1af9b6cb8a219d88672c797f9f3ee97ce5d9369aa897fd0deb5e2dffa81526020019081526020016000205481526020018960050160007f8ef61a1efbc527d6428ff88c95fdff5c6e644b979bfe67e03cbf88c8162c5fac81526020019081526020016000205481526020018960050160007f30e85ae205656781c1a951cba9f9f53f884833c049d377a2a7046eb5e6d14b2681526020019081526020016000205481526020018960050160007f833b9f6abf0b529613680afe2a00fa663cc95cbdc47d726d85a044462eabbf028152602001908152602001600020548152508860010154995099509950995099509950995099509950509193959799909294969850565b7f9dbc393ddc18fd27b1d9b1b129059925688d2f2d5818a5ec3ebb750b7c286ea660001b81565b6149a5615d03565b60006033806020026040519081016040528092919082603380156149de576020028201915b8154815260200190600101908083116149ca575b5050505050905090565b60466020528060005260406000206000915090505481565b7f8b75eb45d88e80f0e4ec77d23936268694c0e7ac2e0c9085c5c6bdfcfbc4923981565b6000604460003373ffffffffffffffffffffffffffffffffffffffff1673ffffffffffffffffffffffffffffffffffffffff168152602001908152602001600020905062093a808160010154620151804281614a7c57fe5b064203031015614af4576040517f08c379a00000000000000000000000000000000000000000000000000000000081526004018080602001828103825260128152602001807f372064617973206469646e27742070617373000000000000000000000000000081525060200191505060405180910390fd5b6002816000015414614b51576040517f08c379a0000000000000000000000000000000000000000000000000000000008152600401808060200182810382526023815260200180615d276023913960400191505060405180910390fd5b600081600001819055503373ffffffffffffffffffffffffffffffffffffffff167f4a7934670bd8304e7da22378be1368f7c4fef17c5aee81804beda8638fe428ec60405160405180910390a250565b600060456000848152602001908152602001600020600201600083815260200190815260200160002054905092915050565b60008060019050828160338110614be657fe5b602002015191506000600290505b6033811015614c395782848260338110614c0a57fe5b60200201511115614c2c57838160338110614c2157fe5b602002015192508091505b8080600101915050614bf4565b50915091565b60006036600084815260200190815260200160002090506000614c97338360050160007f6f8f54d1af9b6cb8a219d88672c797f9f3ee97ce5d9369aa897fd0deb5e2dffa815260200190815260200160002054612425565b9050600115158260060160003373ffffffffffffffffffffffffffffffffffffffff1673ffffffffffffffffffffffffffffffffffffffff16815260200190815260200160002060009054906101000a900460ff1615151415614d62576040517f08c379a00000000000000000000000000000000000000000000000000000000081526004018080602001828103825260188152602001807f53656e6465722068617320616c726561647920766f746564000000000000000081525060200191505060405180910390fd5b6000811415614dd9576040517f08c379a00000000000000000000000000000000000000000000000000000000081526004018080602001828103825260118152602001807f557365722062616c616e6365206973203000000000000000000000000000000081525060200191505060405180910390fd5b6003604460003373ffffffffffffffffffffffffffffffffffffffff1673ffffffffffffffffffffffffffffffffffffffff168152602001908152602001600020600001541415614e92576040517f08c379a00000000000000000000000000000000000000000000000000000000081526004018080602001828103825260168152602001807f4d696e657220697320756e64657220646973707574650000000000000000000081525060200191505060405180910390fd5b60018260060160003373ffffffffffffffffffffffffffffffffffffffff1673ffffffffffffffffffffffffffffffffffffffff16815260200190815260200160002060006101000a81548160ff02191690831515021790555060018260050160007fa0bc13ce85a2091e950a370bced0825e58ab3a3ffeb709ed50d5562cbd82faab8152602001908152602001600020600082825401925050819055508215614f5a57614f4d818360010154615c0b90919063ffffffff16565b8260010181905550614f7a565b614f71818360010154615c3f90919063ffffffff16565b82600101819055505b803373ffffffffffffffffffffffffffffffffffffffff16857f911ef2e98570b1d96c0e8ef81107a33d5b8e844aeb8f9710f9bc76c3b3fef40e8660405180821515815260200191505060405180910390a450505050565b6000604960008473ffffffffffffffffffffffffffffffffffffffff1673ffffffffffffffffffffffffffffffffffffffff16815260200190815260200160002090506000818054905014806150765750438160018380549050038154811061503757fe5b9060005260206000200160000160009054906101000a90046fffffffffffffffffffffffffffffffff166fffffffffffffffffffffffffffffffff1614155b1561515f57806040518060400160405280436fffffffffffffffffffffffffffffffff168152602001846fffffffffffffffffffffffffffffffff168152509080600181540180825580915050600190039060005260206000200160009091909190915060008201518160000160006101000a8154816fffffffffffffffffffffffffffffffff02191690836fffffffffffffffffffffffffffffffff16021790555060208201518160000160106101000a8154816fffffffffffffffffffffffffffffffff02191690836fffffffffffffffffffffffffffffffff16021790555050506151bd565b60008160018380549050038154811061517457fe5b906000526020600020019050828160000160106101000a8154816fffffffffffffffffffffffffffffffff02191690836fffffffffffffffffffffffffffffffff160217905550505b505050565b600060386000838152602001908152602001600020549050919050565b6000604a60008473ffffffffffffffffffffffffffffffffffffffff1673ffffffffffffffffffffffffffffffffffffffff16815260200190815260200160002060008373ffffffffffffffffffffffffffffffffffffffff1673ffffffffffffffffffffffffffffffffffffffff16815260200190815260200160002054905092915050565b7fabef544d8048318ece54fb2c6385255cd1b06e176525d149a0338a7acca6deb381565b7fedddb9344bfe0dadc78c558b8ffca446679cbffc17be64eb83973fce7bea5f3481565b600060456000848152602001908152602001600020600101600083815260200190815260200160002054905092915050565b60008060006045600085815260200190815260200160002090508060010160007f1e344bd070f05f1c5b3f0b1266f4f20d837a0a8190a3a2da8b0375eac2ba86ea8152602001908152602001600020548160010160007f2a9e355a92978430eca9c1aa3a9ba590094bac282594bccf82de16b83046e2c360001b8152602001908152602001600020549250925050915091565b6000806001603303905082816033811061538957fe5b602002015191506000600260330390505b60008111156153e057828482603381106153b057fe5b602002015110156153d2578381603381106153c757fe5b602002015192508091505b80806001900391505061539a565b50915091565b60008061546f60346000604660007f97e6eb29f6a85471f7cc9b57f9e4c3deaf398cfc9798673160d7798baf0b13a4815260200190815260200160002054815260200190815260200160002054604660007f97e6eb29f6a85471f7cc9b57f9e4c3deaf398cfc9798673160d7798baf0b13a460001b81526020019081526020016000205461393a565b6001915091509091565b615481615c9c565b615489615c9c565b615491615c9c565b6154d760006033806020026040519081016040528092919082603380156154cd576020028201915b8154815260200190600101908083116154b9575b50505050506139a9565b809250819350505060005b600581101561557c5760008382600581106154f957fe5b602002015114615541576035600083836005811061551357fe5b602002015181526020019081526020016000205484826005811061553357fe5b60200201818152505061556f565b603a816004036005811061555157fe5b600202016000015484826005811061556557fe5b6020020181815250505b80806001019150506154e2565b50505090565b604660007f7be108969d31a3f0b261465c71f2b0ba9301cd914d55d9091c3b36a49d4d41b260001b8152602001908152602001600020546155c282612ab3565b1015615619576040517f08c379a0000000000000000000000000000000000000000000000000000000008152600401808060200182810382526022815260200180615db46022913960400191505060405180910390fd5b6000604460008373ffffffffffffffffffffffffffffffffffffffff1673ffffffffffffffffffffffffffffffffffffffff1681526020019081526020016000206000015414806156ac57506002604460008373ffffffffffffffffffffffffffffffffffffffff1673ffffffffffffffffffffffffffffffffffffffff16815260200190815260200160002060000154145b61571e576040517f08c379a000000000000000000000000000000000000000000000000000000000815260040180806020018281038252601b8152602001807f4d696e657220697320696e207468652077726f6e67207374617465000000000081525060200191505060405180910390fd5b6001604660007fedddb9344bfe0dadc78c558b8ffca446679cbffc17be64eb83973fce7bea5f3481526020019081526020016000206000828254019250508190555060405180604001604052806001815260200162015180428161577e57fe5b064203815250604460008373ffffffffffffffffffffffffffffffffffffffff1673ffffffffffffffffffffffffffffffffffffffff16815260200190815260200160002060008201518160000155602082015181600101559050508073ffffffffffffffffffffffffffffffffffffffff167f46d8ab1385f70e5a3673e97c23c764f7600f7ed7a09b6687deae7131d51752e260405160405180910390a250565b600081141561587a576040517f08c379a0000000000000000000000000000000000000000000000000000000008152600401808060200182810382526021815260200180615d936021913960400191505060405180910390fd5b600073ffffffffffffffffffffffffffffffffffffffff168273ffffffffffffffffffffffffffffffffffffffff16141561591d576040517f08c379a00000000000000000000000000000000000000000000000000000000081526004018080602001828103825260158152602001807f526563656976657220697320302061646472657373000000000000000000000081525060200191505060405180910390fd5b6159278382613b31565b61597c576040517f08c379a0000000000000000000000000000000000000000000000000000000008152600401808060200182810382526027815260200180615d6c6027913960400191505060405180910390fd5b600061598784612ab3565b905061599584838303614fd2565b61599e83612ab3565b9050808282011015615a18576040517f08c379a00000000000000000000000000000000000000000000000000000000081526004018080602001828103825260118152602001807f4f766572666c6f772068617070656e656400000000000000000000000000000081525060200191505060405180910390fd5b615a2483838301614fd2565b8273ffffffffffffffffffffffffffffffffffffffff168473ffffffffffffffffffffffffffffffffffffffff167fddf252ad1be2c89b69c2b068fc378daa952ba7f163c4a11628f55a4df523b3ef846040518082815260200191505060405180910390a350505050565b615b3b81604051602401808273ffffffffffffffffffffffffffffffffffffffff1681526020019150506040516020818303038152906040527f2c2ecbc2000000000000000000000000000000000000000000000000000000007bffffffffffffffffffffffffffffffffffffffffffffffffffffffff19166020820180517bffffffffffffffffffffffffffffffffffffffffffffffffffffffff8381831617835250505050615c73565b50565b615bd6816040516024018082151581526020019150506040516020818303038152906040527f32458eed000000000000000000000000000000000000000000000000000000007bffffffffffffffffffffffffffffffffffffffffffffffffffffffff19166020820180517bffffffffffffffffffffffffffffffffffffffffffffffffffffffff8381831617835250505050615c73565b50565b6000818310615be85781615bea565b825b905092915050565b6000818311615c015781615c03565b825b905092915050565b600080821315615c2957818301905082811215615c2457fe5b615c39565b818301905082811315615c3857fe5b5b92915050565b600080821315615c5d57818303905082811315615c5857fe5b615c6d565b818303905082811215615c6c57fe5b5b92915050565b60008151905060006a636f6e736f6c652e6c6f679050602083016000808483855afa5050505050565b6040518060a00160405280600590602082028036833780820191505090505090565b6040518060a00160405280600590602082028036833780820191505090505090565b604051806101200160405280600990602082028036833780820191505090505090565b60405180610660016040528060339060208202803683378082019150509050509056fe4d696e657220776173206e6f74206c6f636b656420666f72207769746864726177616c45524332303a20617070726f766520746f20746865207a65726f206164647265737353686f756c6420686176652073756666696369656e742062616c616e636520746f207472616465547269656420746f2073656e64206e6f6e2d706f73697469766520616d6f756e7442616c616e6365206973206c6f776572207468616e207374616b6520616d6f756e744469737075746520686173206265656e20616c726561647920657865637574656445524332303a20617070726f76652066726f6d20746865207a65726f2061646472657373a26469706673582212204e0073235cce5dc309a334f9ec245bde154cb87da37f0828ec51891f12c804a364736f6c63430007040033",
  "linkReferences": {},
  "deployedLinkReferences": {}
}