{
  "_format": "hh-sol-artifact-1",
  "contractName": "Utilities",
  "sourceName": "contracts/Utilities.sol",
  "abi": [
    {
      "inputs": [
        {
          "internalType": "uint256[51]",
          "name": "data",
          "type": "uint256[51]"
        }
      ],
      "name": "getMax",
      "outputs": [
        {
          "internalType": "uint256",
          "name": "max",
          "type": "uint256"
        },
        {
          "internalType": "uint256",
          "name": "maxIndex",
          "type": "uint256"
        }
      ],
      "stateMutability": "pure",
      "type": "function"
    },
    {
      "inputs": [
        {
          "internalType": "uint256[51]",
          "name": "data",
          "type": "uint256[51]"
        }
      ],
      "name": "getMax5",
      "outputs": [
        {
          "internalType": "uint256[5]",
          "name": "max",
          "type": "uint256[5]"
        },
        {
          "internalType": "uint256[5]",
          "name": "maxIndex",
          "type": "uint256[5]"
        }
      ],
      "stateMutability": "view",
      "type": "function"
    },
    {
      "inputs": [
        {
          "internalType": "uint256[51]",
          "name": "data",
          "type": "uint256[51]"
        }
      ],
      "name": "getMin",
      "outputs": [
        {
          "internalType": "uint256",
          "name": "min",
          "type": "uint256"
        },
        {
          "internalType": "uint256",
          "name": "minIndex",
          "type": "uint256"
        }
      ],
      "stateMutability": "pure",
      "type": "function"
    }
  ],
  "bytecode": "0x608060405234801561001057600080fd5b506104db806100206000396000f3fe608060405234801561001057600080fd5b50600436106100415760003560e01c806399830e3214610046578063c87a336d14610118578063f29e5e9a1461019a575b600080fd5b6100ab600480360361066081101561005d57600080fd5b810190808061066001906033806020026040519081016040528092919082603360200280828437600081840152601f19601f820116905080830192505050505050919291929050505061021c565b6040518083600560200280838360005b838110156100d65780820151818401526020810190506100bb565b5050505090500182600560200280838360005b838110156101045780820151818401526020810190506100e9565b505050509050019250505060405180910390f35b61017d600480360361066081101561012f57600080fd5b810190808061066001906033806020026040519081016040528092919082603360200280828437600081840152601f19601f82011690508083019250505050505091929192905050506103a4565b604051808381526020018281526020019250505060405180910390f35b6101ff60048036036106608110156101b157600080fd5b810190808061066001906033806020026040519081016040528092919082603360200280828437600081840152601f19601f8201169050808301925050505050509192919290505050610410565b604051808381526020018281526020019250505060405180910390f35b610224610483565b61022c610483565b60008360016033811061023b57fe5b602002015190506000805b60058110156102cd5785600182016033811061025e57fe5b602002015185826005811061026f57fe5b6020020181815250506001810184826005811061028857fe5b6020020181815250508285826005811061029e57fe5b602002015110156102c0578481600581106102b557fe5b602002015192508091505b8080600101915050610246565b506000600690505b603381101561039c57828682603381106102eb57fe5b6020020151111561038f5785816033811061030257fe5b602002015185836005811061031357fe5b6020020181815250508084836005811061032957fe5b60200201818152505085816033811061033e57fe5b6020020151925060005b600581101561038d578386826005811061035e57fe5b602002015110156103805785816005811061037557fe5b602002015193508092505b8080600101915050610348565b505b80806001019150506102d5565b505050915091565b600080600190508281603381106103b757fe5b602002015191506000600290505b603381101561040a57828482603381106103db57fe5b602002015111156103fd578381603381106103f257fe5b602002015192508091505b80806001019150506103c5565b50915091565b6000806001603303905082816033811061042657fe5b602002015191506000600260330390505b600081111561047d578284826033811061044d57fe5b6020020151101561046f5783816033811061046457fe5b602002015192508091505b808060019003915050610437565b50915091565b6040518060a0016040528060059060208202803683378082019150509050509056fea26469706673582212201e3093a209d832c1fc7814b91e95b4f25775b860781a2b7d81ab35318ceaedca64736f6c63430007040033",
  "linkReferences": {},
  "deployedLinkReferences": {}
}