{
  "_format": "hh-sol-artifact-1",
  "contractName": "TellorVariables",
  "sourceName": "contracts/TellorVariables.sol",
  "abi": [
    {
      "inputs": [],
      "name": "_owner",
      "outputs": [
        {
          "internalType": "bytes32",
          "name": "",
          "type": "bytes32"
        }
      ],
      "stateMutability": "view",
      "type": "function"
    },
    {
      "inputs": [],
      "name": "_tBlock",
      "outputs": [
        {
          "internalType": "bytes32",
          "name": "",
          "type": "bytes32"
        }
      ],
      "stateMutability": "view",
      "type": "function"
    },
    {
      "inputs": [],
      "name": "currentChallenge",
      "outputs": [
        {
          "internalType": "bytes32",
          "name": "",
          "type": "bytes32"
        }
      ],
      "stateMutability": "view",
      "type": "function"
    },
    {
      "inputs": [],
      "name": "currentRequestId",
      "outputs": [
        {
          "internalType": "bytes32",
          "name": "",
          "type": "bytes32"
        }
      ],
      "stateMutability": "view",
      "type": "function"
    },
    {
      "inputs": [],
      "name": "currentTotalTips",
      "outputs": [
        {
          "internalType": "bytes32",
          "name": "",
          "type": "bytes32"
        }
      ],
      "stateMutability": "view",
      "type": "function"
    },
    {
      "inputs": [],
      "name": "difficulty",
      "outputs": [
        {
          "internalType": "bytes32",
          "name": "",
          "type": "bytes32"
        }
      ],
      "stateMutability": "view",
      "type": "function"
    },
    {
      "inputs": [],
      "name": "pending_owner",
      "outputs": [
        {
          "internalType": "bytes32",
          "name": "",
          "type": "bytes32"
        }
      ],
      "stateMutability": "view",
      "type": "function"
    },
    {
      "inputs": [],
      "name": "requestCount",
      "outputs": [
        {
          "internalType": "bytes32",
          "name": "",
          "type": "bytes32"
        }
      ],
      "stateMutability": "view",
      "type": "function"
    },
    {
      "inputs": [],
      "name": "requestQPosition",
      "outputs": [
        {
          "internalType": "bytes32",
          "name": "",
          "type": "bytes32"
        }
      ],
      "stateMutability": "view",
      "type": "function"
    },
    {
      "inputs": [],
      "name": "slotProgress",
      "outputs": [
        {
          "internalType": "bytes32",
          "name": "",
          "type": "bytes32"
        }
      ],
      "stateMutability": "view",
      "type": "function"
    },
    {
      "inputs": [],
      "name": "timeOfLastNewValue",
      "outputs": [
        {
          "internalType": "bytes32",
          "name": "",
          "type": "bytes32"
        }
      ],
      "stateMutability": "view",
      "type": "function"
    },
    {
      "inputs": [],
      "name": "timeTarget",
      "outputs": [
        {
          "internalType": "bytes32",
          "name": "",
          "type": "bytes32"
        }
      ],
      "stateMutability": "view",
      "type": "function"
    },
    {
      "inputs": [],
      "name": "totalTip",
      "outputs": [
        {
          "internalType": "bytes32",
          "name": "",
          "type": "bytes32"
        }
      ],
      "stateMutability": "view",
      "type": "function"
    },
    {
      "inputs": [],
      "name": "total_supply",
      "outputs": [
        {
          "internalType": "bytes32",
          "name": "",
          "type": "bytes32"
        }
      ],
      "stateMutability": "view",
      "type": "function"
    }
  ],
  "bytecode": "0x608060405234801561001057600080fd5b506104e8806100206000396000f3fe608060405234801561001057600080fd5b50600436106100ea5760003560e01c80635badbe4c1161008c5780636fd4f229116100665780636fd4f2291461021b57806375ad1a2a146102395780637f4ec4c314610257578063b2bdfa7b14610275576100ea565b80635badbe4c146101c15780636e3cf885146101df5780636fc37811146101fd576100ea565b80633940e9ee116100c85780633940e9ee1461014957806351bdd58514610167578063561cb04a146101855780635ae2bfdb146101a3576100ea565b806303b3160f146100ef57806319cae4621461010d5780632bf07e9e1461012b575b600080fd5b6100f7610293565b6040518082815260200191505060405180910390f35b6101156102ba565b6040518082815260200191505060405180910390f35b6101336102e1565b6040518082815260200191505060405180910390f35b610151610308565b6040518082815260200191505060405180910390f35b61016f61032f565b6040518082815260200191505060405180910390f35b61018d610353565b6040518082815260200191505060405180910390f35b6101ab61037a565b6040518082815260200191505060405180910390f35b6101c96103a1565b6040518082815260200191505060405180910390f35b6101e76103c8565b6040518082815260200191505060405180910390f35b6102056103ef565b6040518082815260200191505060405180910390f35b610223610416565b6040518082815260200191505060405180910390f35b61024161043d565b6040518082815260200191505060405180910390f35b61025f610464565b6040518082815260200191505060405180910390f35b61027d61048b565b6040518082815260200191505060405180910390f35b7f6c505cb2db6644f57b42d87bd9407b0f66788b07d0617a2bc1356a0e69e66f9a60001b81565b7fb12aff7664b16cb99339be399b863feecd64d14817be7e1f042f97e3f358e64e60001b81565b7f1e344bd070f05f1c5b3f0b1266f4f20d837a0a8190a3a2da8b0375eac2ba86ea60001b81565b7fb1557182e4359a1f0c6301278e8f5b35a776ab58d39892581e357578fb28783660001b81565b7f3375fb9157bb77048f607329b1c4d45487433f61e0f51bcdeba91d975b2dab1881565b7f2a9e355a92978430eca9c1aa3a9ba590094bac282594bccf82de16b83046e2c360001b81565b7f7584d7d8701714da9c117f5bf30af73b0b88aca5338a84a21eb28de2fe0d93b860001b81565b7f05de9147d05477c0a5dc675aeea733157f5092f82add148cf39d579cafe3dc9860001b81565b7f969ea04b74d02bb4d9e6e8e57236e1b9ca31627139ae9f0e465249932e82450260001b81565b7fad16221efc80aaf1b7e69bd3ecb61ba5ffa539adf129c3b4ffff769c9b5bbc3360001b81565b7f97e6eb29f6a85471f7cc9b57f9e4c3deaf398cfc9798673160d7798baf0b13a460001b81565b7fd26d9834adf5a73309c4974bf654850bb699df8505e70d4cfde365c417b19dfc60001b81565b7f44b2657a0f8a90ed8e62f4c4cceca06eacaa9b4b25751ae1ebca9280a70abd6860001b81565b7f9dbc393ddc18fd27b1d9b1b129059925688d2f2d5818a5ec3ebb750b7c286ea660001b8156fea264697066735822122094ec966bb049833b6a9962b8f337a8d5a34e8ebfc673a10b7c6b61c2e5d752f364736f6c63430007040033",
  "linkReferences": {},
  "deployedLinkReferences": {}
}