{
  "_format": "hh-sol-artifact-1",
  "contractName": "TellorMaster",
  "sourceName": "contracts/TellorMaster.sol",
  "abi": [
    {
      "inputs": [
        {
          "internalType": "address",
          "name": "_tellorContract",
          "type": "address"
        }
      ],
      "stateMutability": "nonpayable",
      "type": "constructor"
    },
    {
      "anonymous": false,
      "inputs": [
        {
          "indexed": false,
          "internalType": "address",
          "name": "_newTellor",
          "type": "address"
        }
      ],
      "name": "NewTellorAddress",
      "type": "event"
    },
    {
      "stateMutability": "payable",
      "type": "fallback"
    },
    {
      "inputs": [
        {
          "internalType": "address",
          "name": "",
          "type": "address"
        },
        {
          "internalType": "address",
          "name": "",
          "type": "address"
        }
      ],
      "name": "_allowances",
      "outputs": [
        {
          "internalType": "uint256",
          "name": "",
          "type": "uint256"
        }
      ],
      "stateMutability": "view",
      "type": "function"
    },
    {
      "inputs": [
        {
          "internalType": "bytes32",
          "name": "",
          "type": "bytes32"
        }
      ],
      "name": "addresses",
      "outputs": [
        {
          "internalType": "address",
          "name": "",
          "type": "address"
        }
      ],
      "stateMutability": "view",
      "type": "function"
    },
    {
      "inputs": [
        {
          "internalType": "bytes32",
          "name": "",
          "type": "bytes32"
        }
      ],
      "name": "bytesVars",
      "outputs": [
        {
          "internalType": "bytes32",
          "name": "",
          "type": "bytes32"
        }
      ],
      "stateMutability": "view",
      "type": "function"
    },
    {
      "inputs": [
        {
          "internalType": "address",
          "name": "_newDeity",
          "type": "address"
        }
      ],
      "name": "changeDeity",
      "outputs": [],
      "stateMutability": "nonpayable",
      "type": "function"
    },
    {
      "inputs": [
        {
          "internalType": "address",
          "name": "_newOwner",
          "type": "address"
        }
      ],
      "name": "changeOwner",
      "outputs": [],
      "stateMutability": "nonpayable",
      "type": "function"
    },
    {
      "inputs": [
        {
          "internalType": "address",
          "name": "_tellorContract",
          "type": "address"
        }
      ],
      "name": "changeTellorContract",
      "outputs": [],
      "stateMutability": "nonpayable",
      "type": "function"
    },
    {
      "inputs": [
        {
          "internalType": "address",
          "name": "_tellorStake",
          "type": "address"
        }
      ],
      "name": "changeTellorStake",
      "outputs": [],
      "stateMutability": "nonpayable",
      "type": "function"
    },
    {
      "inputs": [
        {
          "internalType": "bytes32",
          "name": "",
          "type": "bytes32"
        }
      ],
      "name": "uints",
      "outputs": [
        {
          "internalType": "uint256",
          "name": "",
          "type": "uint256"
        }
      ],
      "stateMutability": "view",
      "type": "function"
    }
  ],
  "bytecode": "0x608060405234801561001057600080fd5b50604051610a8b380380610a8b8339818101604052602081101561003357600080fd5b810190808051906020019092919050505033604860007f9dbc393ddc18fd27b1d9b1b129059925688d2f2d5818a5ec3ebb750b7c286ea6815260200190815260200160002060006101000a81548173ffffffffffffffffffffffffffffffffffffffff021916908373ffffffffffffffffffffffffffffffffffffffff16021790555033604860007fc72fb71df90ec89e61e8dea6fee5142880a8a329caaae9ff4931955d88f59990815260200190815260200160002060006101000a81548173ffffffffffffffffffffffffffffffffffffffff021916908373ffffffffffffffffffffffffffffffffffffffff16021790555080604860007fd48fd09afdab521f4f69bd2af8177f60fb0709ce0f1b3d5b8a2e233a20453848815260200190815260200160002060006101000a81548173ffffffffffffffffffffffffffffffffffffffff021916908373ffffffffffffffffffffffffffffffffffffffff1602179055507fc2d1449eb0b6547aa426e09d9942a77fa4fc8cd3296305b3163e22452e0bcb8d81604051808273ffffffffffffffffffffffffffffffffffffffff16815260200191505060405180910390a150610894806101f76000396000f3fe60806040526004361061007f5760003560e01c80638e7ab7261161004e5780638e7ab7261461026e578063a6f9dae1146102bf578063ae0a827914610310578063b59e14d41461036157610080565b8063024c2ddd146100e457806347abd7f11461016957806362dd1d2a146101ba578063699f200f1461020957610080565b5b6000604860007fd48fd09afdab521f4f69bd2af8177f60fb0709ce0f1b3d5b8a2e233a20453848815260200190815260200160002060009054906101000a900473ffffffffffffffffffffffffffffffffffffffff1690506100e1816103b0565b50005b3480156100f057600080fd5b506101536004803603604081101561010757600080fd5b81019080803573ffffffffffffffffffffffffffffffffffffffff169060200190929190803573ffffffffffffffffffffffffffffffffffffffff1690602001909291905050506103d6565b6040518082815260200191505060405180910390f35b34801561017557600080fd5b506101b86004803603602081101561018c57600080fd5b81019080803573ffffffffffffffffffffffffffffffffffffffff1690602001909291905050506103fb565b005b3480156101c657600080fd5b506101f3600480360360208110156101dd57600080fd5b81019080803590602001909291905050506104fb565b6040518082815260200191505060405180910390f35b34801561021557600080fd5b506102426004803603602081101561022c57600080fd5b8101908080359060200190929190505050610513565b604051808273ffffffffffffffffffffffffffffffffffffffff16815260200191505060405180910390f35b34801561027a57600080fd5b506102bd6004803603602081101561029157600080fd5b81019080803573ffffffffffffffffffffffffffffffffffffffff169060200190929190505050610546565b005b3480156102cb57600080fd5b5061030e600480360360208110156102e257600080fd5b81019080803573ffffffffffffffffffffffffffffffffffffffff169060200190929190505050610646565b005b34801561031c57600080fd5b5061035f6004803603602081101561033357600080fd5b81019080803573ffffffffffffffffffffffffffffffffffffffff169060200190929190505050610746565b005b34801561036d57600080fd5b5061039a6004803603602081101561038457600080fd5b8101908080359060200190929190505050610846565b6040518082815260200191505060405180910390f35b3660008037600080366000845af43d6000803e80600081146103d1573d6000f35b3d6000fd5b604b602052816000526040600020602052806000526040600020600091509150505481565b604860007fc72fb71df90ec89e61e8dea6fee5142880a8a329caaae9ff4931955d88f59990815260200190815260200160002060009054906101000a900473ffffffffffffffffffffffffffffffffffffffff1673ffffffffffffffffffffffffffffffffffffffff163373ffffffffffffffffffffffffffffffffffffffff161461048657600080fd5b80604860007fc72fb71df90ec89e61e8dea6fee5142880a8a329caaae9ff4931955d88f59990815260200190815260200160002060006101000a81548173ffffffffffffffffffffffffffffffffffffffff021916908373ffffffffffffffffffffffffffffffffffffffff16021790555050565b60496020528060005260406000206000915090505481565b60486020528060005260406000206000915054906101000a900473ffffffffffffffffffffffffffffffffffffffff1681565b604860007fc72fb71df90ec89e61e8dea6fee5142880a8a329caaae9ff4931955d88f59990815260200190815260200160002060009054906101000a900473ffffffffffffffffffffffffffffffffffffffff1673ffffffffffffffffffffffffffffffffffffffff163373ffffffffffffffffffffffffffffffffffffffff16146105d157600080fd5b80604860007f363c1ee4df63e032778cbd72a9384a4e47c584b4eea56f22e4580fced3369273815260200190815260200160002060006101000a81548173ffffffffffffffffffffffffffffffffffffffff021916908373ffffffffffffffffffffffffffffffffffffffff16021790555050565b604860007f9dbc393ddc18fd27b1d9b1b129059925688d2f2d5818a5ec3ebb750b7c286ea6815260200190815260200160002060009054906101000a900473ffffffffffffffffffffffffffffffffffffffff1673ffffffffffffffffffffffffffffffffffffffff163373ffffffffffffffffffffffffffffffffffffffff16146106d157600080fd5b80604860007f9dbc393ddc18fd27b1d9b1b129059925688d2f2d5818a5ec3ebb750b7c286ea6815260200190815260200160002060006101000a81548173ffffffffffffffffffffffffffffffffffffffff021916908373ffffffffffffffffffffffffffffffffffffffff16021790555050565b604860007fc72fb71df90ec89e61e8dea6fee5142880a8a329caaae9ff4931955d88f59990815260200190815260200160002060009054906101000a900473ffffffffffffffffffffffffffffffffffffffff1673ffffffffffffffffffffffffffffffffffffffff163373ffffffffffffffffffffffffffffffffffffffff16146107d157600080fd5b80604860007fd48fd09afdab521f4f69bd2af8177f60fb0709ce0f1b3d5b8a2e233a20453848815260200190815260200160002060006101000a81548173ffffffffffffffffffffffffffffffffffffffff021916908373ffffffffffffffffffffffffffffffffffffffff16021790555050565b6047602052806000526040600020600091509050548156fea26469706673582212204d489270a771b3b1489642bd7b1bf9ef397af0c5661faa3e2cba4ff5b562f0a464736f6c63430007040033",
  "linkReferences": {},
  "deployedLinkReferences": {}
}