{
  "_format": "hh-sol-artifact-1",
  "contractName": "TellorMaster",
  "sourceName": "contracts/TellorMaster.sol",
  "abi": [
    {
      "inputs": [
        {
          "internalType": "address",
          "name": "_tellorContract",
          "type": "address"
        }
      ],
      "stateMutability": "nonpayable",
      "type": "constructor"
    },
    {
      "anonymous": false,
      "inputs": [
        {
          "indexed": false,
          "internalType": "address",
          "name": "_newTellor",
          "type": "address"
        }
      ],
      "name": "NewTellorAddress",
      "type": "event"
    },
    {
      "stateMutability": "payable",
      "type": "fallback"
    },
    {
      "inputs": [
        {
          "internalType": "address",
          "name": "",
          "type": "address"
        },
        {
          "internalType": "address",
          "name": "",
          "type": "address"
        }
      ],
      "name": "_allowances",
      "outputs": [
        {
          "internalType": "uint256",
          "name": "",
          "type": "uint256"
        }
      ],
      "stateMutability": "view",
      "type": "function"
    },
    {
      "inputs": [],
      "name": "_owner",
      "outputs": [
        {
          "internalType": "bytes32",
          "name": "",
          "type": "bytes32"
        }
      ],
      "stateMutability": "view",
      "type": "function"
    },
    {
      "inputs": [],
      "name": "_tBlock",
      "outputs": [
        {
          "internalType": "bytes32",
          "name": "",
          "type": "bytes32"
        }
      ],
      "stateMutability": "view",
      "type": "function"
    },
    {
      "inputs": [
        {
          "internalType": "bytes32",
          "name": "",
          "type": "bytes32"
        }
      ],
      "name": "addresses",
      "outputs": [
        {
          "internalType": "address",
          "name": "",
          "type": "address"
        }
      ],
      "stateMutability": "view",
      "type": "function"
    },
    {
      "inputs": [
        {
          "internalType": "bytes32",
          "name": "",
          "type": "bytes32"
        }
      ],
      "name": "bytesVars",
      "outputs": [
        {
          "internalType": "bytes32",
          "name": "",
          "type": "bytes32"
        }
      ],
      "stateMutability": "view",
      "type": "function"
    },
    {
      "inputs": [
        {
          "internalType": "address",
          "name": "_newDeity",
          "type": "address"
        }
      ],
      "name": "changeDeity",
      "outputs": [],
      "stateMutability": "nonpayable",
      "type": "function"
    },
    {
      "inputs": [
        {
          "internalType": "address",
          "name": "_newOwner",
          "type": "address"
        }
      ],
      "name": "changeOwner",
      "outputs": [],
      "stateMutability": "nonpayable",
      "type": "function"
    },
    {
      "inputs": [
        {
          "internalType": "address",
          "name": "_tellorContract",
          "type": "address"
        }
      ],
      "name": "changeTellorContract",
      "outputs": [],
      "stateMutability": "nonpayable",
      "type": "function"
    },
    {
      "inputs": [
        {
          "internalType": "address",
          "name": "_tellorStake",
          "type": "address"
        }
      ],
      "name": "changeTellorStake",
      "outputs": [],
      "stateMutability": "nonpayable",
      "type": "function"
    },
    {
      "inputs": [],
      "name": "currentChallenge",
      "outputs": [
        {
          "internalType": "bytes32",
          "name": "",
          "type": "bytes32"
        }
      ],
      "stateMutability": "view",
      "type": "function"
    },
    {
      "inputs": [],
      "name": "currentRequestId",
      "outputs": [
        {
          "internalType": "bytes32",
          "name": "",
          "type": "bytes32"
        }
      ],
      "stateMutability": "view",
      "type": "function"
    },
    {
      "inputs": [],
      "name": "currentTotalTips",
      "outputs": [
        {
          "internalType": "bytes32",
          "name": "",
          "type": "bytes32"
        }
      ],
      "stateMutability": "view",
      "type": "function"
    },
    {
      "inputs": [],
      "name": "difficulty",
      "outputs": [
        {
          "internalType": "bytes32",
          "name": "",
          "type": "bytes32"
        }
      ],
      "stateMutability": "view",
      "type": "function"
    },
    {
      "inputs": [],
      "name": "disputeFee",
      "outputs": [
        {
          "internalType": "bytes32",
          "name": "",
          "type": "bytes32"
        }
      ],
      "stateMutability": "view",
      "type": "function"
    },
    {
      "inputs": [],
      "name": "pending_owner",
      "outputs": [
        {
          "internalType": "bytes32",
          "name": "",
          "type": "bytes32"
        }
      ],
      "stateMutability": "view",
      "type": "function"
    },
    {
      "inputs": [],
      "name": "requestCount",
      "outputs": [
        {
          "internalType": "bytes32",
          "name": "",
          "type": "bytes32"
        }
      ],
      "stateMutability": "view",
      "type": "function"
    },
    {
      "inputs": [],
      "name": "requestQPosition",
      "outputs": [
        {
          "internalType": "bytes32",
          "name": "",
          "type": "bytes32"
        }
      ],
      "stateMutability": "view",
      "type": "function"
    },
    {
      "inputs": [],
      "name": "slotProgress",
      "outputs": [
        {
          "internalType": "bytes32",
          "name": "",
          "type": "bytes32"
        }
      ],
      "stateMutability": "view",
      "type": "function"
    },
    {
      "inputs": [],
      "name": "stakeAmount",
      "outputs": [
        {
          "internalType": "bytes32",
          "name": "",
          "type": "bytes32"
        }
      ],
      "stateMutability": "view",
      "type": "function"
    },
    {
      "inputs": [],
      "name": "stakerCount",
      "outputs": [
        {
          "internalType": "bytes32",
          "name": "",
          "type": "bytes32"
        }
      ],
      "stateMutability": "view",
      "type": "function"
    },
    {
      "inputs": [],
      "name": "targetMiners",
      "outputs": [
        {
          "internalType": "bytes32",
          "name": "",
          "type": "bytes32"
        }
      ],
      "stateMutability": "view",
      "type": "function"
    },
    {
      "inputs": [],
      "name": "timeOfLastNewValue",
      "outputs": [
        {
          "internalType": "bytes32",
          "name": "",
          "type": "bytes32"
        }
      ],
      "stateMutability": "view",
      "type": "function"
    },
    {
      "inputs": [],
      "name": "timeTarget",
      "outputs": [
        {
          "internalType": "bytes32",
          "name": "",
          "type": "bytes32"
        }
      ],
      "stateMutability": "view",
      "type": "function"
    },
    {
      "inputs": [],
      "name": "totalTip",
      "outputs": [
        {
          "internalType": "bytes32",
          "name": "",
          "type": "bytes32"
        }
      ],
      "stateMutability": "view",
      "type": "function"
    },
    {
      "inputs": [],
      "name": "total_supply",
      "outputs": [
        {
          "internalType": "bytes32",
          "name": "",
          "type": "bytes32"
        }
      ],
      "stateMutability": "view",
      "type": "function"
    },
    {
      "inputs": [
        {
          "internalType": "bytes32",
          "name": "",
          "type": "bytes32"
        }
      ],
      "name": "uints",
      "outputs": [
        {
          "internalType": "uint256",
          "name": "",
          "type": "uint256"
        }
      ],
      "stateMutability": "view",
      "type": "function"
    }
  ],
  "bytecode": "0x608060405234801561001057600080fd5b506040516113d13803806113d18339818101604052602081101561003357600080fd5b810190808051906020019092919050505033604760007f9dbc393ddc18fd27b1d9b1b129059925688d2f2d5818a5ec3ebb750b7c286ea6815260200190815260200160002060006101000a81548173ffffffffffffffffffffffffffffffffffffffff021916908373ffffffffffffffffffffffffffffffffffffffff16021790555033604760007fc72fb71df90ec89e61e8dea6fee5142880a8a329caaae9ff4931955d88f59990815260200190815260200160002060006101000a81548173ffffffffffffffffffffffffffffffffffffffff021916908373ffffffffffffffffffffffffffffffffffffffff16021790555080604760007fd48fd09afdab521f4f69bd2af8177f60fb0709ce0f1b3d5b8a2e233a20453848815260200190815260200160002060006101000a81548173ffffffffffffffffffffffffffffffffffffffff021916908373ffffffffffffffffffffffffffffffffffffffff16021790555062989680604660007fb12aff7664b16cb99339be399b863feecd64d14817be7e1f042f97e3f358e64e60001b81526020019081526020016000208190555060f0604660007fad16221efc80aaf1b7e69bd3ecb61ba5ffa539adf129c3b4ffff769c9b5bbc3360001b81526020019081526020016000208190555060c8604660007fabef544d8048318ece54fb2c6385255cd1b06e176525d149a0338a7acca6deb38152602001908152602001600020819055506802b5e3af16b1880000604660007f8b75eb45d88e80f0e4ec77d23936268694c0e7ac2e0c9085c5c6bdfcfbc49239815260200190815260200160002081905550681b1ae4d6e2ef500000604660007f7be108969d31a3f0b261465c71f2b0ba9301cd914d55d9091c3b36a49d4d41b260001b81526020019081526020016000208190555060f04203604660007f97e6eb29f6a85471f7cc9b57f9e4c3deaf398cfc9798673160d7798baf0b13a460001b8152602001908152602001600020819055506000603a60006005811061032057fe5b60020201600001819055506001603a60016005811061033b57fe5b60020201600001819055506002603a60026005811061035657fe5b60020201600001819055506003603a60036005811061037157fe5b60020201600001819055506004603a60046005811061038c57fe5b60020201600001819055506000600190505b6032811015610421576000604560008381526020019081526020016000209050818160010160007f1e344bd070f05f1c5b3f0b1266f4f20d837a0a8190a3a2da8b0375eac2ba86ea60001b81526020019081526020016000208190555081603560008481526020019081526020016000208190555050808060010191505061039e565b507fc2d1449eb0b6547aa426e09d9942a77fa4fc8cd3296305b3163e22452e0bcb8d81604051808273ffffffffffffffffffffffffffffffffffffffff16815260200191505060405180910390a150610f528061047f6000396000f3fe6080604052600436106101855760003560e01c80636e3cf885116100d1578063a6f9dae11161008a578063b59e14d411610064578063b59e14d4146106ec578063b9ce896b1461073b578063dfee1ff114610766578063dff697871461079157610186565b8063a6f9dae11461061f578063ae0a827914610670578063b2bdfa7b146106c157610186565b80636e3cf885146104f75780636fc37811146105225780636fd4f2291461054d57806375ad1a2a146105785780637f4ec4c3146105a35780638e7ab726146105ce57610186565b806351bdd5851161013e5780635badbe4c116101185780635badbe4c146103ed57806360c7dc471461041857806362dd1d2a14610443578063699f200f1461049257610186565b806351bdd5851461036c578063561cb04a146103975780635ae2bfdb146103c257610186565b8063024c2ddd146101ea57806303b3160f1461026f57806319cae4621461029a5780632bf07e9e146102c55780633940e9ee146102f057806347abd7f11461031b57610186565b5b6000604760007fd48fd09afdab521f4f69bd2af8177f60fb0709ce0f1b3d5b8a2e233a20453848815260200190815260200160002060009054906101000a900473ffffffffffffffffffffffffffffffffffffffff1690506101e7816107bc565b50005b3480156101f657600080fd5b506102596004803603604081101561020d57600080fd5b81019080803573ffffffffffffffffffffffffffffffffffffffff169060200190929190803573ffffffffffffffffffffffffffffffffffffffff1690602001909291905050506107e2565b6040518082815260200191505060405180910390f35b34801561027b57600080fd5b50610284610807565b6040518082815260200191505060405180910390f35b3480156102a657600080fd5b506102af61082e565b6040518082815260200191505060405180910390f35b3480156102d157600080fd5b506102da610855565b6040518082815260200191505060405180910390f35b3480156102fc57600080fd5b5061030561087c565b6040518082815260200191505060405180910390f35b34801561032757600080fd5b5061036a6004803603602081101561033e57600080fd5b81019080803573ffffffffffffffffffffffffffffffffffffffff1690602001909291905050506108a3565b005b34801561037857600080fd5b506103816109a3565b6040518082815260200191505060405180910390f35b3480156103a357600080fd5b506103ac6109c7565b6040518082815260200191505060405180910390f35b3480156103ce57600080fd5b506103d76109ee565b6040518082815260200191505060405180910390f35b3480156103f957600080fd5b50610402610a15565b6040518082815260200191505060405180910390f35b34801561042457600080fd5b5061042d610a3c565b6040518082815260200191505060405180910390f35b34801561044f57600080fd5b5061047c6004803603602081101561046657600080fd5b8101908080359060200190929190505050610a63565b6040518082815260200191505060405180910390f35b34801561049e57600080fd5b506104cb600480360360208110156104b557600080fd5b8101908080359060200190929190505050610a7b565b604051808273ffffffffffffffffffffffffffffffffffffffff16815260200191505060405180910390f35b34801561050357600080fd5b5061050c610aae565b6040518082815260200191505060405180910390f35b34801561052e57600080fd5b50610537610ad5565b6040518082815260200191505060405180910390f35b34801561055957600080fd5b50610562610afc565b6040518082815260200191505060405180910390f35b34801561058457600080fd5b5061058d610b23565b6040518082815260200191505060405180910390f35b3480156105af57600080fd5b506105b8610b4a565b6040518082815260200191505060405180910390f35b3480156105da57600080fd5b5061061d600480360360208110156105f157600080fd5b81019080803573ffffffffffffffffffffffffffffffffffffffff169060200190929190505050610b71565b005b34801561062b57600080fd5b5061066e6004803603602081101561064257600080fd5b81019080803573ffffffffffffffffffffffffffffffffffffffff169060200190929190505050610c71565b005b34801561067c57600080fd5b506106bf6004803603602081101561069357600080fd5b81019080803573ffffffffffffffffffffffffffffffffffffffff169060200190929190505050610d71565b005b3480156106cd57600080fd5b506106d6610e71565b6040518082815260200191505060405180910390f35b3480156106f857600080fd5b506107256004803603602081101561070f57600080fd5b8101908080359060200190929190505050610e98565b6040518082815260200191505060405180910390f35b34801561074757600080fd5b50610750610eb0565b6040518082815260200191505060405180910390f35b34801561077257600080fd5b5061077b610ed4565b6040518082815260200191505060405180910390f35b34801561079d57600080fd5b506107a6610ef8565b6040518082815260200191505060405180910390f35b3660008037600080366000845af43d6000803e80600081146107dd573d6000f35b3d6000fd5b604a602052816000526040600020602052806000526040600020600091509150505481565b7f6c505cb2db6644f57b42d87bd9407b0f66788b07d0617a2bc1356a0e69e66f9a60001b81565b7fb12aff7664b16cb99339be399b863feecd64d14817be7e1f042f97e3f358e64e60001b81565b7f1e344bd070f05f1c5b3f0b1266f4f20d837a0a8190a3a2da8b0375eac2ba86ea60001b81565b7fb1557182e4359a1f0c6301278e8f5b35a776ab58d39892581e357578fb28783660001b81565b604760007fc72fb71df90ec89e61e8dea6fee5142880a8a329caaae9ff4931955d88f59990815260200190815260200160002060009054906101000a900473ffffffffffffffffffffffffffffffffffffffff1673ffffffffffffffffffffffffffffffffffffffff163373ffffffffffffffffffffffffffffffffffffffff161461092e57600080fd5b80604760007fc72fb71df90ec89e61e8dea6fee5142880a8a329caaae9ff4931955d88f59990815260200190815260200160002060006101000a81548173ffffffffffffffffffffffffffffffffffffffff021916908373ffffffffffffffffffffffffffffffffffffffff16021790555050565b7f3375fb9157bb77048f607329b1c4d45487433f61e0f51bcdeba91d975b2dab1881565b7f2a9e355a92978430eca9c1aa3a9ba590094bac282594bccf82de16b83046e2c360001b81565b7f7584d7d8701714da9c117f5bf30af73b0b88aca5338a84a21eb28de2fe0d93b860001b81565b7f05de9147d05477c0a5dc675aeea733157f5092f82add148cf39d579cafe3dc9860001b81565b7f7be108969d31a3f0b261465c71f2b0ba9301cd914d55d9091c3b36a49d4d41b260001b81565b60486020528060005260406000206000915090505481565b60476020528060005260406000206000915054906101000a900473ffffffffffffffffffffffffffffffffffffffff1681565b7f969ea04b74d02bb4d9e6e8e57236e1b9ca31627139ae9f0e465249932e82450260001b81565b7fad16221efc80aaf1b7e69bd3ecb61ba5ffa539adf129c3b4ffff769c9b5bbc3360001b81565b7f97e6eb29f6a85471f7cc9b57f9e4c3deaf398cfc9798673160d7798baf0b13a460001b81565b7fd26d9834adf5a73309c4974bf654850bb699df8505e70d4cfde365c417b19dfc60001b81565b7f44b2657a0f8a90ed8e62f4c4cceca06eacaa9b4b25751ae1ebca9280a70abd6860001b81565b604760007fc72fb71df90ec89e61e8dea6fee5142880a8a329caaae9ff4931955d88f59990815260200190815260200160002060009054906101000a900473ffffffffffffffffffffffffffffffffffffffff1673ffffffffffffffffffffffffffffffffffffffff163373ffffffffffffffffffffffffffffffffffffffff1614610bfc57600080fd5b80604760007f363c1ee4df63e032778cbd72a9384a4e47c584b4eea56f22e4580fced3369273815260200190815260200160002060006101000a81548173ffffffffffffffffffffffffffffffffffffffff021916908373ffffffffffffffffffffffffffffffffffffffff16021790555050565b604760007f9dbc393ddc18fd27b1d9b1b129059925688d2f2d5818a5ec3ebb750b7c286ea6815260200190815260200160002060009054906101000a900473ffffffffffffffffffffffffffffffffffffffff1673ffffffffffffffffffffffffffffffffffffffff163373ffffffffffffffffffffffffffffffffffffffff1614610cfc57600080fd5b80604760007f9dbc393ddc18fd27b1d9b1b129059925688d2f2d5818a5ec3ebb750b7c286ea6815260200190815260200160002060006101000a81548173ffffffffffffffffffffffffffffffffffffffff021916908373ffffffffffffffffffffffffffffffffffffffff16021790555050565b604760007fc72fb71df90ec89e61e8dea6fee5142880a8a329caaae9ff4931955d88f59990815260200190815260200160002060009054906101000a900473ffffffffffffffffffffffffffffffffffffffff1673ffffffffffffffffffffffffffffffffffffffff163373ffffffffffffffffffffffffffffffffffffffff1614610dfc57600080fd5b80604760007fd48fd09afdab521f4f69bd2af8177f60fb0709ce0f1b3d5b8a2e233a20453848815260200190815260200160002060006101000a81548173ffffffffffffffffffffffffffffffffffffffff021916908373ffffffffffffffffffffffffffffffffffffffff16021790555050565b7f9dbc393ddc18fd27b1d9b1b129059925688d2f2d5818a5ec3ebb750b7c286ea660001b81565b60466020528060005260406000206000915090505481565b7f8b75eb45d88e80f0e4ec77d23936268694c0e7ac2e0c9085c5c6bdfcfbc4923981565b7fabef544d8048318ece54fb2c6385255cd1b06e176525d149a0338a7acca6deb381565b7fedddb9344bfe0dadc78c558b8ffca446679cbffc17be64eb83973fce7bea5f348156fea26469706673582212204971b6ee4955a0a5166e8b65b7e1a97a31736afb5d93199ab246683993d55a5e64736f6c63430007040033",
  "linkReferences": {},
  "deployedLinkReferences": {}
}